{
	"contracts/Learn_101_6.sol": {
		"ArrayStructType": {
			"abi": [
				{
					"inputs": [],
					"name": "initParams",
					"outputs": [
						{
							"internalType": "uint256[]",
							"name": "",
							"type": "uint256[]"
						},
						{
							"internalType": "bytes",
							"name": "",
							"type": "bytes"
						},
						{
							"internalType": "uint8",
							"name": "",
							"type": "uint8"
						}
					],
					"stateMutability": "nonpayable",
					"type": "function"
				},
				{
					"inputs": [],
					"name": "initStudent1",
					"outputs": [],
					"stateMutability": "nonpayable",
					"type": "function"
				},
				{
					"inputs": [],
					"name": "initStudent2",
					"outputs": [],
					"stateMutability": "nonpayable",
					"type": "function"
				},
				{
					"inputs": [],
					"name": "initStudent3",
					"outputs": [],
					"stateMutability": "nonpayable",
					"type": "function"
				},
				{
					"inputs": [],
					"name": "initStudent4",
					"outputs": [],
					"stateMutability": "nonpayable",
					"type": "function"
				}
			],
			"devdoc": {
				"kind": "dev",
				"methods": {},
				"version": 1
			},
			"evm": {
				"assembly": "    /* \"contracts/Learn_101_6.sol\":58:1350  contract ArrayStructType {... */\n  mstore(0x40, 0x80)\n  callvalue\n  dup1\n  iszero\n  tag_1\n  jumpi\n  0x00\n  dup1\n  revert\ntag_1:\n  pop\n  dataSize(sub_0)\n  dup1\n  dataOffset(sub_0)\n  0x00\n  codecopy\n  0x00\n  return\nstop\n\nsub_0: assembly {\n        /* \"contracts/Learn_101_6.sol\":58:1350  contract ArrayStructType {... */\n      mstore(0x40, 0x80)\n      callvalue\n      dup1\n      iszero\n      tag_1\n      jumpi\n      0x00\n      dup1\n      revert\n    tag_1:\n      pop\n      jumpi(tag_2, lt(calldatasize, 0x04))\n      shr(0xe0, calldataload(0x00))\n      dup1\n      0x1a8d7dc3\n      eq\n      tag_3\n      jumpi\n      dup1\n      0x5a4236b1\n      eq\n      tag_4\n      jumpi\n      dup1\n      0x9ebb8d20\n      eq\n      tag_5\n      jumpi\n      dup1\n      0xa8b63e6f\n      eq\n      tag_6\n      jumpi\n      dup1\n      0xfb0c8628\n      eq\n      tag_7\n      jumpi\n    tag_2:\n      0x00\n      dup1\n      revert\n        /* \"contracts/Learn_101_6.sol\":1081:1173  function initStudent2() external {... */\n    tag_3:\n      tag_8\n      tag_9\n      jump\t// in\n    tag_8:\n      stop\n        /* \"contracts/Learn_101_6.sol\":1179:1253  function initStudent3() external {... */\n    tag_4:\n      tag_10\n      tag_11\n      jump\t// in\n    tag_10:\n      stop\n        /* \"contracts/Learn_101_6.sol\":1259:1348  function initStudent4() external {... */\n    tag_5:\n      tag_12\n      tag_13\n      jump\t// in\n    tag_12:\n      stop\n        /* \"contracts/Learn_101_6.sol\":935:1075  function initStudent1() external {... */\n    tag_6:\n      tag_14\n      tag_15\n      jump\t// in\n    tag_14:\n      stop\n        /* \"contracts/Learn_101_6.sol\":333:836  function initParams () external returns (uint[] memory, bytes memory, uint8) {... */\n    tag_7:\n      tag_16\n      tag_17\n      jump\t// in\n    tag_16:\n      mload(0x40)\n      tag_18\n      swap4\n      swap3\n      swap2\n      swap1\n      tag_19\n      jump\t// in\n    tag_18:\n      mload(0x40)\n      dup1\n      swap2\n      sub\n      swap1\n      return\n        /* \"contracts/Learn_101_6.sol\":1081:1173  function initStudent2() external {... */\n    tag_9:\n        /* \"contracts/Learn_101_6.sol\":1137:1138  5 */\n      0x05\n        /* \"contracts/Learn_101_6.sol\":1124:1131  student */\n      0x70\n        /* \"contracts/Learn_101_6.sol\":1124:1134  student.id */\n      0x00\n      add\n        /* \"contracts/Learn_101_6.sol\":1124:1138  student.id = 5 */\n      dup2\n      swap1\n      sstore\n      pop\n        /* \"contracts/Learn_101_6.sol\":1164:1166  87 */\n      0x57\n        /* \"contracts/Learn_101_6.sol\":1148:1155  student */\n      0x70\n        /* \"contracts/Learn_101_6.sol\":1148:1161  student.score */\n      0x01\n      add\n        /* \"contracts/Learn_101_6.sol\":1148:1166  student.score = 87 */\n      dup2\n      swap1\n      sstore\n      pop\n        /* \"contracts/Learn_101_6.sol\":1081:1173  function initStudent2() external {... */\n      jump\t// out\n        /* \"contracts/Learn_101_6.sol\":1179:1253  function initStudent3() external {... */\n    tag_11:\n        /* \"contracts/Learn_101_6.sol\":1232:1246  Student(3, 90) */\n      mload(0x40)\n      dup1\n      0x40\n      add\n      0x40\n      mstore\n      dup1\n        /* \"contracts/Learn_101_6.sol\":1240:1241  3 */\n      0x03\n        /* \"contracts/Learn_101_6.sol\":1232:1246  Student(3, 90) */\n      dup2\n      mstore\n      0x20\n      add\n        /* \"contracts/Learn_101_6.sol\":1243:1245  90 */\n      0x5a\n        /* \"contracts/Learn_101_6.sol\":1232:1246  Student(3, 90) */\n      dup2\n      mstore\n      pop\n        /* \"contracts/Learn_101_6.sol\":1222:1229  student */\n      0x70\n        /* \"contracts/Learn_101_6.sol\":1222:1246  student = Student(3, 90) */\n      0x00\n      dup3\n      add\n      mload\n      dup2\n      0x00\n      add\n      sstore\n      0x20\n      dup3\n      add\n      mload\n      dup2\n      0x01\n      add\n      sstore\n      swap1\n      pop\n      pop\n        /* \"contracts/Learn_101_6.sol\":1179:1253  function initStudent3() external {... */\n      jump\t// out\n        /* \"contracts/Learn_101_6.sol\":1259:1348  function initStudent4() external {... */\n    tag_13:\n        /* \"contracts/Learn_101_6.sol\":1312:1341  Student({ id: 4, score: 88 }) */\n      mload(0x40)\n      dup1\n      0x40\n      add\n      0x40\n      mstore\n      dup1\n        /* \"contracts/Learn_101_6.sol\":1326:1327  4 */\n      0x04\n        /* \"contracts/Learn_101_6.sol\":1312:1341  Student({ id: 4, score: 88 }) */\n      dup2\n      mstore\n      0x20\n      add\n        /* \"contracts/Learn_101_6.sol\":1336:1338  88 */\n      0x58\n        /* \"contracts/Learn_101_6.sol\":1312:1341  Student({ id: 4, score: 88 }) */\n      dup2\n      mstore\n      pop\n        /* \"contracts/Learn_101_6.sol\":1302:1309  student */\n      0x70\n        /* \"contracts/Learn_101_6.sol\":1302:1341  student = Student({ id: 4, score: 88 }) */\n      0x00\n      dup3\n      add\n      mload\n      dup2\n      0x00\n      add\n      sstore\n      0x20\n      dup3\n      add\n      mload\n      dup2\n      0x01\n      add\n      sstore\n      swap1\n      pop\n      pop\n        /* \"contracts/Learn_101_6.sol\":1259:1348  function initStudent4() external {... */\n      jump\t// out\n        /* \"contracts/Learn_101_6.sol\":935:1075  function initStudent1() external {... */\n    tag_15:\n        /* \"contracts/Learn_101_6.sol\":978:1002  Student storage _student */\n      0x00\n        /* \"contracts/Learn_101_6.sol\":1005:1012  student */\n      0x70\n        /* \"contracts/Learn_101_6.sol\":978:1012  Student storage _student = student */\n      swap1\n      pop\n        /* \"contracts/Learn_101_6.sol\":1036:1038  11 */\n      0x0b\n        /* \"contracts/Learn_101_6.sol\":1022:1030  _student */\n      dup2\n        /* \"contracts/Learn_101_6.sol\":1022:1033  _student.id */\n      0x00\n      add\n        /* \"contracts/Learn_101_6.sol\":1022:1038  _student.id = 11 */\n      dup2\n      swap1\n      sstore\n      pop\n        /* \"contracts/Learn_101_6.sol\":1065:1068  100 */\n      0x64\n        /* \"contracts/Learn_101_6.sol\":1048:1056  _student */\n      dup2\n        /* \"contracts/Learn_101_6.sol\":1048:1062  _student.score */\n      0x01\n      add\n        /* \"contracts/Learn_101_6.sol\":1048:1068  _student.score = 100 */\n      dup2\n      swap1\n      sstore\n      pop\n        /* \"contracts/Learn_101_6.sol\":968:1075  {... */\n      pop\n        /* \"contracts/Learn_101_6.sol\":935:1075  function initStudent1() external {... */\n      jump\t// out\n        /* \"contracts/Learn_101_6.sol\":333:836  function initParams () external returns (uint[] memory, bytes memory, uint8) {... */\n    tag_17:\n        /* \"contracts/Learn_101_6.sol\":374:387  uint[] memory */\n      0x60\n        /* \"contracts/Learn_101_6.sol\":389:401  bytes memory */\n      dup1\n        /* \"contracts/Learn_101_6.sol\":403:408  uint8 */\n      0x00\n        /* \"contracts/Learn_101_6.sol\":420:455  uint[] memory fixedLenUintMemoryArr */\n      dup1\n        /* \"contracts/Learn_101_6.sol\":469:470  5 */\n      0x05\n        /* \"contracts/Learn_101_6.sol\":458:471  new uint[](5) */\n      0xffffffffffffffff\n      dup2\n      gt\n      iszero\n      tag_25\n      jumpi\n      tag_26\n      tag_27\n      jump\t// in\n    tag_26:\n    tag_25:\n      mload(0x40)\n      swap1\n      dup1\n      dup3\n      mstore\n      dup1\n      0x20\n      mul\n      0x20\n      add\n      dup3\n      add\n      0x40\n      mstore\n      dup1\n      iszero\n      tag_28\n      jumpi\n      dup2\n      0x20\n      add\n      0x20\n      dup3\n      mul\n      dup1\n      calldatasize\n      dup4\n      calldatacopy\n      dup1\n      dup3\n      add\n      swap2\n      pop\n      pop\n      swap1\n      pop\n    tag_28:\n      pop\n        /* \"contracts/Learn_101_6.sol\":420:471  uint[] memory fixedLenUintMemoryArr = new uint[](5) */\n      swap1\n      pop\n        /* \"contracts/Learn_101_6.sol\":481:516  bytes memory fixedLenBytesMemoryArr */\n      0x00\n        /* \"contracts/Learn_101_6.sol\":529:530  9 */\n      0x09\n        /* \"contracts/Learn_101_6.sol\":519:531  new bytes(9) */\n      0xffffffffffffffff\n      dup2\n      gt\n      iszero\n      tag_29\n      jumpi\n      tag_30\n      tag_27\n      jump\t// in\n    tag_30:\n    tag_29:\n      mload(0x40)\n      swap1\n      dup1\n      dup3\n      mstore\n      dup1\n      0x1f\n      add\n      not(0x1f)\n      and\n      0x20\n      add\n      dup3\n      add\n      0x40\n      mstore\n      dup1\n      iszero\n      tag_31\n      jumpi\n      dup2\n      0x20\n      add\n      0x01\n      dup3\n      mul\n      dup1\n      calldatasize\n      dup4\n      calldatacopy\n      dup1\n      dup3\n      add\n      swap2\n      pop\n      pop\n      swap1\n      pop\n    tag_31:\n      pop\n        /* \"contracts/Learn_101_6.sol\":481:531  bytes memory fixedLenBytesMemoryArr = new bytes(9) */\n      swap1\n      pop\n        /* \"contracts/Learn_101_6.sol\":569:572  123 */\n      0x7b\n        /* \"contracts/Learn_101_6.sol\":542:563  fixedLenUintMemoryArr */\n      dup3\n        /* \"contracts/Learn_101_6.sol\":564:565  0 */\n      0x00\n        /* \"contracts/Learn_101_6.sol\":542:566  fixedLenUintMemoryArr[0] */\n      dup2\n      mload\n      dup2\n      lt\n      tag_32\n      jumpi\n      tag_33\n      tag_34\n      jump\t// in\n    tag_33:\n    tag_32:\n      0x20\n      mul\n      0x20\n      add\n      add\n        /* \"contracts/Learn_101_6.sol\":542:572  fixedLenUintMemoryArr[0] = 123 */\n      dup2\n      dup2\n      mstore\n      pop\n      pop\n        /* \"contracts/Learn_101_6.sol\":609:613  5509 */\n      0x1585\n        /* \"contracts/Learn_101_6.sol\":582:603  fixedLenUintMemoryArr */\n      dup3\n        /* \"contracts/Learn_101_6.sol\":604:605  1 */\n      0x01\n        /* \"contracts/Learn_101_6.sol\":582:606  fixedLenUintMemoryArr[1] */\n      dup2\n      mload\n      dup2\n      lt\n      tag_35\n      jumpi\n      tag_36\n      tag_34\n      jump\t// in\n    tag_36:\n    tag_35:\n      0x20\n      mul\n      0x20\n      add\n      add\n        /* \"contracts/Learn_101_6.sol\":582:613  fixedLenUintMemoryArr[1] = 5509 */\n      dup2\n      dup2\n      mstore\n      pop\n      pop\n        /* \"contracts/Learn_101_6.sol\":624:637  dynLenUintArr */\n      0x6d\n        /* \"contracts/Learn_101_6.sol\":624:644  dynLenUintArr.push() */\n      0x01\n      dup2\n      0x01\n      dup2\n      sload\n      add\n      dup1\n      dup3\n      sstore\n      dup1\n      swap2\n      pop\n      pop\n      sub\n      swap1\n      0x00\n      mstore\n      pop(keccak256(0x00, 0x20))\n      pop\n        /* \"contracts/Learn_101_6.sol\":654:667  dynLenUintArr */\n      0x6d\n        /* \"contracts/Learn_101_6.sol\":673:674  4 */\n      0x04\n        /* \"contracts/Learn_101_6.sol\":654:675  dynLenUintArr.push(4) */\n      swap1\n      dup1\n      0x01\n      dup2\n      sload\n      add\n      dup1\n      dup3\n      sstore\n      dup1\n      swap2\n      pop\n      pop\n      0x01\n      swap1\n      sub\n      swap1\n      0x00\n      mstore\n      keccak256(0x00, 0x20)\n      add\n      0x00\n      swap1\n      swap2\n      swap1\n      swap2\n      swap1\n      swap2\n      pop\n      sstore\n        /* \"contracts/Learn_101_6.sol\":685:698  dynLenUintArr */\n      0x6d\n        /* \"contracts/Learn_101_6.sol\":704:705  6 */\n      0x06\n        /* \"contracts/Learn_101_6.sol\":685:706  dynLenUintArr.push(6) */\n      swap1\n      dup1\n      0x01\n      dup2\n      sload\n      add\n      dup1\n      dup3\n      sstore\n      dup1\n      swap2\n      pop\n      pop\n      0x01\n      swap1\n      sub\n      swap1\n      0x00\n      mstore\n      keccak256(0x00, 0x20)\n      add\n      0x00\n      swap1\n      swap2\n      swap1\n      swap2\n      swap1\n      swap2\n      pop\n      sstore\n        /* \"contracts/Learn_101_6.sol\":716:729  dynLenUintArr */\n      0x6d\n        /* \"contracts/Learn_101_6.sol\":716:735  dynLenUintArr.pop() */\n      dup1\n      sload\n      dup1\n      tag_40\n      jumpi\n      tag_41\n      tag_42\n      jump\t// in\n    tag_41:\n    tag_40:\n      0x01\n      swap1\n      sub\n      dup2\n      dup2\n      swap1\n      0x00\n      mstore\n      keccak256(0x00, 0x20)\n      add\n      0x00\n      swap1\n      sstore\n      swap1\n      sstore\n        /* \"contracts/Learn_101_6.sol\":754:775  fixedLenUintMemoryArr */\n      dup2\n        /* \"contracts/Learn_101_6.sol\":777:799  fixedLenBytesMemoryArr */\n      dup2\n        /* \"contracts/Learn_101_6.sol\":807:820  dynLenUintArr */\n      0x6d\n        /* \"contracts/Learn_101_6.sol\":807:827  dynLenUintArr.length */\n      dup1\n      sload\n      swap1\n      pop\n        /* \"contracts/Learn_101_6.sol\":746:829  return (fixedLenUintMemoryArr, fixedLenBytesMemoryArr, uint8(dynLenUintArr.length)) */\n      swap5\n      pop\n      swap5\n      pop\n      swap5\n      pop\n      pop\n      pop\n        /* \"contracts/Learn_101_6.sol\":333:836  function initParams () external returns (uint[] memory, bytes memory, uint8) {... */\n      swap1\n      swap2\n      swap3\n      jump\t// out\n        /* \"#utility.yul\":7:121   */\n    tag_44:\n        /* \"#utility.yul\":74:80   */\n      0x00\n        /* \"#utility.yul\":108:113   */\n      dup2\n        /* \"#utility.yul\":102:114   */\n      mload\n        /* \"#utility.yul\":92:114   */\n      swap1\n      pop\n        /* \"#utility.yul\":7:121   */\n      swap2\n      swap1\n      pop\n      jump\t// out\n        /* \"#utility.yul\":127:311   */\n    tag_45:\n        /* \"#utility.yul\":226:237   */\n      0x00\n        /* \"#utility.yul\":260:266   */\n      dup3\n        /* \"#utility.yul\":255:258   */\n      dup3\n        /* \"#utility.yul\":248:267   */\n      mstore\n        /* \"#utility.yul\":300:304   */\n      0x20\n        /* \"#utility.yul\":295:298   */\n      dup3\n        /* \"#utility.yul\":291:305   */\n      add\n        /* \"#utility.yul\":276:305   */\n      swap1\n      pop\n        /* \"#utility.yul\":127:311   */\n      swap3\n      swap2\n      pop\n      pop\n      jump\t// out\n        /* \"#utility.yul\":317:449   */\n    tag_46:\n        /* \"#utility.yul\":384:388   */\n      0x00\n        /* \"#utility.yul\":407:410   */\n      dup2\n        /* \"#utility.yul\":399:410   */\n      swap1\n      pop\n        /* \"#utility.yul\":437:441   */\n      0x20\n        /* \"#utility.yul\":432:435   */\n      dup3\n        /* \"#utility.yul\":428:442   */\n      add\n        /* \"#utility.yul\":420:442   */\n      swap1\n      pop\n        /* \"#utility.yul\":317:449   */\n      swap2\n      swap1\n      pop\n      jump\t// out\n        /* \"#utility.yul\":455:532   */\n    tag_47:\n        /* \"#utility.yul\":492:499   */\n      0x00\n        /* \"#utility.yul\":521:526   */\n      dup2\n        /* \"#utility.yul\":510:526   */\n      swap1\n      pop\n        /* \"#utility.yul\":455:532   */\n      swap2\n      swap1\n      pop\n      jump\t// out\n        /* \"#utility.yul\":538:646   */\n    tag_48:\n        /* \"#utility.yul\":615:639   */\n      tag_65\n        /* \"#utility.yul\":633:638   */\n      dup2\n        /* \"#utility.yul\":615:639   */\n      tag_47\n      jump\t// in\n    tag_65:\n        /* \"#utility.yul\":610:613   */\n      dup3\n        /* \"#utility.yul\":603:640   */\n      mstore\n        /* \"#utility.yul\":538:646   */\n      pop\n      pop\n      jump\t// out\n        /* \"#utility.yul\":652:831   */\n    tag_49:\n        /* \"#utility.yul\":721:731   */\n      0x00\n        /* \"#utility.yul\":742:788   */\n      tag_67\n        /* \"#utility.yul\":784:787   */\n      dup4\n        /* \"#utility.yul\":776:782   */\n      dup4\n        /* \"#utility.yul\":742:788   */\n      tag_48\n      jump\t// in\n    tag_67:\n        /* \"#utility.yul\":820:824   */\n      0x20\n        /* \"#utility.yul\":815:818   */\n      dup4\n        /* \"#utility.yul\":811:825   */\n      add\n        /* \"#utility.yul\":797:825   */\n      swap1\n      pop\n        /* \"#utility.yul\":652:831   */\n      swap3\n      swap2\n      pop\n      pop\n      jump\t// out\n        /* \"#utility.yul\":837:950   */\n    tag_50:\n        /* \"#utility.yul\":907:911   */\n      0x00\n        /* \"#utility.yul\":939:943   */\n      0x20\n        /* \"#utility.yul\":934:937   */\n      dup3\n        /* \"#utility.yul\":930:944   */\n      add\n        /* \"#utility.yul\":922:944   */\n      swap1\n      pop\n        /* \"#utility.yul\":837:950   */\n      swap2\n      swap1\n      pop\n      jump\t// out\n        /* \"#utility.yul\":986:1718   */\n    tag_51:\n        /* \"#utility.yul\":1105:1108   */\n      0x00\n        /* \"#utility.yul\":1134:1188   */\n      tag_70\n        /* \"#utility.yul\":1182:1187   */\n      dup3\n        /* \"#utility.yul\":1134:1188   */\n      tag_44\n      jump\t// in\n    tag_70:\n        /* \"#utility.yul\":1204:1290   */\n      tag_71\n        /* \"#utility.yul\":1283:1289   */\n      dup2\n        /* \"#utility.yul\":1278:1281   */\n      dup6\n        /* \"#utility.yul\":1204:1290   */\n      tag_45\n      jump\t// in\n    tag_71:\n        /* \"#utility.yul\":1197:1290   */\n      swap4\n      pop\n        /* \"#utility.yul\":1314:1370   */\n      tag_72\n        /* \"#utility.yul\":1364:1369   */\n      dup4\n        /* \"#utility.yul\":1314:1370   */\n      tag_46\n      jump\t// in\n    tag_72:\n        /* \"#utility.yul\":1393:1400   */\n      dup1\n        /* \"#utility.yul\":1424:1425   */\n      0x00\n        /* \"#utility.yul\":1409:1693   */\n    tag_73:\n        /* \"#utility.yul\":1434:1440   */\n      dup4\n        /* \"#utility.yul\":1431:1432   */\n      dup2\n        /* \"#utility.yul\":1428:1441   */\n      lt\n        /* \"#utility.yul\":1409:1693   */\n      iszero\n      tag_75\n      jumpi\n        /* \"#utility.yul\":1510:1516   */\n      dup2\n        /* \"#utility.yul\":1504:1517   */\n      mload\n        /* \"#utility.yul\":1537:1600   */\n      tag_76\n        /* \"#utility.yul\":1596:1599   */\n      dup9\n        /* \"#utility.yul\":1581:1594   */\n      dup3\n        /* \"#utility.yul\":1537:1600   */\n      tag_49\n      jump\t// in\n    tag_76:\n        /* \"#utility.yul\":1530:1600   */\n      swap8\n      pop\n        /* \"#utility.yul\":1623:1683   */\n      tag_77\n        /* \"#utility.yul\":1676:1682   */\n      dup4\n        /* \"#utility.yul\":1623:1683   */\n      tag_50\n      jump\t// in\n    tag_77:\n        /* \"#utility.yul\":1613:1683   */\n      swap3\n      pop\n        /* \"#utility.yul\":1469:1693   */\n      pop\n        /* \"#utility.yul\":1456:1457   */\n      0x01\n        /* \"#utility.yul\":1453:1454   */\n      dup2\n        /* \"#utility.yul\":1449:1458   */\n      add\n        /* \"#utility.yul\":1444:1458   */\n      swap1\n      pop\n        /* \"#utility.yul\":1409:1693   */\n      jump(tag_73)\n    tag_75:\n        /* \"#utility.yul\":1413:1427   */\n      pop\n        /* \"#utility.yul\":1709:1712   */\n      dup6\n        /* \"#utility.yul\":1702:1712   */\n      swap4\n      pop\n        /* \"#utility.yul\":1110:1718   */\n      pop\n      pop\n      pop\n        /* \"#utility.yul\":986:1718   */\n      swap3\n      swap2\n      pop\n      pop\n      jump\t// out\n        /* \"#utility.yul\":1724:1822   */\n    tag_52:\n        /* \"#utility.yul\":1775:1781   */\n      0x00\n        /* \"#utility.yul\":1809:1814   */\n      dup2\n        /* \"#utility.yul\":1803:1815   */\n      mload\n        /* \"#utility.yul\":1793:1815   */\n      swap1\n      pop\n        /* \"#utility.yul\":1724:1822   */\n      swap2\n      swap1\n      pop\n      jump\t// out\n        /* \"#utility.yul\":1828:1996   */\n    tag_53:\n        /* \"#utility.yul\":1911:1922   */\n      0x00\n        /* \"#utility.yul\":1945:1951   */\n      dup3\n        /* \"#utility.yul\":1940:1943   */\n      dup3\n        /* \"#utility.yul\":1933:1952   */\n      mstore\n        /* \"#utility.yul\":1985:1989   */\n      0x20\n        /* \"#utility.yul\":1980:1983   */\n      dup3\n        /* \"#utility.yul\":1976:1990   */\n      add\n        /* \"#utility.yul\":1961:1990   */\n      swap1\n      pop\n        /* \"#utility.yul\":1828:1996   */\n      swap3\n      swap2\n      pop\n      pop\n      jump\t// out\n        /* \"#utility.yul\":2002:2141   */\n    tag_54:\n        /* \"#utility.yul\":2091:2097   */\n      dup3\n        /* \"#utility.yul\":2086:2089   */\n      dup2\n        /* \"#utility.yul\":2081:2084   */\n      dup4\n        /* \"#utility.yul\":2075:2098   */\n      mcopy\n        /* \"#utility.yul\":2132:2133   */\n      0x00\n        /* \"#utility.yul\":2123:2129   */\n      dup4\n        /* \"#utility.yul\":2118:2121   */\n      dup4\n        /* \"#utility.yul\":2114:2130   */\n      add\n        /* \"#utility.yul\":2107:2134   */\n      mstore\n        /* \"#utility.yul\":2002:2141   */\n      pop\n      pop\n      pop\n      jump\t// out\n        /* \"#utility.yul\":2147:2249   */\n    tag_55:\n        /* \"#utility.yul\":2188:2194   */\n      0x00\n        /* \"#utility.yul\":2239:2241   */\n      0x1f\n        /* \"#utility.yul\":2235:2242   */\n      not\n        /* \"#utility.yul\":2230:2232   */\n      0x1f\n        /* \"#utility.yul\":2223:2228   */\n      dup4\n        /* \"#utility.yul\":2219:2233   */\n      add\n        /* \"#utility.yul\":2215:2243   */\n      and\n        /* \"#utility.yul\":2205:2243   */\n      swap1\n      pop\n        /* \"#utility.yul\":2147:2249   */\n      swap2\n      swap1\n      pop\n      jump\t// out\n        /* \"#utility.yul\":2255:2628   */\n    tag_56:\n        /* \"#utility.yul\":2341:2344   */\n      0x00\n        /* \"#utility.yul\":2369:2407   */\n      tag_83\n        /* \"#utility.yul\":2401:2406   */\n      dup3\n        /* \"#utility.yul\":2369:2407   */\n      tag_52\n      jump\t// in\n    tag_83:\n        /* \"#utility.yul\":2423:2493   */\n      tag_84\n        /* \"#utility.yul\":2486:2492   */\n      dup2\n        /* \"#utility.yul\":2481:2484   */\n      dup6\n        /* \"#utility.yul\":2423:2493   */\n      tag_53\n      jump\t// in\n    tag_84:\n        /* \"#utility.yul\":2416:2493   */\n      swap4\n      pop\n        /* \"#utility.yul\":2502:2567   */\n      tag_85\n        /* \"#utility.yul\":2560:2566   */\n      dup2\n        /* \"#utility.yul\":2555:2558   */\n      dup6\n        /* \"#utility.yul\":2548:2552   */\n      0x20\n        /* \"#utility.yul\":2541:2546   */\n      dup7\n        /* \"#utility.yul\":2537:2553   */\n      add\n        /* \"#utility.yul\":2502:2567   */\n      tag_54\n      jump\t// in\n    tag_85:\n        /* \"#utility.yul\":2592:2621   */\n      tag_86\n        /* \"#utility.yul\":2614:2620   */\n      dup2\n        /* \"#utility.yul\":2592:2621   */\n      tag_55\n      jump\t// in\n    tag_86:\n        /* \"#utility.yul\":2587:2590   */\n      dup5\n        /* \"#utility.yul\":2583:2622   */\n      add\n        /* \"#utility.yul\":2576:2622   */\n      swap2\n      pop\n        /* \"#utility.yul\":2345:2628   */\n      pop\n        /* \"#utility.yul\":2255:2628   */\n      swap3\n      swap2\n      pop\n      pop\n      jump\t// out\n        /* \"#utility.yul\":2634:2720   */\n    tag_57:\n        /* \"#utility.yul\":2669:2676   */\n      0x00\n        /* \"#utility.yul\":2709:2713   */\n      0xff\n        /* \"#utility.yul\":2702:2707   */\n      dup3\n        /* \"#utility.yul\":2698:2714   */\n      and\n        /* \"#utility.yul\":2687:2714   */\n      swap1\n      pop\n        /* \"#utility.yul\":2634:2720   */\n      swap2\n      swap1\n      pop\n      jump\t// out\n        /* \"#utility.yul\":2726:2838   */\n    tag_58:\n        /* \"#utility.yul\":2809:2831   */\n      tag_89\n        /* \"#utility.yul\":2825:2830   */\n      dup2\n        /* \"#utility.yul\":2809:2831   */\n      tag_57\n      jump\t// in\n    tag_89:\n        /* \"#utility.yul\":2804:2807   */\n      dup3\n        /* \"#utility.yul\":2797:2832   */\n      mstore\n        /* \"#utility.yul\":2726:2838   */\n      pop\n      pop\n      jump\t// out\n        /* \"#utility.yul\":2844:3516   */\n    tag_19:\n        /* \"#utility.yul\":3057:3061   */\n      0x00\n        /* \"#utility.yul\":3095:3097   */\n      0x60\n        /* \"#utility.yul\":3084:3093   */\n      dup3\n        /* \"#utility.yul\":3080:3098   */\n      add\n        /* \"#utility.yul\":3072:3098   */\n      swap1\n      pop\n        /* \"#utility.yul\":3144:3153   */\n      dup2\n        /* \"#utility.yul\":3138:3142   */\n      dup2\n        /* \"#utility.yul\":3134:3154   */\n      sub\n        /* \"#utility.yul\":3130:3131   */\n      0x00\n        /* \"#utility.yul\":3119:3128   */\n      dup4\n        /* \"#utility.yul\":3115:3132   */\n      add\n        /* \"#utility.yul\":3108:3155   */\n      mstore\n        /* \"#utility.yul\":3172:3280   */\n      tag_91\n        /* \"#utility.yul\":3275:3279   */\n      dup2\n        /* \"#utility.yul\":3266:3272   */\n      dup7\n        /* \"#utility.yul\":3172:3280   */\n      tag_51\n      jump\t// in\n    tag_91:\n        /* \"#utility.yul\":3164:3280   */\n      swap1\n      pop\n        /* \"#utility.yul\":3327:3336   */\n      dup2\n        /* \"#utility.yul\":3321:3325   */\n      dup2\n        /* \"#utility.yul\":3317:3337   */\n      sub\n        /* \"#utility.yul\":3312:3314   */\n      0x20\n        /* \"#utility.yul\":3301:3310   */\n      dup4\n        /* \"#utility.yul\":3297:3315   */\n      add\n        /* \"#utility.yul\":3290:3338   */\n      mstore\n        /* \"#utility.yul\":3355:3431   */\n      tag_92\n        /* \"#utility.yul\":3426:3430   */\n      dup2\n        /* \"#utility.yul\":3417:3423   */\n      dup6\n        /* \"#utility.yul\":3355:3431   */\n      tag_56\n      jump\t// in\n    tag_92:\n        /* \"#utility.yul\":3347:3431   */\n      swap1\n      pop\n        /* \"#utility.yul\":3441:3509   */\n      tag_93\n        /* \"#utility.yul\":3505:3507   */\n      0x40\n        /* \"#utility.yul\":3494:3503   */\n      dup4\n        /* \"#utility.yul\":3490:3508   */\n      add\n        /* \"#utility.yul\":3481:3487   */\n      dup5\n        /* \"#utility.yul\":3441:3509   */\n      tag_58\n      jump\t// in\n    tag_93:\n        /* \"#utility.yul\":2844:3516   */\n      swap5\n      swap4\n      pop\n      pop\n      pop\n      pop\n      jump\t// out\n        /* \"#utility.yul\":3522:3702   */\n    tag_27:\n        /* \"#utility.yul\":3570:3647   */\n      0x4e487b7100000000000000000000000000000000000000000000000000000000\n        /* \"#utility.yul\":3567:3568   */\n      0x00\n        /* \"#utility.yul\":3560:3648   */\n      mstore\n        /* \"#utility.yul\":3667:3671   */\n      0x41\n        /* \"#utility.yul\":3664:3665   */\n      0x04\n        /* \"#utility.yul\":3657:3672   */\n      mstore\n        /* \"#utility.yul\":3691:3695   */\n      0x24\n        /* \"#utility.yul\":3688:3689   */\n      0x00\n        /* \"#utility.yul\":3681:3696   */\n      revert\n        /* \"#utility.yul\":3708:3888   */\n    tag_34:\n        /* \"#utility.yul\":3756:3833   */\n      0x4e487b7100000000000000000000000000000000000000000000000000000000\n        /* \"#utility.yul\":3753:3754   */\n      0x00\n        /* \"#utility.yul\":3746:3834   */\n      mstore\n        /* \"#utility.yul\":3853:3857   */\n      0x32\n        /* \"#utility.yul\":3850:3851   */\n      0x04\n        /* \"#utility.yul\":3843:3858   */\n      mstore\n        /* \"#utility.yul\":3877:3881   */\n      0x24\n        /* \"#utility.yul\":3874:3875   */\n      0x00\n        /* \"#utility.yul\":3867:3882   */\n      revert\n        /* \"#utility.yul\":3894:4074   */\n    tag_42:\n        /* \"#utility.yul\":3942:4019   */\n      0x4e487b7100000000000000000000000000000000000000000000000000000000\n        /* \"#utility.yul\":3939:3940   */\n      0x00\n        /* \"#utility.yul\":3932:4020   */\n      mstore\n        /* \"#utility.yul\":4039:4043   */\n      0x31\n        /* \"#utility.yul\":4036:4037   */\n      0x04\n        /* \"#utility.yul\":4029:4044   */\n      mstore\n        /* \"#utility.yul\":4063:4067   */\n      0x24\n        /* \"#utility.yul\":4060:4061   */\n      0x00\n        /* \"#utility.yul\":4053:4068   */\n      revert\n\n    auxdata: 0xa2646970667358221220645468eb6e83b3593656ef3299ca3f14c47adc7932e0233d9a91325b9f6aaa1f64736f6c634300081a0033\n}\n",
				"bytecode": {
					"linkReferences": {},
					"object": "6080604052348015600e575f80fd5b506105078061001c5f395ff3fe608060405234801561000f575f80fd5b5060043610610055575f3560e01c80631a8d7dc3146100595780635a4236b1146100635780639ebb8d201461006d578063a8b63e6f14610077578063fb0c862814610081575b5f80fd5b6100616100a1565b005b61006b6100b8565b005b6100756100e8565b005b61007f610118565b005b610089610133565b60405161009893929190610407565b60405180910390f35b600560705f01819055506057607060010181905550565b604051806040016040528060038152602001605a81525060705f820151815f015560208201518160010155905050565b604051806040016040528060048152602001605881525060705f820151815f015560208201518160010155905050565b5f60709050600b815f01819055506064816001018190555050565b6060805f80600567ffffffffffffffff8111156101535761015261044a565b5b6040519080825280602002602001820160405280156101815781602001602082028036833780820191505090505b5090505f600967ffffffffffffffff8111156101a05761019f61044a565b5b6040519080825280601f01601f1916602001820160405280156101d25781602001600182028036833780820191505090505b509050607b825f815181106101ea576101e9610477565b5b6020026020010181815250506115858260018151811061020d5761020c610477565b5b602002602001018181525050606d60018160018154018082558091505003905f5260205f205050606d6004908060018154018082558091505060019003905f5260205f20015f9091909190915055606d6006908060018154018082558091505060019003905f5260205f20015f9091909190915055606d805480610294576102936104a4565b5b600190038181905f5260205f20015f905590558181606d805490509450945094505050909192565b5f81519050919050565b5f82825260208201905092915050565b5f819050602082019050919050565b5f819050919050565b6102f7816102e5565b82525050565b5f61030883836102ee565b60208301905092915050565b5f602082019050919050565b5f61032a826102bc565b61033481856102c6565b935061033f836102d6565b805f5b8381101561036f57815161035688826102fd565b975061036183610314565b925050600181019050610342565b5085935050505092915050565b5f81519050919050565b5f82825260208201905092915050565b8281835e5f83830152505050565b5f601f19601f8301169050919050565b5f6103be8261037c565b6103c88185610386565b93506103d8818560208601610396565b6103e1816103a4565b840191505092915050565b5f60ff82169050919050565b610401816103ec565b82525050565b5f6060820190508181035f83015261041f8186610320565b9050818103602083015261043381856103b4565b905061044260408301846103f8565b949350505050565b7f4e487b71000000000000000000000000000000000000000000000000000000005f52604160045260245ffd5b7f4e487b71000000000000000000000000000000000000000000000000000000005f52603260045260245ffd5b7f4e487b71000000000000000000000000000000000000000000000000000000005f52603160045260245ffdfea2646970667358221220645468eb6e83b3593656ef3299ca3f14c47adc7932e0233d9a91325b9f6aaa1f64736f6c634300081a0033",
					"opcodes": "PUSH1 0x80 PUSH1 0x40 MSTORE CALLVALUE DUP1 ISZERO PUSH1 0xE JUMPI PUSH0 DUP1 REVERT JUMPDEST POP PUSH2 0x507 DUP1 PUSH2 0x1C PUSH0 CODECOPY PUSH0 RETURN INVALID PUSH1 0x80 PUSH1 0x40 MSTORE CALLVALUE DUP1 ISZERO PUSH2 0xF JUMPI PUSH0 DUP1 REVERT JUMPDEST POP PUSH1 0x4 CALLDATASIZE LT PUSH2 0x55 JUMPI PUSH0 CALLDATALOAD PUSH1 0xE0 SHR DUP1 PUSH4 0x1A8D7DC3 EQ PUSH2 0x59 JUMPI DUP1 PUSH4 0x5A4236B1 EQ PUSH2 0x63 JUMPI DUP1 PUSH4 0x9EBB8D20 EQ PUSH2 0x6D JUMPI DUP1 PUSH4 0xA8B63E6F EQ PUSH2 0x77 JUMPI DUP1 PUSH4 0xFB0C8628 EQ PUSH2 0x81 JUMPI JUMPDEST PUSH0 DUP1 REVERT JUMPDEST PUSH2 0x61 PUSH2 0xA1 JUMP JUMPDEST STOP JUMPDEST PUSH2 0x6B PUSH2 0xB8 JUMP JUMPDEST STOP JUMPDEST PUSH2 0x75 PUSH2 0xE8 JUMP JUMPDEST STOP JUMPDEST PUSH2 0x7F PUSH2 0x118 JUMP JUMPDEST STOP JUMPDEST PUSH2 0x89 PUSH2 0x133 JUMP JUMPDEST PUSH1 0x40 MLOAD PUSH2 0x98 SWAP4 SWAP3 SWAP2 SWAP1 PUSH2 0x407 JUMP JUMPDEST PUSH1 0x40 MLOAD DUP1 SWAP2 SUB SWAP1 RETURN JUMPDEST PUSH1 0x5 PUSH1 0x70 PUSH0 ADD DUP2 SWAP1 SSTORE POP PUSH1 0x57 PUSH1 0x70 PUSH1 0x1 ADD DUP2 SWAP1 SSTORE POP JUMP JUMPDEST PUSH1 0x40 MLOAD DUP1 PUSH1 0x40 ADD PUSH1 0x40 MSTORE DUP1 PUSH1 0x3 DUP2 MSTORE PUSH1 0x20 ADD PUSH1 0x5A DUP2 MSTORE POP PUSH1 0x70 PUSH0 DUP3 ADD MLOAD DUP2 PUSH0 ADD SSTORE PUSH1 0x20 DUP3 ADD MLOAD DUP2 PUSH1 0x1 ADD SSTORE SWAP1 POP POP JUMP JUMPDEST PUSH1 0x40 MLOAD DUP1 PUSH1 0x40 ADD PUSH1 0x40 MSTORE DUP1 PUSH1 0x4 DUP2 MSTORE PUSH1 0x20 ADD PUSH1 0x58 DUP2 MSTORE POP PUSH1 0x70 PUSH0 DUP3 ADD MLOAD DUP2 PUSH0 ADD SSTORE PUSH1 0x20 DUP3 ADD MLOAD DUP2 PUSH1 0x1 ADD SSTORE SWAP1 POP POP JUMP JUMPDEST PUSH0 PUSH1 0x70 SWAP1 POP PUSH1 0xB DUP2 PUSH0 ADD DUP2 SWAP1 SSTORE POP PUSH1 0x64 DUP2 PUSH1 0x1 ADD DUP2 SWAP1 SSTORE POP POP JUMP JUMPDEST PUSH1 0x60 DUP1 PUSH0 DUP1 PUSH1 0x5 PUSH8 0xFFFFFFFFFFFFFFFF DUP2 GT ISZERO PUSH2 0x153 JUMPI PUSH2 0x152 PUSH2 0x44A JUMP JUMPDEST JUMPDEST PUSH1 0x40 MLOAD SWAP1 DUP1 DUP3 MSTORE DUP1 PUSH1 0x20 MUL PUSH1 0x20 ADD DUP3 ADD PUSH1 0x40 MSTORE DUP1 ISZERO PUSH2 0x181 JUMPI DUP2 PUSH1 0x20 ADD PUSH1 0x20 DUP3 MUL DUP1 CALLDATASIZE DUP4 CALLDATACOPY DUP1 DUP3 ADD SWAP2 POP POP SWAP1 POP JUMPDEST POP SWAP1 POP PUSH0 PUSH1 0x9 PUSH8 0xFFFFFFFFFFFFFFFF DUP2 GT ISZERO PUSH2 0x1A0 JUMPI PUSH2 0x19F PUSH2 0x44A JUMP JUMPDEST JUMPDEST PUSH1 0x40 MLOAD SWAP1 DUP1 DUP3 MSTORE DUP1 PUSH1 0x1F ADD PUSH1 0x1F NOT AND PUSH1 0x20 ADD DUP3 ADD PUSH1 0x40 MSTORE DUP1 ISZERO PUSH2 0x1D2 JUMPI DUP2 PUSH1 0x20 ADD PUSH1 0x1 DUP3 MUL DUP1 CALLDATASIZE DUP4 CALLDATACOPY DUP1 DUP3 ADD SWAP2 POP POP SWAP1 POP JUMPDEST POP SWAP1 POP PUSH1 0x7B DUP3 PUSH0 DUP2 MLOAD DUP2 LT PUSH2 0x1EA JUMPI PUSH2 0x1E9 PUSH2 0x477 JUMP JUMPDEST JUMPDEST PUSH1 0x20 MUL PUSH1 0x20 ADD ADD DUP2 DUP2 MSTORE POP POP PUSH2 0x1585 DUP3 PUSH1 0x1 DUP2 MLOAD DUP2 LT PUSH2 0x20D JUMPI PUSH2 0x20C PUSH2 0x477 JUMP JUMPDEST JUMPDEST PUSH1 0x20 MUL PUSH1 0x20 ADD ADD DUP2 DUP2 MSTORE POP POP PUSH1 0x6D PUSH1 0x1 DUP2 PUSH1 0x1 DUP2 SLOAD ADD DUP1 DUP3 SSTORE DUP1 SWAP2 POP POP SUB SWAP1 PUSH0 MSTORE PUSH1 0x20 PUSH0 KECCAK256 POP POP PUSH1 0x6D PUSH1 0x4 SWAP1 DUP1 PUSH1 0x1 DUP2 SLOAD ADD DUP1 DUP3 SSTORE DUP1 SWAP2 POP POP PUSH1 0x1 SWAP1 SUB SWAP1 PUSH0 MSTORE PUSH1 0x20 PUSH0 KECCAK256 ADD PUSH0 SWAP1 SWAP2 SWAP1 SWAP2 SWAP1 SWAP2 POP SSTORE PUSH1 0x6D PUSH1 0x6 SWAP1 DUP1 PUSH1 0x1 DUP2 SLOAD ADD DUP1 DUP3 SSTORE DUP1 SWAP2 POP POP PUSH1 0x1 SWAP1 SUB SWAP1 PUSH0 MSTORE PUSH1 0x20 PUSH0 KECCAK256 ADD PUSH0 SWAP1 SWAP2 SWAP1 SWAP2 SWAP1 SWAP2 POP SSTORE PUSH1 0x6D DUP1 SLOAD DUP1 PUSH2 0x294 JUMPI PUSH2 0x293 PUSH2 0x4A4 JUMP JUMPDEST JUMPDEST PUSH1 0x1 SWAP1 SUB DUP2 DUP2 SWAP1 PUSH0 MSTORE PUSH1 0x20 PUSH0 KECCAK256 ADD PUSH0 SWAP1 SSTORE SWAP1 SSTORE DUP2 DUP2 PUSH1 0x6D DUP1 SLOAD SWAP1 POP SWAP5 POP SWAP5 POP SWAP5 POP POP POP SWAP1 SWAP2 SWAP3 JUMP JUMPDEST PUSH0 DUP2 MLOAD SWAP1 POP SWAP2 SWAP1 POP JUMP JUMPDEST PUSH0 DUP3 DUP3 MSTORE PUSH1 0x20 DUP3 ADD SWAP1 POP SWAP3 SWAP2 POP POP JUMP JUMPDEST PUSH0 DUP2 SWAP1 POP PUSH1 0x20 DUP3 ADD SWAP1 POP SWAP2 SWAP1 POP JUMP JUMPDEST PUSH0 DUP2 SWAP1 POP SWAP2 SWAP1 POP JUMP JUMPDEST PUSH2 0x2F7 DUP2 PUSH2 0x2E5 JUMP JUMPDEST DUP3 MSTORE POP POP JUMP JUMPDEST PUSH0 PUSH2 0x308 DUP4 DUP4 PUSH2 0x2EE JUMP JUMPDEST PUSH1 0x20 DUP4 ADD SWAP1 POP SWAP3 SWAP2 POP POP JUMP JUMPDEST PUSH0 PUSH1 0x20 DUP3 ADD SWAP1 POP SWAP2 SWAP1 POP JUMP JUMPDEST PUSH0 PUSH2 0x32A DUP3 PUSH2 0x2BC JUMP JUMPDEST PUSH2 0x334 DUP2 DUP6 PUSH2 0x2C6 JUMP JUMPDEST SWAP4 POP PUSH2 0x33F DUP4 PUSH2 0x2D6 JUMP JUMPDEST DUP1 PUSH0 JUMPDEST DUP4 DUP2 LT ISZERO PUSH2 0x36F JUMPI DUP2 MLOAD PUSH2 0x356 DUP9 DUP3 PUSH2 0x2FD JUMP JUMPDEST SWAP8 POP PUSH2 0x361 DUP4 PUSH2 0x314 JUMP JUMPDEST SWAP3 POP POP PUSH1 0x1 DUP2 ADD SWAP1 POP PUSH2 0x342 JUMP JUMPDEST POP DUP6 SWAP4 POP POP POP POP SWAP3 SWAP2 POP POP JUMP JUMPDEST PUSH0 DUP2 MLOAD SWAP1 POP SWAP2 SWAP1 POP JUMP JUMPDEST PUSH0 DUP3 DUP3 MSTORE PUSH1 0x20 DUP3 ADD SWAP1 POP SWAP3 SWAP2 POP POP JUMP JUMPDEST DUP3 DUP2 DUP4 MCOPY PUSH0 DUP4 DUP4 ADD MSTORE POP POP POP JUMP JUMPDEST PUSH0 PUSH1 0x1F NOT PUSH1 0x1F DUP4 ADD AND SWAP1 POP SWAP2 SWAP1 POP JUMP JUMPDEST PUSH0 PUSH2 0x3BE DUP3 PUSH2 0x37C JUMP JUMPDEST PUSH2 0x3C8 DUP2 DUP6 PUSH2 0x386 JUMP JUMPDEST SWAP4 POP PUSH2 0x3D8 DUP2 DUP6 PUSH1 0x20 DUP7 ADD PUSH2 0x396 JUMP JUMPDEST PUSH2 0x3E1 DUP2 PUSH2 0x3A4 JUMP JUMPDEST DUP5 ADD SWAP2 POP POP SWAP3 SWAP2 POP POP JUMP JUMPDEST PUSH0 PUSH1 0xFF DUP3 AND SWAP1 POP SWAP2 SWAP1 POP JUMP JUMPDEST PUSH2 0x401 DUP2 PUSH2 0x3EC JUMP JUMPDEST DUP3 MSTORE POP POP JUMP JUMPDEST PUSH0 PUSH1 0x60 DUP3 ADD SWAP1 POP DUP2 DUP2 SUB PUSH0 DUP4 ADD MSTORE PUSH2 0x41F DUP2 DUP7 PUSH2 0x320 JUMP JUMPDEST SWAP1 POP DUP2 DUP2 SUB PUSH1 0x20 DUP4 ADD MSTORE PUSH2 0x433 DUP2 DUP6 PUSH2 0x3B4 JUMP JUMPDEST SWAP1 POP PUSH2 0x442 PUSH1 0x40 DUP4 ADD DUP5 PUSH2 0x3F8 JUMP JUMPDEST SWAP5 SWAP4 POP POP POP POP JUMP JUMPDEST PUSH32 0x4E487B7100000000000000000000000000000000000000000000000000000000 PUSH0 MSTORE PUSH1 0x41 PUSH1 0x4 MSTORE PUSH1 0x24 PUSH0 REVERT JUMPDEST PUSH32 0x4E487B7100000000000000000000000000000000000000000000000000000000 PUSH0 MSTORE PUSH1 0x32 PUSH1 0x4 MSTORE PUSH1 0x24 PUSH0 REVERT JUMPDEST PUSH32 0x4E487B7100000000000000000000000000000000000000000000000000000000 PUSH0 MSTORE PUSH1 0x31 PUSH1 0x4 MSTORE PUSH1 0x24 PUSH0 REVERT INVALID LOG2 PUSH5 0x6970667358 0x22 SLT KECCAK256 PUSH5 0x5468EB6E83 0xB3 MSIZE CALLDATASIZE JUMP 0xEF ORIGIN SWAP10 0xCA EXTCODEHASH EQ 0xC4 PUSH27 0xDC7932E0233D9A91325B9F6AAA1F64736F6C634300081A00330000 "
				},
				"gasEstimates": {
					"creation": {
						"codeDepositCost": "257400",
						"executionCost": "298",
						"totalCost": "257698"
					},
					"external": {
						"initParams()": "infinite",
						"initStudent1()": "44438",
						"initStudent2()": "44360",
						"initStudent3()": "44452",
						"initStudent4()": "44474"
					}
				},
				"methodIdentifiers": {
					"initParams()": "fb0c8628",
					"initStudent1()": "a8b63e6f",
					"initStudent2()": "1a8d7dc3",
					"initStudent3()": "5a4236b1",
					"initStudent4()": "9ebb8d20"
				}
			},
			"storageLayout": {
				"storage": [
					{
						"astId": 5,
						"contract": "contracts/Learn_101_6.sol:ArrayStructType",
						"label": "fixedLenUintArr",
						"offset": 0,
						"slot": "0",
						"type": "t_array(t_uint256)8_storage"
					},
					{
						"astId": 9,
						"contract": "contracts/Learn_101_6.sol:ArrayStructType",
						"label": "fixedLenBytesArr",
						"offset": 0,
						"slot": "8",
						"type": "t_array(t_bytes1)5_storage"
					},
					{
						"astId": 13,
						"contract": "contracts/Learn_101_6.sol:ArrayStructType",
						"label": "fixedLenAddrArr",
						"offset": 0,
						"slot": "9",
						"type": "t_array(t_address)100_storage"
					},
					{
						"astId": 16,
						"contract": "contracts/Learn_101_6.sol:ArrayStructType",
						"label": "dynLenUintArr",
						"offset": 0,
						"slot": "109",
						"type": "t_array(t_uint256)dyn_storage"
					},
					{
						"astId": 18,
						"contract": "contracts/Learn_101_6.sol:ArrayStructType",
						"label": "dynLenBytesArr",
						"offset": 0,
						"slot": "110",
						"type": "t_bytes_storage"
					},
					{
						"astId": 21,
						"contract": "contracts/Learn_101_6.sol:ArrayStructType",
						"label": "dynLenAddrArr",
						"offset": 0,
						"slot": "111",
						"type": "t_array(t_address)dyn_storage"
					},
					{
						"astId": 101,
						"contract": "contracts/Learn_101_6.sol:ArrayStructType",
						"label": "student",
						"offset": 0,
						"slot": "112",
						"type": "t_struct(Student)98_storage"
					}
				],
				"types": {
					"t_address": {
						"encoding": "inplace",
						"label": "address",
						"numberOfBytes": "20"
					},
					"t_array(t_address)100_storage": {
						"base": "t_address",
						"encoding": "inplace",
						"label": "address[100]",
						"numberOfBytes": "3200"
					},
					"t_array(t_address)dyn_storage": {
						"base": "t_address",
						"encoding": "dynamic_array",
						"label": "address[]",
						"numberOfBytes": "32"
					},
					"t_array(t_bytes1)5_storage": {
						"base": "t_bytes1",
						"encoding": "inplace",
						"label": "bytes1[5]",
						"numberOfBytes": "32"
					},
					"t_array(t_uint256)8_storage": {
						"base": "t_uint256",
						"encoding": "inplace",
						"label": "uint256[8]",
						"numberOfBytes": "256"
					},
					"t_array(t_uint256)dyn_storage": {
						"base": "t_uint256",
						"encoding": "dynamic_array",
						"label": "uint256[]",
						"numberOfBytes": "32"
					},
					"t_bytes1": {
						"encoding": "inplace",
						"label": "bytes1",
						"numberOfBytes": "1"
					},
					"t_bytes_storage": {
						"encoding": "bytes",
						"label": "bytes",
						"numberOfBytes": "32"
					},
					"t_struct(Student)98_storage": {
						"encoding": "inplace",
						"label": "struct ArrayStructType.Student",
						"members": [
							{
								"astId": 95,
								"contract": "contracts/Learn_101_6.sol:ArrayStructType",
								"label": "id",
								"offset": 0,
								"slot": "0",
								"type": "t_uint256"
							},
							{
								"astId": 97,
								"contract": "contracts/Learn_101_6.sol:ArrayStructType",
								"label": "score",
								"offset": 0,
								"slot": "1",
								"type": "t_uint256"
							}
						],
						"numberOfBytes": "64"
					},
					"t_uint256": {
						"encoding": "inplace",
						"label": "uint256",
						"numberOfBytes": "32"
					}
				}
			},
			"userdoc": {
				"kind": "user",
				"methods": {},
				"version": 1
			}
		}
	}
}