{
	"contracts/Learn_101_13.sol": {
		"Indentifier": {
			"abi": [
				{
					"inputs": [
						{
							"internalType": "uint256",
							"name": "_dividend",
							"type": "uint256"
						}
					],
					"name": "getExactDivdedBy2And3",
					"outputs": [
						{
							"internalType": "uint256",
							"name": "",
							"type": "uint256"
						},
						{
							"internalType": "uint256",
							"name": "",
							"type": "uint256"
						}
					],
					"stateMutability": "pure",
					"type": "function"
				},
				{
					"inputs": [
						{
							"internalType": "uint256",
							"name": "_dividend",
							"type": "uint256"
						}
					],
					"name": "getExactDividedBy2And3WithoutModifier",
					"outputs": [
						{
							"internalType": "uint256",
							"name": "",
							"type": "uint256"
						},
						{
							"internalType": "uint256",
							"name": "",
							"type": "uint256"
						}
					],
					"stateMutability": "pure",
					"type": "function"
				}
			],
			"devdoc": {
				"kind": "dev",
				"methods": {},
				"version": 1
			},
			"evm": {
				"assembly": "    /* \"contracts/Learn_101_13.sol\":1565:2120  contract Indentifier is Base1 {... */\n  mstore(0x40, 0x80)\n  callvalue\n  dup1\n  iszero\n  tag_1\n  jumpi\n  0x00\n  dup1\n  revert\ntag_1:\n  pop\n  dataSize(sub_0)\n  dup1\n  dataOffset(sub_0)\n  0x00\n  codecopy\n  0x00\n  return\nstop\n\nsub_0: assembly {\n        /* \"contracts/Learn_101_13.sol\":1565:2120  contract Indentifier is Base1 {... */\n      mstore(0x40, 0x80)\n      callvalue\n      dup1\n      iszero\n      tag_1\n      jumpi\n      0x00\n      dup1\n      revert\n    tag_1:\n      pop\n      jumpi(tag_2, lt(calldatasize, 0x04))\n      shr(0xe0, calldataload(0x00))\n      dup1\n      0x998a1683\n      eq\n      tag_3\n      jumpi\n      dup1\n      0xd2406c78\n      eq\n      tag_4\n      jumpi\n    tag_2:\n      0x00\n      dup1\n      revert\n        /* \"contracts/Learn_101_13.sol\":1601:1783  function getExactDivdedBy2And3(uint _dividend) public exactDividedBy2And3(_dividend) pure returns(uint, uint) {... */\n    tag_3:\n      tag_5\n      0x04\n      dup1\n      calldatasize\n      sub\n      dup2\n      add\n      swap1\n      tag_6\n      swap2\n      swap1\n      tag_7\n      jump\t// in\n    tag_6:\n      tag_8\n      jump\t// in\n    tag_5:\n      mload(0x40)\n      tag_9\n      swap3\n      swap2\n      swap1\n      tag_10\n      jump\t// in\n    tag_9:\n      mload(0x40)\n      dup1\n      swap2\n      sub\n      swap1\n      return\n        /* \"contracts/Learn_101_13.sol\":1789:1990  function getExactDividedBy2And3WithoutModifier(uint _dividend) public pure returns(uint, uint) {... */\n    tag_4:\n      tag_11\n      0x04\n      dup1\n      calldatasize\n      sub\n      dup2\n      add\n      swap1\n      tag_12\n      swap2\n      swap1\n      tag_7\n      jump\t// in\n    tag_12:\n      tag_13\n      jump\t// in\n    tag_11:\n      mload(0x40)\n      tag_14\n      swap3\n      swap2\n      swap1\n      tag_10\n      jump\t// in\n    tag_14:\n      mload(0x40)\n      dup1\n      swap2\n      sub\n      swap1\n      return\n        /* \"contracts/Learn_101_13.sol\":1601:1783  function getExactDivdedBy2And3(uint _dividend) public exactDividedBy2And3(_dividend) pure returns(uint, uint) {... */\n    tag_8:\n        /* \"contracts/Learn_101_13.sol\":1699:1703  uint */\n      0x00\n        /* \"contracts/Learn_101_13.sol\":1705:1709  uint */\n      dup1\n        /* \"contracts/Learn_101_13.sol\":1675:1684  _dividend */\n      dup3\n        /* \"contracts/Learn_101_13.sol\":1526:1527  0 */\n      0x00\n        /* \"contracts/Learn_101_13.sol\":1521:1522  2 */\n      0x02\n        /* \"contracts/Learn_101_13.sol\":1516:1518  _a */\n      dup3\n        /* \"contracts/Learn_101_13.sol\":1516:1522  _a % 2 */\n      tag_16\n      swap2\n      swap1\n      tag_17\n      jump\t// in\n    tag_16:\n        /* \"contracts/Learn_101_13.sol\":1516:1527  _a % 2 == 0 */\n      eq\n        /* \"contracts/Learn_101_13.sol\":1516:1542  _a % 2 == 0 && _a % 3 == 0 */\n      dup1\n      iszero\n      tag_18\n      jumpi\n      pop\n        /* \"contracts/Learn_101_13.sol\":1541:1542  0 */\n      0x00\n        /* \"contracts/Learn_101_13.sol\":1536:1537  3 */\n      0x03\n        /* \"contracts/Learn_101_13.sol\":1531:1533  _a */\n      dup3\n        /* \"contracts/Learn_101_13.sol\":1531:1537  _a % 3 */\n      tag_19\n      swap2\n      swap1\n      tag_17\n      jump\t// in\n    tag_19:\n        /* \"contracts/Learn_101_13.sol\":1531:1542  _a % 3 == 0 */\n      eq\n        /* \"contracts/Learn_101_13.sol\":1516:1542  _a % 2 == 0 && _a % 3 == 0 */\n    tag_18:\n        /* \"contracts/Learn_101_13.sol\":1508:1543  require(_a % 2 == 0 && _a % 3 == 0) */\n      tag_20\n      jumpi\n      0x00\n      dup1\n      revert\n    tag_20:\n        /* \"contracts/Learn_101_13.sol\":1728:1776  getExactDividedBy2And3WithoutModifier(_dividend) */\n      tag_22\n        /* \"contracts/Learn_101_13.sol\":1766:1775  _dividend */\n      dup5\n        /* \"contracts/Learn_101_13.sol\":1728:1765  getExactDividedBy2And3WithoutModifier */\n      tag_13\n        /* \"contracts/Learn_101_13.sol\":1728:1776  getExactDividedBy2And3WithoutModifier(_dividend) */\n      jump\t// in\n    tag_22:\n        /* \"contracts/Learn_101_13.sol\":1721:1776  return getExactDividedBy2And3WithoutModifier(_dividend) */\n      swap3\n      pop\n      swap3\n      pop\n        /* \"contracts/Learn_101_13.sol\":1601:1783  function getExactDivdedBy2And3(uint _dividend) public exactDividedBy2And3(_dividend) pure returns(uint, uint) {... */\n      pop\n      swap2\n      pop\n      swap2\n      jump\t// out\n        /* \"contracts/Learn_101_13.sol\":1789:1990  function getExactDividedBy2And3WithoutModifier(uint _dividend) public pure returns(uint, uint) {... */\n    tag_13:\n        /* \"contracts/Learn_101_13.sol\":1872:1876  uint */\n      0x00\n        /* \"contracts/Learn_101_13.sol\":1878:1882  uint */\n      dup1\n        /* \"contracts/Learn_101_13.sol\":1894:1903  uint div2 */\n      0x00\n        /* \"contracts/Learn_101_13.sol\":1918:1919  2 */\n      0x02\n        /* \"contracts/Learn_101_13.sol\":1906:1915  _dividend */\n      dup5\n        /* \"contracts/Learn_101_13.sol\":1906:1919  _dividend / 2 */\n      tag_24\n      swap2\n      swap1\n      tag_25\n      jump\t// in\n    tag_24:\n        /* \"contracts/Learn_101_13.sol\":1894:1919  uint div2 = _dividend / 2 */\n      swap1\n      pop\n        /* \"contracts/Learn_101_13.sol\":1929:1938  uint div3 */\n      0x00\n        /* \"contracts/Learn_101_13.sol\":1953:1954  3 */\n      0x03\n        /* \"contracts/Learn_101_13.sol\":1941:1950  _dividend */\n      dup6\n        /* \"contracts/Learn_101_13.sol\":1941:1954  _dividend / 3 */\n      tag_26\n      swap2\n      swap1\n      tag_25\n      jump\t// in\n    tag_26:\n        /* \"contracts/Learn_101_13.sol\":1929:1954  uint div3 = _dividend / 3 */\n      swap1\n      pop\n        /* \"contracts/Learn_101_13.sol\":1972:1976  div2 */\n      dup2\n        /* \"contracts/Learn_101_13.sol\":1978:1982  div3 */\n      dup2\n        /* \"contracts/Learn_101_13.sol\":1964:1983  return (div2, div3) */\n      swap4\n      pop\n      swap4\n      pop\n      pop\n      pop\n        /* \"contracts/Learn_101_13.sol\":1789:1990  function getExactDividedBy2And3WithoutModifier(uint _dividend) public pure returns(uint, uint) {... */\n      swap2\n      pop\n      swap2\n      jump\t// out\n        /* \"#utility.yul\":88:205   */\n    tag_28:\n        /* \"#utility.yul\":197:198   */\n      0x00\n        /* \"#utility.yul\":194:195   */\n      dup1\n        /* \"#utility.yul\":187:199   */\n      revert\n        /* \"#utility.yul\":334:411   */\n    tag_30:\n        /* \"#utility.yul\":371:378   */\n      0x00\n        /* \"#utility.yul\":400:405   */\n      dup2\n        /* \"#utility.yul\":389:405   */\n      swap1\n      pop\n        /* \"#utility.yul\":334:411   */\n      swap2\n      swap1\n      pop\n      jump\t// out\n        /* \"#utility.yul\":417:539   */\n    tag_31:\n        /* \"#utility.yul\":490:514   */\n      tag_42\n        /* \"#utility.yul\":508:513   */\n      dup2\n        /* \"#utility.yul\":490:514   */\n      tag_30\n      jump\t// in\n    tag_42:\n        /* \"#utility.yul\":483:488   */\n      dup2\n        /* \"#utility.yul\":480:515   */\n      eq\n        /* \"#utility.yul\":470:533   */\n      tag_43\n      jumpi\n        /* \"#utility.yul\":529:530   */\n      0x00\n        /* \"#utility.yul\":526:527   */\n      dup1\n        /* \"#utility.yul\":519:531   */\n      revert\n        /* \"#utility.yul\":470:533   */\n    tag_43:\n        /* \"#utility.yul\":417:539   */\n      pop\n      jump\t// out\n        /* \"#utility.yul\":545:684   */\n    tag_32:\n        /* \"#utility.yul\":591:596   */\n      0x00\n        /* \"#utility.yul\":629:635   */\n      dup2\n        /* \"#utility.yul\":616:636   */\n      calldataload\n        /* \"#utility.yul\":607:636   */\n      swap1\n      pop\n        /* \"#utility.yul\":645:678   */\n      tag_45\n        /* \"#utility.yul\":672:677   */\n      dup2\n        /* \"#utility.yul\":645:678   */\n      tag_31\n      jump\t// in\n    tag_45:\n        /* \"#utility.yul\":545:684   */\n      swap3\n      swap2\n      pop\n      pop\n      jump\t// out\n        /* \"#utility.yul\":690:1019   */\n    tag_7:\n        /* \"#utility.yul\":749:755   */\n      0x00\n        /* \"#utility.yul\":798:800   */\n      0x20\n        /* \"#utility.yul\":786:795   */\n      dup3\n        /* \"#utility.yul\":777:784   */\n      dup5\n        /* \"#utility.yul\":773:796   */\n      sub\n        /* \"#utility.yul\":769:801   */\n      slt\n        /* \"#utility.yul\":766:885   */\n      iszero\n      tag_47\n      jumpi\n        /* \"#utility.yul\":804:883   */\n      tag_48\n      tag_28\n      jump\t// in\n    tag_48:\n        /* \"#utility.yul\":766:885   */\n    tag_47:\n        /* \"#utility.yul\":924:925   */\n      0x00\n        /* \"#utility.yul\":949:1002   */\n      tag_49\n        /* \"#utility.yul\":994:1001   */\n      dup5\n        /* \"#utility.yul\":985:991   */\n      dup3\n        /* \"#utility.yul\":974:983   */\n      dup6\n        /* \"#utility.yul\":970:992   */\n      add\n        /* \"#utility.yul\":949:1002   */\n      tag_32\n      jump\t// in\n    tag_49:\n        /* \"#utility.yul\":939:1002   */\n      swap2\n      pop\n        /* \"#utility.yul\":895:1012   */\n      pop\n        /* \"#utility.yul\":690:1019   */\n      swap3\n      swap2\n      pop\n      pop\n      jump\t// out\n        /* \"#utility.yul\":1025:1143   */\n    tag_33:\n        /* \"#utility.yul\":1112:1136   */\n      tag_51\n        /* \"#utility.yul\":1130:1135   */\n      dup2\n        /* \"#utility.yul\":1112:1136   */\n      tag_30\n      jump\t// in\n    tag_51:\n        /* \"#utility.yul\":1107:1110   */\n      dup3\n        /* \"#utility.yul\":1100:1137   */\n      mstore\n        /* \"#utility.yul\":1025:1143   */\n      pop\n      pop\n      jump\t// out\n        /* \"#utility.yul\":1149:1481   */\n    tag_10:\n        /* \"#utility.yul\":1270:1274   */\n      0x00\n        /* \"#utility.yul\":1308:1310   */\n      0x40\n        /* \"#utility.yul\":1297:1306   */\n      dup3\n        /* \"#utility.yul\":1293:1311   */\n      add\n        /* \"#utility.yul\":1285:1311   */\n      swap1\n      pop\n        /* \"#utility.yul\":1321:1392   */\n      tag_53\n        /* \"#utility.yul\":1389:1390   */\n      0x00\n        /* \"#utility.yul\":1378:1387   */\n      dup4\n        /* \"#utility.yul\":1374:1391   */\n      add\n        /* \"#utility.yul\":1365:1371   */\n      dup6\n        /* \"#utility.yul\":1321:1392   */\n      tag_33\n      jump\t// in\n    tag_53:\n        /* \"#utility.yul\":1402:1474   */\n      tag_54\n        /* \"#utility.yul\":1470:1472   */\n      0x20\n        /* \"#utility.yul\":1459:1468   */\n      dup4\n        /* \"#utility.yul\":1455:1473   */\n      add\n        /* \"#utility.yul\":1446:1452   */\n      dup5\n        /* \"#utility.yul\":1402:1474   */\n      tag_33\n      jump\t// in\n    tag_54:\n        /* \"#utility.yul\":1149:1481   */\n      swap4\n      swap3\n      pop\n      pop\n      pop\n      jump\t// out\n        /* \"#utility.yul\":1487:1667   */\n    tag_34:\n        /* \"#utility.yul\":1535:1612   */\n      0x4e487b7100000000000000000000000000000000000000000000000000000000\n        /* \"#utility.yul\":1532:1533   */\n      0x00\n        /* \"#utility.yul\":1525:1613   */\n      mstore\n        /* \"#utility.yul\":1632:1636   */\n      0x12\n        /* \"#utility.yul\":1629:1630   */\n      0x04\n        /* \"#utility.yul\":1622:1637   */\n      mstore\n        /* \"#utility.yul\":1656:1660   */\n      0x24\n        /* \"#utility.yul\":1653:1654   */\n      0x00\n        /* \"#utility.yul\":1646:1661   */\n      revert\n        /* \"#utility.yul\":1673:1849   */\n    tag_17:\n        /* \"#utility.yul\":1705:1706   */\n      0x00\n        /* \"#utility.yul\":1722:1742   */\n      tag_57\n        /* \"#utility.yul\":1740:1741   */\n      dup3\n        /* \"#utility.yul\":1722:1742   */\n      tag_30\n      jump\t// in\n    tag_57:\n        /* \"#utility.yul\":1717:1742   */\n      swap2\n      pop\n        /* \"#utility.yul\":1756:1776   */\n      tag_58\n        /* \"#utility.yul\":1774:1775   */\n      dup4\n        /* \"#utility.yul\":1756:1776   */\n      tag_30\n      jump\t// in\n    tag_58:\n        /* \"#utility.yul\":1751:1776   */\n      swap3\n      pop\n        /* \"#utility.yul\":1795:1796   */\n      dup3\n        /* \"#utility.yul\":1785:1820   */\n      tag_59\n      jumpi\n        /* \"#utility.yul\":1800:1818   */\n      tag_60\n      tag_34\n      jump\t// in\n    tag_60:\n        /* \"#utility.yul\":1785:1820   */\n    tag_59:\n        /* \"#utility.yul\":1841:1842   */\n      dup3\n        /* \"#utility.yul\":1838:1839   */\n      dup3\n        /* \"#utility.yul\":1834:1843   */\n      mod\n        /* \"#utility.yul\":1829:1843   */\n      swap1\n      pop\n        /* \"#utility.yul\":1673:1849   */\n      swap3\n      swap2\n      pop\n      pop\n      jump\t// out\n        /* \"#utility.yul\":2041:2226   */\n    tag_25:\n        /* \"#utility.yul\":2081:2082   */\n      0x00\n        /* \"#utility.yul\":2098:2118   */\n      tag_63\n        /* \"#utility.yul\":2116:2117   */\n      dup3\n        /* \"#utility.yul\":2098:2118   */\n      tag_30\n      jump\t// in\n    tag_63:\n        /* \"#utility.yul\":2093:2118   */\n      swap2\n      pop\n        /* \"#utility.yul\":2132:2152   */\n      tag_64\n        /* \"#utility.yul\":2150:2151   */\n      dup4\n        /* \"#utility.yul\":2132:2152   */\n      tag_30\n      jump\t// in\n    tag_64:\n        /* \"#utility.yul\":2127:2152   */\n      swap3\n      pop\n        /* \"#utility.yul\":2171:2172   */\n      dup3\n        /* \"#utility.yul\":2161:2196   */\n      tag_65\n      jumpi\n        /* \"#utility.yul\":2176:2194   */\n      tag_66\n      tag_34\n      jump\t// in\n    tag_66:\n        /* \"#utility.yul\":2161:2196   */\n    tag_65:\n        /* \"#utility.yul\":2218:2219   */\n      dup3\n        /* \"#utility.yul\":2215:2216   */\n      dup3\n        /* \"#utility.yul\":2211:2220   */\n      div\n        /* \"#utility.yul\":2206:2220   */\n      swap1\n      pop\n        /* \"#utility.yul\":2041:2226   */\n      swap3\n      swap2\n      pop\n      pop\n      jump\t// out\n\n    auxdata: 0xa2646970667358221220339743695cf37fdc2ab8be659e14907678d844345638210a12986939a516da0164736f6c634300081a0033\n}\n",
				"bytecode": {
					"linkReferences": {},
					"object": "6080604052348015600e575f80fd5b506102688061001c5f395ff3fe608060405234801561000f575f80fd5b5060043610610034575f3560e01c8063998a168314610038578063d2406c7814610069575b5f80fd5b610052600480360381019061004d9190610144565b61009a565b60405161006092919061017e565b60405180910390f35b610083600480360381019061007e9190610144565b6100de565b60405161009192919061017e565b60405180910390f35b5f80825f6002826100ab91906101d2565b1480156100c357505f6003826100c191906101d2565b145b6100cb575f80fd5b6100d4846100de565b9250925050915091565b5f805f6002846100ee9190610202565b90505f6003856100fe9190610202565b90508181935093505050915091565b5f80fd5b5f819050919050565b61012381610111565b811461012d575f80fd5b50565b5f8135905061013e8161011a565b92915050565b5f602082840312156101595761015861010d565b5b5f61016684828501610130565b91505092915050565b61017881610111565b82525050565b5f6040820190506101915f83018561016f565b61019e602083018461016f565b9392505050565b7f4e487b71000000000000000000000000000000000000000000000000000000005f52601260045260245ffd5b5f6101dc82610111565b91506101e783610111565b9250826101f7576101f66101a5565b5b828206905092915050565b5f61020c82610111565b915061021783610111565b925082610227576102266101a5565b5b82820490509291505056fea2646970667358221220339743695cf37fdc2ab8be659e14907678d844345638210a12986939a516da0164736f6c634300081a0033",
					"opcodes": "PUSH1 0x80 PUSH1 0x40 MSTORE CALLVALUE DUP1 ISZERO PUSH1 0xE JUMPI PUSH0 DUP1 REVERT JUMPDEST POP PUSH2 0x268 DUP1 PUSH2 0x1C PUSH0 CODECOPY PUSH0 RETURN INVALID PUSH1 0x80 PUSH1 0x40 MSTORE CALLVALUE DUP1 ISZERO PUSH2 0xF JUMPI PUSH0 DUP1 REVERT JUMPDEST POP PUSH1 0x4 CALLDATASIZE LT PUSH2 0x34 JUMPI PUSH0 CALLDATALOAD PUSH1 0xE0 SHR DUP1 PUSH4 0x998A1683 EQ PUSH2 0x38 JUMPI DUP1 PUSH4 0xD2406C78 EQ PUSH2 0x69 JUMPI JUMPDEST PUSH0 DUP1 REVERT JUMPDEST PUSH2 0x52 PUSH1 0x4 DUP1 CALLDATASIZE SUB DUP2 ADD SWAP1 PUSH2 0x4D SWAP2 SWAP1 PUSH2 0x144 JUMP JUMPDEST PUSH2 0x9A JUMP JUMPDEST PUSH1 0x40 MLOAD PUSH2 0x60 SWAP3 SWAP2 SWAP1 PUSH2 0x17E JUMP JUMPDEST PUSH1 0x40 MLOAD DUP1 SWAP2 SUB SWAP1 RETURN JUMPDEST PUSH2 0x83 PUSH1 0x4 DUP1 CALLDATASIZE SUB DUP2 ADD SWAP1 PUSH2 0x7E SWAP2 SWAP1 PUSH2 0x144 JUMP JUMPDEST PUSH2 0xDE JUMP JUMPDEST PUSH1 0x40 MLOAD PUSH2 0x91 SWAP3 SWAP2 SWAP1 PUSH2 0x17E JUMP JUMPDEST PUSH1 0x40 MLOAD DUP1 SWAP2 SUB SWAP1 RETURN JUMPDEST PUSH0 DUP1 DUP3 PUSH0 PUSH1 0x2 DUP3 PUSH2 0xAB SWAP2 SWAP1 PUSH2 0x1D2 JUMP JUMPDEST EQ DUP1 ISZERO PUSH2 0xC3 JUMPI POP PUSH0 PUSH1 0x3 DUP3 PUSH2 0xC1 SWAP2 SWAP1 PUSH2 0x1D2 JUMP JUMPDEST EQ JUMPDEST PUSH2 0xCB JUMPI PUSH0 DUP1 REVERT JUMPDEST PUSH2 0xD4 DUP5 PUSH2 0xDE JUMP JUMPDEST SWAP3 POP SWAP3 POP POP SWAP2 POP SWAP2 JUMP JUMPDEST PUSH0 DUP1 PUSH0 PUSH1 0x2 DUP5 PUSH2 0xEE SWAP2 SWAP1 PUSH2 0x202 JUMP JUMPDEST SWAP1 POP PUSH0 PUSH1 0x3 DUP6 PUSH2 0xFE SWAP2 SWAP1 PUSH2 0x202 JUMP JUMPDEST SWAP1 POP DUP2 DUP2 SWAP4 POP SWAP4 POP POP POP SWAP2 POP SWAP2 JUMP JUMPDEST PUSH0 DUP1 REVERT JUMPDEST PUSH0 DUP2 SWAP1 POP SWAP2 SWAP1 POP JUMP JUMPDEST PUSH2 0x123 DUP2 PUSH2 0x111 JUMP JUMPDEST DUP2 EQ PUSH2 0x12D JUMPI PUSH0 DUP1 REVERT JUMPDEST POP JUMP JUMPDEST PUSH0 DUP2 CALLDATALOAD SWAP1 POP PUSH2 0x13E DUP2 PUSH2 0x11A JUMP JUMPDEST SWAP3 SWAP2 POP POP JUMP JUMPDEST PUSH0 PUSH1 0x20 DUP3 DUP5 SUB SLT ISZERO PUSH2 0x159 JUMPI PUSH2 0x158 PUSH2 0x10D JUMP JUMPDEST JUMPDEST PUSH0 PUSH2 0x166 DUP5 DUP3 DUP6 ADD PUSH2 0x130 JUMP JUMPDEST SWAP2 POP POP SWAP3 SWAP2 POP POP JUMP JUMPDEST PUSH2 0x178 DUP2 PUSH2 0x111 JUMP JUMPDEST DUP3 MSTORE POP POP JUMP JUMPDEST PUSH0 PUSH1 0x40 DUP3 ADD SWAP1 POP PUSH2 0x191 PUSH0 DUP4 ADD DUP6 PUSH2 0x16F JUMP JUMPDEST PUSH2 0x19E PUSH1 0x20 DUP4 ADD DUP5 PUSH2 0x16F JUMP JUMPDEST SWAP4 SWAP3 POP POP POP JUMP JUMPDEST PUSH32 0x4E487B7100000000000000000000000000000000000000000000000000000000 PUSH0 MSTORE PUSH1 0x12 PUSH1 0x4 MSTORE PUSH1 0x24 PUSH0 REVERT JUMPDEST PUSH0 PUSH2 0x1DC DUP3 PUSH2 0x111 JUMP JUMPDEST SWAP2 POP PUSH2 0x1E7 DUP4 PUSH2 0x111 JUMP JUMPDEST SWAP3 POP DUP3 PUSH2 0x1F7 JUMPI PUSH2 0x1F6 PUSH2 0x1A5 JUMP JUMPDEST JUMPDEST DUP3 DUP3 MOD SWAP1 POP SWAP3 SWAP2 POP POP JUMP JUMPDEST PUSH0 PUSH2 0x20C DUP3 PUSH2 0x111 JUMP JUMPDEST SWAP2 POP PUSH2 0x217 DUP4 PUSH2 0x111 JUMP JUMPDEST SWAP3 POP DUP3 PUSH2 0x227 JUMPI PUSH2 0x226 PUSH2 0x1A5 JUMP JUMPDEST JUMPDEST DUP3 DUP3 DIV SWAP1 POP SWAP3 SWAP2 POP POP JUMP INVALID LOG2 PUSH5 0x6970667358 0x22 SLT KECCAK256 CALLER SWAP8 NUMBER PUSH10 0x5CF37FDC2AB8BE659E14 SWAP1 PUSH23 0x78D844345638210A12986939A516DA0164736F6C634300 ADDMOD BYTE STOP CALLER "
				},
				"gasEstimates": {
					"creation": {
						"codeDepositCost": "123200",
						"executionCost": "169",
						"totalCost": "123369"
					},
					"external": {
						"getExactDivdedBy2And3(uint256)": "infinite",
						"getExactDividedBy2And3WithoutModifier(uint256)": "infinite"
					}
				},
				"methodIdentifiers": {
					"getExactDivdedBy2And3(uint256)": "998a1683",
					"getExactDividedBy2And3WithoutModifier(uint256)": "d2406c78"
				}
			},
			"storageLayout": {
				"storage": [],
				"types": null
			},
			"userdoc": {
				"kind": "user",
				"methods": {},
				"version": 1
			}
		}
	}
}