{
	"contracts/Learn_101_13.sol": {
		"Adam": {
			"abi": [
				{
					"anonymous": false,
					"inputs": [
						{
							"indexed": false,
							"internalType": "string",
							"name": "message",
							"type": "string"
						}
					],
					"name": "Log",
					"type": "event"
				},
				{
					"inputs": [],
					"name": "bar",
					"outputs": [],
					"stateMutability": "nonpayable",
					"type": "function"
				},
				{
					"inputs": [],
					"name": "foo",
					"outputs": [],
					"stateMutability": "nonpayable",
					"type": "function"
				}
			],
			"devdoc": {
				"kind": "dev",
				"methods": {},
				"version": 1
			},
			"evm": {
				"assembly": "    /* \"contracts/Learn_101_13.sol\":2748:2991  contract Adam is God {... */\n  mstore(0x40, 0x80)\n  callvalue\n  dup1\n  iszero\n  tag_1\n  jumpi\n  0x00\n  dup1\n  revert\ntag_1:\n  pop\n  dataSize(sub_0)\n  dup1\n  dataOffset(sub_0)\n  0x00\n  codecopy\n  0x00\n  return\nstop\n\nsub_0: assembly {\n        /* \"contracts/Learn_101_13.sol\":2748:2991  contract Adam is God {... */\n      mstore(0x40, 0x80)\n      callvalue\n      dup1\n      iszero\n      tag_1\n      jumpi\n      0x00\n      dup1\n      revert\n    tag_1:\n      pop\n      jumpi(tag_2, lt(calldatasize, 0x04))\n      shr(0xe0, calldataload(0x00))\n      dup1\n      0xc2985578\n      eq\n      tag_3\n      jumpi\n      dup1\n      0xfebb0f7e\n      eq\n      tag_4\n      jumpi\n    tag_2:\n      0x00\n      dup1\n      revert\n        /* \"contracts/Learn_101_13.sol\":2775:2879  function foo() public virtual override {... */\n    tag_3:\n      tag_5\n      tag_6\n      jump\t// in\n    tag_5:\n      stop\n        /* \"contracts/Learn_101_13.sol\":2885:2989  function bar() public virtual override {... */\n    tag_4:\n      tag_7\n      tag_8\n      jump\t// in\n    tag_7:\n      stop\n        /* \"contracts/Learn_101_13.sol\":2775:2879  function foo() public virtual override {... */\n    tag_6:\n        /* \"contracts/Learn_101_13.sol\":2829:2851  Log(\"Adam.foo called\") */\n      0xcf34ef537ac33ee1ac626ca1587a0a7e8e51561e5514f8cb36afa1c5102b3bab\n      mload(0x40)\n      tag_10\n      swap1\n      tag_11\n      jump\t// in\n    tag_10:\n      mload(0x40)\n      dup1\n      swap2\n      sub\n      swap1\n      log1\n        /* \"contracts/Learn_101_13.sol\":2861:2872  super.foo() */\n      tag_12\n        /* \"contracts/Learn_101_13.sol\":2861:2870  super.foo */\n      tag_13\n        /* \"contracts/Learn_101_13.sol\":2861:2872  super.foo() */\n      jump\t// in\n    tag_12:\n        /* \"contracts/Learn_101_13.sol\":2775:2879  function foo() public virtual override {... */\n      jump\t// out\n        /* \"contracts/Learn_101_13.sol\":2885:2989  function bar() public virtual override {... */\n    tag_8:\n        /* \"contracts/Learn_101_13.sol\":2939:2961  Log(\"Adam.bar called\") */\n      0xcf34ef537ac33ee1ac626ca1587a0a7e8e51561e5514f8cb36afa1c5102b3bab\n      mload(0x40)\n      tag_15\n      swap1\n      tag_16\n      jump\t// in\n    tag_15:\n      mload(0x40)\n      dup1\n      swap2\n      sub\n      swap1\n      log1\n        /* \"contracts/Learn_101_13.sol\":2971:2982  super.bar() */\n      tag_17\n        /* \"contracts/Learn_101_13.sol\":2971:2980  super.bar */\n      tag_18\n        /* \"contracts/Learn_101_13.sol\":2971:2982  super.bar() */\n      jump\t// in\n    tag_17:\n        /* \"contracts/Learn_101_13.sol\":2885:2989  function bar() public virtual override {... */\n      jump\t// out\n        /* \"contracts/Learn_101_13.sol\":2350:2423  function foo() public virtual {... */\n    tag_13:\n        /* \"contracts/Learn_101_13.sol\":2395:2416  Log(\"God.foo called\") */\n      0xcf34ef537ac33ee1ac626ca1587a0a7e8e51561e5514f8cb36afa1c5102b3bab\n      mload(0x40)\n      tag_20\n      swap1\n      tag_21\n      jump\t// in\n    tag_20:\n      mload(0x40)\n      dup1\n      swap2\n      sub\n      swap1\n      log1\n        /* \"contracts/Learn_101_13.sol\":2350:2423  function foo() public virtual {... */\n      jump\t// out\n        /* \"contracts/Learn_101_13.sol\":2429:2502  function bar() public virtual {... */\n    tag_18:\n        /* \"contracts/Learn_101_13.sol\":2474:2495  Log(\"God.bar called\") */\n      0xcf34ef537ac33ee1ac626ca1587a0a7e8e51561e5514f8cb36afa1c5102b3bab\n      mload(0x40)\n      tag_23\n      swap1\n      tag_24\n      jump\t// in\n    tag_23:\n      mload(0x40)\n      dup1\n      swap2\n      sub\n      swap1\n      log1\n        /* \"contracts/Learn_101_13.sol\":2429:2502  function bar() public virtual {... */\n      jump\t// out\n        /* \"#utility.yul\":7:176   */\n    tag_25:\n        /* \"#utility.yul\":91:102   */\n      0x00\n        /* \"#utility.yul\":125:131   */\n      dup3\n        /* \"#utility.yul\":120:123   */\n      dup3\n        /* \"#utility.yul\":113:132   */\n      mstore\n        /* \"#utility.yul\":165:169   */\n      0x20\n        /* \"#utility.yul\":160:163   */\n      dup3\n        /* \"#utility.yul\":156:170   */\n      add\n        /* \"#utility.yul\":141:170   */\n      swap1\n      pop\n        /* \"#utility.yul\":7:176   */\n      swap3\n      swap2\n      pop\n      pop\n      jump\t// out\n        /* \"#utility.yul\":182:347   */\n    tag_26:\n        /* \"#utility.yul\":322:339   */\n      0x4164616d2e666f6f2063616c6c65640000000000000000000000000000000000\n        /* \"#utility.yul\":318:319   */\n      0x00\n        /* \"#utility.yul\":310:316   */\n      dup3\n        /* \"#utility.yul\":306:320   */\n      add\n        /* \"#utility.yul\":299:340   */\n      mstore\n        /* \"#utility.yul\":182:347   */\n      pop\n      jump\t// out\n        /* \"#utility.yul\":353:719   */\n    tag_27:\n        /* \"#utility.yul\":495:498   */\n      0x00\n        /* \"#utility.yul\":516:583   */\n      tag_38\n        /* \"#utility.yul\":580:582   */\n      0x0f\n        /* \"#utility.yul\":575:578   */\n      dup4\n        /* \"#utility.yul\":516:583   */\n      tag_25\n      jump\t// in\n    tag_38:\n        /* \"#utility.yul\":509:583   */\n      swap2\n      pop\n        /* \"#utility.yul\":592:685   */\n      tag_39\n        /* \"#utility.yul\":681:684   */\n      dup3\n        /* \"#utility.yul\":592:685   */\n      tag_26\n      jump\t// in\n    tag_39:\n        /* \"#utility.yul\":710:712   */\n      0x20\n        /* \"#utility.yul\":705:708   */\n      dup3\n        /* \"#utility.yul\":701:713   */\n      add\n        /* \"#utility.yul\":694:713   */\n      swap1\n      pop\n        /* \"#utility.yul\":353:719   */\n      swap2\n      swap1\n      pop\n      jump\t// out\n        /* \"#utility.yul\":725:1144   */\n    tag_11:\n        /* \"#utility.yul\":891:895   */\n      0x00\n        /* \"#utility.yul\":929:931   */\n      0x20\n        /* \"#utility.yul\":918:927   */\n      dup3\n        /* \"#utility.yul\":914:932   */\n      add\n        /* \"#utility.yul\":906:932   */\n      swap1\n      pop\n        /* \"#utility.yul\":978:987   */\n      dup2\n        /* \"#utility.yul\":972:976   */\n      dup2\n        /* \"#utility.yul\":968:988   */\n      sub\n        /* \"#utility.yul\":964:965   */\n      0x00\n        /* \"#utility.yul\":953:962   */\n      dup4\n        /* \"#utility.yul\":949:966   */\n      add\n        /* \"#utility.yul\":942:989   */\n      mstore\n        /* \"#utility.yul\":1006:1137   */\n      tag_41\n        /* \"#utility.yul\":1132:1136   */\n      dup2\n        /* \"#utility.yul\":1006:1137   */\n      tag_27\n      jump\t// in\n    tag_41:\n        /* \"#utility.yul\":998:1137   */\n      swap1\n      pop\n        /* \"#utility.yul\":725:1144   */\n      swap2\n      swap1\n      pop\n      jump\t// out\n        /* \"#utility.yul\":1150:1315   */\n    tag_28:\n        /* \"#utility.yul\":1290:1307   */\n      0x4164616d2e6261722063616c6c65640000000000000000000000000000000000\n        /* \"#utility.yul\":1286:1287   */\n      0x00\n        /* \"#utility.yul\":1278:1284   */\n      dup3\n        /* \"#utility.yul\":1274:1288   */\n      add\n        /* \"#utility.yul\":1267:1308   */\n      mstore\n        /* \"#utility.yul\":1150:1315   */\n      pop\n      jump\t// out\n        /* \"#utility.yul\":1321:1687   */\n    tag_29:\n        /* \"#utility.yul\":1463:1466   */\n      0x00\n        /* \"#utility.yul\":1484:1551   */\n      tag_44\n        /* \"#utility.yul\":1548:1550   */\n      0x0f\n        /* \"#utility.yul\":1543:1546   */\n      dup4\n        /* \"#utility.yul\":1484:1551   */\n      tag_25\n      jump\t// in\n    tag_44:\n        /* \"#utility.yul\":1477:1551   */\n      swap2\n      pop\n        /* \"#utility.yul\":1560:1653   */\n      tag_45\n        /* \"#utility.yul\":1649:1652   */\n      dup3\n        /* \"#utility.yul\":1560:1653   */\n      tag_28\n      jump\t// in\n    tag_45:\n        /* \"#utility.yul\":1678:1680   */\n      0x20\n        /* \"#utility.yul\":1673:1676   */\n      dup3\n        /* \"#utility.yul\":1669:1681   */\n      add\n        /* \"#utility.yul\":1662:1681   */\n      swap1\n      pop\n        /* \"#utility.yul\":1321:1687   */\n      swap2\n      swap1\n      pop\n      jump\t// out\n        /* \"#utility.yul\":1693:2112   */\n    tag_16:\n        /* \"#utility.yul\":1859:1863   */\n      0x00\n        /* \"#utility.yul\":1897:1899   */\n      0x20\n        /* \"#utility.yul\":1886:1895   */\n      dup3\n        /* \"#utility.yul\":1882:1900   */\n      add\n        /* \"#utility.yul\":1874:1900   */\n      swap1\n      pop\n        /* \"#utility.yul\":1946:1955   */\n      dup2\n        /* \"#utility.yul\":1940:1944   */\n      dup2\n        /* \"#utility.yul\":1936:1956   */\n      sub\n        /* \"#utility.yul\":1932:1933   */\n      0x00\n        /* \"#utility.yul\":1921:1930   */\n      dup4\n        /* \"#utility.yul\":1917:1934   */\n      add\n        /* \"#utility.yul\":1910:1957   */\n      mstore\n        /* \"#utility.yul\":1974:2105   */\n      tag_47\n        /* \"#utility.yul\":2100:2104   */\n      dup2\n        /* \"#utility.yul\":1974:2105   */\n      tag_29\n      jump\t// in\n    tag_47:\n        /* \"#utility.yul\":1966:2105   */\n      swap1\n      pop\n        /* \"#utility.yul\":1693:2112   */\n      swap2\n      swap1\n      pop\n      jump\t// out\n        /* \"#utility.yul\":2118:2282   */\n    tag_30:\n        /* \"#utility.yul\":2258:2274   */\n      0x476f642e666f6f2063616c6c6564000000000000000000000000000000000000\n        /* \"#utility.yul\":2254:2255   */\n      0x00\n        /* \"#utility.yul\":2246:2252   */\n      dup3\n        /* \"#utility.yul\":2242:2256   */\n      add\n        /* \"#utility.yul\":2235:2275   */\n      mstore\n        /* \"#utility.yul\":2118:2282   */\n      pop\n      jump\t// out\n        /* \"#utility.yul\":2288:2654   */\n    tag_31:\n        /* \"#utility.yul\":2430:2433   */\n      0x00\n        /* \"#utility.yul\":2451:2518   */\n      tag_50\n        /* \"#utility.yul\":2515:2517   */\n      0x0e\n        /* \"#utility.yul\":2510:2513   */\n      dup4\n        /* \"#utility.yul\":2451:2518   */\n      tag_25\n      jump\t// in\n    tag_50:\n        /* \"#utility.yul\":2444:2518   */\n      swap2\n      pop\n        /* \"#utility.yul\":2527:2620   */\n      tag_51\n        /* \"#utility.yul\":2616:2619   */\n      dup3\n        /* \"#utility.yul\":2527:2620   */\n      tag_30\n      jump\t// in\n    tag_51:\n        /* \"#utility.yul\":2645:2647   */\n      0x20\n        /* \"#utility.yul\":2640:2643   */\n      dup3\n        /* \"#utility.yul\":2636:2648   */\n      add\n        /* \"#utility.yul\":2629:2648   */\n      swap1\n      pop\n        /* \"#utility.yul\":2288:2654   */\n      swap2\n      swap1\n      pop\n      jump\t// out\n        /* \"#utility.yul\":2660:3079   */\n    tag_21:\n        /* \"#utility.yul\":2826:2830   */\n      0x00\n        /* \"#utility.yul\":2864:2866   */\n      0x20\n        /* \"#utility.yul\":2853:2862   */\n      dup3\n        /* \"#utility.yul\":2849:2867   */\n      add\n        /* \"#utility.yul\":2841:2867   */\n      swap1\n      pop\n        /* \"#utility.yul\":2913:2922   */\n      dup2\n        /* \"#utility.yul\":2907:2911   */\n      dup2\n        /* \"#utility.yul\":2903:2923   */\n      sub\n        /* \"#utility.yul\":2899:2900   */\n      0x00\n        /* \"#utility.yul\":2888:2897   */\n      dup4\n        /* \"#utility.yul\":2884:2901   */\n      add\n        /* \"#utility.yul\":2877:2924   */\n      mstore\n        /* \"#utility.yul\":2941:3072   */\n      tag_53\n        /* \"#utility.yul\":3067:3071   */\n      dup2\n        /* \"#utility.yul\":2941:3072   */\n      tag_31\n      jump\t// in\n    tag_53:\n        /* \"#utility.yul\":2933:3072   */\n      swap1\n      pop\n        /* \"#utility.yul\":2660:3079   */\n      swap2\n      swap1\n      pop\n      jump\t// out\n        /* \"#utility.yul\":3085:3249   */\n    tag_32:\n        /* \"#utility.yul\":3225:3241   */\n      0x476f642e6261722063616c6c6564000000000000000000000000000000000000\n        /* \"#utility.yul\":3221:3222   */\n      0x00\n        /* \"#utility.yul\":3213:3219   */\n      dup3\n        /* \"#utility.yul\":3209:3223   */\n      add\n        /* \"#utility.yul\":3202:3242   */\n      mstore\n        /* \"#utility.yul\":3085:3249   */\n      pop\n      jump\t// out\n        /* \"#utility.yul\":3255:3621   */\n    tag_33:\n        /* \"#utility.yul\":3397:3400   */\n      0x00\n        /* \"#utility.yul\":3418:3485   */\n      tag_56\n        /* \"#utility.yul\":3482:3484   */\n      0x0e\n        /* \"#utility.yul\":3477:3480   */\n      dup4\n        /* \"#utility.yul\":3418:3485   */\n      tag_25\n      jump\t// in\n    tag_56:\n        /* \"#utility.yul\":3411:3485   */\n      swap2\n      pop\n        /* \"#utility.yul\":3494:3587   */\n      tag_57\n        /* \"#utility.yul\":3583:3586   */\n      dup3\n        /* \"#utility.yul\":3494:3587   */\n      tag_32\n      jump\t// in\n    tag_57:\n        /* \"#utility.yul\":3612:3614   */\n      0x20\n        /* \"#utility.yul\":3607:3610   */\n      dup3\n        /* \"#utility.yul\":3603:3615   */\n      add\n        /* \"#utility.yul\":3596:3615   */\n      swap1\n      pop\n        /* \"#utility.yul\":3255:3621   */\n      swap2\n      swap1\n      pop\n      jump\t// out\n        /* \"#utility.yul\":3627:4046   */\n    tag_24:\n        /* \"#utility.yul\":3793:3797   */\n      0x00\n        /* \"#utility.yul\":3831:3833   */\n      0x20\n        /* \"#utility.yul\":3820:3829   */\n      dup3\n        /* \"#utility.yul\":3816:3834   */\n      add\n        /* \"#utility.yul\":3808:3834   */\n      swap1\n      pop\n        /* \"#utility.yul\":3880:3889   */\n      dup2\n        /* \"#utility.yul\":3874:3878   */\n      dup2\n        /* \"#utility.yul\":3870:3890   */\n      sub\n        /* \"#utility.yul\":3866:3867   */\n      0x00\n        /* \"#utility.yul\":3855:3864   */\n      dup4\n        /* \"#utility.yul\":3851:3868   */\n      add\n        /* \"#utility.yul\":3844:3891   */\n      mstore\n        /* \"#utility.yul\":3908:4039   */\n      tag_59\n        /* \"#utility.yul\":4034:4038   */\n      dup2\n        /* \"#utility.yul\":3908:4039   */\n      tag_33\n      jump\t// in\n    tag_59:\n        /* \"#utility.yul\":3900:4039   */\n      swap1\n      pop\n        /* \"#utility.yul\":3627:4046   */\n      swap2\n      swap1\n      pop\n      jump\t// out\n\n    auxdata: 0xa26469706673582212206cb4556de985bcae326e880827e27e5d6b6acbdae22712907f24c01bb6b9f54364736f6c634300081a0033\n}\n",
				"bytecode": {
					"linkReferences": {},
					"object": "6080604052348015600e575f80fd5b5061031e8061001c5f395ff3fe608060405234801561000f575f80fd5b5060043610610034575f3560e01c8063c298557814610038578063febb0f7e14610042575b5f80fd5b61004061004c565b005b61004a61008b565b005b7fcf34ef537ac33ee1ac626ca1587a0a7e8e51561e5514f8cb36afa1c5102b3bab60405161007990610192565b60405180910390a16100896100ca565b565b7fcf34ef537ac33ee1ac626ca1587a0a7e8e51561e5514f8cb36afa1c5102b3bab6040516100b8906101fa565b60405180910390a16100c8610101565b565b7fcf34ef537ac33ee1ac626ca1587a0a7e8e51561e5514f8cb36afa1c5102b3bab6040516100f790610262565b60405180910390a1565b7fcf34ef537ac33ee1ac626ca1587a0a7e8e51561e5514f8cb36afa1c5102b3bab60405161012e906102ca565b60405180910390a1565b5f82825260208201905092915050565b7f4164616d2e666f6f2063616c6c656400000000000000000000000000000000005f82015250565b5f61017c600f83610138565b915061018782610148565b602082019050919050565b5f6020820190508181035f8301526101a981610170565b9050919050565b7f4164616d2e6261722063616c6c656400000000000000000000000000000000005f82015250565b5f6101e4600f83610138565b91506101ef826101b0565b602082019050919050565b5f6020820190508181035f830152610211816101d8565b9050919050565b7f476f642e666f6f2063616c6c65640000000000000000000000000000000000005f82015250565b5f61024c600e83610138565b915061025782610218565b602082019050919050565b5f6020820190508181035f83015261027981610240565b9050919050565b7f476f642e6261722063616c6c65640000000000000000000000000000000000005f82015250565b5f6102b4600e83610138565b91506102bf82610280565b602082019050919050565b5f6020820190508181035f8301526102e1816102a8565b905091905056fea26469706673582212206cb4556de985bcae326e880827e27e5d6b6acbdae22712907f24c01bb6b9f54364736f6c634300081a0033",
					"opcodes": "PUSH1 0x80 PUSH1 0x40 MSTORE CALLVALUE DUP1 ISZERO PUSH1 0xE JUMPI PUSH0 DUP1 REVERT JUMPDEST POP PUSH2 0x31E DUP1 PUSH2 0x1C PUSH0 CODECOPY PUSH0 RETURN INVALID PUSH1 0x80 PUSH1 0x40 MSTORE CALLVALUE DUP1 ISZERO PUSH2 0xF JUMPI PUSH0 DUP1 REVERT JUMPDEST POP PUSH1 0x4 CALLDATASIZE LT PUSH2 0x34 JUMPI PUSH0 CALLDATALOAD PUSH1 0xE0 SHR DUP1 PUSH4 0xC2985578 EQ PUSH2 0x38 JUMPI DUP1 PUSH4 0xFEBB0F7E EQ PUSH2 0x42 JUMPI JUMPDEST PUSH0 DUP1 REVERT JUMPDEST PUSH2 0x40 PUSH2 0x4C JUMP JUMPDEST STOP JUMPDEST PUSH2 0x4A PUSH2 0x8B JUMP JUMPDEST STOP JUMPDEST PUSH32 0xCF34EF537AC33EE1AC626CA1587A0A7E8E51561E5514F8CB36AFA1C5102B3BAB PUSH1 0x40 MLOAD PUSH2 0x79 SWAP1 PUSH2 0x192 JUMP JUMPDEST PUSH1 0x40 MLOAD DUP1 SWAP2 SUB SWAP1 LOG1 PUSH2 0x89 PUSH2 0xCA JUMP JUMPDEST JUMP JUMPDEST PUSH32 0xCF34EF537AC33EE1AC626CA1587A0A7E8E51561E5514F8CB36AFA1C5102B3BAB PUSH1 0x40 MLOAD PUSH2 0xB8 SWAP1 PUSH2 0x1FA JUMP JUMPDEST PUSH1 0x40 MLOAD DUP1 SWAP2 SUB SWAP1 LOG1 PUSH2 0xC8 PUSH2 0x101 JUMP JUMPDEST JUMP JUMPDEST PUSH32 0xCF34EF537AC33EE1AC626CA1587A0A7E8E51561E5514F8CB36AFA1C5102B3BAB PUSH1 0x40 MLOAD PUSH2 0xF7 SWAP1 PUSH2 0x262 JUMP JUMPDEST PUSH1 0x40 MLOAD DUP1 SWAP2 SUB SWAP1 LOG1 JUMP JUMPDEST PUSH32 0xCF34EF537AC33EE1AC626CA1587A0A7E8E51561E5514F8CB36AFA1C5102B3BAB PUSH1 0x40 MLOAD PUSH2 0x12E SWAP1 PUSH2 0x2CA JUMP JUMPDEST PUSH1 0x40 MLOAD DUP1 SWAP2 SUB SWAP1 LOG1 JUMP JUMPDEST PUSH0 DUP3 DUP3 MSTORE PUSH1 0x20 DUP3 ADD SWAP1 POP SWAP3 SWAP2 POP POP JUMP JUMPDEST PUSH32 0x4164616D2E666F6F2063616C6C65640000000000000000000000000000000000 PUSH0 DUP3 ADD MSTORE POP JUMP JUMPDEST PUSH0 PUSH2 0x17C PUSH1 0xF DUP4 PUSH2 0x138 JUMP JUMPDEST SWAP2 POP PUSH2 0x187 DUP3 PUSH2 0x148 JUMP JUMPDEST PUSH1 0x20 DUP3 ADD SWAP1 POP SWAP2 SWAP1 POP JUMP JUMPDEST PUSH0 PUSH1 0x20 DUP3 ADD SWAP1 POP DUP2 DUP2 SUB PUSH0 DUP4 ADD MSTORE PUSH2 0x1A9 DUP2 PUSH2 0x170 JUMP JUMPDEST SWAP1 POP SWAP2 SWAP1 POP JUMP JUMPDEST PUSH32 0x4164616D2E6261722063616C6C65640000000000000000000000000000000000 PUSH0 DUP3 ADD MSTORE POP JUMP JUMPDEST PUSH0 PUSH2 0x1E4 PUSH1 0xF DUP4 PUSH2 0x138 JUMP JUMPDEST SWAP2 POP PUSH2 0x1EF DUP3 PUSH2 0x1B0 JUMP JUMPDEST PUSH1 0x20 DUP3 ADD SWAP1 POP SWAP2 SWAP1 POP JUMP JUMPDEST PUSH0 PUSH1 0x20 DUP3 ADD SWAP1 POP DUP2 DUP2 SUB PUSH0 DUP4 ADD MSTORE PUSH2 0x211 DUP2 PUSH2 0x1D8 JUMP JUMPDEST SWAP1 POP SWAP2 SWAP1 POP JUMP JUMPDEST PUSH32 0x476F642E666F6F2063616C6C6564000000000000000000000000000000000000 PUSH0 DUP3 ADD MSTORE POP JUMP JUMPDEST PUSH0 PUSH2 0x24C PUSH1 0xE DUP4 PUSH2 0x138 JUMP JUMPDEST SWAP2 POP PUSH2 0x257 DUP3 PUSH2 0x218 JUMP JUMPDEST PUSH1 0x20 DUP3 ADD SWAP1 POP SWAP2 SWAP1 POP JUMP JUMPDEST PUSH0 PUSH1 0x20 DUP3 ADD SWAP1 POP DUP2 DUP2 SUB PUSH0 DUP4 ADD MSTORE PUSH2 0x279 DUP2 PUSH2 0x240 JUMP JUMPDEST SWAP1 POP SWAP2 SWAP1 POP JUMP JUMPDEST PUSH32 0x476F642E6261722063616C6C6564000000000000000000000000000000000000 PUSH0 DUP3 ADD MSTORE POP JUMP JUMPDEST PUSH0 PUSH2 0x2B4 PUSH1 0xE DUP4 PUSH2 0x138 JUMP JUMPDEST SWAP2 POP PUSH2 0x2BF DUP3 PUSH2 0x280 JUMP JUMPDEST PUSH1 0x20 DUP3 ADD SWAP1 POP SWAP2 SWAP1 POP JUMP JUMPDEST PUSH0 PUSH1 0x20 DUP3 ADD SWAP1 POP DUP2 DUP2 SUB PUSH0 DUP4 ADD MSTORE PUSH2 0x2E1 DUP2 PUSH2 0x2A8 JUMP JUMPDEST SWAP1 POP SWAP2 SWAP1 POP JUMP INVALID LOG2 PUSH5 0x6970667358 0x22 SLT KECCAK256 PUSH13 0xB4556DE985BCAE326E880827E2 PUSH31 0x5D6B6ACBDAE22712907F24C01BB6B9F54364736F6C634300081A0033000000 "
				},
				"gasEstimates": {
					"creation": {
						"codeDepositCost": "159600",
						"executionCost": "200",
						"totalCost": "159800"
					},
					"external": {
						"bar()": "infinite",
						"foo()": "infinite"
					}
				},
				"methodIdentifiers": {
					"bar()": "febb0f7e",
					"foo()": "c2985578"
				}
			},
			"storageLayout": {
				"storage": [],
				"types": null
			},
			"userdoc": {
				"kind": "user",
				"methods": {},
				"version": 1
			}
		}
	}
}