{
	"contracts/Learn_101_13.sol": {
		"Father": {
			"abi": [
				{
					"anonymous": false,
					"inputs": [
						{
							"indexed": false,
							"internalType": "string",
							"name": "msg",
							"type": "string"
						}
					],
					"name": "Log",
					"type": "event"
				},
				{
					"inputs": [],
					"name": "callParent",
					"outputs": [],
					"stateMutability": "nonpayable",
					"type": "function"
				},
				{
					"inputs": [
						{
							"internalType": "uint256",
							"name": "_x",
							"type": "uint256"
						},
						{
							"internalType": "uint256",
							"name": "_y",
							"type": "uint256"
						}
					],
					"name": "changeState",
					"outputs": [],
					"stateMutability": "nonpayable",
					"type": "function"
				},
				{
					"inputs": [],
					"name": "father",
					"outputs": [],
					"stateMutability": "nonpayable",
					"type": "function"
				},
				{
					"inputs": [],
					"name": "getZ",
					"outputs": [
						{
							"internalType": "uint256",
							"name": "",
							"type": "uint256"
						}
					],
					"stateMutability": "view",
					"type": "function"
				},
				{
					"inputs": [],
					"name": "grandfather",
					"outputs": [],
					"stateMutability": "nonpayable",
					"type": "function"
				},
				{
					"inputs": [],
					"name": "hip",
					"outputs": [],
					"stateMutability": "nonpayable",
					"type": "function"
				},
				{
					"inputs": [],
					"name": "pop",
					"outputs": [],
					"stateMutability": "nonpayable",
					"type": "function"
				},
				{
					"inputs": [],
					"name": "readState",
					"outputs": [
						{
							"internalType": "uint256",
							"name": "",
							"type": "uint256"
						},
						{
							"internalType": "uint256",
							"name": "",
							"type": "uint256"
						}
					],
					"stateMutability": "view",
					"type": "function"
				},
				{
					"inputs": [
						{
							"internalType": "uint256",
							"name": "_x",
							"type": "uint256"
						}
					],
					"name": "setX",
					"outputs": [],
					"stateMutability": "nonpayable",
					"type": "function"
				},
				{
					"inputs": [],
					"name": "x",
					"outputs": [
						{
							"internalType": "uint256",
							"name": "",
							"type": "uint256"
						}
					],
					"stateMutability": "view",
					"type": "function"
				}
			],
			"devdoc": {
				"kind": "dev",
				"methods": {},
				"version": 1
			},
			"evm": {
				"assembly": "    /* \"contracts/Learn_101_13.sol\":570:1098  contract Father is Grandfather {... */\n  mstore(0x40, 0x80)\n    /* \"contracts/Learn_101_13.sol\":104:105  5 */\n  0x05\n    /* \"contracts/Learn_101_13.sol\":85:105  uint256 public x = 5 */\n  0x00\n  sstore\n    /* \"contracts/Learn_101_13.sol\":132:134  10 */\n  0x0a\n    /* \"contracts/Learn_101_13.sol\":111:134  uint256 internal y = 10 */\n  0x01\n  sstore\n    /* \"contracts/Learn_101_13.sol\":160:162  20 */\n  0x14\n    /* \"contracts/Learn_101_13.sol\":140:162  uint256 private z = 20 */\n  0x02\n  sstore\n    /* \"contracts/Learn_101_13.sol\":570:1098  contract Father is Grandfather {... */\n  callvalue\n  dup1\n  iszero\n  tag_1\n  jumpi\n  0x00\n  dup1\n  revert\ntag_1:\n  pop\n  dataSize(sub_0)\n  dup1\n  dataOffset(sub_0)\n  0x00\n  codecopy\n  0x00\n  return\nstop\n\nsub_0: assembly {\n        /* \"contracts/Learn_101_13.sol\":570:1098  contract Father is Grandfather {... */\n      mstore(0x40, 0x80)\n      callvalue\n      dup1\n      iszero\n      tag_1\n      jumpi\n      0x00\n      dup1\n      revert\n    tag_1:\n      pop\n      jumpi(tag_2, lt(calldatasize, 0x04))\n      shr(0xe0, calldataload(0x00))\n      dup1\n      0x3e25bcda\n      gt\n      tag_13\n      jumpi\n      dup1\n      0x3e25bcda\n      eq\n      tag_8\n      jumpi\n      dup1\n      0x4018d9aa\n      eq\n      tag_9\n      jumpi\n      dup1\n      0x572e47ae\n      eq\n      tag_10\n      jumpi\n      dup1\n      0x9033faad\n      eq\n      tag_11\n      jumpi\n      dup1\n      0xa4ece52c\n      eq\n      tag_12\n      jumpi\n      jump(tag_2)\n    tag_13:\n      dup1\n      0x0c55699c\n      eq\n      tag_3\n      jumpi\n      dup1\n      0x1c8aca3b\n      eq\n      tag_4\n      jumpi\n      dup1\n      0x2778c334\n      eq\n      tag_5\n      jumpi\n      dup1\n      0x2f135d0c\n      eq\n      tag_6\n      jumpi\n      dup1\n      0x370ea142\n      eq\n      tag_7\n      jumpi\n    tag_2:\n      0x00\n      dup1\n      revert\n        /* \"contracts/Learn_101_13.sol\":85:105  uint256 public x = 5 */\n    tag_3:\n      tag_14\n      tag_15\n      jump\t// in\n    tag_14:\n      mload(0x40)\n      tag_16\n      swap2\n      swap1\n      tag_17\n      jump\t// in\n    tag_16:\n      mload(0x40)\n      dup1\n      swap2\n      sub\n      swap1\n      return\n        /* \"contracts/Learn_101_13.sol\":767:835  function father() public virtual {... */\n    tag_4:\n      tag_18\n      tag_19\n      jump\t// in\n    tag_18:\n      stop\n        /* \"contracts/Learn_101_13.sol\":1007:1096  function readState() public view returns(uint256, uint256) {... */\n    tag_5:\n      tag_20\n      tag_21\n      jump\t// in\n    tag_20:\n      mload(0x40)\n      tag_22\n      swap3\n      swap2\n      swap1\n      tag_23\n      jump\t// in\n    tag_22:\n      mload(0x40)\n      dup1\n      swap2\n      sub\n      swap1\n      return\n        /* \"contracts/Learn_101_13.sol\":495:566  function getZ() public view returns (uint256) {... */\n    tag_6:\n      tag_24\n      tag_25\n      jump\t// in\n    tag_24:\n      mload(0x40)\n      tag_26\n      swap2\n      swap1\n      tag_17\n      jump\t// in\n    tag_26:\n      mload(0x40)\n      dup1\n      swap2\n      sub\n      swap1\n      return\n        /* \"contracts/Learn_101_13.sol\":607:681  function hip() public virtual override {... */\n    tag_7:\n      tag_27\n      tag_28\n      jump\t// in\n    tag_27:\n      stop\n        /* \"contracts/Learn_101_13.sol\":349:427  function grandfather() public virtual {... */\n    tag_8:\n      tag_29\n      tag_30\n      jump\t// in\n    tag_29:\n      stop\n        /* \"contracts/Learn_101_13.sol\":433:489  function setX(uint256 _x) public {... */\n    tag_9:\n      tag_31\n      0x04\n      dup1\n      calldatasize\n      sub\n      dup2\n      add\n      swap1\n      tag_32\n      swap2\n      swap1\n      tag_33\n      jump\t// in\n    tag_32:\n      tag_34\n      jump\t// in\n    tag_31:\n      stop\n        /* \"contracts/Learn_101_13.sol\":841:904  function callParent() public {... */\n    tag_10:\n      tag_35\n      tag_36\n      jump\t// in\n    tag_35:\n      stop\n        /* \"contracts/Learn_101_13.sol\":910:1001  function changeState(uint256 _x, uint256 _y) public {... */\n    tag_11:\n      tag_37\n      0x04\n      dup1\n      calldatasize\n      sub\n      dup2\n      add\n      swap1\n      tag_38\n      swap2\n      swap1\n      tag_39\n      jump\t// in\n    tag_38:\n      tag_40\n      jump\t// in\n    tag_37:\n      stop\n        /* \"contracts/Learn_101_13.sol\":687:761  function pop() public virtual override {... */\n    tag_12:\n      tag_41\n      tag_42\n      jump\t// in\n    tag_41:\n      stop\n        /* \"contracts/Learn_101_13.sol\":85:105  uint256 public x = 5 */\n    tag_15:\n      sload(0x00)\n      dup2\n      jump\t// out\n        /* \"contracts/Learn_101_13.sol\":767:835  function father() public virtual {... */\n    tag_19:\n        /* \"contracts/Learn_101_13.sol\":815:828  Log(\"Father\") */\n      0xcf34ef537ac33ee1ac626ca1587a0a7e8e51561e5514f8cb36afa1c5102b3bab\n      mload(0x40)\n      tag_44\n      swap1\n      tag_45\n      jump\t// in\n    tag_44:\n      mload(0x40)\n      dup1\n      swap2\n      sub\n      swap1\n      log1\n        /* \"contracts/Learn_101_13.sol\":767:835  function father() public virtual {... */\n      jump\t// out\n        /* \"contracts/Learn_101_13.sol\":1007:1096  function readState() public view returns(uint256, uint256) {... */\n    tag_21:\n        /* \"contracts/Learn_101_13.sol\":1048:1055  uint256 */\n      0x00\n        /* \"contracts/Learn_101_13.sol\":1057:1064  uint256 */\n      dup1\n        /* \"contracts/Learn_101_13.sol\":1084:1085  x */\n      sload(0x00)\n        /* \"contracts/Learn_101_13.sol\":1087:1088  y */\n      sload(0x01)\n        /* \"contracts/Learn_101_13.sol\":1076:1089  return (x, y) */\n      swap2\n      pop\n      swap2\n      pop\n        /* \"contracts/Learn_101_13.sol\":1007:1096  function readState() public view returns(uint256, uint256) {... */\n      swap1\n      swap2\n      jump\t// out\n        /* \"contracts/Learn_101_13.sol\":495:566  function getZ() public view returns (uint256) {... */\n    tag_25:\n        /* \"contracts/Learn_101_13.sol\":532:539  uint256 */\n      0x00\n        /* \"contracts/Learn_101_13.sol\":558:559  z */\n      sload(0x02)\n        /* \"contracts/Learn_101_13.sol\":551:559  return z */\n      swap1\n      pop\n        /* \"contracts/Learn_101_13.sol\":495:566  function getZ() public view returns (uint256) {... */\n      swap1\n      jump\t// out\n        /* \"contracts/Learn_101_13.sol\":607:681  function hip() public virtual override {... */\n    tag_28:\n        /* \"contracts/Learn_101_13.sol\":661:674  Log(\"Father\") */\n      0xcf34ef537ac33ee1ac626ca1587a0a7e8e51561e5514f8cb36afa1c5102b3bab\n      mload(0x40)\n      tag_49\n      swap1\n      tag_45\n      jump\t// in\n    tag_49:\n      mload(0x40)\n      dup1\n      swap2\n      sub\n      swap1\n      log1\n        /* \"contracts/Learn_101_13.sol\":607:681  function hip() public virtual override {... */\n      jump\t// out\n        /* \"contracts/Learn_101_13.sol\":349:427  function grandfather() public virtual {... */\n    tag_30:\n        /* \"contracts/Learn_101_13.sol\":402:420  Log(\"Grandfather\") */\n      0xcf34ef537ac33ee1ac626ca1587a0a7e8e51561e5514f8cb36afa1c5102b3bab\n      mload(0x40)\n      tag_51\n      swap1\n      tag_52\n      jump\t// in\n    tag_51:\n      mload(0x40)\n      dup1\n      swap2\n      sub\n      swap1\n      log1\n        /* \"contracts/Learn_101_13.sol\":349:427  function grandfather() public virtual {... */\n      jump\t// out\n        /* \"contracts/Learn_101_13.sol\":433:489  function setX(uint256 _x) public {... */\n    tag_34:\n        /* \"contracts/Learn_101_13.sol\":480:482  _x */\n      dup1\n        /* \"contracts/Learn_101_13.sol\":476:477  x */\n      0x00\n        /* \"contracts/Learn_101_13.sol\":476:482  x = _x */\n      dup2\n      swap1\n      sstore\n      pop\n        /* \"contracts/Learn_101_13.sol\":433:489  function setX(uint256 _x) public {... */\n      pop\n      jump\t// out\n        /* \"contracts/Learn_101_13.sol\":841:904  function callParent() public {... */\n    tag_36:\n        /* \"contracts/Learn_101_13.sol\":880:897  Grandfather.pop() */\n      tag_55\n        /* \"contracts/Learn_101_13.sol\":880:895  Grandfather.pop */\n      tag_56\n        /* \"contracts/Learn_101_13.sol\":880:897  Grandfather.pop() */\n      jump\t// in\n    tag_55:\n        /* \"contracts/Learn_101_13.sol\":841:904  function callParent() public {... */\n      jump\t// out\n        /* \"contracts/Learn_101_13.sol\":910:1001  function changeState(uint256 _x, uint256 _y) public {... */\n    tag_40:\n        /* \"contracts/Learn_101_13.sol\":976:978  _x */\n      dup2\n        /* \"contracts/Learn_101_13.sol\":972:973  x */\n      0x00\n        /* \"contracts/Learn_101_13.sol\":972:978  x = _x */\n      dup2\n      swap1\n      sstore\n      pop\n        /* \"contracts/Learn_101_13.sol\":992:994  _y */\n      dup1\n        /* \"contracts/Learn_101_13.sol\":988:989  y */\n      0x01\n        /* \"contracts/Learn_101_13.sol\":988:994  y = _y */\n      dup2\n      swap1\n      sstore\n      pop\n        /* \"contracts/Learn_101_13.sol\":910:1001  function changeState(uint256 _x, uint256 _y) public {... */\n      pop\n      pop\n      jump\t// out\n        /* \"contracts/Learn_101_13.sol\":687:761  function pop() public virtual override {... */\n    tag_42:\n        /* \"contracts/Learn_101_13.sol\":741:754  Log(\"Father\") */\n      0xcf34ef537ac33ee1ac626ca1587a0a7e8e51561e5514f8cb36afa1c5102b3bab\n      mload(0x40)\n      tag_59\n      swap1\n      tag_45\n      jump\t// in\n    tag_59:\n      mload(0x40)\n      dup1\n      swap2\n      sub\n      swap1\n      log1\n        /* \"contracts/Learn_101_13.sol\":687:761  function pop() public virtual override {... */\n      jump\t// out\n        /* \"contracts/Learn_101_13.sol\":273:343  function pop() public virtual {... */\n    tag_56:\n        /* \"contracts/Learn_101_13.sol\":318:336  Log(\"Grandfather\") */\n      0xcf34ef537ac33ee1ac626ca1587a0a7e8e51561e5514f8cb36afa1c5102b3bab\n      mload(0x40)\n      tag_61\n      swap1\n      tag_52\n      jump\t// in\n    tag_61:\n      mload(0x40)\n      dup1\n      swap2\n      sub\n      swap1\n      log1\n        /* \"contracts/Learn_101_13.sol\":273:343  function pop() public virtual {... */\n      jump\t// out\n        /* \"#utility.yul\":7:84   */\n    tag_62:\n        /* \"#utility.yul\":44:51   */\n      0x00\n        /* \"#utility.yul\":73:78   */\n      dup2\n        /* \"#utility.yul\":62:78   */\n      swap1\n      pop\n        /* \"#utility.yul\":7:84   */\n      swap2\n      swap1\n      pop\n      jump\t// out\n        /* \"#utility.yul\":90:208   */\n    tag_63:\n        /* \"#utility.yul\":177:201   */\n      tag_77\n        /* \"#utility.yul\":195:200   */\n      dup2\n        /* \"#utility.yul\":177:201   */\n      tag_62\n      jump\t// in\n    tag_77:\n        /* \"#utility.yul\":172:175   */\n      dup3\n        /* \"#utility.yul\":165:202   */\n      mstore\n        /* \"#utility.yul\":90:208   */\n      pop\n      pop\n      jump\t// out\n        /* \"#utility.yul\":214:436   */\n    tag_17:\n        /* \"#utility.yul\":307:311   */\n      0x00\n        /* \"#utility.yul\":345:347   */\n      0x20\n        /* \"#utility.yul\":334:343   */\n      dup3\n        /* \"#utility.yul\":330:348   */\n      add\n        /* \"#utility.yul\":322:348   */\n      swap1\n      pop\n        /* \"#utility.yul\":358:429   */\n      tag_79\n        /* \"#utility.yul\":426:427   */\n      0x00\n        /* \"#utility.yul\":415:424   */\n      dup4\n        /* \"#utility.yul\":411:428   */\n      add\n        /* \"#utility.yul\":402:408   */\n      dup5\n        /* \"#utility.yul\":358:429   */\n      tag_63\n      jump\t// in\n    tag_79:\n        /* \"#utility.yul\":214:436   */\n      swap3\n      swap2\n      pop\n      pop\n      jump\t// out\n        /* \"#utility.yul\":442:774   */\n    tag_23:\n        /* \"#utility.yul\":563:567   */\n      0x00\n        /* \"#utility.yul\":601:603   */\n      0x40\n        /* \"#utility.yul\":590:599   */\n      dup3\n        /* \"#utility.yul\":586:604   */\n      add\n        /* \"#utility.yul\":578:604   */\n      swap1\n      pop\n        /* \"#utility.yul\":614:685   */\n      tag_81\n        /* \"#utility.yul\":682:683   */\n      0x00\n        /* \"#utility.yul\":671:680   */\n      dup4\n        /* \"#utility.yul\":667:684   */\n      add\n        /* \"#utility.yul\":658:664   */\n      dup6\n        /* \"#utility.yul\":614:685   */\n      tag_63\n      jump\t// in\n    tag_81:\n        /* \"#utility.yul\":695:767   */\n      tag_82\n        /* \"#utility.yul\":763:765   */\n      0x20\n        /* \"#utility.yul\":752:761   */\n      dup4\n        /* \"#utility.yul\":748:766   */\n      add\n        /* \"#utility.yul\":739:745   */\n      dup5\n        /* \"#utility.yul\":695:767   */\n      tag_63\n      jump\t// in\n    tag_82:\n        /* \"#utility.yul\":442:774   */\n      swap4\n      swap3\n      pop\n      pop\n      pop\n      jump\t// out\n        /* \"#utility.yul\":861:978   */\n    tag_65:\n        /* \"#utility.yul\":970:971   */\n      0x00\n        /* \"#utility.yul\":967:968   */\n      dup1\n        /* \"#utility.yul\":960:972   */\n      revert\n        /* \"#utility.yul\":1107:1229   */\n    tag_67:\n        /* \"#utility.yul\":1180:1204   */\n      tag_87\n        /* \"#utility.yul\":1198:1203   */\n      dup2\n        /* \"#utility.yul\":1180:1204   */\n      tag_62\n      jump\t// in\n    tag_87:\n        /* \"#utility.yul\":1173:1178   */\n      dup2\n        /* \"#utility.yul\":1170:1205   */\n      eq\n        /* \"#utility.yul\":1160:1223   */\n      tag_88\n      jumpi\n        /* \"#utility.yul\":1219:1220   */\n      0x00\n        /* \"#utility.yul\":1216:1217   */\n      dup1\n        /* \"#utility.yul\":1209:1221   */\n      revert\n        /* \"#utility.yul\":1160:1223   */\n    tag_88:\n        /* \"#utility.yul\":1107:1229   */\n      pop\n      jump\t// out\n        /* \"#utility.yul\":1235:1374   */\n    tag_68:\n        /* \"#utility.yul\":1281:1286   */\n      0x00\n        /* \"#utility.yul\":1319:1325   */\n      dup2\n        /* \"#utility.yul\":1306:1326   */\n      calldataload\n        /* \"#utility.yul\":1297:1326   */\n      swap1\n      pop\n        /* \"#utility.yul\":1335:1368   */\n      tag_90\n        /* \"#utility.yul\":1362:1367   */\n      dup2\n        /* \"#utility.yul\":1335:1368   */\n      tag_67\n      jump\t// in\n    tag_90:\n        /* \"#utility.yul\":1235:1374   */\n      swap3\n      swap2\n      pop\n      pop\n      jump\t// out\n        /* \"#utility.yul\":1380:1709   */\n    tag_33:\n        /* \"#utility.yul\":1439:1445   */\n      0x00\n        /* \"#utility.yul\":1488:1490   */\n      0x20\n        /* \"#utility.yul\":1476:1485   */\n      dup3\n        /* \"#utility.yul\":1467:1474   */\n      dup5\n        /* \"#utility.yul\":1463:1486   */\n      sub\n        /* \"#utility.yul\":1459:1491   */\n      slt\n        /* \"#utility.yul\":1456:1575   */\n      iszero\n      tag_92\n      jumpi\n        /* \"#utility.yul\":1494:1573   */\n      tag_93\n      tag_65\n      jump\t// in\n    tag_93:\n        /* \"#utility.yul\":1456:1575   */\n    tag_92:\n        /* \"#utility.yul\":1614:1615   */\n      0x00\n        /* \"#utility.yul\":1639:1692   */\n      tag_94\n        /* \"#utility.yul\":1684:1691   */\n      dup5\n        /* \"#utility.yul\":1675:1681   */\n      dup3\n        /* \"#utility.yul\":1664:1673   */\n      dup6\n        /* \"#utility.yul\":1660:1682   */\n      add\n        /* \"#utility.yul\":1639:1692   */\n      tag_68\n      jump\t// in\n    tag_94:\n        /* \"#utility.yul\":1629:1692   */\n      swap2\n      pop\n        /* \"#utility.yul\":1585:1702   */\n      pop\n        /* \"#utility.yul\":1380:1709   */\n      swap3\n      swap2\n      pop\n      pop\n      jump\t// out\n        /* \"#utility.yul\":1715:2189   */\n    tag_39:\n        /* \"#utility.yul\":1783:1789   */\n      0x00\n        /* \"#utility.yul\":1791:1797   */\n      dup1\n        /* \"#utility.yul\":1840:1842   */\n      0x40\n        /* \"#utility.yul\":1828:1837   */\n      dup4\n        /* \"#utility.yul\":1819:1826   */\n      dup6\n        /* \"#utility.yul\":1815:1838   */\n      sub\n        /* \"#utility.yul\":1811:1843   */\n      slt\n        /* \"#utility.yul\":1808:1927   */\n      iszero\n      tag_96\n      jumpi\n        /* \"#utility.yul\":1846:1925   */\n      tag_97\n      tag_65\n      jump\t// in\n    tag_97:\n        /* \"#utility.yul\":1808:1927   */\n    tag_96:\n        /* \"#utility.yul\":1966:1967   */\n      0x00\n        /* \"#utility.yul\":1991:2044   */\n      tag_98\n        /* \"#utility.yul\":2036:2043   */\n      dup6\n        /* \"#utility.yul\":2027:2033   */\n      dup3\n        /* \"#utility.yul\":2016:2025   */\n      dup7\n        /* \"#utility.yul\":2012:2034   */\n      add\n        /* \"#utility.yul\":1991:2044   */\n      tag_68\n      jump\t// in\n    tag_98:\n        /* \"#utility.yul\":1981:2044   */\n      swap3\n      pop\n        /* \"#utility.yul\":1937:2054   */\n      pop\n        /* \"#utility.yul\":2093:2095   */\n      0x20\n        /* \"#utility.yul\":2119:2172   */\n      tag_99\n        /* \"#utility.yul\":2164:2171   */\n      dup6\n        /* \"#utility.yul\":2155:2161   */\n      dup3\n        /* \"#utility.yul\":2144:2153   */\n      dup7\n        /* \"#utility.yul\":2140:2162   */\n      add\n        /* \"#utility.yul\":2119:2172   */\n      tag_68\n      jump\t// in\n    tag_99:\n        /* \"#utility.yul\":2109:2172   */\n      swap2\n      pop\n        /* \"#utility.yul\":2064:2182   */\n      pop\n        /* \"#utility.yul\":1715:2189   */\n      swap3\n      pop\n      swap3\n      swap1\n      pop\n      jump\t// out\n        /* \"#utility.yul\":2195:2364   */\n    tag_69:\n        /* \"#utility.yul\":2279:2290   */\n      0x00\n        /* \"#utility.yul\":2313:2319   */\n      dup3\n        /* \"#utility.yul\":2308:2311   */\n      dup3\n        /* \"#utility.yul\":2301:2320   */\n      mstore\n        /* \"#utility.yul\":2353:2357   */\n      0x20\n        /* \"#utility.yul\":2348:2351   */\n      dup3\n        /* \"#utility.yul\":2344:2358   */\n      add\n        /* \"#utility.yul\":2329:2358   */\n      swap1\n      pop\n        /* \"#utility.yul\":2195:2364   */\n      swap3\n      swap2\n      pop\n      pop\n      jump\t// out\n        /* \"#utility.yul\":2370:2526   */\n    tag_70:\n        /* \"#utility.yul\":2510:2518   */\n      0x4661746865720000000000000000000000000000000000000000000000000000\n        /* \"#utility.yul\":2506:2507   */\n      0x00\n        /* \"#utility.yul\":2498:2504   */\n      dup3\n        /* \"#utility.yul\":2494:2508   */\n      add\n        /* \"#utility.yul\":2487:2519   */\n      mstore\n        /* \"#utility.yul\":2370:2526   */\n      pop\n      jump\t// out\n        /* \"#utility.yul\":2532:2897   */\n    tag_71:\n        /* \"#utility.yul\":2674:2677   */\n      0x00\n        /* \"#utility.yul\":2695:2761   */\n      tag_103\n        /* \"#utility.yul\":2759:2760   */\n      0x06\n        /* \"#utility.yul\":2754:2757   */\n      dup4\n        /* \"#utility.yul\":2695:2761   */\n      tag_69\n      jump\t// in\n    tag_103:\n        /* \"#utility.yul\":2688:2761   */\n      swap2\n      pop\n        /* \"#utility.yul\":2770:2863   */\n      tag_104\n        /* \"#utility.yul\":2859:2862   */\n      dup3\n        /* \"#utility.yul\":2770:2863   */\n      tag_70\n      jump\t// in\n    tag_104:\n        /* \"#utility.yul\":2888:2890   */\n      0x20\n        /* \"#utility.yul\":2883:2886   */\n      dup3\n        /* \"#utility.yul\":2879:2891   */\n      add\n        /* \"#utility.yul\":2872:2891   */\n      swap1\n      pop\n        /* \"#utility.yul\":2532:2897   */\n      swap2\n      swap1\n      pop\n      jump\t// out\n        /* \"#utility.yul\":2903:3322   */\n    tag_45:\n        /* \"#utility.yul\":3069:3073   */\n      0x00\n        /* \"#utility.yul\":3107:3109   */\n      0x20\n        /* \"#utility.yul\":3096:3105   */\n      dup3\n        /* \"#utility.yul\":3092:3110   */\n      add\n        /* \"#utility.yul\":3084:3110   */\n      swap1\n      pop\n        /* \"#utility.yul\":3156:3165   */\n      dup2\n        /* \"#utility.yul\":3150:3154   */\n      dup2\n        /* \"#utility.yul\":3146:3166   */\n      sub\n        /* \"#utility.yul\":3142:3143   */\n      0x00\n        /* \"#utility.yul\":3131:3140   */\n      dup4\n        /* \"#utility.yul\":3127:3144   */\n      add\n        /* \"#utility.yul\":3120:3167   */\n      mstore\n        /* \"#utility.yul\":3184:3315   */\n      tag_106\n        /* \"#utility.yul\":3310:3314   */\n      dup2\n        /* \"#utility.yul\":3184:3315   */\n      tag_71\n      jump\t// in\n    tag_106:\n        /* \"#utility.yul\":3176:3315   */\n      swap1\n      pop\n        /* \"#utility.yul\":2903:3322   */\n      swap2\n      swap1\n      pop\n      jump\t// out\n        /* \"#utility.yul\":3328:3489   */\n    tag_72:\n        /* \"#utility.yul\":3468:3481   */\n      0x4772616e64666174686572000000000000000000000000000000000000000000\n        /* \"#utility.yul\":3464:3465   */\n      0x00\n        /* \"#utility.yul\":3456:3462   */\n      dup3\n        /* \"#utility.yul\":3452:3466   */\n      add\n        /* \"#utility.yul\":3445:3482   */\n      mstore\n        /* \"#utility.yul\":3328:3489   */\n      pop\n      jump\t// out\n        /* \"#utility.yul\":3495:3861   */\n    tag_73:\n        /* \"#utility.yul\":3637:3640   */\n      0x00\n        /* \"#utility.yul\":3658:3725   */\n      tag_109\n        /* \"#utility.yul\":3722:3724   */\n      0x0b\n        /* \"#utility.yul\":3717:3720   */\n      dup4\n        /* \"#utility.yul\":3658:3725   */\n      tag_69\n      jump\t// in\n    tag_109:\n        /* \"#utility.yul\":3651:3725   */\n      swap2\n      pop\n        /* \"#utility.yul\":3734:3827   */\n      tag_110\n        /* \"#utility.yul\":3823:3826   */\n      dup3\n        /* \"#utility.yul\":3734:3827   */\n      tag_72\n      jump\t// in\n    tag_110:\n        /* \"#utility.yul\":3852:3854   */\n      0x20\n        /* \"#utility.yul\":3847:3850   */\n      dup3\n        /* \"#utility.yul\":3843:3855   */\n      add\n        /* \"#utility.yul\":3836:3855   */\n      swap1\n      pop\n        /* \"#utility.yul\":3495:3861   */\n      swap2\n      swap1\n      pop\n      jump\t// out\n        /* \"#utility.yul\":3867:4286   */\n    tag_52:\n        /* \"#utility.yul\":4033:4037   */\n      0x00\n        /* \"#utility.yul\":4071:4073   */\n      0x20\n        /* \"#utility.yul\":4060:4069   */\n      dup3\n        /* \"#utility.yul\":4056:4074   */\n      add\n        /* \"#utility.yul\":4048:4074   */\n      swap1\n      pop\n        /* \"#utility.yul\":4120:4129   */\n      dup2\n        /* \"#utility.yul\":4114:4118   */\n      dup2\n        /* \"#utility.yul\":4110:4130   */\n      sub\n        /* \"#utility.yul\":4106:4107   */\n      0x00\n        /* \"#utility.yul\":4095:4104   */\n      dup4\n        /* \"#utility.yul\":4091:4108   */\n      add\n        /* \"#utility.yul\":4084:4131   */\n      mstore\n        /* \"#utility.yul\":4148:4279   */\n      tag_112\n        /* \"#utility.yul\":4274:4278   */\n      dup2\n        /* \"#utility.yul\":4148:4279   */\n      tag_73\n      jump\t// in\n    tag_112:\n        /* \"#utility.yul\":4140:4279   */\n      swap1\n      pop\n        /* \"#utility.yul\":3867:4286   */\n      swap2\n      swap1\n      pop\n      jump\t// out\n\n    auxdata: 0xa2646970667358221220964bb8e9f21fd18a40b41647467c995e9695b666df6422034d5bc492e395e24d64736f6c634300081a0033\n}\n",
				"bytecode": {
					"linkReferences": {},
					"object": "608060405260055f55600a6001556014600255348015601c575f80fd5b506104be8061002a5f395ff3fe608060405234801561000f575f80fd5b506004361061009c575f3560e01c80633e25bcda116100645780633e25bcda1461010f5780634018d9aa14610119578063572e47ae146101355780639033faad1461013f578063a4ece52c1461015b5761009c565b80630c55699c146100a05780631c8aca3b146100be5780632778c334146100c85780632f135d0c146100e7578063370ea14214610105575b5f80fd5b6100a8610165565b6040516100b591906102d1565b60405180910390f35b6100c661016a565b005b6100d06101a1565b6040516100de9291906102ea565b60405180910390f35b6100ef6101b0565b6040516100fc91906102d1565b60405180910390f35b61010d6101b9565b005b6101176101f0565b005b610133600480360381019061012e919061033f565b610227565b005b61013d610230565b005b6101596004803603810190610154919061036a565b61023a565b005b61016361024b565b005b5f5481565b7fcf34ef537ac33ee1ac626ca1587a0a7e8e51561e5514f8cb36afa1c5102b3bab60405161019790610402565b60405180910390a1565b5f805f54600154915091509091565b5f600254905090565b7fcf34ef537ac33ee1ac626ca1587a0a7e8e51561e5514f8cb36afa1c5102b3bab6040516101e690610402565b60405180910390a1565b7fcf34ef537ac33ee1ac626ca1587a0a7e8e51561e5514f8cb36afa1c5102b3bab60405161021d9061046a565b60405180910390a1565b805f8190555050565b610238610282565b565b815f81905550806001819055505050565b7fcf34ef537ac33ee1ac626ca1587a0a7e8e51561e5514f8cb36afa1c5102b3bab60405161027890610402565b60405180910390a1565b7fcf34ef537ac33ee1ac626ca1587a0a7e8e51561e5514f8cb36afa1c5102b3bab6040516102af9061046a565b60405180910390a1565b5f819050919050565b6102cb816102b9565b82525050565b5f6020820190506102e45f8301846102c2565b92915050565b5f6040820190506102fd5f8301856102c2565b61030a60208301846102c2565b9392505050565b5f80fd5b61031e816102b9565b8114610328575f80fd5b50565b5f8135905061033981610315565b92915050565b5f6020828403121561035457610353610311565b5b5f6103618482850161032b565b91505092915050565b5f80604083850312156103805761037f610311565b5b5f61038d8582860161032b565b925050602061039e8582860161032b565b9150509250929050565b5f82825260208201905092915050565b7f46617468657200000000000000000000000000000000000000000000000000005f82015250565b5f6103ec6006836103a8565b91506103f7826103b8565b602082019050919050565b5f6020820190508181035f830152610419816103e0565b9050919050565b7f4772616e646661746865720000000000000000000000000000000000000000005f82015250565b5f610454600b836103a8565b915061045f82610420565b602082019050919050565b5f6020820190508181035f83015261048181610448565b905091905056fea2646970667358221220964bb8e9f21fd18a40b41647467c995e9695b666df6422034d5bc492e395e24d64736f6c634300081a0033",
					"opcodes": "PUSH1 0x80 PUSH1 0x40 MSTORE PUSH1 0x5 PUSH0 SSTORE PUSH1 0xA PUSH1 0x1 SSTORE PUSH1 0x14 PUSH1 0x2 SSTORE CALLVALUE DUP1 ISZERO PUSH1 0x1C JUMPI PUSH0 DUP1 REVERT JUMPDEST POP PUSH2 0x4BE DUP1 PUSH2 0x2A PUSH0 CODECOPY PUSH0 RETURN INVALID PUSH1 0x80 PUSH1 0x40 MSTORE CALLVALUE DUP1 ISZERO PUSH2 0xF JUMPI PUSH0 DUP1 REVERT JUMPDEST POP PUSH1 0x4 CALLDATASIZE LT PUSH2 0x9C JUMPI PUSH0 CALLDATALOAD PUSH1 0xE0 SHR DUP1 PUSH4 0x3E25BCDA GT PUSH2 0x64 JUMPI DUP1 PUSH4 0x3E25BCDA EQ PUSH2 0x10F JUMPI DUP1 PUSH4 0x4018D9AA EQ PUSH2 0x119 JUMPI DUP1 PUSH4 0x572E47AE EQ PUSH2 0x135 JUMPI DUP1 PUSH4 0x9033FAAD EQ PUSH2 0x13F JUMPI DUP1 PUSH4 0xA4ECE52C EQ PUSH2 0x15B JUMPI PUSH2 0x9C JUMP JUMPDEST DUP1 PUSH4 0xC55699C EQ PUSH2 0xA0 JUMPI DUP1 PUSH4 0x1C8ACA3B EQ PUSH2 0xBE JUMPI DUP1 PUSH4 0x2778C334 EQ PUSH2 0xC8 JUMPI DUP1 PUSH4 0x2F135D0C EQ PUSH2 0xE7 JUMPI DUP1 PUSH4 0x370EA142 EQ PUSH2 0x105 JUMPI JUMPDEST PUSH0 DUP1 REVERT JUMPDEST PUSH2 0xA8 PUSH2 0x165 JUMP JUMPDEST PUSH1 0x40 MLOAD PUSH2 0xB5 SWAP2 SWAP1 PUSH2 0x2D1 JUMP JUMPDEST PUSH1 0x40 MLOAD DUP1 SWAP2 SUB SWAP1 RETURN JUMPDEST PUSH2 0xC6 PUSH2 0x16A JUMP JUMPDEST STOP JUMPDEST PUSH2 0xD0 PUSH2 0x1A1 JUMP JUMPDEST PUSH1 0x40 MLOAD PUSH2 0xDE SWAP3 SWAP2 SWAP1 PUSH2 0x2EA JUMP JUMPDEST PUSH1 0x40 MLOAD DUP1 SWAP2 SUB SWAP1 RETURN JUMPDEST PUSH2 0xEF PUSH2 0x1B0 JUMP JUMPDEST PUSH1 0x40 MLOAD PUSH2 0xFC SWAP2 SWAP1 PUSH2 0x2D1 JUMP JUMPDEST PUSH1 0x40 MLOAD DUP1 SWAP2 SUB SWAP1 RETURN JUMPDEST PUSH2 0x10D PUSH2 0x1B9 JUMP JUMPDEST STOP JUMPDEST PUSH2 0x117 PUSH2 0x1F0 JUMP JUMPDEST STOP JUMPDEST PUSH2 0x133 PUSH1 0x4 DUP1 CALLDATASIZE SUB DUP2 ADD SWAP1 PUSH2 0x12E SWAP2 SWAP1 PUSH2 0x33F JUMP JUMPDEST PUSH2 0x227 JUMP JUMPDEST STOP JUMPDEST PUSH2 0x13D PUSH2 0x230 JUMP JUMPDEST STOP JUMPDEST PUSH2 0x159 PUSH1 0x4 DUP1 CALLDATASIZE SUB DUP2 ADD SWAP1 PUSH2 0x154 SWAP2 SWAP1 PUSH2 0x36A JUMP JUMPDEST PUSH2 0x23A JUMP JUMPDEST STOP JUMPDEST PUSH2 0x163 PUSH2 0x24B JUMP JUMPDEST STOP JUMPDEST PUSH0 SLOAD DUP2 JUMP JUMPDEST PUSH32 0xCF34EF537AC33EE1AC626CA1587A0A7E8E51561E5514F8CB36AFA1C5102B3BAB PUSH1 0x40 MLOAD PUSH2 0x197 SWAP1 PUSH2 0x402 JUMP JUMPDEST PUSH1 0x40 MLOAD DUP1 SWAP2 SUB SWAP1 LOG1 JUMP JUMPDEST PUSH0 DUP1 PUSH0 SLOAD PUSH1 0x1 SLOAD SWAP2 POP SWAP2 POP SWAP1 SWAP2 JUMP JUMPDEST PUSH0 PUSH1 0x2 SLOAD SWAP1 POP SWAP1 JUMP JUMPDEST PUSH32 0xCF34EF537AC33EE1AC626CA1587A0A7E8E51561E5514F8CB36AFA1C5102B3BAB PUSH1 0x40 MLOAD PUSH2 0x1E6 SWAP1 PUSH2 0x402 JUMP JUMPDEST PUSH1 0x40 MLOAD DUP1 SWAP2 SUB SWAP1 LOG1 JUMP JUMPDEST PUSH32 0xCF34EF537AC33EE1AC626CA1587A0A7E8E51561E5514F8CB36AFA1C5102B3BAB PUSH1 0x40 MLOAD PUSH2 0x21D SWAP1 PUSH2 0x46A JUMP JUMPDEST PUSH1 0x40 MLOAD DUP1 SWAP2 SUB SWAP1 LOG1 JUMP JUMPDEST DUP1 PUSH0 DUP2 SWAP1 SSTORE POP POP JUMP JUMPDEST PUSH2 0x238 PUSH2 0x282 JUMP JUMPDEST JUMP JUMPDEST DUP2 PUSH0 DUP2 SWAP1 SSTORE POP DUP1 PUSH1 0x1 DUP2 SWAP1 SSTORE POP POP POP JUMP JUMPDEST PUSH32 0xCF34EF537AC33EE1AC626CA1587A0A7E8E51561E5514F8CB36AFA1C5102B3BAB PUSH1 0x40 MLOAD PUSH2 0x278 SWAP1 PUSH2 0x402 JUMP JUMPDEST PUSH1 0x40 MLOAD DUP1 SWAP2 SUB SWAP1 LOG1 JUMP JUMPDEST PUSH32 0xCF34EF537AC33EE1AC626CA1587A0A7E8E51561E5514F8CB36AFA1C5102B3BAB PUSH1 0x40 MLOAD PUSH2 0x2AF SWAP1 PUSH2 0x46A JUMP JUMPDEST PUSH1 0x40 MLOAD DUP1 SWAP2 SUB SWAP1 LOG1 JUMP JUMPDEST PUSH0 DUP2 SWAP1 POP SWAP2 SWAP1 POP JUMP JUMPDEST PUSH2 0x2CB DUP2 PUSH2 0x2B9 JUMP JUMPDEST DUP3 MSTORE POP POP JUMP JUMPDEST PUSH0 PUSH1 0x20 DUP3 ADD SWAP1 POP PUSH2 0x2E4 PUSH0 DUP4 ADD DUP5 PUSH2 0x2C2 JUMP JUMPDEST SWAP3 SWAP2 POP POP JUMP JUMPDEST PUSH0 PUSH1 0x40 DUP3 ADD SWAP1 POP PUSH2 0x2FD PUSH0 DUP4 ADD DUP6 PUSH2 0x2C2 JUMP JUMPDEST PUSH2 0x30A PUSH1 0x20 DUP4 ADD DUP5 PUSH2 0x2C2 JUMP JUMPDEST SWAP4 SWAP3 POP POP POP JUMP JUMPDEST PUSH0 DUP1 REVERT JUMPDEST PUSH2 0x31E DUP2 PUSH2 0x2B9 JUMP JUMPDEST DUP2 EQ PUSH2 0x328 JUMPI PUSH0 DUP1 REVERT JUMPDEST POP JUMP JUMPDEST PUSH0 DUP2 CALLDATALOAD SWAP1 POP PUSH2 0x339 DUP2 PUSH2 0x315 JUMP JUMPDEST SWAP3 SWAP2 POP POP JUMP JUMPDEST PUSH0 PUSH1 0x20 DUP3 DUP5 SUB SLT ISZERO PUSH2 0x354 JUMPI PUSH2 0x353 PUSH2 0x311 JUMP JUMPDEST JUMPDEST PUSH0 PUSH2 0x361 DUP5 DUP3 DUP6 ADD PUSH2 0x32B JUMP JUMPDEST SWAP2 POP POP SWAP3 SWAP2 POP POP JUMP JUMPDEST PUSH0 DUP1 PUSH1 0x40 DUP4 DUP6 SUB SLT ISZERO PUSH2 0x380 JUMPI PUSH2 0x37F PUSH2 0x311 JUMP JUMPDEST JUMPDEST PUSH0 PUSH2 0x38D DUP6 DUP3 DUP7 ADD PUSH2 0x32B JUMP JUMPDEST SWAP3 POP POP PUSH1 0x20 PUSH2 0x39E DUP6 DUP3 DUP7 ADD PUSH2 0x32B JUMP JUMPDEST SWAP2 POP POP SWAP3 POP SWAP3 SWAP1 POP JUMP JUMPDEST PUSH0 DUP3 DUP3 MSTORE PUSH1 0x20 DUP3 ADD SWAP1 POP SWAP3 SWAP2 POP POP JUMP JUMPDEST PUSH32 0x4661746865720000000000000000000000000000000000000000000000000000 PUSH0 DUP3 ADD MSTORE POP JUMP JUMPDEST PUSH0 PUSH2 0x3EC PUSH1 0x6 DUP4 PUSH2 0x3A8 JUMP JUMPDEST SWAP2 POP PUSH2 0x3F7 DUP3 PUSH2 0x3B8 JUMP JUMPDEST PUSH1 0x20 DUP3 ADD SWAP1 POP SWAP2 SWAP1 POP JUMP JUMPDEST PUSH0 PUSH1 0x20 DUP3 ADD SWAP1 POP DUP2 DUP2 SUB PUSH0 DUP4 ADD MSTORE PUSH2 0x419 DUP2 PUSH2 0x3E0 JUMP JUMPDEST SWAP1 POP SWAP2 SWAP1 POP JUMP JUMPDEST PUSH32 0x4772616E64666174686572000000000000000000000000000000000000000000 PUSH0 DUP3 ADD MSTORE POP JUMP JUMPDEST PUSH0 PUSH2 0x454 PUSH1 0xB DUP4 PUSH2 0x3A8 JUMP JUMPDEST SWAP2 POP PUSH2 0x45F DUP3 PUSH2 0x420 JUMP JUMPDEST PUSH1 0x20 DUP3 ADD SWAP1 POP SWAP2 SWAP1 POP JUMP JUMPDEST PUSH0 PUSH1 0x20 DUP3 ADD SWAP1 POP DUP2 DUP2 SUB PUSH0 DUP4 ADD MSTORE PUSH2 0x481 DUP2 PUSH2 0x448 JUMP JUMPDEST SWAP1 POP SWAP2 SWAP1 POP JUMP INVALID LOG2 PUSH5 0x6970667358 0x22 SLT KECCAK256 SWAP7 0x4B 0xB8 0xE9 CALLCODE 0x1F 0xD1 DUP11 BLOCKHASH 0xB4 AND SELFBALANCE CHAINID PUSH29 0x995E9695B666DF6422034D5BC492E395E24D64736F6C634300081A0033 "
				},
				"gasEstimates": {
					"creation": {
						"codeDepositCost": "242800",
						"executionCost": "66596",
						"totalCost": "309396"
					},
					"external": {
						"callParent()": "2008",
						"changeState(uint256,uint256)": "infinite",
						"father()": "1963",
						"getZ()": "2499",
						"grandfather()": "1940",
						"hip()": "2029",
						"pop()": "2028",
						"readState()": "infinite",
						"setX(uint256)": "22536",
						"x()": "2425"
					}
				},
				"methodIdentifiers": {
					"callParent()": "572e47ae",
					"changeState(uint256,uint256)": "9033faad",
					"father()": "1c8aca3b",
					"getZ()": "2f135d0c",
					"grandfather()": "3e25bcda",
					"hip()": "370ea142",
					"pop()": "a4ece52c",
					"readState()": "2778c334",
					"setX(uint256)": "4018d9aa",
					"x()": "0c55699c"
				}
			},
			"storageLayout": {
				"storage": [
					{
						"astId": 4,
						"contract": "contracts/Learn_101_13.sol:Father",
						"label": "x",
						"offset": 0,
						"slot": "0",
						"type": "t_uint256"
					},
					{
						"astId": 7,
						"contract": "contracts/Learn_101_13.sol:Father",
						"label": "y",
						"offset": 0,
						"slot": "1",
						"type": "t_uint256"
					},
					{
						"astId": 10,
						"contract": "contracts/Learn_101_13.sol:Father",
						"label": "z",
						"offset": 0,
						"slot": "2",
						"type": "t_uint256"
					}
				],
				"types": {
					"t_uint256": {
						"encoding": "inplace",
						"label": "uint256",
						"numberOfBytes": "32"
					}
				}
			},
			"userdoc": {
				"kind": "user",
				"methods": {},
				"version": 1
			}
		}
	}
}