{
	"contracts/Learn_102_29.sol": {
		"Selector": {
			"abi": [
				{
					"anonymous": false,
					"inputs": [
						{
							"indexed": false,
							"internalType": "bytes",
							"name": "data",
							"type": "bytes"
						}
					],
					"name": "Log",
					"type": "event"
				},
				{
					"anonymous": false,
					"inputs": [
						{
							"indexed": false,
							"internalType": "bytes4",
							"name": "selector",
							"type": "bytes4"
						}
					],
					"name": "SelectorEvent",
					"type": "event"
				},
				{
					"inputs": [],
					"name": "callWithSignature",
					"outputs": [],
					"stateMutability": "nonpayable",
					"type": "function"
				},
				{
					"inputs": [
						{
							"internalType": "uint256",
							"name": "param1",
							"type": "uint256"
						},
						{
							"internalType": "bool",
							"name": "param2",
							"type": "bool"
						}
					],
					"name": "elementaryParamSelector",
					"outputs": [
						{
							"internalType": "bytes4",
							"name": "selectorWithElementaryParam",
							"type": "bytes4"
						}
					],
					"stateMutability": "nonpayable",
					"type": "function"
				},
				{
					"inputs": [
						{
							"internalType": "uint256[3]",
							"name": "param1",
							"type": "uint256[3]"
						}
					],
					"name": "fixedSizeParamSelector",
					"outputs": [
						{
							"internalType": "bytes4",
							"name": "selectorWithFixedSizeParam",
							"type": "bytes4"
						}
					],
					"stateMutability": "nonpayable",
					"type": "function"
				},
				{
					"inputs": [
						{
							"internalType": "contract EmptyContract",
							"name": "empty",
							"type": "address"
						},
						{
							"components": [
								{
									"internalType": "uint256",
									"name": "uid",
									"type": "uint256"
								},
								{
									"internalType": "bytes",
									"name": "name",
									"type": "bytes"
								}
							],
							"internalType": "struct Selector.User",
							"name": "user",
							"type": "tuple"
						},
						{
							"internalType": "uint256[]",
							"name": "count",
							"type": "uint256[]"
						},
						{
							"internalType": "enum Selector.School",
							"name": "school",
							"type": "uint8"
						}
					],
					"name": "mappingParamSelector",
					"outputs": [
						{
							"internalType": "bytes4",
							"name": "selectorWithMappingParam",
							"type": "bytes4"
						}
					],
					"stateMutability": "nonpayable",
					"type": "function"
				},
				{
					"inputs": [
						{
							"internalType": "address",
							"name": "to",
							"type": "address"
						}
					],
					"name": "mint",
					"outputs": [],
					"stateMutability": "nonpayable",
					"type": "function"
				},
				{
					"inputs": [],
					"name": "mintSelector",
					"outputs": [
						{
							"internalType": "bytes4",
							"name": "mSelector",
							"type": "bytes4"
						}
					],
					"stateMutability": "pure",
					"type": "function"
				},
				{
					"inputs": [
						{
							"internalType": "uint256[]",
							"name": "param1",
							"type": "uint256[]"
						},
						{
							"internalType": "string",
							"name": "param2",
							"type": "string"
						}
					],
					"name": "nonFixedSizeParamSelector",
					"outputs": [
						{
							"internalType": "bytes4",
							"name": "selectorWithNonFixedSizeParam",
							"type": "bytes4"
						}
					],
					"stateMutability": "nonpayable",
					"type": "function"
				}
			],
			"devdoc": {
				"kind": "dev",
				"methods": {},
				"version": 1
			},
			"evm": {
				"assembly": "    /* \"contracts/Learn_102_29.sol\":85:1862  contract Selector{... */\n  mstore(0x40, 0x80)\n  callvalue\n  dup1\n  iszero\n  tag_1\n  jumpi\n  0x00\n  dup1\n  revert\ntag_1:\n  pop\n  dataSize(sub_0)\n  dup1\n  dataOffset(sub_0)\n  0x00\n  codecopy\n  0x00\n  return\nstop\n\nsub_0: assembly {\n        /* \"contracts/Learn_102_29.sol\":85:1862  contract Selector{... */\n      mstore(0x40, 0x80)\n      callvalue\n      dup1\n      iszero\n      tag_1\n      jumpi\n      0x00\n      dup1\n      revert\n    tag_1:\n      pop\n      jumpi(tag_2, lt(calldatasize, 0x04))\n      shr(0xe0, calldataload(0x00))\n      dup1\n      0x6a627842\n      gt\n      tag_10\n      jumpi\n      dup1\n      0x6a627842\n      eq\n      tag_6\n      jumpi\n      dup1\n      0xe355b0ce\n      eq\n      tag_7\n      jumpi\n      dup1\n      0xead6b8bd\n      eq\n      tag_8\n      jumpi\n      dup1\n      0xf0ca01de\n      eq\n      tag_9\n      jumpi\n      jump(tag_2)\n    tag_10:\n      dup1\n      0x046dab16\n      eq\n      tag_3\n      jumpi\n      dup1\n      0x3ec37834\n      eq\n      tag_4\n      jumpi\n      dup1\n      0x59ebea23\n      eq\n      tag_5\n      jumpi\n    tag_2:\n      0x00\n      dup1\n      revert\n        /* \"contracts/Learn_102_29.sol\":255:383  function mintSelector() external pure returns (bytes4 mSelector) {... */\n    tag_3:\n      tag_11\n      tag_12\n      jump\t// in\n    tag_11:\n      mload(0x40)\n      tag_13\n      swap2\n      swap1\n      tag_14\n      jump\t// in\n    tag_13:\n      mload(0x40)\n      dup1\n      swap2\n      sub\n      swap1\n      return\n        /* \"contracts/Learn_102_29.sol\":389:654  function elementaryParamSelector(uint256 param1, bool param2) external returns (bytes4 selectorWithElementaryParam) {... */\n    tag_4:\n      tag_15\n      0x04\n      dup1\n      calldatasize\n      sub\n      dup2\n      add\n      swap1\n      tag_16\n      swap2\n      swap1\n      tag_17\n      jump\t// in\n    tag_16:\n      tag_18\n      jump\t// in\n    tag_15:\n      mload(0x40)\n      tag_19\n      swap2\n      swap1\n      tag_14\n      jump\t// in\n    tag_19:\n      mload(0x40)\n      dup1\n      swap2\n      sub\n      swap1\n      return\n        /* \"contracts/Learn_102_29.sol\":1704:1860  function callWithSignature() external {... */\n    tag_5:\n      tag_20\n      tag_21\n      jump\t// in\n    tag_20:\n      stop\n        /* \"contracts/Learn_102_29.sol\":179:249  function mint(address to) external {... */\n    tag_6:\n      tag_22\n      0x04\n      dup1\n      calldatasize\n      sub\n      dup2\n      add\n      swap1\n      tag_23\n      swap2\n      swap1\n      tag_24\n      jump\t// in\n    tag_23:\n      tag_25\n      jump\t// in\n    tag_22:\n      stop\n        /* \"contracts/Learn_102_29.sol\":1331:1698  function mappingParamSelector(... */\n    tag_7:\n      tag_26\n      0x04\n      dup1\n      calldatasize\n      sub\n      dup2\n      add\n      swap1\n      tag_27\n      swap2\n      swap1\n      tag_28\n      jump\t// in\n    tag_27:\n      tag_29\n      jump\t// in\n    tag_26:\n      mload(0x40)\n      tag_30\n      swap2\n      swap1\n      tag_14\n      jump\t// in\n    tag_30:\n      mload(0x40)\n      dup1\n      swap2\n      sub\n      swap1\n      return\n        /* \"contracts/Learn_102_29.sol\":660:914  function fixedSizeParamSelector(uint256[3] memory param1) external returns(bytes4 selectorWithFixedSizeParam){... */\n    tag_8:\n      tag_31\n      0x04\n      dup1\n      calldatasize\n      sub\n      dup2\n      add\n      swap1\n      tag_32\n      swap2\n      swap1\n      tag_33\n      jump\t// in\n    tag_32:\n      tag_34\n      jump\t// in\n    tag_31:\n      mload(0x40)\n      tag_35\n      swap2\n      swap1\n      tag_14\n      jump\t// in\n    tag_35:\n      mload(0x40)\n      dup1\n      swap2\n      sub\n      swap1\n      return\n        /* \"contracts/Learn_102_29.sol\":920:1212  function nonFixedSizeParamSelector(uint256[] memory param1,string memory param2) external returns(bytes4 selectorWithNonFixedSizeParam){... */\n    tag_9:\n      tag_36\n      0x04\n      dup1\n      calldatasize\n      sub\n      dup2\n      add\n      swap1\n      tag_37\n      swap2\n      swap1\n      tag_38\n      jump\t// in\n    tag_37:\n      tag_39\n      jump\t// in\n    tag_36:\n      mload(0x40)\n      tag_40\n      swap2\n      swap1\n      tag_14\n      jump\t// in\n    tag_40:\n      mload(0x40)\n      dup1\n      swap2\n      sub\n      swap1\n      return\n        /* \"contracts/Learn_102_29.sol\":255:383  function mintSelector() external pure returns (bytes4 mSelector) {... */\n    tag_12:\n        /* \"contracts/Learn_102_29.sol\":302:318  bytes4 mSelector */\n      0x00\n        /* \"contracts/Learn_102_29.sol\":349:375  keccak256(\"mint(address)\") */\n      0x6a627842f752de95745ef8f3ca67858982b5f585d752f8163e5855050041cb3c\n        /* \"contracts/Learn_102_29.sol\":330:376  mSelector = bytes4(keccak256(\"mint(address)\")) */\n      swap1\n      pop\n        /* \"contracts/Learn_102_29.sol\":255:383  function mintSelector() external pure returns (bytes4 mSelector) {... */\n      swap1\n      jump\t// out\n        /* \"contracts/Learn_102_29.sol\":389:654  function elementaryParamSelector(uint256 param1, bool param2) external returns (bytes4 selectorWithElementaryParam) {... */\n    tag_18:\n        /* \"contracts/Learn_102_29.sol\":469:503  bytes4 selectorWithElementaryParam */\n      0x00\n        /* \"contracts/Learn_102_29.sol\":520:572  SelectorEvent(this.elementaryParamSelector.selector) */\n      0x87c76683e354abe8640b03c72d02c9175d9a00a6c0101d5bc4be081b9b8199eb\n        /* \"contracts/Learn_102_29.sol\":534:571  this.elementaryParamSelector.selector */\n      shl(0xe0, 0x3ec37834)\n        /* \"contracts/Learn_102_29.sol\":520:572  SelectorEvent(this.elementaryParamSelector.selector) */\n      mload(0x40)\n      tag_43\n      swap2\n      swap1\n      tag_14\n      jump\t// in\n    tag_43:\n      mload(0x40)\n      dup1\n      swap2\n      sub\n      swap1\n      log1\n        /* \"contracts/Learn_102_29.sol\":596:646  keccak256(\"elementaryParamSelector(uint256,bool)\") */\n      0x3ec3783488bfc90ed98dc398cd67f30f42b252c8ce7d59a4dce63a149c452548\n        /* \"contracts/Learn_102_29.sol\":582:647  return bytes4(keccak256(\"elementaryParamSelector(uint256,bool)\")) */\n      swap1\n      pop\n        /* \"contracts/Learn_102_29.sol\":389:654  function elementaryParamSelector(uint256 param1, bool param2) external returns (bytes4 selectorWithElementaryParam) {... */\n      swap3\n      swap2\n      pop\n      pop\n      jump\t// out\n        /* \"contracts/Learn_102_29.sol\":1704:1860  function callWithSignature() external {... */\n    tag_21:\n        /* \"contracts/Learn_102_29.sol\":1753:1765  bool success */\n      0x00\n        /* \"contracts/Learn_102_29.sol\":1767:1785  bytes memory data1 */\n      dup1\n        /* \"contracts/Learn_102_29.sol\":1797:1801  this */\n      address\n        /* \"contracts/Learn_102_29.sol\":1789:1807  address(this).call */\n      0xffffffffffffffffffffffffffffffffffffffff\n      and\n        /* \"contracts/Learn_102_29.sol\":1831:1841  0x3ec37834 */\n      0x3ec37834\n        /* \"contracts/Learn_102_29.sol\":1843:1844  5 */\n      0x05\n        /* \"contracts/Learn_102_29.sol\":1846:1851  false */\n      0x00\n        /* \"contracts/Learn_102_29.sol\":1808:1852  abi.encodeWithSelector(0x3ec37834, 5, false) */\n      add(0x24, mload(0x40))\n      tag_45\n      swap3\n      swap2\n      swap1\n      tag_46\n      jump\t// in\n    tag_45:\n      mload(0x40)\n      0x20\n      dup2\n      dup4\n      sub\n      sub\n      dup2\n      mstore\n      swap1\n      0x40\n      mstore\n      swap1\n      0xe0\n      shl\n      0x20\n      dup3\n      add\n      dup1\n      mload\n      0xffffffffffffffffffffffffffffffffffffffffffffffffffffffff\n      dup4\n      dup2\n      dup4\n      and\n      or\n      dup4\n      mstore\n      pop\n      pop\n      pop\n      pop\n        /* \"contracts/Learn_102_29.sol\":1789:1853  address(this).call(abi.encodeWithSelector(0x3ec37834, 5, false)) */\n      mload(0x40)\n      tag_47\n      swap2\n      swap1\n      tag_48\n      jump\t// in\n    tag_47:\n      0x00\n      mload(0x40)\n      dup1\n      dup4\n      sub\n      dup2\n      0x00\n      dup7\n      gas\n      call\n      swap2\n      pop\n      pop\n      returndatasize\n      dup1\n      0x00\n      dup2\n      eq\n      tag_51\n      jumpi\n      mload(0x40)\n      swap2\n      pop\n      and(add(returndatasize, 0x3f), not(0x1f))\n      dup3\n      add\n      0x40\n      mstore\n      returndatasize\n      dup3\n      mstore\n      returndatasize\n      0x00\n      0x20\n      dup5\n      add\n      returndatacopy\n      jump(tag_50)\n    tag_51:\n      0x60\n      swap2\n      pop\n    tag_50:\n      pop\n        /* \"contracts/Learn_102_29.sol\":1752:1853  (bool success, bytes memory data1) = address(this).call(abi.encodeWithSelector(0x3ec37834, 5, false)) */\n      swap2\n      pop\n      swap2\n      pop\n        /* \"contracts/Learn_102_29.sol\":1742:1860  {... */\n      pop\n      pop\n        /* \"contracts/Learn_102_29.sol\":1704:1860  function callWithSignature() external {... */\n      jump\t// out\n        /* \"contracts/Learn_102_29.sol\":179:249  function mint(address to) external {... */\n    tag_25:\n        /* \"contracts/Learn_102_29.sol\":229:242  Log(msg.data) */\n      0xafabcf2dd47e06a477a89e49c03f8ebe8e0a7e94f775b25bbb24227c9d0110b2\n        /* \"contracts/Learn_102_29.sol\":233:241  msg.data */\n      0x00\n      calldatasize\n        /* \"contracts/Learn_102_29.sol\":229:242  Log(msg.data) */\n      mload(0x40)\n      tag_53\n      swap3\n      swap2\n      swap1\n      tag_54\n      jump\t// in\n    tag_53:\n      mload(0x40)\n      dup1\n      swap2\n      sub\n      swap1\n      log1\n        /* \"contracts/Learn_102_29.sol\":179:249  function mint(address to) external {... */\n      pop\n      jump\t// out\n        /* \"contracts/Learn_102_29.sol\":1331:1698  function mappingParamSelector(... */\n    tag_29:\n        /* \"contracts/Learn_102_29.sol\":1495:1526  bytes4 selectorWithMappingParam */\n      0x00\n        /* \"contracts/Learn_102_29.sol\":1543:1592  SelectorEvent(this.mappingParamSelector.selector) */\n      0x87c76683e354abe8640b03c72d02c9175d9a00a6c0101d5bc4be081b9b8199eb\n        /* \"contracts/Learn_102_29.sol\":1557:1591  this.mappingParamSelector.selector */\n      shl(0xe0, 0xe355b0ce)\n        /* \"contracts/Learn_102_29.sol\":1543:1592  SelectorEvent(this.mappingParamSelector.selector) */\n      mload(0x40)\n      tag_56\n      swap2\n      swap1\n      tag_14\n      jump\t// in\n    tag_56:\n      mload(0x40)\n      dup1\n      swap2\n      sub\n      swap1\n      log1\n        /* \"contracts/Learn_102_29.sol\":1616:1690  keccak256(\"mappingParamSelector(address,(uint256,bytes),uint256[],uint8)\") */\n      0xe355b0ceecdc5a85bc460808aed3b4d8eaa7935dbf79d2db6ffcf71e5c352576\n        /* \"contracts/Learn_102_29.sol\":1602:1691  return bytes4(keccak256(\"mappingParamSelector(address,(uint256,bytes),uint256[],uint8)\")) */\n      swap1\n      pop\n        /* \"contracts/Learn_102_29.sol\":1331:1698  function mappingParamSelector(... */\n      swap5\n      swap4\n      pop\n      pop\n      pop\n      pop\n      jump\t// out\n        /* \"contracts/Learn_102_29.sol\":660:914  function fixedSizeParamSelector(uint256[3] memory param1) external returns(bytes4 selectorWithFixedSizeParam){... */\n    tag_34:\n        /* \"contracts/Learn_102_29.sol\":735:768  bytes4 selectorWithFixedSizeParam */\n      0x00\n        /* \"contracts/Learn_102_29.sol\":784:835  SelectorEvent(this.fixedSizeParamSelector.selector) */\n      0x87c76683e354abe8640b03c72d02c9175d9a00a6c0101d5bc4be081b9b8199eb\n        /* \"contracts/Learn_102_29.sol\":798:834  this.fixedSizeParamSelector.selector */\n      shl(0xe0, 0xead6b8bd)\n        /* \"contracts/Learn_102_29.sol\":784:835  SelectorEvent(this.fixedSizeParamSelector.selector) */\n      mload(0x40)\n      tag_58\n      swap2\n      swap1\n      tag_14\n      jump\t// in\n    tag_58:\n      mload(0x40)\n      dup1\n      swap2\n      sub\n      swap1\n      log1\n        /* \"contracts/Learn_102_29.sol\":859:906  keccak256(\"fixedSizeParamSelector(uint256[3])\") */\n      0xead6b8bdece33532847146a6fe63967e794ef7c18f3b888ae6fb3aebb4ef1b95\n        /* \"contracts/Learn_102_29.sol\":845:907  return bytes4(keccak256(\"fixedSizeParamSelector(uint256[3])\")) */\n      swap1\n      pop\n        /* \"contracts/Learn_102_29.sol\":660:914  function fixedSizeParamSelector(uint256[3] memory param1) external returns(bytes4 selectorWithFixedSizeParam){... */\n      swap2\n      swap1\n      pop\n      jump\t// out\n        /* \"contracts/Learn_102_29.sol\":920:1212  function nonFixedSizeParamSelector(uint256[] memory param1,string memory param2) external returns(bytes4 selectorWithNonFixedSizeParam){... */\n    tag_39:\n        /* \"contracts/Learn_102_29.sol\":1018:1054  bytes4 selectorWithNonFixedSizeParam */\n      0x00\n        /* \"contracts/Learn_102_29.sol\":1070:1124  SelectorEvent(this.nonFixedSizeParamSelector.selector) */\n      0x87c76683e354abe8640b03c72d02c9175d9a00a6c0101d5bc4be081b9b8199eb\n        /* \"contracts/Learn_102_29.sol\":1084:1123  this.nonFixedSizeParamSelector.selector */\n      shl(0xe0, 0xf0ca01de)\n        /* \"contracts/Learn_102_29.sol\":1070:1124  SelectorEvent(this.nonFixedSizeParamSelector.selector) */\n      mload(0x40)\n      tag_60\n      swap2\n      swap1\n      tag_14\n      jump\t// in\n    tag_60:\n      mload(0x40)\n      dup1\n      swap2\n      sub\n      swap1\n      log1\n        /* \"contracts/Learn_102_29.sol\":1148:1204  keccak256(\"nonFixedSizeParamSelector(uint256[],string)\") */\n      0xf0ca01de95639524000d6ff4e9309b96c7f67f7961bf24b33f8b20e85f6ad977\n        /* \"contracts/Learn_102_29.sol\":1134:1205  return bytes4(keccak256(\"nonFixedSizeParamSelector(uint256[],string)\")) */\n      swap1\n      pop\n        /* \"contracts/Learn_102_29.sol\":920:1212  function nonFixedSizeParamSelector(uint256[] memory param1,string memory param2) external returns(bytes4 selectorWithNonFixedSizeParam){... */\n      swap3\n      swap2\n      pop\n      pop\n      jump\t// out\n        /* \"#utility.yul\":7:156   */\n    tag_61:\n        /* \"#utility.yul\":43:50   */\n      0x00\n        /* \"#utility.yul\":83:149   */\n      0xffffffff00000000000000000000000000000000000000000000000000000000\n        /* \"#utility.yul\":76:81   */\n      dup3\n        /* \"#utility.yul\":72:150   */\n      and\n        /* \"#utility.yul\":61:150   */\n      swap1\n      pop\n        /* \"#utility.yul\":7:156   */\n      swap2\n      swap1\n      pop\n      jump\t// out\n        /* \"#utility.yul\":162:277   */\n    tag_62:\n        /* \"#utility.yul\":247:270   */\n      tag_119\n        /* \"#utility.yul\":264:269   */\n      dup2\n        /* \"#utility.yul\":247:270   */\n      tag_61\n      jump\t// in\n    tag_119:\n        /* \"#utility.yul\":242:245   */\n      dup3\n        /* \"#utility.yul\":235:271   */\n      mstore\n        /* \"#utility.yul\":162:277   */\n      pop\n      pop\n      jump\t// out\n        /* \"#utility.yul\":283:501   */\n    tag_14:\n        /* \"#utility.yul\":374:378   */\n      0x00\n        /* \"#utility.yul\":412:414   */\n      0x20\n        /* \"#utility.yul\":401:410   */\n      dup3\n        /* \"#utility.yul\":397:415   */\n      add\n        /* \"#utility.yul\":389:415   */\n      swap1\n      pop\n        /* \"#utility.yul\":425:494   */\n      tag_121\n        /* \"#utility.yul\":491:492   */\n      0x00\n        /* \"#utility.yul\":480:489   */\n      dup4\n        /* \"#utility.yul\":476:493   */\n      add\n        /* \"#utility.yul\":467:473   */\n      dup5\n        /* \"#utility.yul\":425:494   */\n      tag_62\n      jump\t// in\n    tag_121:\n        /* \"#utility.yul\":283:501   */\n      swap3\n      swap2\n      pop\n      pop\n      jump\t// out\n        /* \"#utility.yul\":507:582   */\n    tag_63:\n        /* \"#utility.yul\":540:546   */\n      0x00\n        /* \"#utility.yul\":573:575   */\n      0x40\n        /* \"#utility.yul\":567:576   */\n      mload\n        /* \"#utility.yul\":557:576   */\n      swap1\n      pop\n        /* \"#utility.yul\":507:582   */\n      swap1\n      jump\t// out\n        /* \"#utility.yul\":588:705   */\n    tag_64:\n        /* \"#utility.yul\":697:698   */\n      0x00\n        /* \"#utility.yul\":694:695   */\n      dup1\n        /* \"#utility.yul\":687:699   */\n      revert\n        /* \"#utility.yul\":711:828   */\n    tag_65:\n        /* \"#utility.yul\":820:821   */\n      0x00\n        /* \"#utility.yul\":817:818   */\n      dup1\n        /* \"#utility.yul\":810:822   */\n      revert\n        /* \"#utility.yul\":834:911   */\n    tag_66:\n        /* \"#utility.yul\":871:878   */\n      0x00\n        /* \"#utility.yul\":900:905   */\n      dup2\n        /* \"#utility.yul\":889:905   */\n      swap1\n      pop\n        /* \"#utility.yul\":834:911   */\n      swap2\n      swap1\n      pop\n      jump\t// out\n        /* \"#utility.yul\":917:1039   */\n    tag_67:\n        /* \"#utility.yul\":990:1014   */\n      tag_127\n        /* \"#utility.yul\":1008:1013   */\n      dup2\n        /* \"#utility.yul\":990:1014   */\n      tag_66\n      jump\t// in\n    tag_127:\n        /* \"#utility.yul\":983:988   */\n      dup2\n        /* \"#utility.yul\":980:1015   */\n      eq\n        /* \"#utility.yul\":970:1033   */\n      tag_128\n      jumpi\n        /* \"#utility.yul\":1029:1030   */\n      0x00\n        /* \"#utility.yul\":1026:1027   */\n      dup1\n        /* \"#utility.yul\":1019:1031   */\n      revert\n        /* \"#utility.yul\":970:1033   */\n    tag_128:\n        /* \"#utility.yul\":917:1039   */\n      pop\n      jump\t// out\n        /* \"#utility.yul\":1045:1184   */\n    tag_68:\n        /* \"#utility.yul\":1091:1096   */\n      0x00\n        /* \"#utility.yul\":1129:1135   */\n      dup2\n        /* \"#utility.yul\":1116:1136   */\n      calldataload\n        /* \"#utility.yul\":1107:1136   */\n      swap1\n      pop\n        /* \"#utility.yul\":1145:1178   */\n      tag_130\n        /* \"#utility.yul\":1172:1177   */\n      dup2\n        /* \"#utility.yul\":1145:1178   */\n      tag_67\n      jump\t// in\n    tag_130:\n        /* \"#utility.yul\":1045:1184   */\n      swap3\n      swap2\n      pop\n      pop\n      jump\t// out\n        /* \"#utility.yul\":1190:1280   */\n    tag_69:\n        /* \"#utility.yul\":1224:1231   */\n      0x00\n        /* \"#utility.yul\":1267:1272   */\n      dup2\n        /* \"#utility.yul\":1260:1273   */\n      iszero\n        /* \"#utility.yul\":1253:1274   */\n      iszero\n        /* \"#utility.yul\":1242:1274   */\n      swap1\n      pop\n        /* \"#utility.yul\":1190:1280   */\n      swap2\n      swap1\n      pop\n      jump\t// out\n        /* \"#utility.yul\":1286:1402   */\n    tag_70:\n        /* \"#utility.yul\":1356:1377   */\n      tag_133\n        /* \"#utility.yul\":1371:1376   */\n      dup2\n        /* \"#utility.yul\":1356:1377   */\n      tag_69\n      jump\t// in\n    tag_133:\n        /* \"#utility.yul\":1349:1354   */\n      dup2\n        /* \"#utility.yul\":1346:1378   */\n      eq\n        /* \"#utility.yul\":1336:1396   */\n      tag_134\n      jumpi\n        /* \"#utility.yul\":1392:1393   */\n      0x00\n        /* \"#utility.yul\":1389:1390   */\n      dup1\n        /* \"#utility.yul\":1382:1394   */\n      revert\n        /* \"#utility.yul\":1336:1396   */\n    tag_134:\n        /* \"#utility.yul\":1286:1402   */\n      pop\n      jump\t// out\n        /* \"#utility.yul\":1408:1541   */\n    tag_71:\n        /* \"#utility.yul\":1451:1456   */\n      0x00\n        /* \"#utility.yul\":1489:1495   */\n      dup2\n        /* \"#utility.yul\":1476:1496   */\n      calldataload\n        /* \"#utility.yul\":1467:1496   */\n      swap1\n      pop\n        /* \"#utility.yul\":1505:1535   */\n      tag_136\n        /* \"#utility.yul\":1529:1534   */\n      dup2\n        /* \"#utility.yul\":1505:1535   */\n      tag_70\n      jump\t// in\n    tag_136:\n        /* \"#utility.yul\":1408:1541   */\n      swap3\n      swap2\n      pop\n      pop\n      jump\t// out\n        /* \"#utility.yul\":1547:2015   */\n    tag_17:\n        /* \"#utility.yul\":1612:1618   */\n      0x00\n        /* \"#utility.yul\":1620:1626   */\n      dup1\n        /* \"#utility.yul\":1669:1671   */\n      0x40\n        /* \"#utility.yul\":1657:1666   */\n      dup4\n        /* \"#utility.yul\":1648:1655   */\n      dup6\n        /* \"#utility.yul\":1644:1667   */\n      sub\n        /* \"#utility.yul\":1640:1672   */\n      slt\n        /* \"#utility.yul\":1637:1756   */\n      iszero\n      tag_138\n      jumpi\n        /* \"#utility.yul\":1675:1754   */\n      tag_139\n      tag_64\n      jump\t// in\n    tag_139:\n        /* \"#utility.yul\":1637:1756   */\n    tag_138:\n        /* \"#utility.yul\":1795:1796   */\n      0x00\n        /* \"#utility.yul\":1820:1873   */\n      tag_140\n        /* \"#utility.yul\":1865:1872   */\n      dup6\n        /* \"#utility.yul\":1856:1862   */\n      dup3\n        /* \"#utility.yul\":1845:1854   */\n      dup7\n        /* \"#utility.yul\":1841:1863   */\n      add\n        /* \"#utility.yul\":1820:1873   */\n      tag_68\n      jump\t// in\n    tag_140:\n        /* \"#utility.yul\":1810:1873   */\n      swap3\n      pop\n        /* \"#utility.yul\":1766:1883   */\n      pop\n        /* \"#utility.yul\":1922:1924   */\n      0x20\n        /* \"#utility.yul\":1948:1998   */\n      tag_141\n        /* \"#utility.yul\":1990:1997   */\n      dup6\n        /* \"#utility.yul\":1981:1987   */\n      dup3\n        /* \"#utility.yul\":1970:1979   */\n      dup7\n        /* \"#utility.yul\":1966:1988   */\n      add\n        /* \"#utility.yul\":1948:1998   */\n      tag_71\n      jump\t// in\n    tag_141:\n        /* \"#utility.yul\":1938:1998   */\n      swap2\n      pop\n        /* \"#utility.yul\":1893:2008   */\n      pop\n        /* \"#utility.yul\":1547:2015   */\n      swap3\n      pop\n      swap3\n      swap1\n      pop\n      jump\t// out\n        /* \"#utility.yul\":2021:2147   */\n    tag_72:\n        /* \"#utility.yul\":2058:2065   */\n      0x00\n        /* \"#utility.yul\":2098:2140   */\n      0xffffffffffffffffffffffffffffffffffffffff\n        /* \"#utility.yul\":2091:2096   */\n      dup3\n        /* \"#utility.yul\":2087:2141   */\n      and\n        /* \"#utility.yul\":2076:2141   */\n      swap1\n      pop\n        /* \"#utility.yul\":2021:2147   */\n      swap2\n      swap1\n      pop\n      jump\t// out\n        /* \"#utility.yul\":2153:2249   */\n    tag_73:\n        /* \"#utility.yul\":2190:2197   */\n      0x00\n        /* \"#utility.yul\":2219:2243   */\n      tag_144\n        /* \"#utility.yul\":2237:2242   */\n      dup3\n        /* \"#utility.yul\":2219:2243   */\n      tag_72\n      jump\t// in\n    tag_144:\n        /* \"#utility.yul\":2208:2243   */\n      swap1\n      pop\n        /* \"#utility.yul\":2153:2249   */\n      swap2\n      swap1\n      pop\n      jump\t// out\n        /* \"#utility.yul\":2255:2377   */\n    tag_74:\n        /* \"#utility.yul\":2328:2352   */\n      tag_146\n        /* \"#utility.yul\":2346:2351   */\n      dup2\n        /* \"#utility.yul\":2328:2352   */\n      tag_73\n      jump\t// in\n    tag_146:\n        /* \"#utility.yul\":2321:2326   */\n      dup2\n        /* \"#utility.yul\":2318:2353   */\n      eq\n        /* \"#utility.yul\":2308:2371   */\n      tag_147\n      jumpi\n        /* \"#utility.yul\":2367:2368   */\n      0x00\n        /* \"#utility.yul\":2364:2365   */\n      dup1\n        /* \"#utility.yul\":2357:2369   */\n      revert\n        /* \"#utility.yul\":2308:2371   */\n    tag_147:\n        /* \"#utility.yul\":2255:2377   */\n      pop\n      jump\t// out\n        /* \"#utility.yul\":2383:2522   */\n    tag_75:\n        /* \"#utility.yul\":2429:2434   */\n      0x00\n        /* \"#utility.yul\":2467:2473   */\n      dup2\n        /* \"#utility.yul\":2454:2474   */\n      calldataload\n        /* \"#utility.yul\":2445:2474   */\n      swap1\n      pop\n        /* \"#utility.yul\":2483:2516   */\n      tag_149\n        /* \"#utility.yul\":2510:2515   */\n      dup2\n        /* \"#utility.yul\":2483:2516   */\n      tag_74\n      jump\t// in\n    tag_149:\n        /* \"#utility.yul\":2383:2522   */\n      swap3\n      swap2\n      pop\n      pop\n      jump\t// out\n        /* \"#utility.yul\":2528:2857   */\n    tag_24:\n        /* \"#utility.yul\":2587:2593   */\n      0x00\n        /* \"#utility.yul\":2636:2638   */\n      0x20\n        /* \"#utility.yul\":2624:2633   */\n      dup3\n        /* \"#utility.yul\":2615:2622   */\n      dup5\n        /* \"#utility.yul\":2611:2634   */\n      sub\n        /* \"#utility.yul\":2607:2639   */\n      slt\n        /* \"#utility.yul\":2604:2723   */\n      iszero\n      tag_151\n      jumpi\n        /* \"#utility.yul\":2642:2721   */\n      tag_152\n      tag_64\n      jump\t// in\n    tag_152:\n        /* \"#utility.yul\":2604:2723   */\n    tag_151:\n        /* \"#utility.yul\":2762:2763   */\n      0x00\n        /* \"#utility.yul\":2787:2840   */\n      tag_153\n        /* \"#utility.yul\":2832:2839   */\n      dup5\n        /* \"#utility.yul\":2823:2829   */\n      dup3\n        /* \"#utility.yul\":2812:2821   */\n      dup6\n        /* \"#utility.yul\":2808:2830   */\n      add\n        /* \"#utility.yul\":2787:2840   */\n      tag_75\n      jump\t// in\n    tag_153:\n        /* \"#utility.yul\":2777:2840   */\n      swap2\n      pop\n        /* \"#utility.yul\":2733:2850   */\n      pop\n        /* \"#utility.yul\":2528:2857   */\n      swap3\n      swap2\n      pop\n      pop\n      jump\t// out\n        /* \"#utility.yul\":2863:2978   */\n    tag_76:\n        /* \"#utility.yul\":2919:2926   */\n      0x00\n        /* \"#utility.yul\":2948:2972   */\n      tag_155\n        /* \"#utility.yul\":2966:2971   */\n      dup3\n        /* \"#utility.yul\":2948:2972   */\n      tag_73\n      jump\t// in\n    tag_155:\n        /* \"#utility.yul\":2937:2972   */\n      swap1\n      pop\n        /* \"#utility.yul\":2863:2978   */\n      swap2\n      swap1\n      pop\n      jump\t// out\n        /* \"#utility.yul\":2984:3144   */\n    tag_77:\n        /* \"#utility.yul\":3076:3119   */\n      tag_157\n        /* \"#utility.yul\":3113:3118   */\n      dup2\n        /* \"#utility.yul\":3076:3119   */\n      tag_76\n      jump\t// in\n    tag_157:\n        /* \"#utility.yul\":3069:3074   */\n      dup2\n        /* \"#utility.yul\":3066:3120   */\n      eq\n        /* \"#utility.yul\":3056:3138   */\n      tag_158\n      jumpi\n        /* \"#utility.yul\":3134:3135   */\n      0x00\n        /* \"#utility.yul\":3131:3132   */\n      dup1\n        /* \"#utility.yul\":3124:3136   */\n      revert\n        /* \"#utility.yul\":3056:3138   */\n    tag_158:\n        /* \"#utility.yul\":2984:3144   */\n      pop\n      jump\t// out\n        /* \"#utility.yul\":3150:3327   */\n    tag_78:\n        /* \"#utility.yul\":3215:3220   */\n      0x00\n        /* \"#utility.yul\":3253:3259   */\n      dup2\n        /* \"#utility.yul\":3240:3260   */\n      calldataload\n        /* \"#utility.yul\":3231:3260   */\n      swap1\n      pop\n        /* \"#utility.yul\":3269:3321   */\n      tag_160\n        /* \"#utility.yul\":3315:3320   */\n      dup2\n        /* \"#utility.yul\":3269:3321   */\n      tag_77\n      jump\t// in\n    tag_160:\n        /* \"#utility.yul\":3150:3327   */\n      swap3\n      swap2\n      pop\n      pop\n      jump\t// out\n        /* \"#utility.yul\":3333:3450   */\n    tag_79:\n        /* \"#utility.yul\":3442:3443   */\n      0x00\n        /* \"#utility.yul\":3439:3440   */\n      dup1\n        /* \"#utility.yul\":3432:3444   */\n      revert\n        /* \"#utility.yul\":3456:3558   */\n    tag_80:\n        /* \"#utility.yul\":3497:3503   */\n      0x00\n        /* \"#utility.yul\":3548:3550   */\n      0x1f\n        /* \"#utility.yul\":3544:3551   */\n      not\n        /* \"#utility.yul\":3539:3541   */\n      0x1f\n        /* \"#utility.yul\":3532:3537   */\n      dup4\n        /* \"#utility.yul\":3528:3542   */\n      add\n        /* \"#utility.yul\":3524:3552   */\n      and\n        /* \"#utility.yul\":3514:3552   */\n      swap1\n      pop\n        /* \"#utility.yul\":3456:3558   */\n      swap2\n      swap1\n      pop\n      jump\t// out\n        /* \"#utility.yul\":3564:3744   */\n    tag_81:\n        /* \"#utility.yul\":3612:3689   */\n      0x4e487b7100000000000000000000000000000000000000000000000000000000\n        /* \"#utility.yul\":3609:3610   */\n      0x00\n        /* \"#utility.yul\":3602:3690   */\n      mstore\n        /* \"#utility.yul\":3709:3713   */\n      0x41\n        /* \"#utility.yul\":3706:3707   */\n      0x04\n        /* \"#utility.yul\":3699:3714   */\n      mstore\n        /* \"#utility.yul\":3733:3737   */\n      0x24\n        /* \"#utility.yul\":3730:3731   */\n      0x00\n        /* \"#utility.yul\":3723:3738   */\n      revert\n        /* \"#utility.yul\":3750:4031   */\n    tag_82:\n        /* \"#utility.yul\":3833:3860   */\n      tag_165\n        /* \"#utility.yul\":3855:3859   */\n      dup3\n        /* \"#utility.yul\":3833:3860   */\n      tag_80\n      jump\t// in\n    tag_165:\n        /* \"#utility.yul\":3825:3831   */\n      dup2\n        /* \"#utility.yul\":3821:3861   */\n      add\n        /* \"#utility.yul\":3963:3969   */\n      dup2\n        /* \"#utility.yul\":3951:3961   */\n      dup2\n        /* \"#utility.yul\":3948:3970   */\n      lt\n        /* \"#utility.yul\":3927:3945   */\n      0xffffffffffffffff\n        /* \"#utility.yul\":3915:3925   */\n      dup3\n        /* \"#utility.yul\":3912:3946   */\n      gt\n        /* \"#utility.yul\":3909:3971   */\n      or\n        /* \"#utility.yul\":3906:3994   */\n      iszero\n      tag_166\n      jumpi\n        /* \"#utility.yul\":3974:3992   */\n      tag_167\n      tag_81\n      jump\t// in\n    tag_167:\n        /* \"#utility.yul\":3906:3994   */\n    tag_166:\n        /* \"#utility.yul\":4014:4024   */\n      dup1\n        /* \"#utility.yul\":4010:4012   */\n      0x40\n        /* \"#utility.yul\":4003:4025   */\n      mstore\n        /* \"#utility.yul\":3793:4031   */\n      pop\n        /* \"#utility.yul\":3750:4031   */\n      pop\n      pop\n      jump\t// out\n        /* \"#utility.yul\":4037:4166   */\n    tag_83:\n        /* \"#utility.yul\":4071:4077   */\n      0x00\n        /* \"#utility.yul\":4098:4118   */\n      tag_169\n      tag_63\n      jump\t// in\n    tag_169:\n        /* \"#utility.yul\":4088:4118   */\n      swap1\n      pop\n        /* \"#utility.yul\":4127:4160   */\n      tag_170\n        /* \"#utility.yul\":4155:4159   */\n      dup3\n        /* \"#utility.yul\":4147:4153   */\n      dup3\n        /* \"#utility.yul\":4127:4160   */\n      tag_82\n      jump\t// in\n    tag_170:\n        /* \"#utility.yul\":4037:4166   */\n      swap2\n      swap1\n      pop\n      jump\t// out\n        /* \"#utility.yul\":4172:4289   */\n    tag_84:\n        /* \"#utility.yul\":4281:4282   */\n      0x00\n        /* \"#utility.yul\":4278:4279   */\n      dup1\n        /* \"#utility.yul\":4271:4283   */\n      revert\n        /* \"#utility.yul\":4295:4412   */\n    tag_85:\n        /* \"#utility.yul\":4404:4405   */\n      0x00\n        /* \"#utility.yul\":4401:4402   */\n      dup1\n        /* \"#utility.yul\":4394:4406   */\n      revert\n        /* \"#utility.yul\":4418:4535   */\n    tag_86:\n        /* \"#utility.yul\":4527:4528   */\n      0x00\n        /* \"#utility.yul\":4524:4525   */\n      dup1\n        /* \"#utility.yul\":4517:4529   */\n      revert\n        /* \"#utility.yul\":4541:4848   */\n    tag_87:\n        /* \"#utility.yul\":4602:4606   */\n      0x00\n        /* \"#utility.yul\":4692:4710   */\n      0xffffffffffffffff\n        /* \"#utility.yul\":4684:4690   */\n      dup3\n        /* \"#utility.yul\":4681:4711   */\n      gt\n        /* \"#utility.yul\":4678:4734   */\n      iszero\n      tag_175\n      jumpi\n        /* \"#utility.yul\":4714:4732   */\n      tag_176\n      tag_81\n      jump\t// in\n    tag_176:\n        /* \"#utility.yul\":4678:4734   */\n    tag_175:\n        /* \"#utility.yul\":4752:4781   */\n      tag_177\n        /* \"#utility.yul\":4774:4780   */\n      dup3\n        /* \"#utility.yul\":4752:4781   */\n      tag_80\n      jump\t// in\n    tag_177:\n        /* \"#utility.yul\":4744:4781   */\n      swap1\n      pop\n        /* \"#utility.yul\":4836:4840   */\n      0x20\n        /* \"#utility.yul\":4830:4834   */\n      dup2\n        /* \"#utility.yul\":4826:4841   */\n      add\n        /* \"#utility.yul\":4818:4841   */\n      swap1\n      pop\n        /* \"#utility.yul\":4541:4848   */\n      swap2\n      swap1\n      pop\n      jump\t// out\n        /* \"#utility.yul\":4854:5002   */\n    tag_88:\n        /* \"#utility.yul\":4952:4958   */\n      dup3\n        /* \"#utility.yul\":4947:4950   */\n      dup2\n        /* \"#utility.yul\":4942:4945   */\n      dup4\n        /* \"#utility.yul\":4929:4959   */\n      calldatacopy\n        /* \"#utility.yul\":4993:4994   */\n      0x00\n        /* \"#utility.yul\":4984:4990   */\n      dup4\n        /* \"#utility.yul\":4979:4982   */\n      dup4\n        /* \"#utility.yul\":4975:4991   */\n      add\n        /* \"#utility.yul\":4968:4995   */\n      mstore\n        /* \"#utility.yul\":4854:5002   */\n      pop\n      pop\n      pop\n      jump\t// out\n        /* \"#utility.yul\":5008:5431   */\n    tag_89:\n        /* \"#utility.yul\":5085:5090   */\n      0x00\n        /* \"#utility.yul\":5110:5175   */\n      tag_180\n        /* \"#utility.yul\":5126:5174   */\n      tag_181\n        /* \"#utility.yul\":5167:5173   */\n      dup5\n        /* \"#utility.yul\":5126:5174   */\n      tag_87\n      jump\t// in\n    tag_181:\n        /* \"#utility.yul\":5110:5175   */\n      tag_83\n      jump\t// in\n    tag_180:\n        /* \"#utility.yul\":5101:5175   */\n      swap1\n      pop\n        /* \"#utility.yul\":5198:5204   */\n      dup3\n        /* \"#utility.yul\":5191:5196   */\n      dup2\n        /* \"#utility.yul\":5184:5205   */\n      mstore\n        /* \"#utility.yul\":5236:5240   */\n      0x20\n        /* \"#utility.yul\":5229:5234   */\n      dup2\n        /* \"#utility.yul\":5225:5241   */\n      add\n        /* \"#utility.yul\":5274:5277   */\n      dup5\n        /* \"#utility.yul\":5265:5271   */\n      dup5\n        /* \"#utility.yul\":5260:5263   */\n      dup5\n        /* \"#utility.yul\":5256:5272   */\n      add\n        /* \"#utility.yul\":5253:5278   */\n      gt\n        /* \"#utility.yul\":5250:5362   */\n      iszero\n      tag_182\n      jumpi\n        /* \"#utility.yul\":5281:5360   */\n      tag_183\n      tag_86\n      jump\t// in\n    tag_183:\n        /* \"#utility.yul\":5250:5362   */\n    tag_182:\n        /* \"#utility.yul\":5371:5425   */\n      tag_184\n        /* \"#utility.yul\":5418:5424   */\n      dup5\n        /* \"#utility.yul\":5413:5416   */\n      dup3\n        /* \"#utility.yul\":5408:5411   */\n      dup6\n        /* \"#utility.yul\":5371:5425   */\n      tag_88\n      jump\t// in\n    tag_184:\n        /* \"#utility.yul\":5091:5431   */\n      pop\n        /* \"#utility.yul\":5008:5431   */\n      swap4\n      swap3\n      pop\n      pop\n      pop\n      jump\t// out\n        /* \"#utility.yul\":5450:5788   */\n    tag_90:\n        /* \"#utility.yul\":5505:5510   */\n      0x00\n        /* \"#utility.yul\":5554:5557   */\n      dup3\n        /* \"#utility.yul\":5547:5551   */\n      0x1f\n        /* \"#utility.yul\":5539:5545   */\n      dup4\n        /* \"#utility.yul\":5535:5552   */\n      add\n        /* \"#utility.yul\":5531:5558   */\n      slt\n        /* \"#utility.yul\":5521:5643   */\n      tag_186\n      jumpi\n        /* \"#utility.yul\":5562:5641   */\n      tag_187\n      tag_85\n      jump\t// in\n    tag_187:\n        /* \"#utility.yul\":5521:5643   */\n    tag_186:\n        /* \"#utility.yul\":5679:5685   */\n      dup2\n        /* \"#utility.yul\":5666:5686   */\n      calldataload\n        /* \"#utility.yul\":5704:5782   */\n      tag_188\n        /* \"#utility.yul\":5778:5781   */\n      dup5\n        /* \"#utility.yul\":5770:5776   */\n      dup3\n        /* \"#utility.yul\":5763:5767   */\n      0x20\n        /* \"#utility.yul\":5755:5761   */\n      dup7\n        /* \"#utility.yul\":5751:5768   */\n      add\n        /* \"#utility.yul\":5704:5782   */\n      tag_89\n      jump\t// in\n    tag_188:\n        /* \"#utility.yul\":5695:5782   */\n      swap2\n      pop\n        /* \"#utility.yul\":5511:5788   */\n      pop\n        /* \"#utility.yul\":5450:5788   */\n      swap3\n      swap2\n      pop\n      pop\n      jump\t// out\n        /* \"#utility.yul\":5822:6560   */\n    tag_91:\n        /* \"#utility.yul\":5892:5897   */\n      0x00\n        /* \"#utility.yul\":5936:5940   */\n      0x40\n        /* \"#utility.yul\":5924:5933   */\n      dup3\n        /* \"#utility.yul\":5919:5922   */\n      dup5\n        /* \"#utility.yul\":5915:5934   */\n      sub\n        /* \"#utility.yul\":5911:5941   */\n      slt\n        /* \"#utility.yul\":5908:6025   */\n      iszero\n      tag_190\n      jumpi\n        /* \"#utility.yul\":5944:6023   */\n      tag_191\n      tag_79\n      jump\t// in\n    tag_191:\n        /* \"#utility.yul\":5908:6025   */\n    tag_190:\n        /* \"#utility.yul\":6043:6064   */\n      tag_192\n        /* \"#utility.yul\":6059:6063   */\n      0x40\n        /* \"#utility.yul\":6043:6064   */\n      tag_83\n      jump\t// in\n    tag_192:\n        /* \"#utility.yul\":6034:6064   */\n      swap1\n      pop\n        /* \"#utility.yul\":6122:6123   */\n      0x00\n        /* \"#utility.yul\":6162:6211   */\n      tag_193\n        /* \"#utility.yul\":6207:6210   */\n      dup5\n        /* \"#utility.yul\":6198:6204   */\n      dup3\n        /* \"#utility.yul\":6187:6196   */\n      dup6\n        /* \"#utility.yul\":6183:6205   */\n      add\n        /* \"#utility.yul\":6162:6211   */\n      tag_68\n      jump\t// in\n    tag_193:\n        /* \"#utility.yul\":6155:6159   */\n      0x00\n        /* \"#utility.yul\":6148:6153   */\n      dup4\n        /* \"#utility.yul\":6144:6160   */\n      add\n        /* \"#utility.yul\":6137:6212   */\n      mstore\n        /* \"#utility.yul\":6074:6223   */\n      pop\n        /* \"#utility.yul\":6310:6312   */\n      0x20\n        /* \"#utility.yul\":6299:6308   */\n      dup3\n        /* \"#utility.yul\":6295:6313   */\n      add\n        /* \"#utility.yul\":6282:6314   */\n      calldataload\n        /* \"#utility.yul\":6341:6359   */\n      0xffffffffffffffff\n        /* \"#utility.yul\":6333:6339   */\n      dup2\n        /* \"#utility.yul\":6330:6360   */\n      gt\n        /* \"#utility.yul\":6327:6444   */\n      iszero\n      tag_194\n      jumpi\n        /* \"#utility.yul\":6363:6442   */\n      tag_195\n      tag_84\n      jump\t// in\n    tag_195:\n        /* \"#utility.yul\":6327:6444   */\n    tag_194:\n        /* \"#utility.yul\":6483:6541   */\n      tag_196\n        /* \"#utility.yul\":6537:6540   */\n      dup5\n        /* \"#utility.yul\":6528:6534   */\n      dup3\n        /* \"#utility.yul\":6517:6526   */\n      dup6\n        /* \"#utility.yul\":6513:6535   */\n      add\n        /* \"#utility.yul\":6483:6541   */\n      tag_90\n      jump\t// in\n    tag_196:\n        /* \"#utility.yul\":6476:6480   */\n      0x20\n        /* \"#utility.yul\":6469:6474   */\n      dup4\n        /* \"#utility.yul\":6465:6481   */\n      add\n        /* \"#utility.yul\":6458:6542   */\n      mstore\n        /* \"#utility.yul\":6233:6553   */\n      pop\n        /* \"#utility.yul\":5822:6560   */\n      swap3\n      swap2\n      pop\n      pop\n      jump\t// out\n        /* \"#utility.yul\":6566:6877   */\n    tag_92:\n        /* \"#utility.yul\":6643:6647   */\n      0x00\n        /* \"#utility.yul\":6733:6751   */\n      0xffffffffffffffff\n        /* \"#utility.yul\":6725:6731   */\n      dup3\n        /* \"#utility.yul\":6722:6752   */\n      gt\n        /* \"#utility.yul\":6719:6775   */\n      iszero\n      tag_198\n      jumpi\n        /* \"#utility.yul\":6755:6773   */\n      tag_199\n      tag_81\n      jump\t// in\n    tag_199:\n        /* \"#utility.yul\":6719:6775   */\n    tag_198:\n        /* \"#utility.yul\":6805:6809   */\n      0x20\n        /* \"#utility.yul\":6797:6803   */\n      dup3\n        /* \"#utility.yul\":6793:6810   */\n      mul\n        /* \"#utility.yul\":6785:6810   */\n      swap1\n      pop\n        /* \"#utility.yul\":6865:6869   */\n      0x20\n        /* \"#utility.yul\":6859:6863   */\n      dup2\n        /* \"#utility.yul\":6855:6870   */\n      add\n        /* \"#utility.yul\":6847:6870   */\n      swap1\n      pop\n        /* \"#utility.yul\":6566:6877   */\n      swap2\n      swap1\n      pop\n      jump\t// out\n        /* \"#utility.yul\":6883:7000   */\n    tag_93:\n        /* \"#utility.yul\":6992:6993   */\n      0x00\n        /* \"#utility.yul\":6989:6990   */\n      dup1\n        /* \"#utility.yul\":6982:6994   */\n      revert\n        /* \"#utility.yul\":7023:7733   */\n    tag_94:\n        /* \"#utility.yul\":7119:7124   */\n      0x00\n        /* \"#utility.yul\":7144:7225   */\n      tag_202\n        /* \"#utility.yul\":7160:7224   */\n      tag_203\n        /* \"#utility.yul\":7217:7223   */\n      dup5\n        /* \"#utility.yul\":7160:7224   */\n      tag_92\n      jump\t// in\n    tag_203:\n        /* \"#utility.yul\":7144:7225   */\n      tag_83\n      jump\t// in\n    tag_202:\n        /* \"#utility.yul\":7135:7225   */\n      swap1\n      pop\n        /* \"#utility.yul\":7245:7250   */\n      dup1\n        /* \"#utility.yul\":7274:7280   */\n      dup4\n        /* \"#utility.yul\":7267:7272   */\n      dup3\n        /* \"#utility.yul\":7260:7281   */\n      mstore\n        /* \"#utility.yul\":7308:7312   */\n      0x20\n        /* \"#utility.yul\":7301:7306   */\n      dup3\n        /* \"#utility.yul\":7297:7313   */\n      add\n        /* \"#utility.yul\":7290:7313   */\n      swap1\n      pop\n        /* \"#utility.yul\":7361:7365   */\n      0x20\n        /* \"#utility.yul\":7353:7359   */\n      dup5\n        /* \"#utility.yul\":7349:7366   */\n      mul\n        /* \"#utility.yul\":7341:7347   */\n      dup4\n        /* \"#utility.yul\":7337:7367   */\n      add\n        /* \"#utility.yul\":7390:7393   */\n      dup6\n        /* \"#utility.yul\":7382:7388   */\n      dup2\n        /* \"#utility.yul\":7379:7394   */\n      gt\n        /* \"#utility.yul\":7376:7498   */\n      iszero\n      tag_204\n      jumpi\n        /* \"#utility.yul\":7409:7488   */\n      tag_205\n      tag_93\n      jump\t// in\n    tag_205:\n        /* \"#utility.yul\":7376:7498   */\n    tag_204:\n        /* \"#utility.yul\":7524:7530   */\n      dup4\n        /* \"#utility.yul\":7507:7727   */\n    tag_206:\n        /* \"#utility.yul\":7541:7547   */\n      dup2\n        /* \"#utility.yul\":7536:7539   */\n      dup2\n        /* \"#utility.yul\":7533:7548   */\n      lt\n        /* \"#utility.yul\":7507:7727   */\n      iszero\n      tag_208\n      jumpi\n        /* \"#utility.yul\":7616:7619   */\n      dup1\n        /* \"#utility.yul\":7645:7682   */\n      tag_209\n        /* \"#utility.yul\":7678:7681   */\n      dup9\n        /* \"#utility.yul\":7666:7676   */\n      dup3\n        /* \"#utility.yul\":7645:7682   */\n      tag_68\n      jump\t// in\n    tag_209:\n        /* \"#utility.yul\":7640:7643   */\n      dup5\n        /* \"#utility.yul\":7633:7683   */\n      mstore\n        /* \"#utility.yul\":7712:7716   */\n      0x20\n        /* \"#utility.yul\":7707:7710   */\n      dup5\n        /* \"#utility.yul\":7703:7717   */\n      add\n        /* \"#utility.yul\":7696:7717   */\n      swap4\n      pop\n        /* \"#utility.yul\":7583:7727   */\n      pop\n        /* \"#utility.yul\":7567:7571   */\n      0x20\n        /* \"#utility.yul\":7562:7565   */\n      dup2\n        /* \"#utility.yul\":7558:7572   */\n      add\n        /* \"#utility.yul\":7551:7572   */\n      swap1\n      pop\n        /* \"#utility.yul\":7507:7727   */\n      jump(tag_206)\n    tag_208:\n        /* \"#utility.yul\":7511:7532   */\n      pop\n        /* \"#utility.yul\":7125:7733   */\n      pop\n      pop\n        /* \"#utility.yul\":7023:7733   */\n      swap4\n      swap3\n      pop\n      pop\n      pop\n      jump\t// out\n        /* \"#utility.yul\":7756:8126   */\n    tag_95:\n        /* \"#utility.yul\":7827:7832   */\n      0x00\n        /* \"#utility.yul\":7876:7879   */\n      dup3\n        /* \"#utility.yul\":7869:7873   */\n      0x1f\n        /* \"#utility.yul\":7861:7867   */\n      dup4\n        /* \"#utility.yul\":7857:7874   */\n      add\n        /* \"#utility.yul\":7853:7880   */\n      slt\n        /* \"#utility.yul\":7843:7965   */\n      tag_211\n      jumpi\n        /* \"#utility.yul\":7884:7963   */\n      tag_212\n      tag_85\n      jump\t// in\n    tag_212:\n        /* \"#utility.yul\":7843:7965   */\n    tag_211:\n        /* \"#utility.yul\":8001:8007   */\n      dup2\n        /* \"#utility.yul\":7988:8008   */\n      calldataload\n        /* \"#utility.yul\":8026:8120   */\n      tag_213\n        /* \"#utility.yul\":8116:8119   */\n      dup5\n        /* \"#utility.yul\":8108:8114   */\n      dup3\n        /* \"#utility.yul\":8101:8105   */\n      0x20\n        /* \"#utility.yul\":8093:8099   */\n      dup7\n        /* \"#utility.yul\":8089:8106   */\n      add\n        /* \"#utility.yul\":8026:8120   */\n      tag_94\n      jump\t// in\n    tag_213:\n        /* \"#utility.yul\":8017:8120   */\n      swap2\n      pop\n        /* \"#utility.yul\":7833:8126   */\n      pop\n        /* \"#utility.yul\":7756:8126   */\n      swap3\n      swap2\n      pop\n      pop\n      jump\t// out\n        /* \"#utility.yul\":8132:8241   */\n    tag_96:\n        /* \"#utility.yul\":8215:8216   */\n      0x03\n        /* \"#utility.yul\":8208:8213   */\n      dup2\n        /* \"#utility.yul\":8205:8217   */\n      lt\n        /* \"#utility.yul\":8195:8235   */\n      tag_215\n      jumpi\n        /* \"#utility.yul\":8231:8232   */\n      0x00\n        /* \"#utility.yul\":8228:8229   */\n      dup1\n        /* \"#utility.yul\":8221:8233   */\n      revert\n        /* \"#utility.yul\":8195:8235   */\n    tag_215:\n        /* \"#utility.yul\":8132:8241   */\n      pop\n      jump\t// out\n        /* \"#utility.yul\":8247:8406   */\n    tag_97:\n        /* \"#utility.yul\":8303:8308   */\n      0x00\n        /* \"#utility.yul\":8341:8347   */\n      dup2\n        /* \"#utility.yul\":8328:8348   */\n      calldataload\n        /* \"#utility.yul\":8319:8348   */\n      swap1\n      pop\n        /* \"#utility.yul\":8357:8400   */\n      tag_217\n        /* \"#utility.yul\":8394:8399   */\n      dup2\n        /* \"#utility.yul\":8357:8400   */\n      tag_96\n      jump\t// in\n    tag_217:\n        /* \"#utility.yul\":8247:8406   */\n      swap3\n      swap2\n      pop\n      pop\n      jump\t// out\n        /* \"#utility.yul\":8412:9647   */\n    tag_28:\n        /* \"#utility.yul\":8573:8579   */\n      0x00\n        /* \"#utility.yul\":8581:8587   */\n      dup1\n        /* \"#utility.yul\":8589:8595   */\n      0x00\n        /* \"#utility.yul\":8597:8603   */\n      dup1\n        /* \"#utility.yul\":8646:8649   */\n      0x80\n        /* \"#utility.yul\":8634:8643   */\n      dup6\n        /* \"#utility.yul\":8625:8632   */\n      dup8\n        /* \"#utility.yul\":8621:8644   */\n      sub\n        /* \"#utility.yul\":8617:8650   */\n      slt\n        /* \"#utility.yul\":8614:8734   */\n      iszero\n      tag_219\n      jumpi\n        /* \"#utility.yul\":8653:8732   */\n      tag_220\n      tag_64\n      jump\t// in\n    tag_220:\n        /* \"#utility.yul\":8614:8734   */\n    tag_219:\n        /* \"#utility.yul\":8773:8774   */\n      0x00\n        /* \"#utility.yul\":8798:8870   */\n      tag_221\n        /* \"#utility.yul\":8862:8869   */\n      dup8\n        /* \"#utility.yul\":8853:8859   */\n      dup3\n        /* \"#utility.yul\":8842:8851   */\n      dup9\n        /* \"#utility.yul\":8838:8860   */\n      add\n        /* \"#utility.yul\":8798:8870   */\n      tag_78\n      jump\t// in\n    tag_221:\n        /* \"#utility.yul\":8788:8870   */\n      swap5\n      pop\n        /* \"#utility.yul\":8744:8880   */\n      pop\n        /* \"#utility.yul\":8947:8949   */\n      0x20\n        /* \"#utility.yul\":8936:8945   */\n      dup6\n        /* \"#utility.yul\":8932:8950   */\n      add\n        /* \"#utility.yul\":8919:8951   */\n      calldataload\n        /* \"#utility.yul\":8978:8996   */\n      0xffffffffffffffff\n        /* \"#utility.yul\":8970:8976   */\n      dup2\n        /* \"#utility.yul\":8967:8997   */\n      gt\n        /* \"#utility.yul\":8964:9081   */\n      iszero\n      tag_222\n      jumpi\n        /* \"#utility.yul\":9000:9079   */\n      tag_223\n      tag_65\n      jump\t// in\n    tag_223:\n        /* \"#utility.yul\":8964:9081   */\n    tag_222:\n        /* \"#utility.yul\":9105:9179   */\n      tag_224\n        /* \"#utility.yul\":9171:9178   */\n      dup8\n        /* \"#utility.yul\":9162:9168   */\n      dup3\n        /* \"#utility.yul\":9151:9160   */\n      dup9\n        /* \"#utility.yul\":9147:9169   */\n      add\n        /* \"#utility.yul\":9105:9179   */\n      tag_91\n      jump\t// in\n    tag_224:\n        /* \"#utility.yul\":9095:9179   */\n      swap4\n      pop\n        /* \"#utility.yul\":8890:9189   */\n      pop\n        /* \"#utility.yul\":9256:9258   */\n      0x40\n        /* \"#utility.yul\":9245:9254   */\n      dup6\n        /* \"#utility.yul\":9241:9259   */\n      add\n        /* \"#utility.yul\":9228:9260   */\n      calldataload\n        /* \"#utility.yul\":9287:9305   */\n      0xffffffffffffffff\n        /* \"#utility.yul\":9279:9285   */\n      dup2\n        /* \"#utility.yul\":9276:9306   */\n      gt\n        /* \"#utility.yul\":9273:9390   */\n      iszero\n      tag_225\n      jumpi\n        /* \"#utility.yul\":9309:9388   */\n      tag_226\n      tag_65\n      jump\t// in\n    tag_226:\n        /* \"#utility.yul\":9273:9390   */\n    tag_225:\n        /* \"#utility.yul\":9414:9492   */\n      tag_227\n        /* \"#utility.yul\":9484:9491   */\n      dup8\n        /* \"#utility.yul\":9475:9481   */\n      dup3\n        /* \"#utility.yul\":9464:9473   */\n      dup9\n        /* \"#utility.yul\":9460:9482   */\n      add\n        /* \"#utility.yul\":9414:9492   */\n      tag_95\n      jump\t// in\n    tag_227:\n        /* \"#utility.yul\":9404:9492   */\n      swap3\n      pop\n        /* \"#utility.yul\":9199:9502   */\n      pop\n        /* \"#utility.yul\":9541:9543   */\n      0x60\n        /* \"#utility.yul\":9567:9630   */\n      tag_228\n        /* \"#utility.yul\":9622:9629   */\n      dup8\n        /* \"#utility.yul\":9613:9619   */\n      dup3\n        /* \"#utility.yul\":9602:9611   */\n      dup9\n        /* \"#utility.yul\":9598:9620   */\n      add\n        /* \"#utility.yul\":9567:9630   */\n      tag_97\n      jump\t// in\n    tag_228:\n        /* \"#utility.yul\":9557:9630   */\n      swap2\n      pop\n        /* \"#utility.yul\":9512:9640   */\n      pop\n        /* \"#utility.yul\":8412:9647   */\n      swap3\n      swap6\n      swap2\n      swap5\n      pop\n      swap3\n      pop\n      jump\t// out\n        /* \"#utility.yul\":9653:9902   */\n    tag_98:\n        /* \"#utility.yul\":9728:9732   */\n      0x00\n        /* \"#utility.yul\":9818:9836   */\n      0xffffffffffffffff\n        /* \"#utility.yul\":9810:9816   */\n      dup3\n        /* \"#utility.yul\":9807:9837   */\n      gt\n        /* \"#utility.yul\":9804:9860   */\n      iszero\n      tag_230\n      jumpi\n        /* \"#utility.yul\":9840:9858   */\n      tag_231\n      tag_81\n      jump\t// in\n    tag_231:\n        /* \"#utility.yul\":9804:9860   */\n    tag_230:\n        /* \"#utility.yul\":9890:9894   */\n      0x20\n        /* \"#utility.yul\":9882:9888   */\n      dup3\n        /* \"#utility.yul\":9878:9895   */\n      mul\n        /* \"#utility.yul\":9870:9895   */\n      swap1\n      pop\n        /* \"#utility.yul\":9653:9902   */\n      swap2\n      swap1\n      pop\n      jump\t// out\n        /* \"#utility.yul\":9926:10569   */\n    tag_99:\n        /* \"#utility.yul\":10020:10025   */\n      0x00\n        /* \"#utility.yul\":10045:10124   */\n      tag_233\n        /* \"#utility.yul\":10061:10123   */\n      tag_234\n        /* \"#utility.yul\":10116:10122   */\n      dup5\n        /* \"#utility.yul\":10061:10123   */\n      tag_98\n      jump\t// in\n    tag_234:\n        /* \"#utility.yul\":10045:10124   */\n      tag_83\n      jump\t// in\n    tag_233:\n        /* \"#utility.yul\":10036:10124   */\n      swap1\n      pop\n        /* \"#utility.yul\":10144:10149   */\n      dup1\n        /* \"#utility.yul\":10197:10201   */\n      0x20\n        /* \"#utility.yul\":10189:10195   */\n      dup5\n        /* \"#utility.yul\":10185:10202   */\n      mul\n        /* \"#utility.yul\":10177:10183   */\n      dup4\n        /* \"#utility.yul\":10173:10203   */\n      add\n        /* \"#utility.yul\":10226:10229   */\n      dup6\n        /* \"#utility.yul\":10218:10224   */\n      dup2\n        /* \"#utility.yul\":10215:10230   */\n      gt\n        /* \"#utility.yul\":10212:10334   */\n      iszero\n      tag_235\n      jumpi\n        /* \"#utility.yul\":10245:10324   */\n      tag_236\n      tag_93\n      jump\t// in\n    tag_236:\n        /* \"#utility.yul\":10212:10334   */\n    tag_235:\n        /* \"#utility.yul\":10360:10366   */\n      dup4\n        /* \"#utility.yul\":10343:10563   */\n    tag_237:\n        /* \"#utility.yul\":10377:10383   */\n      dup2\n        /* \"#utility.yul\":10372:10375   */\n      dup2\n        /* \"#utility.yul\":10369:10384   */\n      lt\n        /* \"#utility.yul\":10343:10563   */\n      iszero\n      tag_239\n      jumpi\n        /* \"#utility.yul\":10452:10455   */\n      dup1\n        /* \"#utility.yul\":10481:10518   */\n      tag_240\n        /* \"#utility.yul\":10514:10517   */\n      dup9\n        /* \"#utility.yul\":10502:10512   */\n      dup3\n        /* \"#utility.yul\":10481:10518   */\n      tag_68\n      jump\t// in\n    tag_240:\n        /* \"#utility.yul\":10476:10479   */\n      dup5\n        /* \"#utility.yul\":10469:10519   */\n      mstore\n        /* \"#utility.yul\":10548:10552   */\n      0x20\n        /* \"#utility.yul\":10543:10546   */\n      dup5\n        /* \"#utility.yul\":10539:10553   */\n      add\n        /* \"#utility.yul\":10532:10553   */\n      swap4\n      pop\n        /* \"#utility.yul\":10419:10563   */\n      pop\n        /* \"#utility.yul\":10403:10407   */\n      0x20\n        /* \"#utility.yul\":10398:10401   */\n      dup2\n        /* \"#utility.yul\":10394:10408   */\n      add\n        /* \"#utility.yul\":10387:10408   */\n      swap1\n      pop\n        /* \"#utility.yul\":10343:10563   */\n      jump(tag_237)\n    tag_239:\n        /* \"#utility.yul\":10347:10368   */\n      pop\n        /* \"#utility.yul\":10026:10569   */\n      pop\n      pop\n        /* \"#utility.yul\":9926:10569   */\n      swap4\n      swap3\n      pop\n      pop\n      pop\n      jump\t// out\n        /* \"#utility.yul\":10593:10932   */\n    tag_100:\n        /* \"#utility.yul\":10662:10667   */\n      0x00\n        /* \"#utility.yul\":10711:10714   */\n      dup3\n        /* \"#utility.yul\":10704:10708   */\n      0x1f\n        /* \"#utility.yul\":10696:10702   */\n      dup4\n        /* \"#utility.yul\":10692:10709   */\n      add\n        /* \"#utility.yul\":10688:10715   */\n      slt\n        /* \"#utility.yul\":10678:10800   */\n      tag_242\n      jumpi\n        /* \"#utility.yul\":10719:10798   */\n      tag_243\n      tag_85\n      jump\t// in\n    tag_243:\n        /* \"#utility.yul\":10678:10800   */\n    tag_242:\n        /* \"#utility.yul\":10823:10827   */\n      0x03\n        /* \"#utility.yul\":10845:10926   */\n      tag_244\n        /* \"#utility.yul\":10922:10925   */\n      dup5\n        /* \"#utility.yul\":10914:10920   */\n      dup3\n        /* \"#utility.yul\":10906:10912   */\n      dup6\n        /* \"#utility.yul\":10845:10926   */\n      tag_99\n      jump\t// in\n    tag_244:\n        /* \"#utility.yul\":10836:10926   */\n      swap2\n      pop\n        /* \"#utility.yul\":10668:10932   */\n      pop\n        /* \"#utility.yul\":10593:10932   */\n      swap3\n      swap2\n      pop\n      pop\n      jump\t// out\n        /* \"#utility.yul\":10938:11313   */\n    tag_33:\n        /* \"#utility.yul\":11020:11026   */\n      0x00\n        /* \"#utility.yul\":11069:11071   */\n      0x60\n        /* \"#utility.yul\":11057:11066   */\n      dup3\n        /* \"#utility.yul\":11048:11055   */\n      dup5\n        /* \"#utility.yul\":11044:11067   */\n      sub\n        /* \"#utility.yul\":11040:11072   */\n      slt\n        /* \"#utility.yul\":11037:11156   */\n      iszero\n      tag_246\n      jumpi\n        /* \"#utility.yul\":11075:11154   */\n      tag_247\n      tag_64\n      jump\t// in\n    tag_247:\n        /* \"#utility.yul\":11037:11156   */\n    tag_246:\n        /* \"#utility.yul\":11195:11196   */\n      0x00\n        /* \"#utility.yul\":11220:11296   */\n      tag_248\n        /* \"#utility.yul\":11288:11295   */\n      dup5\n        /* \"#utility.yul\":11279:11285   */\n      dup3\n        /* \"#utility.yul\":11268:11277   */\n      dup6\n        /* \"#utility.yul\":11264:11286   */\n      add\n        /* \"#utility.yul\":11220:11296   */\n      tag_100\n      jump\t// in\n    tag_248:\n        /* \"#utility.yul\":11210:11296   */\n      swap2\n      pop\n        /* \"#utility.yul\":11166:11306   */\n      pop\n        /* \"#utility.yul\":10938:11313   */\n      swap3\n      swap2\n      pop\n      pop\n      jump\t// out\n        /* \"#utility.yul\":11319:11627   */\n    tag_101:\n        /* \"#utility.yul\":11381:11385   */\n      0x00\n        /* \"#utility.yul\":11471:11489   */\n      0xffffffffffffffff\n        /* \"#utility.yul\":11463:11469   */\n      dup3\n        /* \"#utility.yul\":11460:11490   */\n      gt\n        /* \"#utility.yul\":11457:11513   */\n      iszero\n      tag_250\n      jumpi\n        /* \"#utility.yul\":11493:11511   */\n      tag_251\n      tag_81\n      jump\t// in\n    tag_251:\n        /* \"#utility.yul\":11457:11513   */\n    tag_250:\n        /* \"#utility.yul\":11531:11560   */\n      tag_252\n        /* \"#utility.yul\":11553:11559   */\n      dup3\n        /* \"#utility.yul\":11531:11560   */\n      tag_80\n      jump\t// in\n    tag_252:\n        /* \"#utility.yul\":11523:11560   */\n      swap1\n      pop\n        /* \"#utility.yul\":11615:11619   */\n      0x20\n        /* \"#utility.yul\":11609:11613   */\n      dup2\n        /* \"#utility.yul\":11605:11620   */\n      add\n        /* \"#utility.yul\":11597:11620   */\n      swap1\n      pop\n        /* \"#utility.yul\":11319:11627   */\n      swap2\n      swap1\n      pop\n      jump\t// out\n        /* \"#utility.yul\":11633:12058   */\n    tag_102:\n        /* \"#utility.yul\":11711:11716   */\n      0x00\n        /* \"#utility.yul\":11736:11802   */\n      tag_254\n        /* \"#utility.yul\":11752:11801   */\n      tag_255\n        /* \"#utility.yul\":11794:11800   */\n      dup5\n        /* \"#utility.yul\":11752:11801   */\n      tag_101\n      jump\t// in\n    tag_255:\n        /* \"#utility.yul\":11736:11802   */\n      tag_83\n      jump\t// in\n    tag_254:\n        /* \"#utility.yul\":11727:11802   */\n      swap1\n      pop\n        /* \"#utility.yul\":11825:11831   */\n      dup3\n        /* \"#utility.yul\":11818:11823   */\n      dup2\n        /* \"#utility.yul\":11811:11832   */\n      mstore\n        /* \"#utility.yul\":11863:11867   */\n      0x20\n        /* \"#utility.yul\":11856:11861   */\n      dup2\n        /* \"#utility.yul\":11852:11868   */\n      add\n        /* \"#utility.yul\":11901:11904   */\n      dup5\n        /* \"#utility.yul\":11892:11898   */\n      dup5\n        /* \"#utility.yul\":11887:11890   */\n      dup5\n        /* \"#utility.yul\":11883:11899   */\n      add\n        /* \"#utility.yul\":11880:11905   */\n      gt\n        /* \"#utility.yul\":11877:11989   */\n      iszero\n      tag_256\n      jumpi\n        /* \"#utility.yul\":11908:11987   */\n      tag_257\n      tag_86\n      jump\t// in\n    tag_257:\n        /* \"#utility.yul\":11877:11989   */\n    tag_256:\n        /* \"#utility.yul\":11998:12052   */\n      tag_258\n        /* \"#utility.yul\":12045:12051   */\n      dup5\n        /* \"#utility.yul\":12040:12043   */\n      dup3\n        /* \"#utility.yul\":12035:12038   */\n      dup6\n        /* \"#utility.yul\":11998:12052   */\n      tag_88\n      jump\t// in\n    tag_258:\n        /* \"#utility.yul\":11717:12058   */\n      pop\n        /* \"#utility.yul\":11633:12058   */\n      swap4\n      swap3\n      pop\n      pop\n      pop\n      jump\t// out\n        /* \"#utility.yul\":12078:12418   */\n    tag_103:\n        /* \"#utility.yul\":12134:12139   */\n      0x00\n        /* \"#utility.yul\":12183:12186   */\n      dup3\n        /* \"#utility.yul\":12176:12180   */\n      0x1f\n        /* \"#utility.yul\":12168:12174   */\n      dup4\n        /* \"#utility.yul\":12164:12181   */\n      add\n        /* \"#utility.yul\":12160:12187   */\n      slt\n        /* \"#utility.yul\":12150:12272   */\n      tag_260\n      jumpi\n        /* \"#utility.yul\":12191:12270   */\n      tag_261\n      tag_85\n      jump\t// in\n    tag_261:\n        /* \"#utility.yul\":12150:12272   */\n    tag_260:\n        /* \"#utility.yul\":12308:12314   */\n      dup2\n        /* \"#utility.yul\":12295:12315   */\n      calldataload\n        /* \"#utility.yul\":12333:12412   */\n      tag_262\n        /* \"#utility.yul\":12408:12411   */\n      dup5\n        /* \"#utility.yul\":12400:12406   */\n      dup3\n        /* \"#utility.yul\":12393:12397   */\n      0x20\n        /* \"#utility.yul\":12385:12391   */\n      dup7\n        /* \"#utility.yul\":12381:12398   */\n      add\n        /* \"#utility.yul\":12333:12412   */\n      tag_102\n      jump\t// in\n    tag_262:\n        /* \"#utility.yul\":12324:12412   */\n      swap2\n      pop\n        /* \"#utility.yul\":12140:12418   */\n      pop\n        /* \"#utility.yul\":12078:12418   */\n      swap3\n      swap2\n      pop\n      pop\n      jump\t// out\n        /* \"#utility.yul\":12424:13288   */\n    tag_38:\n        /* \"#utility.yul\":12527:12533   */\n      0x00\n        /* \"#utility.yul\":12535:12541   */\n      dup1\n        /* \"#utility.yul\":12584:12586   */\n      0x40\n        /* \"#utility.yul\":12572:12581   */\n      dup4\n        /* \"#utility.yul\":12563:12570   */\n      dup6\n        /* \"#utility.yul\":12559:12582   */\n      sub\n        /* \"#utility.yul\":12555:12587   */\n      slt\n        /* \"#utility.yul\":12552:12671   */\n      iszero\n      tag_264\n      jumpi\n        /* \"#utility.yul\":12590:12669   */\n      tag_265\n      tag_64\n      jump\t// in\n    tag_265:\n        /* \"#utility.yul\":12552:12671   */\n    tag_264:\n        /* \"#utility.yul\":12738:12739   */\n      0x00\n        /* \"#utility.yul\":12727:12736   */\n      dup4\n        /* \"#utility.yul\":12723:12740   */\n      add\n        /* \"#utility.yul\":12710:12741   */\n      calldataload\n        /* \"#utility.yul\":12768:12786   */\n      0xffffffffffffffff\n        /* \"#utility.yul\":12760:12766   */\n      dup2\n        /* \"#utility.yul\":12757:12787   */\n      gt\n        /* \"#utility.yul\":12754:12871   */\n      iszero\n      tag_266\n      jumpi\n        /* \"#utility.yul\":12790:12869   */\n      tag_267\n      tag_65\n      jump\t// in\n    tag_267:\n        /* \"#utility.yul\":12754:12871   */\n    tag_266:\n        /* \"#utility.yul\":12895:12973   */\n      tag_268\n        /* \"#utility.yul\":12965:12972   */\n      dup6\n        /* \"#utility.yul\":12956:12962   */\n      dup3\n        /* \"#utility.yul\":12945:12954   */\n      dup7\n        /* \"#utility.yul\":12941:12963   */\n      add\n        /* \"#utility.yul\":12895:12973   */\n      tag_95\n      jump\t// in\n    tag_268:\n        /* \"#utility.yul\":12885:12973   */\n      swap3\n      pop\n        /* \"#utility.yul\":12681:12983   */\n      pop\n        /* \"#utility.yul\":13050:13052   */\n      0x20\n        /* \"#utility.yul\":13039:13048   */\n      dup4\n        /* \"#utility.yul\":13035:13053   */\n      add\n        /* \"#utility.yul\":13022:13054   */\n      calldataload\n        /* \"#utility.yul\":13081:13099   */\n      0xffffffffffffffff\n        /* \"#utility.yul\":13073:13079   */\n      dup2\n        /* \"#utility.yul\":13070:13100   */\n      gt\n        /* \"#utility.yul\":13067:13184   */\n      iszero\n      tag_269\n      jumpi\n        /* \"#utility.yul\":13103:13182   */\n      tag_270\n      tag_65\n      jump\t// in\n    tag_270:\n        /* \"#utility.yul\":13067:13184   */\n    tag_269:\n        /* \"#utility.yul\":13208:13271   */\n      tag_271\n        /* \"#utility.yul\":13263:13270   */\n      dup6\n        /* \"#utility.yul\":13254:13260   */\n      dup3\n        /* \"#utility.yul\":13243:13252   */\n      dup7\n        /* \"#utility.yul\":13239:13261   */\n      add\n        /* \"#utility.yul\":13208:13271   */\n      tag_103\n      jump\t// in\n    tag_271:\n        /* \"#utility.yul\":13198:13271   */\n      swap2\n      pop\n        /* \"#utility.yul\":12993:13281   */\n      pop\n        /* \"#utility.yul\":12424:13288   */\n      swap3\n      pop\n      swap3\n      swap1\n      pop\n      jump\t// out\n        /* \"#utility.yul\":13294:13379   */\n    tag_104:\n        /* \"#utility.yul\":13339:13346   */\n      0x00\n        /* \"#utility.yul\":13368:13373   */\n      dup2\n        /* \"#utility.yul\":13357:13373   */\n      swap1\n      pop\n        /* \"#utility.yul\":13294:13379   */\n      swap2\n      swap1\n      pop\n      jump\t// out\n        /* \"#utility.yul\":13385:13471   */\n    tag_105:\n        /* \"#utility.yul\":13420:13427   */\n      0x00\n        /* \"#utility.yul\":13460:13464   */\n      0xff\n        /* \"#utility.yul\":13453:13458   */\n      dup3\n        /* \"#utility.yul\":13449:13465   */\n      and\n        /* \"#utility.yul\":13438:13465   */\n      swap1\n      pop\n        /* \"#utility.yul\":13385:13471   */\n      swap2\n      swap1\n      pop\n      jump\t// out\n        /* \"#utility.yul\":13477:13537   */\n    tag_106:\n        /* \"#utility.yul\":13505:13508   */\n      0x00\n        /* \"#utility.yul\":13526:13531   */\n      dup2\n        /* \"#utility.yul\":13519:13531   */\n      swap1\n      pop\n        /* \"#utility.yul\":13477:13537   */\n      swap2\n      swap1\n      pop\n      jump\t// out\n        /* \"#utility.yul\":13543:13697   */\n    tag_107:\n        /* \"#utility.yul\":13599:13608   */\n      0x00\n        /* \"#utility.yul\":13632:13691   */\n      tag_276\n        /* \"#utility.yul\":13648:13690   */\n      tag_277\n        /* \"#utility.yul\":13657:13689   */\n      tag_278\n        /* \"#utility.yul\":13683:13688   */\n      dup5\n        /* \"#utility.yul\":13657:13689   */\n      tag_104\n      jump\t// in\n    tag_278:\n        /* \"#utility.yul\":13648:13690   */\n      tag_106\n      jump\t// in\n    tag_277:\n        /* \"#utility.yul\":13632:13691   */\n      tag_105\n      jump\t// in\n    tag_276:\n        /* \"#utility.yul\":13619:13691   */\n      swap1\n      pop\n        /* \"#utility.yul\":13543:13697   */\n      swap2\n      swap1\n      pop\n      jump\t// out\n        /* \"#utility.yul\":13703:13846   */\n    tag_108:\n        /* \"#utility.yul\":13796:13839   */\n      tag_280\n        /* \"#utility.yul\":13833:13838   */\n      dup2\n        /* \"#utility.yul\":13796:13839   */\n      tag_107\n      jump\t// in\n    tag_280:\n        /* \"#utility.yul\":13791:13794   */\n      dup3\n        /* \"#utility.yul\":13784:13840   */\n      mstore\n        /* \"#utility.yul\":13703:13846   */\n      pop\n      pop\n      jump\t// out\n        /* \"#utility.yul\":13852:13961   */\n    tag_109:\n        /* \"#utility.yul\":13933:13954   */\n      tag_282\n        /* \"#utility.yul\":13948:13953   */\n      dup2\n        /* \"#utility.yul\":13933:13954   */\n      tag_69\n      jump\t// in\n    tag_282:\n        /* \"#utility.yul\":13928:13931   */\n      dup3\n        /* \"#utility.yul\":13921:13955   */\n      mstore\n        /* \"#utility.yul\":13852:13961   */\n      pop\n      pop\n      jump\t// out\n        /* \"#utility.yul\":13967:14299   */\n    tag_46:\n        /* \"#utility.yul\":14088:14092   */\n      0x00\n        /* \"#utility.yul\":14126:14128   */\n      0x40\n        /* \"#utility.yul\":14115:14124   */\n      dup3\n        /* \"#utility.yul\":14111:14129   */\n      add\n        /* \"#utility.yul\":14103:14129   */\n      swap1\n      pop\n        /* \"#utility.yul\":14139:14216   */\n      tag_284\n        /* \"#utility.yul\":14213:14214   */\n      0x00\n        /* \"#utility.yul\":14202:14211   */\n      dup4\n        /* \"#utility.yul\":14198:14215   */\n      add\n        /* \"#utility.yul\":14189:14195   */\n      dup6\n        /* \"#utility.yul\":14139:14216   */\n      tag_108\n      jump\t// in\n    tag_284:\n        /* \"#utility.yul\":14226:14292   */\n      tag_285\n        /* \"#utility.yul\":14288:14290   */\n      0x20\n        /* \"#utility.yul\":14277:14286   */\n      dup4\n        /* \"#utility.yul\":14273:14291   */\n      add\n        /* \"#utility.yul\":14264:14270   */\n      dup5\n        /* \"#utility.yul\":14226:14292   */\n      tag_109\n      jump\t// in\n    tag_285:\n        /* \"#utility.yul\":13967:14299   */\n      swap4\n      swap3\n      pop\n      pop\n      pop\n      jump\t// out\n        /* \"#utility.yul\":14305:14403   */\n    tag_110:\n        /* \"#utility.yul\":14356:14362   */\n      0x00\n        /* \"#utility.yul\":14390:14395   */\n      dup2\n        /* \"#utility.yul\":14384:14396   */\n      mload\n        /* \"#utility.yul\":14374:14396   */\n      swap1\n      pop\n        /* \"#utility.yul\":14305:14403   */\n      swap2\n      swap1\n      pop\n      jump\t// out\n        /* \"#utility.yul\":14409:14556   */\n    tag_111:\n        /* \"#utility.yul\":14510:14521   */\n      0x00\n        /* \"#utility.yul\":14547:14550   */\n      dup2\n        /* \"#utility.yul\":14532:14550   */\n      swap1\n      pop\n        /* \"#utility.yul\":14409:14556   */\n      swap3\n      swap2\n      pop\n      pop\n      jump\t// out\n        /* \"#utility.yul\":14562:14701   */\n    tag_112:\n        /* \"#utility.yul\":14651:14657   */\n      dup3\n        /* \"#utility.yul\":14646:14649   */\n      dup2\n        /* \"#utility.yul\":14641:14644   */\n      dup4\n        /* \"#utility.yul\":14635:14658   */\n      mcopy\n        /* \"#utility.yul\":14692:14693   */\n      0x00\n        /* \"#utility.yul\":14683:14689   */\n      dup4\n        /* \"#utility.yul\":14678:14681   */\n      dup4\n        /* \"#utility.yul\":14674:14690   */\n      add\n        /* \"#utility.yul\":14667:14694   */\n      mstore\n        /* \"#utility.yul\":14562:14701   */\n      pop\n      pop\n      pop\n      jump\t// out\n        /* \"#utility.yul\":14707:15093   */\n    tag_113:\n        /* \"#utility.yul\":14811:14814   */\n      0x00\n        /* \"#utility.yul\":14839:14877   */\n      tag_290\n        /* \"#utility.yul\":14871:14876   */\n      dup3\n        /* \"#utility.yul\":14839:14877   */\n      tag_110\n      jump\t// in\n    tag_290:\n        /* \"#utility.yul\":14893:14981   */\n      tag_291\n        /* \"#utility.yul\":14974:14980   */\n      dup2\n        /* \"#utility.yul\":14969:14972   */\n      dup6\n        /* \"#utility.yul\":14893:14981   */\n      tag_111\n      jump\t// in\n    tag_291:\n        /* \"#utility.yul\":14886:14981   */\n      swap4\n      pop\n        /* \"#utility.yul\":14990:15055   */\n      tag_292\n        /* \"#utility.yul\":15048:15054   */\n      dup2\n        /* \"#utility.yul\":15043:15046   */\n      dup6\n        /* \"#utility.yul\":15036:15040   */\n      0x20\n        /* \"#utility.yul\":15029:15034   */\n      dup7\n        /* \"#utility.yul\":15025:15041   */\n      add\n        /* \"#utility.yul\":14990:15055   */\n      tag_112\n      jump\t// in\n    tag_292:\n        /* \"#utility.yul\":15080:15086   */\n      dup1\n        /* \"#utility.yul\":15075:15078   */\n      dup5\n        /* \"#utility.yul\":15071:15087   */\n      add\n        /* \"#utility.yul\":15064:15087   */\n      swap2\n      pop\n        /* \"#utility.yul\":14815:15093   */\n      pop\n        /* \"#utility.yul\":14707:15093   */\n      swap3\n      swap2\n      pop\n      pop\n      jump\t// out\n        /* \"#utility.yul\":15099:15370   */\n    tag_48:\n        /* \"#utility.yul\":15229:15232   */\n      0x00\n        /* \"#utility.yul\":15251:15344   */\n      tag_294\n        /* \"#utility.yul\":15340:15343   */\n      dup3\n        /* \"#utility.yul\":15331:15337   */\n      dup5\n        /* \"#utility.yul\":15251:15344   */\n      tag_113\n      jump\t// in\n    tag_294:\n        /* \"#utility.yul\":15244:15344   */\n      swap2\n      pop\n        /* \"#utility.yul\":15361:15364   */\n      dup2\n        /* \"#utility.yul\":15354:15364   */\n      swap1\n      pop\n        /* \"#utility.yul\":15099:15370   */\n      swap3\n      swap2\n      pop\n      pop\n      jump\t// out\n        /* \"#utility.yul\":15376:15544   */\n    tag_114:\n        /* \"#utility.yul\":15459:15470   */\n      0x00\n        /* \"#utility.yul\":15493:15499   */\n      dup3\n        /* \"#utility.yul\":15488:15491   */\n      dup3\n        /* \"#utility.yul\":15481:15500   */\n      mstore\n        /* \"#utility.yul\":15533:15537   */\n      0x20\n        /* \"#utility.yul\":15528:15531   */\n      dup3\n        /* \"#utility.yul\":15524:15538   */\n      add\n        /* \"#utility.yul\":15509:15538   */\n      swap1\n      pop\n        /* \"#utility.yul\":15376:15544   */\n      swap3\n      swap2\n      pop\n      pop\n      jump\t// out\n        /* \"#utility.yul\":15572:15886   */\n    tag_115:\n        /* \"#utility.yul\":15668:15671   */\n      0x00\n        /* \"#utility.yul\":15689:15759   */\n      tag_297\n        /* \"#utility.yul\":15752:15758   */\n      dup4\n        /* \"#utility.yul\":15747:15750   */\n      dup6\n        /* \"#utility.yul\":15689:15759   */\n      tag_114\n      jump\t// in\n    tag_297:\n        /* \"#utility.yul\":15682:15759   */\n      swap4\n      pop\n        /* \"#utility.yul\":15769:15825   */\n      tag_298\n        /* \"#utility.yul\":15818:15824   */\n      dup4\n        /* \"#utility.yul\":15813:15816   */\n      dup6\n        /* \"#utility.yul\":15806:15811   */\n      dup5\n        /* \"#utility.yul\":15769:15825   */\n      tag_88\n      jump\t// in\n    tag_298:\n        /* \"#utility.yul\":15850:15879   */\n      tag_299\n        /* \"#utility.yul\":15872:15878   */\n      dup4\n        /* \"#utility.yul\":15850:15879   */\n      tag_80\n      jump\t// in\n    tag_299:\n        /* \"#utility.yul\":15845:15848   */\n      dup5\n        /* \"#utility.yul\":15841:15880   */\n      add\n        /* \"#utility.yul\":15834:15880   */\n      swap1\n      pop\n        /* \"#utility.yul\":15572:15886   */\n      swap4\n      swap3\n      pop\n      pop\n      pop\n      jump\t// out\n        /* \"#utility.yul\":15892:16221   */\n    tag_54:\n        /* \"#utility.yul\":16013:16017   */\n      0x00\n        /* \"#utility.yul\":16051:16053   */\n      0x20\n        /* \"#utility.yul\":16040:16049   */\n      dup3\n        /* \"#utility.yul\":16036:16054   */\n      add\n        /* \"#utility.yul\":16028:16054   */\n      swap1\n      pop\n        /* \"#utility.yul\":16100:16109   */\n      dup2\n        /* \"#utility.yul\":16094:16098   */\n      dup2\n        /* \"#utility.yul\":16090:16110   */\n      sub\n        /* \"#utility.yul\":16086:16087   */\n      0x00\n        /* \"#utility.yul\":16075:16084   */\n      dup4\n        /* \"#utility.yul\":16071:16088   */\n      add\n        /* \"#utility.yul\":16064:16111   */\n      mstore\n        /* \"#utility.yul\":16128:16214   */\n      tag_301\n        /* \"#utility.yul\":16209:16213   */\n      dup2\n        /* \"#utility.yul\":16200:16206   */\n      dup5\n        /* \"#utility.yul\":16192:16198   */\n      dup7\n        /* \"#utility.yul\":16128:16214   */\n      tag_115\n      jump\t// in\n    tag_301:\n        /* \"#utility.yul\":16120:16214   */\n      swap1\n      pop\n        /* \"#utility.yul\":15892:16221   */\n      swap4\n      swap3\n      pop\n      pop\n      pop\n      jump\t// out\n\n    auxdata: 0xa264697066735822122057a7e5ed9b8521faaae34406251c6eddcff81a4541f16a12a4d1e777c4ad362e64736f6c634300081a0033\n}\n",
				"bytecode": {
					"linkReferences": {},
					"object": "6080604052348015600e575f80fd5b50610cb58061001c5f395ff3fe608060405234801561000f575f80fd5b506004361061007b575f3560e01c80636a627842116100595780636a627842146100d7578063e355b0ce146100f3578063ead6b8bd14610123578063f0ca01de146101535761007b565b8063046dab161461007f5780633ec378341461009d57806359ebea23146100cd575b5f80fd5b610087610183565b6040516100949190610488565b60405180910390f35b6100b760048036038101906100b2919061051a565b6101aa565b6040516100c49190610488565b60405180910390f35b6100d5610212565b005b6100f160048036038101906100ec91906105b2565b6102d9565b005b61010d600480360381019061010891906108ac565b610315565b60405161011a9190610488565b60405180910390f35b61013d600480360381019061013891906109f6565b61037f565b60405161014a9190610488565b60405180910390f35b61016d60048036038101906101689190610abf565b6103e6565b60405161017a9190610488565b60405180910390f35b5f7f6a627842f752de95745ef8f3ca67858982b5f585d752f8163e5855050041cb3c905090565b5f7f87c76683e354abe8640b03c72d02c9175d9a00a6c0101d5bc4be081b9b8199eb633ec3783460e01b6040516101e19190610488565b60405180910390a17f3ec3783488bfc90ed98dc398cd67f30f42b252c8ce7d59a4dce63a149c452548905092915050565b5f803073ffffffffffffffffffffffffffffffffffffffff16633ec3783460055f604051602401610244929190610b92565b6040516020818303038152906040529060e01b6020820180517bffffffffffffffffffffffffffffffffffffffffffffffffffffffff83818316178352505050506040516102929190610c0b565b5f604051808303815f865af19150503d805f81146102cb576040519150601f19603f3d011682016040523d82523d5f602084013e6102d0565b606091505b50915091505050565b7fafabcf2dd47e06a477a89e49c03f8ebe8e0a7e94f775b25bbb24227c9d0110b25f3660405161030a929190610c5d565b60405180910390a150565b5f7f87c76683e354abe8640b03c72d02c9175d9a00a6c0101d5bc4be081b9b8199eb63e355b0ce60e01b60405161034c9190610488565b60405180910390a17fe355b0ceecdc5a85bc460808aed3b4d8eaa7935dbf79d2db6ffcf71e5c3525769050949350505050565b5f7f87c76683e354abe8640b03c72d02c9175d9a00a6c0101d5bc4be081b9b8199eb63ead6b8bd60e01b6040516103b69190610488565b60405180910390a17fead6b8bdece33532847146a6fe63967e794ef7c18f3b888ae6fb3aebb4ef1b959050919050565b5f7f87c76683e354abe8640b03c72d02c9175d9a00a6c0101d5bc4be081b9b8199eb63f0ca01de60e01b60405161041d9190610488565b60405180910390a17ff0ca01de95639524000d6ff4e9309b96c7f67f7961bf24b33f8b20e85f6ad977905092915050565b5f7fffffffff0000000000000000000000000000000000000000000000000000000082169050919050565b6104828161044e565b82525050565b5f60208201905061049b5f830184610479565b92915050565b5f604051905090565b5f80fd5b5f80fd5b5f819050919050565b6104c4816104b2565b81146104ce575f80fd5b50565b5f813590506104df816104bb565b92915050565b5f8115159050919050565b6104f9816104e5565b8114610503575f80fd5b50565b5f81359050610514816104f0565b92915050565b5f80604083850312156105305761052f6104aa565b5b5f61053d858286016104d1565b925050602061054e85828601610506565b9150509250929050565b5f73ffffffffffffffffffffffffffffffffffffffff82169050919050565b5f61058182610558565b9050919050565b61059181610577565b811461059b575f80fd5b50565b5f813590506105ac81610588565b92915050565b5f602082840312156105c7576105c66104aa565b5b5f6105d48482850161059e565b91505092915050565b5f6105e782610577565b9050919050565b6105f7816105dd565b8114610601575f80fd5b50565b5f81359050610612816105ee565b92915050565b5f80fd5b5f601f19601f8301169050919050565b7f4e487b71000000000000000000000000000000000000000000000000000000005f52604160045260245ffd5b6106628261061c565b810181811067ffffffffffffffff821117156106815761068061062c565b5b80604052505050565b5f6106936104a1565b905061069f8282610659565b919050565b5f80fd5b5f80fd5b5f80fd5b5f67ffffffffffffffff8211156106ca576106c961062c565b5b6106d38261061c565b9050602081019050919050565b828183375f83830152505050565b5f6107006106fb846106b0565b61068a565b90508281526020810184848401111561071c5761071b6106ac565b5b6107278482856106e0565b509392505050565b5f82601f830112610743576107426106a8565b5b81356107538482602086016106ee565b91505092915050565b5f6040828403121561077157610770610618565b5b61077b604061068a565b90505f61078a848285016104d1565b5f83015250602082013567ffffffffffffffff8111156107ad576107ac6106a4565b5b6107b98482850161072f565b60208301525092915050565b5f67ffffffffffffffff8211156107df576107de61062c565b5b602082029050602081019050919050565b5f80fd5b5f610806610801846107c5565b61068a565b90508083825260208201905060208402830185811115610829576108286107f0565b5b835b81811015610852578061083e88826104d1565b84526020840193505060208101905061082b565b5050509392505050565b5f82601f8301126108705761086f6106a8565b5b81356108808482602086016107f4565b91505092915050565b60038110610895575f80fd5b50565b5f813590506108a681610889565b92915050565b5f805f80608085870312156108c4576108c36104aa565b5b5f6108d187828801610604565b945050602085013567ffffffffffffffff8111156108f2576108f16104ae565b5b6108fe8782880161075c565b935050604085013567ffffffffffffffff81111561091f5761091e6104ae565b5b61092b8782880161085c565b925050606061093c87828801610898565b91505092959194509250565b5f67ffffffffffffffff8211156109625761096161062c565b5b602082029050919050565b5f61097f61097a84610948565b61068a565b90508060208402830185811115610999576109986107f0565b5b835b818110156109c257806109ae88826104d1565b84526020840193505060208101905061099b565b5050509392505050565b5f82601f8301126109e0576109df6106a8565b5b60036109ed84828561096d565b91505092915050565b5f60608284031215610a0b57610a0a6104aa565b5b5f610a18848285016109cc565b91505092915050565b5f67ffffffffffffffff821115610a3b57610a3a61062c565b5b610a448261061c565b9050602081019050919050565b5f610a63610a5e84610a21565b61068a565b905082815260208101848484011115610a7f57610a7e6106ac565b5b610a8a8482856106e0565b509392505050565b5f82601f830112610aa657610aa56106a8565b5b8135610ab6848260208601610a51565b91505092915050565b5f8060408385031215610ad557610ad46104aa565b5b5f83013567ffffffffffffffff811115610af257610af16104ae565b5b610afe8582860161085c565b925050602083013567ffffffffffffffff811115610b1f57610b1e6104ae565b5b610b2b85828601610a92565b9150509250929050565b5f819050919050565b5f60ff82169050919050565b5f819050919050565b5f610b6d610b68610b6384610b35565b610b4a565b610b3e565b9050919050565b610b7d81610b53565b82525050565b610b8c816104e5565b82525050565b5f604082019050610ba55f830185610b74565b610bb26020830184610b83565b9392505050565b5f81519050919050565b5f81905092915050565b8281835e5f83830152505050565b5f610be582610bb9565b610bef8185610bc3565b9350610bff818560208601610bcd565b80840191505092915050565b5f610c168284610bdb565b915081905092915050565b5f82825260208201905092915050565b5f610c3c8385610c21565b9350610c498385846106e0565b610c528361061c565b840190509392505050565b5f6020820190508181035f830152610c76818486610c31565b9050939250505056fea264697066735822122057a7e5ed9b8521faaae34406251c6eddcff81a4541f16a12a4d1e777c4ad362e64736f6c634300081a0033",
					"opcodes": "PUSH1 0x80 PUSH1 0x40 MSTORE CALLVALUE DUP1 ISZERO PUSH1 0xE JUMPI PUSH0 DUP1 REVERT JUMPDEST POP PUSH2 0xCB5 DUP1 PUSH2 0x1C PUSH0 CODECOPY PUSH0 RETURN INVALID PUSH1 0x80 PUSH1 0x40 MSTORE CALLVALUE DUP1 ISZERO PUSH2 0xF JUMPI PUSH0 DUP1 REVERT JUMPDEST POP PUSH1 0x4 CALLDATASIZE LT PUSH2 0x7B JUMPI PUSH0 CALLDATALOAD PUSH1 0xE0 SHR DUP1 PUSH4 0x6A627842 GT PUSH2 0x59 JUMPI DUP1 PUSH4 0x6A627842 EQ PUSH2 0xD7 JUMPI DUP1 PUSH4 0xE355B0CE EQ PUSH2 0xF3 JUMPI DUP1 PUSH4 0xEAD6B8BD EQ PUSH2 0x123 JUMPI DUP1 PUSH4 0xF0CA01DE EQ PUSH2 0x153 JUMPI PUSH2 0x7B JUMP JUMPDEST DUP1 PUSH4 0x46DAB16 EQ PUSH2 0x7F JUMPI DUP1 PUSH4 0x3EC37834 EQ PUSH2 0x9D JUMPI DUP1 PUSH4 0x59EBEA23 EQ PUSH2 0xCD JUMPI JUMPDEST PUSH0 DUP1 REVERT JUMPDEST PUSH2 0x87 PUSH2 0x183 JUMP JUMPDEST PUSH1 0x40 MLOAD PUSH2 0x94 SWAP2 SWAP1 PUSH2 0x488 JUMP JUMPDEST PUSH1 0x40 MLOAD DUP1 SWAP2 SUB SWAP1 RETURN JUMPDEST PUSH2 0xB7 PUSH1 0x4 DUP1 CALLDATASIZE SUB DUP2 ADD SWAP1 PUSH2 0xB2 SWAP2 SWAP1 PUSH2 0x51A JUMP JUMPDEST PUSH2 0x1AA JUMP JUMPDEST PUSH1 0x40 MLOAD PUSH2 0xC4 SWAP2 SWAP1 PUSH2 0x488 JUMP JUMPDEST PUSH1 0x40 MLOAD DUP1 SWAP2 SUB SWAP1 RETURN JUMPDEST PUSH2 0xD5 PUSH2 0x212 JUMP JUMPDEST STOP JUMPDEST PUSH2 0xF1 PUSH1 0x4 DUP1 CALLDATASIZE SUB DUP2 ADD SWAP1 PUSH2 0xEC SWAP2 SWAP1 PUSH2 0x5B2 JUMP JUMPDEST PUSH2 0x2D9 JUMP JUMPDEST STOP JUMPDEST PUSH2 0x10D PUSH1 0x4 DUP1 CALLDATASIZE SUB DUP2 ADD SWAP1 PUSH2 0x108 SWAP2 SWAP1 PUSH2 0x8AC JUMP JUMPDEST PUSH2 0x315 JUMP JUMPDEST PUSH1 0x40 MLOAD PUSH2 0x11A SWAP2 SWAP1 PUSH2 0x488 JUMP JUMPDEST PUSH1 0x40 MLOAD DUP1 SWAP2 SUB SWAP1 RETURN JUMPDEST PUSH2 0x13D PUSH1 0x4 DUP1 CALLDATASIZE SUB DUP2 ADD SWAP1 PUSH2 0x138 SWAP2 SWAP1 PUSH2 0x9F6 JUMP JUMPDEST PUSH2 0x37F JUMP JUMPDEST PUSH1 0x40 MLOAD PUSH2 0x14A SWAP2 SWAP1 PUSH2 0x488 JUMP JUMPDEST PUSH1 0x40 MLOAD DUP1 SWAP2 SUB SWAP1 RETURN JUMPDEST PUSH2 0x16D PUSH1 0x4 DUP1 CALLDATASIZE SUB DUP2 ADD SWAP1 PUSH2 0x168 SWAP2 SWAP1 PUSH2 0xABF JUMP JUMPDEST PUSH2 0x3E6 JUMP JUMPDEST PUSH1 0x40 MLOAD PUSH2 0x17A SWAP2 SWAP1 PUSH2 0x488 JUMP JUMPDEST PUSH1 0x40 MLOAD DUP1 SWAP2 SUB SWAP1 RETURN JUMPDEST PUSH0 PUSH32 0x6A627842F752DE95745EF8F3CA67858982B5F585D752F8163E5855050041CB3C SWAP1 POP SWAP1 JUMP JUMPDEST PUSH0 PUSH32 0x87C76683E354ABE8640B03C72D02C9175D9A00A6C0101D5BC4BE081B9B8199EB PUSH4 0x3EC37834 PUSH1 0xE0 SHL PUSH1 0x40 MLOAD PUSH2 0x1E1 SWAP2 SWAP1 PUSH2 0x488 JUMP JUMPDEST PUSH1 0x40 MLOAD DUP1 SWAP2 SUB SWAP1 LOG1 PUSH32 0x3EC3783488BFC90ED98DC398CD67F30F42B252C8CE7D59A4DCE63A149C452548 SWAP1 POP SWAP3 SWAP2 POP POP JUMP JUMPDEST PUSH0 DUP1 ADDRESS PUSH20 0xFFFFFFFFFFFFFFFFFFFFFFFFFFFFFFFFFFFFFFFF AND PUSH4 0x3EC37834 PUSH1 0x5 PUSH0 PUSH1 0x40 MLOAD PUSH1 0x24 ADD PUSH2 0x244 SWAP3 SWAP2 SWAP1 PUSH2 0xB92 JUMP JUMPDEST PUSH1 0x40 MLOAD PUSH1 0x20 DUP2 DUP4 SUB SUB DUP2 MSTORE SWAP1 PUSH1 0x40 MSTORE SWAP1 PUSH1 0xE0 SHL PUSH1 0x20 DUP3 ADD DUP1 MLOAD PUSH28 0xFFFFFFFFFFFFFFFFFFFFFFFFFFFFFFFFFFFFFFFFFFFFFFFFFFFFFFFF DUP4 DUP2 DUP4 AND OR DUP4 MSTORE POP POP POP POP PUSH1 0x40 MLOAD PUSH2 0x292 SWAP2 SWAP1 PUSH2 0xC0B JUMP JUMPDEST PUSH0 PUSH1 0x40 MLOAD DUP1 DUP4 SUB DUP2 PUSH0 DUP7 GAS CALL SWAP2 POP POP RETURNDATASIZE DUP1 PUSH0 DUP2 EQ PUSH2 0x2CB JUMPI PUSH1 0x40 MLOAD SWAP2 POP PUSH1 0x1F NOT PUSH1 0x3F RETURNDATASIZE ADD AND DUP3 ADD PUSH1 0x40 MSTORE RETURNDATASIZE DUP3 MSTORE RETURNDATASIZE PUSH0 PUSH1 0x20 DUP5 ADD RETURNDATACOPY PUSH2 0x2D0 JUMP JUMPDEST PUSH1 0x60 SWAP2 POP JUMPDEST POP SWAP2 POP SWAP2 POP POP POP JUMP JUMPDEST PUSH32 0xAFABCF2DD47E06A477A89E49C03F8EBE8E0A7E94F775B25BBB24227C9D0110B2 PUSH0 CALLDATASIZE PUSH1 0x40 MLOAD PUSH2 0x30A SWAP3 SWAP2 SWAP1 PUSH2 0xC5D JUMP JUMPDEST PUSH1 0x40 MLOAD DUP1 SWAP2 SUB SWAP1 LOG1 POP JUMP JUMPDEST PUSH0 PUSH32 0x87C76683E354ABE8640B03C72D02C9175D9A00A6C0101D5BC4BE081B9B8199EB PUSH4 0xE355B0CE PUSH1 0xE0 SHL PUSH1 0x40 MLOAD PUSH2 0x34C SWAP2 SWAP1 PUSH2 0x488 JUMP JUMPDEST PUSH1 0x40 MLOAD DUP1 SWAP2 SUB SWAP1 LOG1 PUSH32 0xE355B0CEECDC5A85BC460808AED3B4D8EAA7935DBF79D2DB6FFCF71E5C352576 SWAP1 POP SWAP5 SWAP4 POP POP POP POP JUMP JUMPDEST PUSH0 PUSH32 0x87C76683E354ABE8640B03C72D02C9175D9A00A6C0101D5BC4BE081B9B8199EB PUSH4 0xEAD6B8BD PUSH1 0xE0 SHL PUSH1 0x40 MLOAD PUSH2 0x3B6 SWAP2 SWAP1 PUSH2 0x488 JUMP JUMPDEST PUSH1 0x40 MLOAD DUP1 SWAP2 SUB SWAP1 LOG1 PUSH32 0xEAD6B8BDECE33532847146A6FE63967E794EF7C18F3B888AE6FB3AEBB4EF1B95 SWAP1 POP SWAP2 SWAP1 POP JUMP JUMPDEST PUSH0 PUSH32 0x87C76683E354ABE8640B03C72D02C9175D9A00A6C0101D5BC4BE081B9B8199EB PUSH4 0xF0CA01DE PUSH1 0xE0 SHL PUSH1 0x40 MLOAD PUSH2 0x41D SWAP2 SWAP1 PUSH2 0x488 JUMP JUMPDEST PUSH1 0x40 MLOAD DUP1 SWAP2 SUB SWAP1 LOG1 PUSH32 0xF0CA01DE95639524000D6FF4E9309B96C7F67F7961BF24B33F8B20E85F6AD977 SWAP1 POP SWAP3 SWAP2 POP POP JUMP JUMPDEST PUSH0 PUSH32 0xFFFFFFFF00000000000000000000000000000000000000000000000000000000 DUP3 AND SWAP1 POP SWAP2 SWAP1 POP JUMP JUMPDEST PUSH2 0x482 DUP2 PUSH2 0x44E JUMP JUMPDEST DUP3 MSTORE POP POP JUMP JUMPDEST PUSH0 PUSH1 0x20 DUP3 ADD SWAP1 POP PUSH2 0x49B PUSH0 DUP4 ADD DUP5 PUSH2 0x479 JUMP JUMPDEST SWAP3 SWAP2 POP POP JUMP JUMPDEST PUSH0 PUSH1 0x40 MLOAD SWAP1 POP SWAP1 JUMP JUMPDEST PUSH0 DUP1 REVERT JUMPDEST PUSH0 DUP1 REVERT JUMPDEST PUSH0 DUP2 SWAP1 POP SWAP2 SWAP1 POP JUMP JUMPDEST PUSH2 0x4C4 DUP2 PUSH2 0x4B2 JUMP JUMPDEST DUP2 EQ PUSH2 0x4CE JUMPI PUSH0 DUP1 REVERT JUMPDEST POP JUMP JUMPDEST PUSH0 DUP2 CALLDATALOAD SWAP1 POP PUSH2 0x4DF DUP2 PUSH2 0x4BB JUMP JUMPDEST SWAP3 SWAP2 POP POP JUMP JUMPDEST PUSH0 DUP2 ISZERO ISZERO SWAP1 POP SWAP2 SWAP1 POP JUMP JUMPDEST PUSH2 0x4F9 DUP2 PUSH2 0x4E5 JUMP JUMPDEST DUP2 EQ PUSH2 0x503 JUMPI PUSH0 DUP1 REVERT JUMPDEST POP JUMP JUMPDEST PUSH0 DUP2 CALLDATALOAD SWAP1 POP PUSH2 0x514 DUP2 PUSH2 0x4F0 JUMP JUMPDEST SWAP3 SWAP2 POP POP JUMP JUMPDEST PUSH0 DUP1 PUSH1 0x40 DUP4 DUP6 SUB SLT ISZERO PUSH2 0x530 JUMPI PUSH2 0x52F PUSH2 0x4AA JUMP JUMPDEST JUMPDEST PUSH0 PUSH2 0x53D DUP6 DUP3 DUP7 ADD PUSH2 0x4D1 JUMP JUMPDEST SWAP3 POP POP PUSH1 0x20 PUSH2 0x54E DUP6 DUP3 DUP7 ADD PUSH2 0x506 JUMP JUMPDEST SWAP2 POP POP SWAP3 POP SWAP3 SWAP1 POP JUMP JUMPDEST PUSH0 PUSH20 0xFFFFFFFFFFFFFFFFFFFFFFFFFFFFFFFFFFFFFFFF DUP3 AND SWAP1 POP SWAP2 SWAP1 POP JUMP JUMPDEST PUSH0 PUSH2 0x581 DUP3 PUSH2 0x558 JUMP JUMPDEST SWAP1 POP SWAP2 SWAP1 POP JUMP JUMPDEST PUSH2 0x591 DUP2 PUSH2 0x577 JUMP JUMPDEST DUP2 EQ PUSH2 0x59B JUMPI PUSH0 DUP1 REVERT JUMPDEST POP JUMP JUMPDEST PUSH0 DUP2 CALLDATALOAD SWAP1 POP PUSH2 0x5AC DUP2 PUSH2 0x588 JUMP JUMPDEST SWAP3 SWAP2 POP POP JUMP JUMPDEST PUSH0 PUSH1 0x20 DUP3 DUP5 SUB SLT ISZERO PUSH2 0x5C7 JUMPI PUSH2 0x5C6 PUSH2 0x4AA JUMP JUMPDEST JUMPDEST PUSH0 PUSH2 0x5D4 DUP5 DUP3 DUP6 ADD PUSH2 0x59E JUMP JUMPDEST SWAP2 POP POP SWAP3 SWAP2 POP POP JUMP JUMPDEST PUSH0 PUSH2 0x5E7 DUP3 PUSH2 0x577 JUMP JUMPDEST SWAP1 POP SWAP2 SWAP1 POP JUMP JUMPDEST PUSH2 0x5F7 DUP2 PUSH2 0x5DD JUMP JUMPDEST DUP2 EQ PUSH2 0x601 JUMPI PUSH0 DUP1 REVERT JUMPDEST POP JUMP JUMPDEST PUSH0 DUP2 CALLDATALOAD SWAP1 POP PUSH2 0x612 DUP2 PUSH2 0x5EE JUMP JUMPDEST SWAP3 SWAP2 POP POP JUMP JUMPDEST PUSH0 DUP1 REVERT JUMPDEST PUSH0 PUSH1 0x1F NOT PUSH1 0x1F DUP4 ADD AND SWAP1 POP SWAP2 SWAP1 POP JUMP JUMPDEST PUSH32 0x4E487B7100000000000000000000000000000000000000000000000000000000 PUSH0 MSTORE PUSH1 0x41 PUSH1 0x4 MSTORE PUSH1 0x24 PUSH0 REVERT JUMPDEST PUSH2 0x662 DUP3 PUSH2 0x61C JUMP JUMPDEST DUP2 ADD DUP2 DUP2 LT PUSH8 0xFFFFFFFFFFFFFFFF DUP3 GT OR ISZERO PUSH2 0x681 JUMPI PUSH2 0x680 PUSH2 0x62C JUMP JUMPDEST JUMPDEST DUP1 PUSH1 0x40 MSTORE POP POP POP JUMP JUMPDEST PUSH0 PUSH2 0x693 PUSH2 0x4A1 JUMP JUMPDEST SWAP1 POP PUSH2 0x69F DUP3 DUP3 PUSH2 0x659 JUMP JUMPDEST SWAP2 SWAP1 POP JUMP JUMPDEST PUSH0 DUP1 REVERT JUMPDEST PUSH0 DUP1 REVERT JUMPDEST PUSH0 DUP1 REVERT JUMPDEST PUSH0 PUSH8 0xFFFFFFFFFFFFFFFF DUP3 GT ISZERO PUSH2 0x6CA JUMPI PUSH2 0x6C9 PUSH2 0x62C JUMP JUMPDEST JUMPDEST PUSH2 0x6D3 DUP3 PUSH2 0x61C JUMP JUMPDEST SWAP1 POP PUSH1 0x20 DUP2 ADD SWAP1 POP SWAP2 SWAP1 POP JUMP JUMPDEST DUP3 DUP2 DUP4 CALLDATACOPY PUSH0 DUP4 DUP4 ADD MSTORE POP POP POP JUMP JUMPDEST PUSH0 PUSH2 0x700 PUSH2 0x6FB DUP5 PUSH2 0x6B0 JUMP JUMPDEST PUSH2 0x68A JUMP JUMPDEST SWAP1 POP DUP3 DUP2 MSTORE PUSH1 0x20 DUP2 ADD DUP5 DUP5 DUP5 ADD GT ISZERO PUSH2 0x71C JUMPI PUSH2 0x71B PUSH2 0x6AC JUMP JUMPDEST JUMPDEST PUSH2 0x727 DUP5 DUP3 DUP6 PUSH2 0x6E0 JUMP JUMPDEST POP SWAP4 SWAP3 POP POP POP JUMP JUMPDEST PUSH0 DUP3 PUSH1 0x1F DUP4 ADD SLT PUSH2 0x743 JUMPI PUSH2 0x742 PUSH2 0x6A8 JUMP JUMPDEST JUMPDEST DUP2 CALLDATALOAD PUSH2 0x753 DUP5 DUP3 PUSH1 0x20 DUP7 ADD PUSH2 0x6EE JUMP JUMPDEST SWAP2 POP POP SWAP3 SWAP2 POP POP JUMP JUMPDEST PUSH0 PUSH1 0x40 DUP3 DUP5 SUB SLT ISZERO PUSH2 0x771 JUMPI PUSH2 0x770 PUSH2 0x618 JUMP JUMPDEST JUMPDEST PUSH2 0x77B PUSH1 0x40 PUSH2 0x68A JUMP JUMPDEST SWAP1 POP PUSH0 PUSH2 0x78A DUP5 DUP3 DUP6 ADD PUSH2 0x4D1 JUMP JUMPDEST PUSH0 DUP4 ADD MSTORE POP PUSH1 0x20 DUP3 ADD CALLDATALOAD PUSH8 0xFFFFFFFFFFFFFFFF DUP2 GT ISZERO PUSH2 0x7AD JUMPI PUSH2 0x7AC PUSH2 0x6A4 JUMP JUMPDEST JUMPDEST PUSH2 0x7B9 DUP5 DUP3 DUP6 ADD PUSH2 0x72F JUMP JUMPDEST PUSH1 0x20 DUP4 ADD MSTORE POP SWAP3 SWAP2 POP POP JUMP JUMPDEST PUSH0 PUSH8 0xFFFFFFFFFFFFFFFF DUP3 GT ISZERO PUSH2 0x7DF JUMPI PUSH2 0x7DE PUSH2 0x62C JUMP JUMPDEST JUMPDEST PUSH1 0x20 DUP3 MUL SWAP1 POP PUSH1 0x20 DUP2 ADD SWAP1 POP SWAP2 SWAP1 POP JUMP JUMPDEST PUSH0 DUP1 REVERT JUMPDEST PUSH0 PUSH2 0x806 PUSH2 0x801 DUP5 PUSH2 0x7C5 JUMP JUMPDEST PUSH2 0x68A JUMP JUMPDEST SWAP1 POP DUP1 DUP4 DUP3 MSTORE PUSH1 0x20 DUP3 ADD SWAP1 POP PUSH1 0x20 DUP5 MUL DUP4 ADD DUP6 DUP2 GT ISZERO PUSH2 0x829 JUMPI PUSH2 0x828 PUSH2 0x7F0 JUMP JUMPDEST JUMPDEST DUP4 JUMPDEST DUP2 DUP2 LT ISZERO PUSH2 0x852 JUMPI DUP1 PUSH2 0x83E DUP9 DUP3 PUSH2 0x4D1 JUMP JUMPDEST DUP5 MSTORE PUSH1 0x20 DUP5 ADD SWAP4 POP POP PUSH1 0x20 DUP2 ADD SWAP1 POP PUSH2 0x82B JUMP JUMPDEST POP POP POP SWAP4 SWAP3 POP POP POP JUMP JUMPDEST PUSH0 DUP3 PUSH1 0x1F DUP4 ADD SLT PUSH2 0x870 JUMPI PUSH2 0x86F PUSH2 0x6A8 JUMP JUMPDEST JUMPDEST DUP2 CALLDATALOAD PUSH2 0x880 DUP5 DUP3 PUSH1 0x20 DUP7 ADD PUSH2 0x7F4 JUMP JUMPDEST SWAP2 POP POP SWAP3 SWAP2 POP POP JUMP JUMPDEST PUSH1 0x3 DUP2 LT PUSH2 0x895 JUMPI PUSH0 DUP1 REVERT JUMPDEST POP JUMP JUMPDEST PUSH0 DUP2 CALLDATALOAD SWAP1 POP PUSH2 0x8A6 DUP2 PUSH2 0x889 JUMP JUMPDEST SWAP3 SWAP2 POP POP JUMP JUMPDEST PUSH0 DUP1 PUSH0 DUP1 PUSH1 0x80 DUP6 DUP8 SUB SLT ISZERO PUSH2 0x8C4 JUMPI PUSH2 0x8C3 PUSH2 0x4AA JUMP JUMPDEST JUMPDEST PUSH0 PUSH2 0x8D1 DUP8 DUP3 DUP9 ADD PUSH2 0x604 JUMP JUMPDEST SWAP5 POP POP PUSH1 0x20 DUP6 ADD CALLDATALOAD PUSH8 0xFFFFFFFFFFFFFFFF DUP2 GT ISZERO PUSH2 0x8F2 JUMPI PUSH2 0x8F1 PUSH2 0x4AE JUMP JUMPDEST JUMPDEST PUSH2 0x8FE DUP8 DUP3 DUP9 ADD PUSH2 0x75C JUMP JUMPDEST SWAP4 POP POP PUSH1 0x40 DUP6 ADD CALLDATALOAD PUSH8 0xFFFFFFFFFFFFFFFF DUP2 GT ISZERO PUSH2 0x91F JUMPI PUSH2 0x91E PUSH2 0x4AE JUMP JUMPDEST JUMPDEST PUSH2 0x92B DUP8 DUP3 DUP9 ADD PUSH2 0x85C JUMP JUMPDEST SWAP3 POP POP PUSH1 0x60 PUSH2 0x93C DUP8 DUP3 DUP9 ADD PUSH2 0x898 JUMP JUMPDEST SWAP2 POP POP SWAP3 SWAP6 SWAP2 SWAP5 POP SWAP3 POP JUMP JUMPDEST PUSH0 PUSH8 0xFFFFFFFFFFFFFFFF DUP3 GT ISZERO PUSH2 0x962 JUMPI PUSH2 0x961 PUSH2 0x62C JUMP JUMPDEST JUMPDEST PUSH1 0x20 DUP3 MUL SWAP1 POP SWAP2 SWAP1 POP JUMP JUMPDEST PUSH0 PUSH2 0x97F PUSH2 0x97A DUP5 PUSH2 0x948 JUMP JUMPDEST PUSH2 0x68A JUMP JUMPDEST SWAP1 POP DUP1 PUSH1 0x20 DUP5 MUL DUP4 ADD DUP6 DUP2 GT ISZERO PUSH2 0x999 JUMPI PUSH2 0x998 PUSH2 0x7F0 JUMP JUMPDEST JUMPDEST DUP4 JUMPDEST DUP2 DUP2 LT ISZERO PUSH2 0x9C2 JUMPI DUP1 PUSH2 0x9AE DUP9 DUP3 PUSH2 0x4D1 JUMP JUMPDEST DUP5 MSTORE PUSH1 0x20 DUP5 ADD SWAP4 POP POP PUSH1 0x20 DUP2 ADD SWAP1 POP PUSH2 0x99B JUMP JUMPDEST POP POP POP SWAP4 SWAP3 POP POP POP JUMP JUMPDEST PUSH0 DUP3 PUSH1 0x1F DUP4 ADD SLT PUSH2 0x9E0 JUMPI PUSH2 0x9DF PUSH2 0x6A8 JUMP JUMPDEST JUMPDEST PUSH1 0x3 PUSH2 0x9ED DUP5 DUP3 DUP6 PUSH2 0x96D JUMP JUMPDEST SWAP2 POP POP SWAP3 SWAP2 POP POP JUMP JUMPDEST PUSH0 PUSH1 0x60 DUP3 DUP5 SUB SLT ISZERO PUSH2 0xA0B JUMPI PUSH2 0xA0A PUSH2 0x4AA JUMP JUMPDEST JUMPDEST PUSH0 PUSH2 0xA18 DUP5 DUP3 DUP6 ADD PUSH2 0x9CC JUMP JUMPDEST SWAP2 POP POP SWAP3 SWAP2 POP POP JUMP JUMPDEST PUSH0 PUSH8 0xFFFFFFFFFFFFFFFF DUP3 GT ISZERO PUSH2 0xA3B JUMPI PUSH2 0xA3A PUSH2 0x62C JUMP JUMPDEST JUMPDEST PUSH2 0xA44 DUP3 PUSH2 0x61C JUMP JUMPDEST SWAP1 POP PUSH1 0x20 DUP2 ADD SWAP1 POP SWAP2 SWAP1 POP JUMP JUMPDEST PUSH0 PUSH2 0xA63 PUSH2 0xA5E DUP5 PUSH2 0xA21 JUMP JUMPDEST PUSH2 0x68A JUMP JUMPDEST SWAP1 POP DUP3 DUP2 MSTORE PUSH1 0x20 DUP2 ADD DUP5 DUP5 DUP5 ADD GT ISZERO PUSH2 0xA7F JUMPI PUSH2 0xA7E PUSH2 0x6AC JUMP JUMPDEST JUMPDEST PUSH2 0xA8A DUP5 DUP3 DUP6 PUSH2 0x6E0 JUMP JUMPDEST POP SWAP4 SWAP3 POP POP POP JUMP JUMPDEST PUSH0 DUP3 PUSH1 0x1F DUP4 ADD SLT PUSH2 0xAA6 JUMPI PUSH2 0xAA5 PUSH2 0x6A8 JUMP JUMPDEST JUMPDEST DUP2 CALLDATALOAD PUSH2 0xAB6 DUP5 DUP3 PUSH1 0x20 DUP7 ADD PUSH2 0xA51 JUMP JUMPDEST SWAP2 POP POP SWAP3 SWAP2 POP POP JUMP JUMPDEST PUSH0 DUP1 PUSH1 0x40 DUP4 DUP6 SUB SLT ISZERO PUSH2 0xAD5 JUMPI PUSH2 0xAD4 PUSH2 0x4AA JUMP JUMPDEST JUMPDEST PUSH0 DUP4 ADD CALLDATALOAD PUSH8 0xFFFFFFFFFFFFFFFF DUP2 GT ISZERO PUSH2 0xAF2 JUMPI PUSH2 0xAF1 PUSH2 0x4AE JUMP JUMPDEST JUMPDEST PUSH2 0xAFE DUP6 DUP3 DUP7 ADD PUSH2 0x85C JUMP JUMPDEST SWAP3 POP POP PUSH1 0x20 DUP4 ADD CALLDATALOAD PUSH8 0xFFFFFFFFFFFFFFFF DUP2 GT ISZERO PUSH2 0xB1F JUMPI PUSH2 0xB1E PUSH2 0x4AE JUMP JUMPDEST JUMPDEST PUSH2 0xB2B DUP6 DUP3 DUP7 ADD PUSH2 0xA92 JUMP JUMPDEST SWAP2 POP POP SWAP3 POP SWAP3 SWAP1 POP JUMP JUMPDEST PUSH0 DUP2 SWAP1 POP SWAP2 SWAP1 POP JUMP JUMPDEST PUSH0 PUSH1 0xFF DUP3 AND SWAP1 POP SWAP2 SWAP1 POP JUMP JUMPDEST PUSH0 DUP2 SWAP1 POP SWAP2 SWAP1 POP JUMP JUMPDEST PUSH0 PUSH2 0xB6D PUSH2 0xB68 PUSH2 0xB63 DUP5 PUSH2 0xB35 JUMP JUMPDEST PUSH2 0xB4A JUMP JUMPDEST PUSH2 0xB3E JUMP JUMPDEST SWAP1 POP SWAP2 SWAP1 POP JUMP JUMPDEST PUSH2 0xB7D DUP2 PUSH2 0xB53 JUMP JUMPDEST DUP3 MSTORE POP POP JUMP JUMPDEST PUSH2 0xB8C DUP2 PUSH2 0x4E5 JUMP JUMPDEST DUP3 MSTORE POP POP JUMP JUMPDEST PUSH0 PUSH1 0x40 DUP3 ADD SWAP1 POP PUSH2 0xBA5 PUSH0 DUP4 ADD DUP6 PUSH2 0xB74 JUMP JUMPDEST PUSH2 0xBB2 PUSH1 0x20 DUP4 ADD DUP5 PUSH2 0xB83 JUMP JUMPDEST SWAP4 SWAP3 POP POP POP JUMP JUMPDEST PUSH0 DUP2 MLOAD SWAP1 POP SWAP2 SWAP1 POP JUMP JUMPDEST PUSH0 DUP2 SWAP1 POP SWAP3 SWAP2 POP POP JUMP JUMPDEST DUP3 DUP2 DUP4 MCOPY PUSH0 DUP4 DUP4 ADD MSTORE POP POP POP JUMP JUMPDEST PUSH0 PUSH2 0xBE5 DUP3 PUSH2 0xBB9 JUMP JUMPDEST PUSH2 0xBEF DUP2 DUP6 PUSH2 0xBC3 JUMP JUMPDEST SWAP4 POP PUSH2 0xBFF DUP2 DUP6 PUSH1 0x20 DUP7 ADD PUSH2 0xBCD JUMP JUMPDEST DUP1 DUP5 ADD SWAP2 POP POP SWAP3 SWAP2 POP POP JUMP JUMPDEST PUSH0 PUSH2 0xC16 DUP3 DUP5 PUSH2 0xBDB JUMP JUMPDEST SWAP2 POP DUP2 SWAP1 POP SWAP3 SWAP2 POP POP JUMP JUMPDEST PUSH0 DUP3 DUP3 MSTORE PUSH1 0x20 DUP3 ADD SWAP1 POP SWAP3 SWAP2 POP POP JUMP JUMPDEST PUSH0 PUSH2 0xC3C DUP4 DUP6 PUSH2 0xC21 JUMP JUMPDEST SWAP4 POP PUSH2 0xC49 DUP4 DUP6 DUP5 PUSH2 0x6E0 JUMP JUMPDEST PUSH2 0xC52 DUP4 PUSH2 0x61C JUMP JUMPDEST DUP5 ADD SWAP1 POP SWAP4 SWAP3 POP POP POP JUMP JUMPDEST PUSH0 PUSH1 0x20 DUP3 ADD SWAP1 POP DUP2 DUP2 SUB PUSH0 DUP4 ADD MSTORE PUSH2 0xC76 DUP2 DUP5 DUP7 PUSH2 0xC31 JUMP JUMPDEST SWAP1 POP SWAP4 SWAP3 POP POP POP JUMP INVALID LOG2 PUSH5 0x6970667358 0x22 SLT KECCAK256 JUMPI 0xA7 0xE5 0xED SWAP12 DUP6 0x21 STATICCALL 0xAA 0xE3 PREVRANDAO MOD 0x25 SHR PUSH15 0xDDCFF81A4541F16A12A4D1E777C4AD CALLDATASIZE 0x2E PUSH5 0x736F6C6343 STOP ADDMOD BYTE STOP CALLER "
				},
				"gasEstimates": {
					"creation": {
						"codeDepositCost": "650600",
						"executionCost": "681",
						"totalCost": "651281"
					},
					"external": {
						"callWithSignature()": "infinite",
						"elementaryParamSelector(uint256,bool)": "infinite",
						"fixedSizeParamSelector(uint256[3])": "infinite",
						"mappingParamSelector(address,(uint256,bytes),uint256[],uint8)": "infinite",
						"mint(address)": "infinite",
						"mintSelector()": "339",
						"nonFixedSizeParamSelector(uint256[],string)": "infinite"
					}
				},
				"methodIdentifiers": {
					"callWithSignature()": "59ebea23",
					"elementaryParamSelector(uint256,bool)": "3ec37834",
					"fixedSizeParamSelector(uint256[3])": "ead6b8bd",
					"mappingParamSelector(address,(uint256,bytes),uint256[],uint8)": "e355b0ce",
					"mint(address)": "6a627842",
					"mintSelector()": "046dab16",
					"nonFixedSizeParamSelector(uint256[],string)": "f0ca01de"
				}
			},
			"storageLayout": {
				"storage": [],
				"types": null
			},
			"userdoc": {
				"kind": "user",
				"methods": {},
				"version": 1
			}
		}
	}
}