{
	"contracts/Learn_103_49.sol": {
		"UUPSNew": {
			"abi": [
				{
					"inputs": [],
					"name": "admin",
					"outputs": [
						{
							"internalType": "address",
							"name": "",
							"type": "address"
						}
					],
					"stateMutability": "view",
					"type": "function"
				},
				{
					"inputs": [],
					"name": "foo",
					"outputs": [],
					"stateMutability": "nonpayable",
					"type": "function"
				},
				{
					"inputs": [],
					"name": "implementation",
					"outputs": [
						{
							"internalType": "address",
							"name": "",
							"type": "address"
						}
					],
					"stateMutability": "view",
					"type": "function"
				},
				{
					"inputs": [
						{
							"internalType": "address",
							"name": "implementation_",
							"type": "address"
						}
					],
					"name": "upgrade",
					"outputs": [],
					"stateMutability": "nonpayable",
					"type": "function"
				},
				{
					"inputs": [],
					"name": "words",
					"outputs": [
						{
							"internalType": "string",
							"name": "",
							"type": "string"
						}
					],
					"stateMutability": "view",
					"type": "function"
				}
			],
			"devdoc": {
				"kind": "dev",
				"methods": {},
				"version": 1
			},
			"evm": {
				"assembly": "    /* \"contracts/Learn_103_49.sol\":771:1093  contract UUPSNew {... */\n  mstore(0x40, 0x80)\n  callvalue\n  dup1\n  iszero\n  tag_1\n  jumpi\n  0x00\n  dup1\n  revert\ntag_1:\n  pop\n  dataSize(sub_0)\n  dup1\n  dataOffset(sub_0)\n  0x00\n  codecopy\n  0x00\n  return\nstop\n\nsub_0: assembly {\n        /* \"contracts/Learn_103_49.sol\":771:1093  contract UUPSNew {... */\n      mstore(0x40, 0x80)\n      callvalue\n      dup1\n      iszero\n      tag_1\n      jumpi\n      0x00\n      dup1\n      revert\n    tag_1:\n      pop\n      jumpi(tag_2, lt(calldatasize, 0x04))\n      shr(0xe0, calldataload(0x00))\n      dup1\n      0x0900f010\n      eq\n      tag_3\n      jumpi\n      dup1\n      0x5c60da1b\n      eq\n      tag_4\n      jumpi\n      dup1\n      0xc2985578\n      eq\n      tag_5\n      jumpi\n      dup1\n      0xf2c31bd9\n      eq\n      tag_6\n      jumpi\n      dup1\n      0xf851a440\n      eq\n      tag_7\n      jumpi\n    tag_2:\n      0x00\n      dup1\n      revert\n        /* \"contracts/Learn_103_49.sol\":939:1091  function upgrade(address implementation_) external {... */\n    tag_3:\n      tag_8\n      0x04\n      dup1\n      calldatasize\n      sub\n      dup2\n      add\n      swap1\n      tag_9\n      swap2\n      swap1\n      tag_10\n      jump\t// in\n    tag_9:\n      tag_11\n      jump\t// in\n    tag_8:\n      stop\n        /* \"contracts/Learn_103_49.sol\":794:823  address public implementation */\n    tag_4:\n      tag_12\n      tag_13\n      jump\t// in\n    tag_12:\n      mload(0x40)\n      tag_14\n      swap2\n      swap1\n      tag_15\n      jump\t// in\n    tag_14:\n      mload(0x40)\n      dup1\n      swap2\n      sub\n      swap1\n      return\n        /* \"contracts/Learn_103_49.sol\":881:933  function foo() public {... */\n    tag_5:\n      tag_16\n      tag_17\n      jump\t// in\n    tag_16:\n      stop\n        /* \"contracts/Learn_103_49.sol\":855:874  string public words */\n    tag_6:\n      tag_18\n      tag_19\n      jump\t// in\n    tag_18:\n      mload(0x40)\n      tag_20\n      swap2\n      swap1\n      tag_21\n      jump\t// in\n    tag_20:\n      mload(0x40)\n      dup1\n      swap2\n      sub\n      swap1\n      return\n        /* \"contracts/Learn_103_49.sol\":829:849  address public admin */\n    tag_7:\n      tag_22\n      tag_23\n      jump\t// in\n    tag_22:\n      mload(0x40)\n      tag_24\n      swap2\n      swap1\n      tag_15\n      jump\t// in\n    tag_24:\n      mload(0x40)\n      dup1\n      swap2\n      sub\n      swap1\n      return\n        /* \"contracts/Learn_103_49.sol\":939:1091  function upgrade(address implementation_) external {... */\n    tag_11:\n        /* \"contracts/Learn_103_49.sol\":1022:1027  admin */\n      0x01\n      0x00\n      swap1\n      sload\n      swap1\n      0x0100\n      exp\n      swap1\n      div\n      0xffffffffffffffffffffffffffffffffffffffff\n      and\n        /* \"contracts/Learn_103_49.sol\":1008:1027  msg.sender == admin */\n      0xffffffffffffffffffffffffffffffffffffffff\n      and\n        /* \"contracts/Learn_103_49.sol\":1008:1018  msg.sender */\n      caller\n        /* \"contracts/Learn_103_49.sol\":1008:1027  msg.sender == admin */\n      0xffffffffffffffffffffffffffffffffffffffff\n      and\n      eq\n        /* \"contracts/Learn_103_49.sol\":1000:1042  require(msg.sender == admin, \"Must Admin\") */\n      tag_26\n      jumpi\n      mload(0x40)\n      0x08c379a000000000000000000000000000000000000000000000000000000000\n      dup2\n      mstore\n      0x04\n      add\n      tag_27\n      swap1\n      tag_28\n      jump\t// in\n    tag_27:\n      mload(0x40)\n      dup1\n      swap2\n      sub\n      swap1\n      revert\n    tag_26:\n        /* \"contracts/Learn_103_49.sol\":1069:1084  implementation_ */\n      dup1\n        /* \"contracts/Learn_103_49.sol\":1052:1066  implementation */\n      0x00\n      dup1\n        /* \"contracts/Learn_103_49.sol\":1052:1084  implementation = implementation_ */\n      0x0100\n      exp\n      dup2\n      sload\n      dup2\n      0xffffffffffffffffffffffffffffffffffffffff\n      mul\n      not\n      and\n      swap1\n      dup4\n      0xffffffffffffffffffffffffffffffffffffffff\n      and\n      mul\n      or\n      swap1\n      sstore\n      pop\n        /* \"contracts/Learn_103_49.sol\":939:1091  function upgrade(address implementation_) external {... */\n      pop\n      jump\t// out\n        /* \"contracts/Learn_103_49.sol\":794:823  address public implementation */\n    tag_13:\n      0x00\n      dup1\n      sload\n      swap1\n      0x0100\n      exp\n      swap1\n      div\n      0xffffffffffffffffffffffffffffffffffffffff\n      and\n      dup2\n      jump\t// out\n        /* \"contracts/Learn_103_49.sol\":881:933  function foo() public {... */\n    tag_17:\n        /* \"contracts/Learn_103_49.sol\":913:926  words = \"new\" */\n      mload(0x40)\n      dup1\n      0x40\n      add\n      0x40\n      mstore\n      dup1\n      0x03\n      dup2\n      mstore\n      0x20\n      add\n      0x6e65770000000000000000000000000000000000000000000000000000000000\n      dup2\n      mstore\n      pop\n        /* \"contracts/Learn_103_49.sol\":913:918  words */\n      0x02\n        /* \"contracts/Learn_103_49.sol\":913:926  words = \"new\" */\n      swap1\n      dup2\n      tag_30\n      swap2\n      swap1\n      tag_31\n      jump\t// in\n    tag_30:\n      pop\n        /* \"contracts/Learn_103_49.sol\":881:933  function foo() public {... */\n      jump\t// out\n        /* \"contracts/Learn_103_49.sol\":855:874  string public words */\n    tag_19:\n      0x02\n      dup1\n      sload\n      tag_32\n      swap1\n      tag_33\n      jump\t// in\n    tag_32:\n      dup1\n      0x1f\n      add\n      0x20\n      dup1\n      swap2\n      div\n      mul\n      0x20\n      add\n      mload(0x40)\n      swap1\n      dup2\n      add\n      0x40\n      mstore\n      dup1\n      swap3\n      swap2\n      swap1\n      dup2\n      dup2\n      mstore\n      0x20\n      add\n      dup3\n      dup1\n      sload\n      tag_34\n      swap1\n      tag_33\n      jump\t// in\n    tag_34:\n      dup1\n      iszero\n      tag_35\n      jumpi\n      dup1\n      0x1f\n      lt\n      tag_36\n      jumpi\n      0x0100\n      dup1\n      dup4\n      sload\n      div\n      mul\n      dup4\n      mstore\n      swap2\n      0x20\n      add\n      swap2\n      jump(tag_35)\n    tag_36:\n      dup3\n      add\n      swap2\n      swap1\n      0x00\n      mstore\n      keccak256(0x00, 0x20)\n      swap1\n    tag_37:\n      dup2\n      sload\n      dup2\n      mstore\n      swap1\n      0x01\n      add\n      swap1\n      0x20\n      add\n      dup1\n      dup4\n      gt\n      tag_37\n      jumpi\n      dup3\n      swap1\n      sub\n      0x1f\n      and\n      dup3\n      add\n      swap2\n    tag_35:\n      pop\n      pop\n      pop\n      pop\n      pop\n      dup2\n      jump\t// out\n        /* \"contracts/Learn_103_49.sol\":829:849  address public admin */\n    tag_23:\n      0x01\n      0x00\n      swap1\n      sload\n      swap1\n      0x0100\n      exp\n      swap1\n      div\n      0xffffffffffffffffffffffffffffffffffffffff\n      and\n      dup2\n      jump\t// out\n        /* \"#utility.yul\":88:205   */\n    tag_39:\n        /* \"#utility.yul\":197:198   */\n      0x00\n        /* \"#utility.yul\":194:195   */\n      dup1\n        /* \"#utility.yul\":187:199   */\n      revert\n        /* \"#utility.yul\":334:460   */\n    tag_41:\n        /* \"#utility.yul\":371:378   */\n      0x00\n        /* \"#utility.yul\":411:453   */\n      0xffffffffffffffffffffffffffffffffffffffff\n        /* \"#utility.yul\":404:409   */\n      dup3\n        /* \"#utility.yul\":400:454   */\n      and\n        /* \"#utility.yul\":389:454   */\n      swap1\n      pop\n        /* \"#utility.yul\":334:460   */\n      swap2\n      swap1\n      pop\n      jump\t// out\n        /* \"#utility.yul\":466:562   */\n    tag_42:\n        /* \"#utility.yul\":503:510   */\n      0x00\n        /* \"#utility.yul\":532:556   */\n      tag_77\n        /* \"#utility.yul\":550:555   */\n      dup3\n        /* \"#utility.yul\":532:556   */\n      tag_41\n      jump\t// in\n    tag_77:\n        /* \"#utility.yul\":521:556   */\n      swap1\n      pop\n        /* \"#utility.yul\":466:562   */\n      swap2\n      swap1\n      pop\n      jump\t// out\n        /* \"#utility.yul\":568:690   */\n    tag_43:\n        /* \"#utility.yul\":641:665   */\n      tag_79\n        /* \"#utility.yul\":659:664   */\n      dup2\n        /* \"#utility.yul\":641:665   */\n      tag_42\n      jump\t// in\n    tag_79:\n        /* \"#utility.yul\":634:639   */\n      dup2\n        /* \"#utility.yul\":631:666   */\n      eq\n        /* \"#utility.yul\":621:684   */\n      tag_80\n      jumpi\n        /* \"#utility.yul\":680:681   */\n      0x00\n        /* \"#utility.yul\":677:678   */\n      dup1\n        /* \"#utility.yul\":670:682   */\n      revert\n        /* \"#utility.yul\":621:684   */\n    tag_80:\n        /* \"#utility.yul\":568:690   */\n      pop\n      jump\t// out\n        /* \"#utility.yul\":696:835   */\n    tag_44:\n        /* \"#utility.yul\":742:747   */\n      0x00\n        /* \"#utility.yul\":780:786   */\n      dup2\n        /* \"#utility.yul\":767:787   */\n      calldataload\n        /* \"#utility.yul\":758:787   */\n      swap1\n      pop\n        /* \"#utility.yul\":796:829   */\n      tag_82\n        /* \"#utility.yul\":823:828   */\n      dup2\n        /* \"#utility.yul\":796:829   */\n      tag_43\n      jump\t// in\n    tag_82:\n        /* \"#utility.yul\":696:835   */\n      swap3\n      swap2\n      pop\n      pop\n      jump\t// out\n        /* \"#utility.yul\":841:1170   */\n    tag_10:\n        /* \"#utility.yul\":900:906   */\n      0x00\n        /* \"#utility.yul\":949:951   */\n      0x20\n        /* \"#utility.yul\":937:946   */\n      dup3\n        /* \"#utility.yul\":928:935   */\n      dup5\n        /* \"#utility.yul\":924:947   */\n      sub\n        /* \"#utility.yul\":920:952   */\n      slt\n        /* \"#utility.yul\":917:1036   */\n      iszero\n      tag_84\n      jumpi\n        /* \"#utility.yul\":955:1034   */\n      tag_85\n      tag_39\n      jump\t// in\n    tag_85:\n        /* \"#utility.yul\":917:1036   */\n    tag_84:\n        /* \"#utility.yul\":1075:1076   */\n      0x00\n        /* \"#utility.yul\":1100:1153   */\n      tag_86\n        /* \"#utility.yul\":1145:1152   */\n      dup5\n        /* \"#utility.yul\":1136:1142   */\n      dup3\n        /* \"#utility.yul\":1125:1134   */\n      dup6\n        /* \"#utility.yul\":1121:1143   */\n      add\n        /* \"#utility.yul\":1100:1153   */\n      tag_44\n      jump\t// in\n    tag_86:\n        /* \"#utility.yul\":1090:1153   */\n      swap2\n      pop\n        /* \"#utility.yul\":1046:1163   */\n      pop\n        /* \"#utility.yul\":841:1170   */\n      swap3\n      swap2\n      pop\n      pop\n      jump\t// out\n        /* \"#utility.yul\":1176:1294   */\n    tag_45:\n        /* \"#utility.yul\":1263:1287   */\n      tag_88\n        /* \"#utility.yul\":1281:1286   */\n      dup2\n        /* \"#utility.yul\":1263:1287   */\n      tag_42\n      jump\t// in\n    tag_88:\n        /* \"#utility.yul\":1258:1261   */\n      dup3\n        /* \"#utility.yul\":1251:1288   */\n      mstore\n        /* \"#utility.yul\":1176:1294   */\n      pop\n      pop\n      jump\t// out\n        /* \"#utility.yul\":1300:1522   */\n    tag_15:\n        /* \"#utility.yul\":1393:1397   */\n      0x00\n        /* \"#utility.yul\":1431:1433   */\n      0x20\n        /* \"#utility.yul\":1420:1429   */\n      dup3\n        /* \"#utility.yul\":1416:1434   */\n      add\n        /* \"#utility.yul\":1408:1434   */\n      swap1\n      pop\n        /* \"#utility.yul\":1444:1515   */\n      tag_90\n        /* \"#utility.yul\":1512:1513   */\n      0x00\n        /* \"#utility.yul\":1501:1510   */\n      dup4\n        /* \"#utility.yul\":1497:1514   */\n      add\n        /* \"#utility.yul\":1488:1494   */\n      dup5\n        /* \"#utility.yul\":1444:1515   */\n      tag_45\n      jump\t// in\n    tag_90:\n        /* \"#utility.yul\":1300:1522   */\n      swap3\n      swap2\n      pop\n      pop\n      jump\t// out\n        /* \"#utility.yul\":1528:1627   */\n    tag_46:\n        /* \"#utility.yul\":1580:1586   */\n      0x00\n        /* \"#utility.yul\":1614:1619   */\n      dup2\n        /* \"#utility.yul\":1608:1620   */\n      mload\n        /* \"#utility.yul\":1598:1620   */\n      swap1\n      pop\n        /* \"#utility.yul\":1528:1627   */\n      swap2\n      swap1\n      pop\n      jump\t// out\n        /* \"#utility.yul\":1633:1802   */\n    tag_47:\n        /* \"#utility.yul\":1717:1728   */\n      0x00\n        /* \"#utility.yul\":1751:1757   */\n      dup3\n        /* \"#utility.yul\":1746:1749   */\n      dup3\n        /* \"#utility.yul\":1739:1758   */\n      mstore\n        /* \"#utility.yul\":1791:1795   */\n      0x20\n        /* \"#utility.yul\":1786:1789   */\n      dup3\n        /* \"#utility.yul\":1782:1796   */\n      add\n        /* \"#utility.yul\":1767:1796   */\n      swap1\n      pop\n        /* \"#utility.yul\":1633:1802   */\n      swap3\n      swap2\n      pop\n      pop\n      jump\t// out\n        /* \"#utility.yul\":1808:1947   */\n    tag_48:\n        /* \"#utility.yul\":1897:1903   */\n      dup3\n        /* \"#utility.yul\":1892:1895   */\n      dup2\n        /* \"#utility.yul\":1887:1890   */\n      dup4\n        /* \"#utility.yul\":1881:1904   */\n      mcopy\n        /* \"#utility.yul\":1938:1939   */\n      0x00\n        /* \"#utility.yul\":1929:1935   */\n      dup4\n        /* \"#utility.yul\":1924:1927   */\n      dup4\n        /* \"#utility.yul\":1920:1936   */\n      add\n        /* \"#utility.yul\":1913:1940   */\n      mstore\n        /* \"#utility.yul\":1808:1947   */\n      pop\n      pop\n      pop\n      jump\t// out\n        /* \"#utility.yul\":1953:2055   */\n    tag_49:\n        /* \"#utility.yul\":1994:2000   */\n      0x00\n        /* \"#utility.yul\":2045:2047   */\n      0x1f\n        /* \"#utility.yul\":2041:2048   */\n      not\n        /* \"#utility.yul\":2036:2038   */\n      0x1f\n        /* \"#utility.yul\":2029:2034   */\n      dup4\n        /* \"#utility.yul\":2025:2039   */\n      add\n        /* \"#utility.yul\":2021:2049   */\n      and\n        /* \"#utility.yul\":2011:2049   */\n      swap1\n      pop\n        /* \"#utility.yul\":1953:2055   */\n      swap2\n      swap1\n      pop\n      jump\t// out\n        /* \"#utility.yul\":2061:2438   */\n    tag_50:\n        /* \"#utility.yul\":2149:2152   */\n      0x00\n        /* \"#utility.yul\":2177:2216   */\n      tag_96\n        /* \"#utility.yul\":2210:2215   */\n      dup3\n        /* \"#utility.yul\":2177:2216   */\n      tag_46\n      jump\t// in\n    tag_96:\n        /* \"#utility.yul\":2232:2303   */\n      tag_97\n        /* \"#utility.yul\":2296:2302   */\n      dup2\n        /* \"#utility.yul\":2291:2294   */\n      dup6\n        /* \"#utility.yul\":2232:2303   */\n      tag_47\n      jump\t// in\n    tag_97:\n        /* \"#utility.yul\":2225:2303   */\n      swap4\n      pop\n        /* \"#utility.yul\":2312:2377   */\n      tag_98\n        /* \"#utility.yul\":2370:2376   */\n      dup2\n        /* \"#utility.yul\":2365:2368   */\n      dup6\n        /* \"#utility.yul\":2358:2362   */\n      0x20\n        /* \"#utility.yul\":2351:2356   */\n      dup7\n        /* \"#utility.yul\":2347:2363   */\n      add\n        /* \"#utility.yul\":2312:2377   */\n      tag_48\n      jump\t// in\n    tag_98:\n        /* \"#utility.yul\":2402:2431   */\n      tag_99\n        /* \"#utility.yul\":2424:2430   */\n      dup2\n        /* \"#utility.yul\":2402:2431   */\n      tag_49\n      jump\t// in\n    tag_99:\n        /* \"#utility.yul\":2397:2400   */\n      dup5\n        /* \"#utility.yul\":2393:2432   */\n      add\n        /* \"#utility.yul\":2386:2432   */\n      swap2\n      pop\n        /* \"#utility.yul\":2153:2438   */\n      pop\n        /* \"#utility.yul\":2061:2438   */\n      swap3\n      swap2\n      pop\n      pop\n      jump\t// out\n        /* \"#utility.yul\":2444:2757   */\n    tag_21:\n        /* \"#utility.yul\":2557:2561   */\n      0x00\n        /* \"#utility.yul\":2595:2597   */\n      0x20\n        /* \"#utility.yul\":2584:2593   */\n      dup3\n        /* \"#utility.yul\":2580:2598   */\n      add\n        /* \"#utility.yul\":2572:2598   */\n      swap1\n      pop\n        /* \"#utility.yul\":2644:2653   */\n      dup2\n        /* \"#utility.yul\":2638:2642   */\n      dup2\n        /* \"#utility.yul\":2634:2654   */\n      sub\n        /* \"#utility.yul\":2630:2631   */\n      0x00\n        /* \"#utility.yul\":2619:2628   */\n      dup4\n        /* \"#utility.yul\":2615:2632   */\n      add\n        /* \"#utility.yul\":2608:2655   */\n      mstore\n        /* \"#utility.yul\":2672:2750   */\n      tag_101\n        /* \"#utility.yul\":2745:2749   */\n      dup2\n        /* \"#utility.yul\":2736:2742   */\n      dup5\n        /* \"#utility.yul\":2672:2750   */\n      tag_50\n      jump\t// in\n    tag_101:\n        /* \"#utility.yul\":2664:2750   */\n      swap1\n      pop\n        /* \"#utility.yul\":2444:2757   */\n      swap3\n      swap2\n      pop\n      pop\n      jump\t// out\n        /* \"#utility.yul\":2763:2923   */\n    tag_51:\n        /* \"#utility.yul\":2903:2915   */\n      0x4d7573742041646d696e00000000000000000000000000000000000000000000\n        /* \"#utility.yul\":2899:2900   */\n      0x00\n        /* \"#utility.yul\":2891:2897   */\n      dup3\n        /* \"#utility.yul\":2887:2901   */\n      add\n        /* \"#utility.yul\":2880:2916   */\n      mstore\n        /* \"#utility.yul\":2763:2923   */\n      pop\n      jump\t// out\n        /* \"#utility.yul\":2929:3295   */\n    tag_52:\n        /* \"#utility.yul\":3071:3074   */\n      0x00\n        /* \"#utility.yul\":3092:3159   */\n      tag_104\n        /* \"#utility.yul\":3156:3158   */\n      0x0a\n        /* \"#utility.yul\":3151:3154   */\n      dup4\n        /* \"#utility.yul\":3092:3159   */\n      tag_47\n      jump\t// in\n    tag_104:\n        /* \"#utility.yul\":3085:3159   */\n      swap2\n      pop\n        /* \"#utility.yul\":3168:3261   */\n      tag_105\n        /* \"#utility.yul\":3257:3260   */\n      dup3\n        /* \"#utility.yul\":3168:3261   */\n      tag_51\n      jump\t// in\n    tag_105:\n        /* \"#utility.yul\":3286:3288   */\n      0x20\n        /* \"#utility.yul\":3281:3284   */\n      dup3\n        /* \"#utility.yul\":3277:3289   */\n      add\n        /* \"#utility.yul\":3270:3289   */\n      swap1\n      pop\n        /* \"#utility.yul\":2929:3295   */\n      swap2\n      swap1\n      pop\n      jump\t// out\n        /* \"#utility.yul\":3301:3720   */\n    tag_28:\n        /* \"#utility.yul\":3467:3471   */\n      0x00\n        /* \"#utility.yul\":3505:3507   */\n      0x20\n        /* \"#utility.yul\":3494:3503   */\n      dup3\n        /* \"#utility.yul\":3490:3508   */\n      add\n        /* \"#utility.yul\":3482:3508   */\n      swap1\n      pop\n        /* \"#utility.yul\":3554:3563   */\n      dup2\n        /* \"#utility.yul\":3548:3552   */\n      dup2\n        /* \"#utility.yul\":3544:3564   */\n      sub\n        /* \"#utility.yul\":3540:3541   */\n      0x00\n        /* \"#utility.yul\":3529:3538   */\n      dup4\n        /* \"#utility.yul\":3525:3542   */\n      add\n        /* \"#utility.yul\":3518:3565   */\n      mstore\n        /* \"#utility.yul\":3582:3713   */\n      tag_107\n        /* \"#utility.yul\":3708:3712   */\n      dup2\n        /* \"#utility.yul\":3582:3713   */\n      tag_52\n      jump\t// in\n    tag_107:\n        /* \"#utility.yul\":3574:3713   */\n      swap1\n      pop\n        /* \"#utility.yul\":3301:3720   */\n      swap2\n      swap1\n      pop\n      jump\t// out\n        /* \"#utility.yul\":3726:3906   */\n    tag_53:\n        /* \"#utility.yul\":3774:3851   */\n      0x4e487b7100000000000000000000000000000000000000000000000000000000\n        /* \"#utility.yul\":3771:3772   */\n      0x00\n        /* \"#utility.yul\":3764:3852   */\n      mstore\n        /* \"#utility.yul\":3871:3875   */\n      0x41\n        /* \"#utility.yul\":3868:3869   */\n      0x04\n        /* \"#utility.yul\":3861:3876   */\n      mstore\n        /* \"#utility.yul\":3895:3899   */\n      0x24\n        /* \"#utility.yul\":3892:3893   */\n      0x00\n        /* \"#utility.yul\":3885:3900   */\n      revert\n        /* \"#utility.yul\":3912:4092   */\n    tag_54:\n        /* \"#utility.yul\":3960:4037   */\n      0x4e487b7100000000000000000000000000000000000000000000000000000000\n        /* \"#utility.yul\":3957:3958   */\n      0x00\n        /* \"#utility.yul\":3950:4038   */\n      mstore\n        /* \"#utility.yul\":4057:4061   */\n      0x22\n        /* \"#utility.yul\":4054:4055   */\n      0x04\n        /* \"#utility.yul\":4047:4062   */\n      mstore\n        /* \"#utility.yul\":4081:4085   */\n      0x24\n        /* \"#utility.yul\":4078:4079   */\n      0x00\n        /* \"#utility.yul\":4071:4086   */\n      revert\n        /* \"#utility.yul\":4098:4418   */\n    tag_33:\n        /* \"#utility.yul\":4142:4148   */\n      0x00\n        /* \"#utility.yul\":4179:4180   */\n      0x02\n        /* \"#utility.yul\":4173:4177   */\n      dup3\n        /* \"#utility.yul\":4169:4181   */\n      div\n        /* \"#utility.yul\":4159:4181   */\n      swap1\n      pop\n        /* \"#utility.yul\":4226:4227   */\n      0x01\n        /* \"#utility.yul\":4220:4224   */\n      dup3\n        /* \"#utility.yul\":4216:4228   */\n      and\n        /* \"#utility.yul\":4247:4265   */\n      dup1\n        /* \"#utility.yul\":4237:4318   */\n      tag_111\n      jumpi\n        /* \"#utility.yul\":4303:4307   */\n      0x7f\n        /* \"#utility.yul\":4295:4301   */\n      dup3\n        /* \"#utility.yul\":4291:4308   */\n      and\n        /* \"#utility.yul\":4281:4308   */\n      swap2\n      pop\n        /* \"#utility.yul\":4237:4318   */\n    tag_111:\n        /* \"#utility.yul\":4365:4367   */\n      0x20\n        /* \"#utility.yul\":4357:4363   */\n      dup3\n        /* \"#utility.yul\":4354:4368   */\n      lt\n        /* \"#utility.yul\":4334:4352   */\n      dup2\n        /* \"#utility.yul\":4331:4369   */\n      sub\n        /* \"#utility.yul\":4328:4412   */\n      tag_112\n      jumpi\n        /* \"#utility.yul\":4384:4402   */\n      tag_113\n      tag_54\n      jump\t// in\n    tag_113:\n        /* \"#utility.yul\":4328:4412   */\n    tag_112:\n        /* \"#utility.yul\":4149:4418   */\n      pop\n        /* \"#utility.yul\":4098:4418   */\n      swap2\n      swap1\n      pop\n      jump\t// out\n        /* \"#utility.yul\":4424:4565   */\n    tag_55:\n        /* \"#utility.yul\":4473:4477   */\n      0x00\n        /* \"#utility.yul\":4496:4499   */\n      dup2\n        /* \"#utility.yul\":4488:4499   */\n      swap1\n      pop\n        /* \"#utility.yul\":4519:4522   */\n      dup2\n        /* \"#utility.yul\":4516:4517   */\n      0x00\n        /* \"#utility.yul\":4509:4523   */\n      mstore\n        /* \"#utility.yul\":4553:4557   */\n      0x20\n        /* \"#utility.yul\":4550:4551   */\n      0x00\n        /* \"#utility.yul\":4540:4558   */\n      keccak256\n        /* \"#utility.yul\":4532:4558   */\n      swap1\n      pop\n        /* \"#utility.yul\":4424:4565   */\n      swap2\n      swap1\n      pop\n      jump\t// out\n        /* \"#utility.yul\":4571:4664   */\n    tag_56:\n        /* \"#utility.yul\":4608:4614   */\n      0x00\n        /* \"#utility.yul\":4655:4657   */\n      0x20\n        /* \"#utility.yul\":4650:4652   */\n      0x1f\n        /* \"#utility.yul\":4643:4648   */\n      dup4\n        /* \"#utility.yul\":4639:4653   */\n      add\n        /* \"#utility.yul\":4635:4658   */\n      div\n        /* \"#utility.yul\":4625:4658   */\n      swap1\n      pop\n        /* \"#utility.yul\":4571:4664   */\n      swap2\n      swap1\n      pop\n      jump\t// out\n        /* \"#utility.yul\":4670:4777   */\n    tag_57:\n        /* \"#utility.yul\":4714:4722   */\n      0x00\n        /* \"#utility.yul\":4764:4769   */\n      dup3\n        /* \"#utility.yul\":4758:4762   */\n      dup3\n        /* \"#utility.yul\":4754:4770   */\n      shl\n        /* \"#utility.yul\":4733:4770   */\n      swap1\n      pop\n        /* \"#utility.yul\":4670:4777   */\n      swap3\n      swap2\n      pop\n      pop\n      jump\t// out\n        /* \"#utility.yul\":4783:5176   */\n    tag_58:\n        /* \"#utility.yul\":4852:4858   */\n      0x00\n        /* \"#utility.yul\":4902:4903   */\n      0x08\n        /* \"#utility.yul\":4890:4900   */\n      dup4\n        /* \"#utility.yul\":4886:4904   */\n      mul\n        /* \"#utility.yul\":4925:5022   */\n      tag_118\n        /* \"#utility.yul\":4955:5021   */\n      0xffffffffffffffffffffffffffffffffffffffffffffffffffffffffffffffff\n        /* \"#utility.yul\":4944:4953   */\n      dup3\n        /* \"#utility.yul\":4925:5022   */\n      tag_57\n      jump\t// in\n    tag_118:\n        /* \"#utility.yul\":5043:5082   */\n      tag_119\n        /* \"#utility.yul\":5073:5081   */\n      dup7\n        /* \"#utility.yul\":5062:5071   */\n      dup4\n        /* \"#utility.yul\":5043:5082   */\n      tag_57\n      jump\t// in\n    tag_119:\n        /* \"#utility.yul\":5031:5082   */\n      swap6\n      pop\n        /* \"#utility.yul\":5115:5119   */\n      dup1\n        /* \"#utility.yul\":5111:5120   */\n      not\n        /* \"#utility.yul\":5104:5109   */\n      dup5\n        /* \"#utility.yul\":5100:5121   */\n      and\n        /* \"#utility.yul\":5091:5121   */\n      swap4\n      pop\n        /* \"#utility.yul\":5164:5168   */\n      dup1\n        /* \"#utility.yul\":5154:5162   */\n      dup7\n        /* \"#utility.yul\":5150:5169   */\n      and\n        /* \"#utility.yul\":5143:5148   */\n      dup5\n        /* \"#utility.yul\":5140:5170   */\n      or\n        /* \"#utility.yul\":5130:5170   */\n      swap3\n      pop\n        /* \"#utility.yul\":4859:5176   */\n      pop\n      pop\n        /* \"#utility.yul\":4783:5176   */\n      swap4\n      swap3\n      pop\n      pop\n      pop\n      jump\t// out\n        /* \"#utility.yul\":5182:5259   */\n    tag_59:\n        /* \"#utility.yul\":5219:5226   */\n      0x00\n        /* \"#utility.yul\":5248:5253   */\n      dup2\n        /* \"#utility.yul\":5237:5253   */\n      swap1\n      pop\n        /* \"#utility.yul\":5182:5259   */\n      swap2\n      swap1\n      pop\n      jump\t// out\n        /* \"#utility.yul\":5265:5325   */\n    tag_60:\n        /* \"#utility.yul\":5293:5296   */\n      0x00\n        /* \"#utility.yul\":5314:5319   */\n      dup2\n        /* \"#utility.yul\":5307:5319   */\n      swap1\n      pop\n        /* \"#utility.yul\":5265:5325   */\n      swap2\n      swap1\n      pop\n      jump\t// out\n        /* \"#utility.yul\":5331:5473   */\n    tag_61:\n        /* \"#utility.yul\":5381:5390   */\n      0x00\n        /* \"#utility.yul\":5414:5467   */\n      tag_123\n        /* \"#utility.yul\":5432:5466   */\n      tag_124\n        /* \"#utility.yul\":5441:5465   */\n      tag_125\n        /* \"#utility.yul\":5459:5464   */\n      dup5\n        /* \"#utility.yul\":5441:5465   */\n      tag_59\n      jump\t// in\n    tag_125:\n        /* \"#utility.yul\":5432:5466   */\n      tag_60\n      jump\t// in\n    tag_124:\n        /* \"#utility.yul\":5414:5467   */\n      tag_59\n      jump\t// in\n    tag_123:\n        /* \"#utility.yul\":5401:5467   */\n      swap1\n      pop\n        /* \"#utility.yul\":5331:5473   */\n      swap2\n      swap1\n      pop\n      jump\t// out\n        /* \"#utility.yul\":5479:5554   */\n    tag_62:\n        /* \"#utility.yul\":5522:5525   */\n      0x00\n        /* \"#utility.yul\":5543:5548   */\n      dup2\n        /* \"#utility.yul\":5536:5548   */\n      swap1\n      pop\n        /* \"#utility.yul\":5479:5554   */\n      swap2\n      swap1\n      pop\n      jump\t// out\n        /* \"#utility.yul\":5560:5829   */\n    tag_63:\n        /* \"#utility.yul\":5670:5709   */\n      tag_128\n        /* \"#utility.yul\":5701:5708   */\n      dup4\n        /* \"#utility.yul\":5670:5709   */\n      tag_61\n      jump\t// in\n    tag_128:\n        /* \"#utility.yul\":5731:5822   */\n      tag_129\n        /* \"#utility.yul\":5780:5821   */\n      tag_130\n        /* \"#utility.yul\":5804:5820   */\n      dup3\n        /* \"#utility.yul\":5780:5821   */\n      tag_62\n      jump\t// in\n    tag_130:\n        /* \"#utility.yul\":5772:5778   */\n      dup5\n        /* \"#utility.yul\":5765:5769   */\n      dup5\n        /* \"#utility.yul\":5759:5770   */\n      sload\n        /* \"#utility.yul\":5731:5822   */\n      tag_58\n      jump\t// in\n    tag_129:\n        /* \"#utility.yul\":5725:5729   */\n      dup3\n        /* \"#utility.yul\":5718:5823   */\n      sstore\n        /* \"#utility.yul\":5636:5829   */\n      pop\n        /* \"#utility.yul\":5560:5829   */\n      pop\n      pop\n      pop\n      jump\t// out\n        /* \"#utility.yul\":5835:5908   */\n    tag_64:\n        /* \"#utility.yul\":5880:5883   */\n      0x00\n        /* \"#utility.yul\":5835:5908   */\n      swap1\n      jump\t// out\n        /* \"#utility.yul\":5914:6103   */\n    tag_65:\n        /* \"#utility.yul\":5991:6023   */\n      tag_133\n      tag_64\n      jump\t// in\n    tag_133:\n        /* \"#utility.yul\":6032:6097   */\n      tag_134\n        /* \"#utility.yul\":6090:6096   */\n      dup2\n        /* \"#utility.yul\":6082:6088   */\n      dup5\n        /* \"#utility.yul\":6076:6080   */\n      dup5\n        /* \"#utility.yul\":6032:6097   */\n      tag_63\n      jump\t// in\n    tag_134:\n        /* \"#utility.yul\":5967:6103   */\n      pop\n        /* \"#utility.yul\":5914:6103   */\n      pop\n      pop\n      jump\t// out\n        /* \"#utility.yul\":6109:6295   */\n    tag_66:\n        /* \"#utility.yul\":6169:6289   */\n    tag_136:\n        /* \"#utility.yul\":6186:6189   */\n      dup2\n        /* \"#utility.yul\":6179:6184   */\n      dup2\n        /* \"#utility.yul\":6176:6190   */\n      lt\n        /* \"#utility.yul\":6169:6289   */\n      iszero\n      tag_138\n      jumpi\n        /* \"#utility.yul\":6240:6279   */\n      tag_139\n        /* \"#utility.yul\":6277:6278   */\n      0x00\n        /* \"#utility.yul\":6270:6275   */\n      dup3\n        /* \"#utility.yul\":6240:6279   */\n      tag_65\n      jump\t// in\n    tag_139:\n        /* \"#utility.yul\":6213:6214   */\n      0x01\n        /* \"#utility.yul\":6206:6211   */\n      dup2\n        /* \"#utility.yul\":6202:6215   */\n      add\n        /* \"#utility.yul\":6193:6215   */\n      swap1\n      pop\n        /* \"#utility.yul\":6169:6289   */\n      jump(tag_136)\n    tag_138:\n        /* \"#utility.yul\":6109:6295   */\n      pop\n      pop\n      jump\t// out\n        /* \"#utility.yul\":6301:6844   */\n    tag_67:\n        /* \"#utility.yul\":6402:6404   */\n      0x1f\n        /* \"#utility.yul\":6397:6400   */\n      dup3\n        /* \"#utility.yul\":6394:6405   */\n      gt\n        /* \"#utility.yul\":6391:6837   */\n      iszero\n      tag_141\n      jumpi\n        /* \"#utility.yul\":6436:6474   */\n      tag_142\n        /* \"#utility.yul\":6468:6473   */\n      dup2\n        /* \"#utility.yul\":6436:6474   */\n      tag_55\n      jump\t// in\n    tag_142:\n        /* \"#utility.yul\":6520:6549   */\n      tag_143\n        /* \"#utility.yul\":6538:6548   */\n      dup5\n        /* \"#utility.yul\":6520:6549   */\n      tag_56\n      jump\t// in\n    tag_143:\n        /* \"#utility.yul\":6510:6518   */\n      dup2\n        /* \"#utility.yul\":6506:6550   */\n      add\n        /* \"#utility.yul\":6703:6705   */\n      0x20\n        /* \"#utility.yul\":6691:6701   */\n      dup6\n        /* \"#utility.yul\":6688:6706   */\n      lt\n        /* \"#utility.yul\":6685:6734   */\n      iszero\n      tag_144\n      jumpi\n        /* \"#utility.yul\":6724:6732   */\n      dup2\n        /* \"#utility.yul\":6709:6732   */\n      swap1\n      pop\n        /* \"#utility.yul\":6685:6734   */\n    tag_144:\n        /* \"#utility.yul\":6747:6827   */\n      tag_145\n        /* \"#utility.yul\":6803:6825   */\n      tag_146\n        /* \"#utility.yul\":6821:6824   */\n      dup6\n        /* \"#utility.yul\":6803:6825   */\n      tag_56\n      jump\t// in\n    tag_146:\n        /* \"#utility.yul\":6793:6801   */\n      dup4\n        /* \"#utility.yul\":6789:6826   */\n      add\n        /* \"#utility.yul\":6776:6787   */\n      dup3\n        /* \"#utility.yul\":6747:6827   */\n      tag_66\n      jump\t// in\n    tag_145:\n        /* \"#utility.yul\":6406:6837   */\n      pop\n      pop\n        /* \"#utility.yul\":6391:6837   */\n    tag_141:\n        /* \"#utility.yul\":6301:6844   */\n      pop\n      pop\n      pop\n      jump\t// out\n        /* \"#utility.yul\":6850:6967   */\n    tag_68:\n        /* \"#utility.yul\":6904:6912   */\n      0x00\n        /* \"#utility.yul\":6954:6959   */\n      dup3\n        /* \"#utility.yul\":6948:6952   */\n      dup3\n        /* \"#utility.yul\":6944:6960   */\n      shr\n        /* \"#utility.yul\":6923:6960   */\n      swap1\n      pop\n        /* \"#utility.yul\":6850:6967   */\n      swap3\n      swap2\n      pop\n      pop\n      jump\t// out\n        /* \"#utility.yul\":6973:7142   */\n    tag_69:\n        /* \"#utility.yul\":7017:7023   */\n      0x00\n        /* \"#utility.yul\":7050:7101   */\n      tag_149\n        /* \"#utility.yul\":7098:7099   */\n      0x00\n        /* \"#utility.yul\":7094:7100   */\n      not\n        /* \"#utility.yul\":7086:7091   */\n      dup5\n        /* \"#utility.yul\":7083:7084   */\n      0x08\n        /* \"#utility.yul\":7079:7092   */\n      mul\n        /* \"#utility.yul\":7050:7101   */\n      tag_68\n      jump\t// in\n    tag_149:\n        /* \"#utility.yul\":7046:7102   */\n      not\n        /* \"#utility.yul\":7131:7135   */\n      dup1\n        /* \"#utility.yul\":7125:7129   */\n      dup4\n        /* \"#utility.yul\":7121:7136   */\n      and\n        /* \"#utility.yul\":7111:7136   */\n      swap2\n      pop\n        /* \"#utility.yul\":7024:7142   */\n      pop\n        /* \"#utility.yul\":6973:7142   */\n      swap3\n      swap2\n      pop\n      pop\n      jump\t// out\n        /* \"#utility.yul\":7147:7442   */\n    tag_70:\n        /* \"#utility.yul\":7223:7227   */\n      0x00\n        /* \"#utility.yul\":7369:7398   */\n      tag_151\n        /* \"#utility.yul\":7394:7397   */\n      dup4\n        /* \"#utility.yul\":7388:7392   */\n      dup4\n        /* \"#utility.yul\":7369:7398   */\n      tag_69\n      jump\t// in\n    tag_151:\n        /* \"#utility.yul\":7361:7398   */\n      swap2\n      pop\n        /* \"#utility.yul\":7431:7434   */\n      dup3\n        /* \"#utility.yul\":7428:7429   */\n      0x02\n        /* \"#utility.yul\":7424:7435   */\n      mul\n        /* \"#utility.yul\":7418:7422   */\n      dup3\n        /* \"#utility.yul\":7415:7436   */\n      or\n        /* \"#utility.yul\":7407:7436   */\n      swap1\n      pop\n        /* \"#utility.yul\":7147:7442   */\n      swap3\n      swap2\n      pop\n      pop\n      jump\t// out\n        /* \"#utility.yul\":7447:8842   */\n    tag_31:\n        /* \"#utility.yul\":7564:7601   */\n      tag_153\n        /* \"#utility.yul\":7597:7600   */\n      dup3\n        /* \"#utility.yul\":7564:7601   */\n      tag_46\n      jump\t// in\n    tag_153:\n        /* \"#utility.yul\":7666:7684   */\n      0xffffffffffffffff\n        /* \"#utility.yul\":7658:7664   */\n      dup2\n        /* \"#utility.yul\":7655:7685   */\n      gt\n        /* \"#utility.yul\":7652:7708   */\n      iszero\n      tag_154\n      jumpi\n        /* \"#utility.yul\":7688:7706   */\n      tag_155\n      tag_53\n      jump\t// in\n    tag_155:\n        /* \"#utility.yul\":7652:7708   */\n    tag_154:\n        /* \"#utility.yul\":7732:7770   */\n      tag_156\n        /* \"#utility.yul\":7764:7768   */\n      dup3\n        /* \"#utility.yul\":7758:7769   */\n      sload\n        /* \"#utility.yul\":7732:7770   */\n      tag_33\n      jump\t// in\n    tag_156:\n        /* \"#utility.yul\":7817:7884   */\n      tag_157\n        /* \"#utility.yul\":7877:7883   */\n      dup3\n        /* \"#utility.yul\":7869:7875   */\n      dup3\n        /* \"#utility.yul\":7863:7867   */\n      dup6\n        /* \"#utility.yul\":7817:7884   */\n      tag_67\n      jump\t// in\n    tag_157:\n        /* \"#utility.yul\":7911:7912   */\n      0x00\n        /* \"#utility.yul\":7935:7939   */\n      0x20\n        /* \"#utility.yul\":7922:7939   */\n      swap1\n      pop\n        /* \"#utility.yul\":7967:7969   */\n      0x1f\n        /* \"#utility.yul\":7959:7965   */\n      dup4\n        /* \"#utility.yul\":7956:7970   */\n      gt\n        /* \"#utility.yul\":7984:7985   */\n      0x01\n        /* \"#utility.yul\":7979:8597   */\n      dup2\n      eq\n      tag_159\n      jumpi\n        /* \"#utility.yul\":8641:8642   */\n      0x00\n        /* \"#utility.yul\":8658:8664   */\n      dup5\n        /* \"#utility.yul\":8655:8732   */\n      iszero\n      tag_160\n      jumpi\n        /* \"#utility.yul\":8707:8716   */\n      dup3\n        /* \"#utility.yul\":8702:8705   */\n      dup8\n        /* \"#utility.yul\":8698:8717   */\n      add\n        /* \"#utility.yul\":8692:8718   */\n      mload\n        /* \"#utility.yul\":8683:8718   */\n      swap1\n      pop\n        /* \"#utility.yul\":8655:8732   */\n    tag_160:\n        /* \"#utility.yul\":8758:8825   */\n      tag_161\n        /* \"#utility.yul\":8818:8824   */\n      dup6\n        /* \"#utility.yul\":8811:8816   */\n      dup3\n        /* \"#utility.yul\":8758:8825   */\n      tag_70\n      jump\t// in\n    tag_161:\n        /* \"#utility.yul\":8752:8756   */\n      dup7\n        /* \"#utility.yul\":8745:8826   */\n      sstore\n        /* \"#utility.yul\":8614:8836   */\n      pop\n        /* \"#utility.yul\":7949:8836   */\n      jump(tag_158)\n        /* \"#utility.yul\":7979:8597   */\n    tag_159:\n        /* \"#utility.yul\":8031:8035   */\n      0x1f\n        /* \"#utility.yul\":8027:8036   */\n      not\n        /* \"#utility.yul\":8019:8025   */\n      dup5\n        /* \"#utility.yul\":8015:8037   */\n      and\n        /* \"#utility.yul\":8065:8102   */\n      tag_162\n        /* \"#utility.yul\":8097:8101   */\n      dup7\n        /* \"#utility.yul\":8065:8102   */\n      tag_55\n      jump\t// in\n    tag_162:\n        /* \"#utility.yul\":8124:8125   */\n      0x00\n        /* \"#utility.yul\":8138:8346   */\n    tag_163:\n        /* \"#utility.yul\":8152:8159   */\n      dup3\n        /* \"#utility.yul\":8149:8150   */\n      dup2\n        /* \"#utility.yul\":8146:8160   */\n      lt\n        /* \"#utility.yul\":8138:8346   */\n      iszero\n      tag_165\n      jumpi\n        /* \"#utility.yul\":8231:8240   */\n      dup5\n        /* \"#utility.yul\":8226:8229   */\n      dup10\n        /* \"#utility.yul\":8222:8241   */\n      add\n        /* \"#utility.yul\":8216:8242   */\n      mload\n        /* \"#utility.yul\":8208:8214   */\n      dup3\n        /* \"#utility.yul\":8201:8243   */\n      sstore\n        /* \"#utility.yul\":8282:8283   */\n      0x01\n        /* \"#utility.yul\":8274:8280   */\n      dup3\n        /* \"#utility.yul\":8270:8284   */\n      add\n        /* \"#utility.yul\":8260:8284   */\n      swap2\n      pop\n        /* \"#utility.yul\":8329:8331   */\n      0x20\n        /* \"#utility.yul\":8318:8327   */\n      dup6\n        /* \"#utility.yul\":8314:8332   */\n      add\n        /* \"#utility.yul\":8301:8332   */\n      swap5\n      pop\n        /* \"#utility.yul\":8175:8179   */\n      0x20\n        /* \"#utility.yul\":8172:8173   */\n      dup2\n        /* \"#utility.yul\":8168:8180   */\n      add\n        /* \"#utility.yul\":8163:8180   */\n      swap1\n      pop\n        /* \"#utility.yul\":8138:8346   */\n      jump(tag_163)\n    tag_165:\n        /* \"#utility.yul\":8374:8380   */\n      dup7\n        /* \"#utility.yul\":8365:8372   */\n      dup4\n        /* \"#utility.yul\":8362:8381   */\n      lt\n        /* \"#utility.yul\":8359:8538   */\n      iszero\n      tag_166\n      jumpi\n        /* \"#utility.yul\":8432:8441   */\n      dup5\n        /* \"#utility.yul\":8427:8430   */\n      dup10\n        /* \"#utility.yul\":8423:8442   */\n      add\n        /* \"#utility.yul\":8417:8443   */\n      mload\n        /* \"#utility.yul\":8475:8523   */\n      tag_167\n        /* \"#utility.yul\":8517:8521   */\n      0x1f\n        /* \"#utility.yul\":8509:8515   */\n      dup10\n        /* \"#utility.yul\":8505:8522   */\n      and\n        /* \"#utility.yul\":8494:8503   */\n      dup3\n        /* \"#utility.yul\":8475:8523   */\n      tag_69\n      jump\t// in\n    tag_167:\n        /* \"#utility.yul\":8467:8473   */\n      dup4\n        /* \"#utility.yul\":8460:8524   */\n      sstore\n        /* \"#utility.yul\":8382:8538   */\n      pop\n        /* \"#utility.yul\":8359:8538   */\n    tag_166:\n        /* \"#utility.yul\":8584:8585   */\n      0x01\n        /* \"#utility.yul\":8580:8581   */\n      0x02\n        /* \"#utility.yul\":8572:8578   */\n      dup9\n        /* \"#utility.yul\":8568:8582   */\n      mul\n        /* \"#utility.yul\":8564:8586   */\n      add\n        /* \"#utility.yul\":8558:8562   */\n      dup9\n        /* \"#utility.yul\":8551:8587   */\n      sstore\n        /* \"#utility.yul\":7986:8597   */\n      pop\n      pop\n      pop\n        /* \"#utility.yul\":7949:8836   */\n    tag_158:\n      pop\n        /* \"#utility.yul\":7539:8842   */\n      pop\n      pop\n      pop\n        /* \"#utility.yul\":7447:8842   */\n      pop\n      pop\n      jump\t// out\n\n    auxdata: 0xa26469706673582212200e0cfbee4c3aec4c2945a83bf2fb59ffe520fadb0e343bd5a20fabe44998563164736f6c634300081a0033\n}\n",
				"bytecode": {
					"linkReferences": {},
					"object": "6080604052348015600e575f80fd5b506107a38061001c5f395ff3fe608060405234801561000f575f80fd5b5060043610610055575f3560e01c80630900f010146100595780635c60da1b14610075578063c298557814610093578063f2c31bd91461009d578063f851a440146100bb575b5f80fd5b610073600480360381019061006e9190610323565b6100d9565b005b61007d6101aa565b60405161008a919061035d565b60405180910390f35b61009b6101cd565b005b6100a5610214565b6040516100b291906103e6565b60405180910390f35b6100c36102a0565b6040516100d0919061035d565b60405180910390f35b60015f9054906101000a900473ffffffffffffffffffffffffffffffffffffffff1673ffffffffffffffffffffffffffffffffffffffff163373ffffffffffffffffffffffffffffffffffffffff1614610168576040517f08c379a000000000000000000000000000000000000000000000000000000000815260040161015f90610450565b60405180910390fd5b805f806101000a81548173ffffffffffffffffffffffffffffffffffffffff021916908373ffffffffffffffffffffffffffffffffffffffff16021790555050565b5f8054906101000a900473ffffffffffffffffffffffffffffffffffffffff1681565b6040518060400160405280600381526020017f6e6577000000000000000000000000000000000000000000000000000000000081525060029081610211919061069e565b50565b60028054610221906104c8565b80601f016020809104026020016040519081016040528092919081815260200182805461024d906104c8565b80156102985780601f1061026f57610100808354040283529160200191610298565b820191905f5260205f20905b81548152906001019060200180831161027b57829003601f168201915b505050505081565b60015f9054906101000a900473ffffffffffffffffffffffffffffffffffffffff1681565b5f80fd5b5f73ffffffffffffffffffffffffffffffffffffffff82169050919050565b5f6102f2826102c9565b9050919050565b610302816102e8565b811461030c575f80fd5b50565b5f8135905061031d816102f9565b92915050565b5f60208284031215610338576103376102c5565b5b5f6103458482850161030f565b91505092915050565b610357816102e8565b82525050565b5f6020820190506103705f83018461034e565b92915050565b5f81519050919050565b5f82825260208201905092915050565b8281835e5f83830152505050565b5f601f19601f8301169050919050565b5f6103b882610376565b6103c28185610380565b93506103d2818560208601610390565b6103db8161039e565b840191505092915050565b5f6020820190508181035f8301526103fe81846103ae565b905092915050565b7f4d7573742041646d696e000000000000000000000000000000000000000000005f82015250565b5f61043a600a83610380565b915061044582610406565b602082019050919050565b5f6020820190508181035f8301526104678161042e565b9050919050565b7f4e487b71000000000000000000000000000000000000000000000000000000005f52604160045260245ffd5b7f4e487b71000000000000000000000000000000000000000000000000000000005f52602260045260245ffd5b5f60028204905060018216806104df57607f821691505b6020821081036104f2576104f161049b565b5b50919050565b5f819050815f5260205f209050919050565b5f6020601f8301049050919050565b5f82821b905092915050565b5f600883026105547fffffffffffffffffffffffffffffffffffffffffffffffffffffffffffffffff82610519565b61055e8683610519565b95508019841693508086168417925050509392505050565b5f819050919050565b5f819050919050565b5f6105a261059d61059884610576565b61057f565b610576565b9050919050565b5f819050919050565b6105bb83610588565b6105cf6105c7826105a9565b848454610525565b825550505050565b5f90565b6105e36105d7565b6105ee8184846105b2565b505050565b5b81811015610611576106065f826105db565b6001810190506105f4565b5050565b601f82111561065657610627816104f8565b6106308461050a565b8101602085101561063f578190505b61065361064b8561050a565b8301826105f3565b50505b505050565b5f82821c905092915050565b5f6106765f198460080261065b565b1980831691505092915050565b5f61068e8383610667565b9150826002028217905092915050565b6106a782610376565b67ffffffffffffffff8111156106c0576106bf61046e565b5b6106ca82546104c8565b6106d5828285610615565b5f60209050601f831160018114610706575f84156106f4578287015190505b6106fe8582610683565b865550610765565b601f198416610714866104f8565b5f5b8281101561073b57848901518255600182019150602085019450602081019050610716565b868310156107585784890151610754601f891682610667565b8355505b6001600288020188555050505b50505050505056fea26469706673582212200e0cfbee4c3aec4c2945a83bf2fb59ffe520fadb0e343bd5a20fabe44998563164736f6c634300081a0033",
					"opcodes": "PUSH1 0x80 PUSH1 0x40 MSTORE CALLVALUE DUP1 ISZERO PUSH1 0xE JUMPI PUSH0 DUP1 REVERT JUMPDEST POP PUSH2 0x7A3 DUP1 PUSH2 0x1C PUSH0 CODECOPY PUSH0 RETURN INVALID PUSH1 0x80 PUSH1 0x40 MSTORE CALLVALUE DUP1 ISZERO PUSH2 0xF JUMPI PUSH0 DUP1 REVERT JUMPDEST POP PUSH1 0x4 CALLDATASIZE LT PUSH2 0x55 JUMPI PUSH0 CALLDATALOAD PUSH1 0xE0 SHR DUP1 PUSH4 0x900F010 EQ PUSH2 0x59 JUMPI DUP1 PUSH4 0x5C60DA1B EQ PUSH2 0x75 JUMPI DUP1 PUSH4 0xC2985578 EQ PUSH2 0x93 JUMPI DUP1 PUSH4 0xF2C31BD9 EQ PUSH2 0x9D JUMPI DUP1 PUSH4 0xF851A440 EQ PUSH2 0xBB JUMPI JUMPDEST PUSH0 DUP1 REVERT JUMPDEST PUSH2 0x73 PUSH1 0x4 DUP1 CALLDATASIZE SUB DUP2 ADD SWAP1 PUSH2 0x6E SWAP2 SWAP1 PUSH2 0x323 JUMP JUMPDEST PUSH2 0xD9 JUMP JUMPDEST STOP JUMPDEST PUSH2 0x7D PUSH2 0x1AA JUMP JUMPDEST PUSH1 0x40 MLOAD PUSH2 0x8A SWAP2 SWAP1 PUSH2 0x35D JUMP JUMPDEST PUSH1 0x40 MLOAD DUP1 SWAP2 SUB SWAP1 RETURN JUMPDEST PUSH2 0x9B PUSH2 0x1CD JUMP JUMPDEST STOP JUMPDEST PUSH2 0xA5 PUSH2 0x214 JUMP JUMPDEST PUSH1 0x40 MLOAD PUSH2 0xB2 SWAP2 SWAP1 PUSH2 0x3E6 JUMP JUMPDEST PUSH1 0x40 MLOAD DUP1 SWAP2 SUB SWAP1 RETURN JUMPDEST PUSH2 0xC3 PUSH2 0x2A0 JUMP JUMPDEST PUSH1 0x40 MLOAD PUSH2 0xD0 SWAP2 SWAP1 PUSH2 0x35D JUMP JUMPDEST PUSH1 0x40 MLOAD DUP1 SWAP2 SUB SWAP1 RETURN JUMPDEST PUSH1 0x1 PUSH0 SWAP1 SLOAD SWAP1 PUSH2 0x100 EXP SWAP1 DIV PUSH20 0xFFFFFFFFFFFFFFFFFFFFFFFFFFFFFFFFFFFFFFFF AND PUSH20 0xFFFFFFFFFFFFFFFFFFFFFFFFFFFFFFFFFFFFFFFF AND CALLER PUSH20 0xFFFFFFFFFFFFFFFFFFFFFFFFFFFFFFFFFFFFFFFF AND EQ PUSH2 0x168 JUMPI PUSH1 0x40 MLOAD PUSH32 0x8C379A000000000000000000000000000000000000000000000000000000000 DUP2 MSTORE PUSH1 0x4 ADD PUSH2 0x15F SWAP1 PUSH2 0x450 JUMP JUMPDEST PUSH1 0x40 MLOAD DUP1 SWAP2 SUB SWAP1 REVERT JUMPDEST DUP1 PUSH0 DUP1 PUSH2 0x100 EXP DUP2 SLOAD DUP2 PUSH20 0xFFFFFFFFFFFFFFFFFFFFFFFFFFFFFFFFFFFFFFFF MUL NOT AND SWAP1 DUP4 PUSH20 0xFFFFFFFFFFFFFFFFFFFFFFFFFFFFFFFFFFFFFFFF AND MUL OR SWAP1 SSTORE POP POP JUMP JUMPDEST PUSH0 DUP1 SLOAD SWAP1 PUSH2 0x100 EXP SWAP1 DIV PUSH20 0xFFFFFFFFFFFFFFFFFFFFFFFFFFFFFFFFFFFFFFFF AND DUP2 JUMP JUMPDEST PUSH1 0x40 MLOAD DUP1 PUSH1 0x40 ADD PUSH1 0x40 MSTORE DUP1 PUSH1 0x3 DUP2 MSTORE PUSH1 0x20 ADD PUSH32 0x6E65770000000000000000000000000000000000000000000000000000000000 DUP2 MSTORE POP PUSH1 0x2 SWAP1 DUP2 PUSH2 0x211 SWAP2 SWAP1 PUSH2 0x69E JUMP JUMPDEST POP JUMP JUMPDEST PUSH1 0x2 DUP1 SLOAD PUSH2 0x221 SWAP1 PUSH2 0x4C8 JUMP JUMPDEST DUP1 PUSH1 0x1F ADD PUSH1 0x20 DUP1 SWAP2 DIV MUL PUSH1 0x20 ADD PUSH1 0x40 MLOAD SWAP1 DUP2 ADD PUSH1 0x40 MSTORE DUP1 SWAP3 SWAP2 SWAP1 DUP2 DUP2 MSTORE PUSH1 0x20 ADD DUP3 DUP1 SLOAD PUSH2 0x24D SWAP1 PUSH2 0x4C8 JUMP JUMPDEST DUP1 ISZERO PUSH2 0x298 JUMPI DUP1 PUSH1 0x1F LT PUSH2 0x26F JUMPI PUSH2 0x100 DUP1 DUP4 SLOAD DIV MUL DUP4 MSTORE SWAP2 PUSH1 0x20 ADD SWAP2 PUSH2 0x298 JUMP JUMPDEST DUP3 ADD SWAP2 SWAP1 PUSH0 MSTORE PUSH1 0x20 PUSH0 KECCAK256 SWAP1 JUMPDEST DUP2 SLOAD DUP2 MSTORE SWAP1 PUSH1 0x1 ADD SWAP1 PUSH1 0x20 ADD DUP1 DUP4 GT PUSH2 0x27B JUMPI DUP3 SWAP1 SUB PUSH1 0x1F AND DUP3 ADD SWAP2 JUMPDEST POP POP POP POP POP DUP2 JUMP JUMPDEST PUSH1 0x1 PUSH0 SWAP1 SLOAD SWAP1 PUSH2 0x100 EXP SWAP1 DIV PUSH20 0xFFFFFFFFFFFFFFFFFFFFFFFFFFFFFFFFFFFFFFFF AND DUP2 JUMP JUMPDEST PUSH0 DUP1 REVERT JUMPDEST PUSH0 PUSH20 0xFFFFFFFFFFFFFFFFFFFFFFFFFFFFFFFFFFFFFFFF DUP3 AND SWAP1 POP SWAP2 SWAP1 POP JUMP JUMPDEST PUSH0 PUSH2 0x2F2 DUP3 PUSH2 0x2C9 JUMP JUMPDEST SWAP1 POP SWAP2 SWAP1 POP JUMP JUMPDEST PUSH2 0x302 DUP2 PUSH2 0x2E8 JUMP JUMPDEST DUP2 EQ PUSH2 0x30C JUMPI PUSH0 DUP1 REVERT JUMPDEST POP JUMP JUMPDEST PUSH0 DUP2 CALLDATALOAD SWAP1 POP PUSH2 0x31D DUP2 PUSH2 0x2F9 JUMP JUMPDEST SWAP3 SWAP2 POP POP JUMP JUMPDEST PUSH0 PUSH1 0x20 DUP3 DUP5 SUB SLT ISZERO PUSH2 0x338 JUMPI PUSH2 0x337 PUSH2 0x2C5 JUMP JUMPDEST JUMPDEST PUSH0 PUSH2 0x345 DUP5 DUP3 DUP6 ADD PUSH2 0x30F JUMP JUMPDEST SWAP2 POP POP SWAP3 SWAP2 POP POP JUMP JUMPDEST PUSH2 0x357 DUP2 PUSH2 0x2E8 JUMP JUMPDEST DUP3 MSTORE POP POP JUMP JUMPDEST PUSH0 PUSH1 0x20 DUP3 ADD SWAP1 POP PUSH2 0x370 PUSH0 DUP4 ADD DUP5 PUSH2 0x34E JUMP JUMPDEST SWAP3 SWAP2 POP POP JUMP JUMPDEST PUSH0 DUP2 MLOAD SWAP1 POP SWAP2 SWAP1 POP JUMP JUMPDEST PUSH0 DUP3 DUP3 MSTORE PUSH1 0x20 DUP3 ADD SWAP1 POP SWAP3 SWAP2 POP POP JUMP JUMPDEST DUP3 DUP2 DUP4 MCOPY PUSH0 DUP4 DUP4 ADD MSTORE POP POP POP JUMP JUMPDEST PUSH0 PUSH1 0x1F NOT PUSH1 0x1F DUP4 ADD AND SWAP1 POP SWAP2 SWAP1 POP JUMP JUMPDEST PUSH0 PUSH2 0x3B8 DUP3 PUSH2 0x376 JUMP JUMPDEST PUSH2 0x3C2 DUP2 DUP6 PUSH2 0x380 JUMP JUMPDEST SWAP4 POP PUSH2 0x3D2 DUP2 DUP6 PUSH1 0x20 DUP7 ADD PUSH2 0x390 JUMP JUMPDEST PUSH2 0x3DB DUP2 PUSH2 0x39E JUMP JUMPDEST DUP5 ADD SWAP2 POP POP SWAP3 SWAP2 POP POP JUMP JUMPDEST PUSH0 PUSH1 0x20 DUP3 ADD SWAP1 POP DUP2 DUP2 SUB PUSH0 DUP4 ADD MSTORE PUSH2 0x3FE DUP2 DUP5 PUSH2 0x3AE JUMP JUMPDEST SWAP1 POP SWAP3 SWAP2 POP POP JUMP JUMPDEST PUSH32 0x4D7573742041646D696E00000000000000000000000000000000000000000000 PUSH0 DUP3 ADD MSTORE POP JUMP JUMPDEST PUSH0 PUSH2 0x43A PUSH1 0xA DUP4 PUSH2 0x380 JUMP JUMPDEST SWAP2 POP PUSH2 0x445 DUP3 PUSH2 0x406 JUMP JUMPDEST PUSH1 0x20 DUP3 ADD SWAP1 POP SWAP2 SWAP1 POP JUMP JUMPDEST PUSH0 PUSH1 0x20 DUP3 ADD SWAP1 POP DUP2 DUP2 SUB PUSH0 DUP4 ADD MSTORE PUSH2 0x467 DUP2 PUSH2 0x42E JUMP JUMPDEST SWAP1 POP SWAP2 SWAP1 POP JUMP JUMPDEST PUSH32 0x4E487B7100000000000000000000000000000000000000000000000000000000 PUSH0 MSTORE PUSH1 0x41 PUSH1 0x4 MSTORE PUSH1 0x24 PUSH0 REVERT JUMPDEST PUSH32 0x4E487B7100000000000000000000000000000000000000000000000000000000 PUSH0 MSTORE PUSH1 0x22 PUSH1 0x4 MSTORE PUSH1 0x24 PUSH0 REVERT JUMPDEST PUSH0 PUSH1 0x2 DUP3 DIV SWAP1 POP PUSH1 0x1 DUP3 AND DUP1 PUSH2 0x4DF JUMPI PUSH1 0x7F DUP3 AND SWAP2 POP JUMPDEST PUSH1 0x20 DUP3 LT DUP2 SUB PUSH2 0x4F2 JUMPI PUSH2 0x4F1 PUSH2 0x49B JUMP JUMPDEST JUMPDEST POP SWAP2 SWAP1 POP JUMP JUMPDEST PUSH0 DUP2 SWAP1 POP DUP2 PUSH0 MSTORE PUSH1 0x20 PUSH0 KECCAK256 SWAP1 POP SWAP2 SWAP1 POP JUMP JUMPDEST PUSH0 PUSH1 0x20 PUSH1 0x1F DUP4 ADD DIV SWAP1 POP SWAP2 SWAP1 POP JUMP JUMPDEST PUSH0 DUP3 DUP3 SHL SWAP1 POP SWAP3 SWAP2 POP POP JUMP JUMPDEST PUSH0 PUSH1 0x8 DUP4 MUL PUSH2 0x554 PUSH32 0xFFFFFFFFFFFFFFFFFFFFFFFFFFFFFFFFFFFFFFFFFFFFFFFFFFFFFFFFFFFFFFFF DUP3 PUSH2 0x519 JUMP JUMPDEST PUSH2 0x55E DUP7 DUP4 PUSH2 0x519 JUMP JUMPDEST SWAP6 POP DUP1 NOT DUP5 AND SWAP4 POP DUP1 DUP7 AND DUP5 OR SWAP3 POP POP POP SWAP4 SWAP3 POP POP POP JUMP JUMPDEST PUSH0 DUP2 SWAP1 POP SWAP2 SWAP1 POP JUMP JUMPDEST PUSH0 DUP2 SWAP1 POP SWAP2 SWAP1 POP JUMP JUMPDEST PUSH0 PUSH2 0x5A2 PUSH2 0x59D PUSH2 0x598 DUP5 PUSH2 0x576 JUMP JUMPDEST PUSH2 0x57F JUMP JUMPDEST PUSH2 0x576 JUMP JUMPDEST SWAP1 POP SWAP2 SWAP1 POP JUMP JUMPDEST PUSH0 DUP2 SWAP1 POP SWAP2 SWAP1 POP JUMP JUMPDEST PUSH2 0x5BB DUP4 PUSH2 0x588 JUMP JUMPDEST PUSH2 0x5CF PUSH2 0x5C7 DUP3 PUSH2 0x5A9 JUMP JUMPDEST DUP5 DUP5 SLOAD PUSH2 0x525 JUMP JUMPDEST DUP3 SSTORE POP POP POP POP JUMP JUMPDEST PUSH0 SWAP1 JUMP JUMPDEST PUSH2 0x5E3 PUSH2 0x5D7 JUMP JUMPDEST PUSH2 0x5EE DUP2 DUP5 DUP5 PUSH2 0x5B2 JUMP JUMPDEST POP POP POP JUMP JUMPDEST JUMPDEST DUP2 DUP2 LT ISZERO PUSH2 0x611 JUMPI PUSH2 0x606 PUSH0 DUP3 PUSH2 0x5DB JUMP JUMPDEST PUSH1 0x1 DUP2 ADD SWAP1 POP PUSH2 0x5F4 JUMP JUMPDEST POP POP JUMP JUMPDEST PUSH1 0x1F DUP3 GT ISZERO PUSH2 0x656 JUMPI PUSH2 0x627 DUP2 PUSH2 0x4F8 JUMP JUMPDEST PUSH2 0x630 DUP5 PUSH2 0x50A JUMP JUMPDEST DUP2 ADD PUSH1 0x20 DUP6 LT ISZERO PUSH2 0x63F JUMPI DUP2 SWAP1 POP JUMPDEST PUSH2 0x653 PUSH2 0x64B DUP6 PUSH2 0x50A JUMP JUMPDEST DUP4 ADD DUP3 PUSH2 0x5F3 JUMP JUMPDEST POP POP JUMPDEST POP POP POP JUMP JUMPDEST PUSH0 DUP3 DUP3 SHR SWAP1 POP SWAP3 SWAP2 POP POP JUMP JUMPDEST PUSH0 PUSH2 0x676 PUSH0 NOT DUP5 PUSH1 0x8 MUL PUSH2 0x65B JUMP JUMPDEST NOT DUP1 DUP4 AND SWAP2 POP POP SWAP3 SWAP2 POP POP JUMP JUMPDEST PUSH0 PUSH2 0x68E DUP4 DUP4 PUSH2 0x667 JUMP JUMPDEST SWAP2 POP DUP3 PUSH1 0x2 MUL DUP3 OR SWAP1 POP SWAP3 SWAP2 POP POP JUMP JUMPDEST PUSH2 0x6A7 DUP3 PUSH2 0x376 JUMP JUMPDEST PUSH8 0xFFFFFFFFFFFFFFFF DUP2 GT ISZERO PUSH2 0x6C0 JUMPI PUSH2 0x6BF PUSH2 0x46E JUMP JUMPDEST JUMPDEST PUSH2 0x6CA DUP3 SLOAD PUSH2 0x4C8 JUMP JUMPDEST PUSH2 0x6D5 DUP3 DUP3 DUP6 PUSH2 0x615 JUMP JUMPDEST PUSH0 PUSH1 0x20 SWAP1 POP PUSH1 0x1F DUP4 GT PUSH1 0x1 DUP2 EQ PUSH2 0x706 JUMPI PUSH0 DUP5 ISZERO PUSH2 0x6F4 JUMPI DUP3 DUP8 ADD MLOAD SWAP1 POP JUMPDEST PUSH2 0x6FE DUP6 DUP3 PUSH2 0x683 JUMP JUMPDEST DUP7 SSTORE POP PUSH2 0x765 JUMP JUMPDEST PUSH1 0x1F NOT DUP5 AND PUSH2 0x714 DUP7 PUSH2 0x4F8 JUMP JUMPDEST PUSH0 JUMPDEST DUP3 DUP2 LT ISZERO PUSH2 0x73B JUMPI DUP5 DUP10 ADD MLOAD DUP3 SSTORE PUSH1 0x1 DUP3 ADD SWAP2 POP PUSH1 0x20 DUP6 ADD SWAP5 POP PUSH1 0x20 DUP2 ADD SWAP1 POP PUSH2 0x716 JUMP JUMPDEST DUP7 DUP4 LT ISZERO PUSH2 0x758 JUMPI DUP5 DUP10 ADD MLOAD PUSH2 0x754 PUSH1 0x1F DUP10 AND DUP3 PUSH2 0x667 JUMP JUMPDEST DUP4 SSTORE POP JUMPDEST PUSH1 0x1 PUSH1 0x2 DUP9 MUL ADD DUP9 SSTORE POP POP POP JUMPDEST POP POP POP POP POP POP JUMP INVALID LOG2 PUSH5 0x6970667358 0x22 SLT KECCAK256 0xE 0xC 0xFB 0xEE 0x4C GASPRICE 0xEC 0x4C 0x29 GASLIMIT 0xA8 EXTCODESIZE CALLCODE 0xFB MSIZE SELFDESTRUCT 0xE5 KECCAK256 STATICCALL 0xDB 0xE CALLVALUE EXTCODESIZE 0xD5 LOG2 0xF 0xAB 0xE4 BLOBHASH SWAP9 JUMP BALANCE PUSH5 0x736F6C6343 STOP ADDMOD BYTE STOP CALLER "
				},
				"gasEstimates": {
					"creation": {
						"codeDepositCost": "391000",
						"executionCost": "428",
						"totalCost": "391428"
					},
					"external": {
						"admin()": "2574",
						"foo()": "infinite",
						"implementation()": "2505",
						"upgrade(address)": "26862",
						"words()": "infinite"
					}
				},
				"methodIdentifiers": {
					"admin()": "f851a440",
					"foo()": "c2985578",
					"implementation()": "5c60da1b",
					"upgrade(address)": "0900f010",
					"words()": "f2c31bd9"
				}
			},
			"storageLayout": {
				"storage": [
					{
						"astId": 76,
						"contract": "contracts/Learn_103_49.sol:UUPSNew",
						"label": "implementation",
						"offset": 0,
						"slot": "0",
						"type": "t_address"
					},
					{
						"astId": 78,
						"contract": "contracts/Learn_103_49.sol:UUPSNew",
						"label": "admin",
						"offset": 0,
						"slot": "1",
						"type": "t_address"
					},
					{
						"astId": 80,
						"contract": "contracts/Learn_103_49.sol:UUPSNew",
						"label": "words",
						"offset": 0,
						"slot": "2",
						"type": "t_string_storage"
					}
				],
				"types": {
					"t_address": {
						"encoding": "inplace",
						"label": "address",
						"numberOfBytes": "20"
					},
					"t_string_storage": {
						"encoding": "bytes",
						"label": "string",
						"numberOfBytes": "32"
					}
				}
			},
			"userdoc": {
				"kind": "user",
				"methods": {},
				"version": 1
			}
		}
	}
}