{
	"contracts/Learn_101_13.sol": {
		"Son": {
			"abi": [
				{
					"anonymous": false,
					"inputs": [
						{
							"indexed": false,
							"internalType": "string",
							"name": "msg",
							"type": "string"
						}
					],
					"name": "Log",
					"type": "event"
				},
				{
					"inputs": [],
					"name": "callParent",
					"outputs": [],
					"stateMutability": "nonpayable",
					"type": "function"
				},
				{
					"inputs": [],
					"name": "callParentSuper",
					"outputs": [],
					"stateMutability": "nonpayable",
					"type": "function"
				},
				{
					"inputs": [],
					"name": "father",
					"outputs": [],
					"stateMutability": "nonpayable",
					"type": "function"
				},
				{
					"inputs": [],
					"name": "grandfather",
					"outputs": [],
					"stateMutability": "nonpayable",
					"type": "function"
				},
				{
					"inputs": [],
					"name": "hip",
					"outputs": [],
					"stateMutability": "nonpayable",
					"type": "function"
				},
				{
					"inputs": [],
					"name": "pop",
					"outputs": [],
					"stateMutability": "nonpayable",
					"type": "function"
				}
			],
			"devdoc": {
				"kind": "dev",
				"methods": {},
				"version": 1
			},
			"evm": {
				"assembly": "    /* \"contracts/Learn_101_13.sol\":685:1014  contract Son is Grandfather, Father {... */\n  mstore(0x40, 0x80)\n  callvalue\n  dup1\n  iszero\n  tag_1\n  jumpi\n  0x00\n  dup1\n  revert\ntag_1:\n  pop\n  dataSize(sub_0)\n  dup1\n  dataOffset(sub_0)\n  0x00\n  codecopy\n  0x00\n  return\nstop\n\nsub_0: assembly {\n        /* \"contracts/Learn_101_13.sol\":685:1014  contract Son is Grandfather, Father {... */\n      mstore(0x40, 0x80)\n      callvalue\n      dup1\n      iszero\n      tag_1\n      jumpi\n      0x00\n      dup1\n      revert\n    tag_1:\n      pop\n      jumpi(tag_2, lt(calldatasize, 0x04))\n      shr(0xe0, calldataload(0x00))\n      dup1\n      0x1c8aca3b\n      eq\n      tag_3\n      jumpi\n      dup1\n      0x370ea142\n      eq\n      tag_4\n      jumpi\n      dup1\n      0x3e25bcda\n      eq\n      tag_5\n      jumpi\n      dup1\n      0x572e47ae\n      eq\n      tag_6\n      jumpi\n      dup1\n      0xa4ece52c\n      eq\n      tag_7\n      jumpi\n      dup1\n      0xb92a50e0\n      eq\n      tag_8\n      jumpi\n    tag_2:\n      0x00\n      dup1\n      revert\n        /* \"contracts/Learn_101_13.sol\":544:612  function father() public virtual {... */\n    tag_3:\n      tag_9\n      tag_10\n      jump\t// in\n    tag_9:\n      stop\n        /* \"contracts/Learn_101_13.sol\":727:819  function hip() public virtual override(Grandfather, Father) {... */\n    tag_4:\n      tag_11\n      tag_12\n      jump\t// in\n    tag_11:\n      stop\n        /* \"contracts/Learn_101_13.sol\":265:343  function grandfather() public virtual {... */\n    tag_5:\n      tag_13\n      tag_14\n      jump\t// in\n    tag_13:\n      stop\n        /* \"contracts/Learn_101_13.sol\":618:681  function callParent() public {... */\n    tag_6:\n      tag_15\n      tag_16\n      jump\t// in\n    tag_15:\n      stop\n        /* \"contracts/Learn_101_13.sol\":825:917  function pop() public virtual override(Grandfather, Father) {... */\n    tag_7:\n      tag_17\n      tag_18\n      jump\t// in\n    tag_17:\n      stop\n        /* \"contracts/Learn_101_13.sol\":923:1012  function callParentSuper() public {... */\n    tag_8:\n      tag_19\n      tag_20\n      jump\t// in\n    tag_19:\n      stop\n        /* \"contracts/Learn_101_13.sol\":544:612  function father() public virtual {... */\n    tag_10:\n        /* \"contracts/Learn_101_13.sol\":592:605  Log(\"Father\") */\n      0xcf34ef537ac33ee1ac626ca1587a0a7e8e51561e5514f8cb36afa1c5102b3bab\n      mload(0x40)\n      tag_22\n      swap1\n      tag_23\n      jump\t// in\n    tag_22:\n      mload(0x40)\n      dup1\n      swap2\n      sub\n      swap1\n      log1\n        /* \"contracts/Learn_101_13.sol\":544:612  function father() public virtual {... */\n      jump\t// out\n        /* \"contracts/Learn_101_13.sol\":727:819  function hip() public virtual override(Grandfather, Father) {... */\n    tag_12:\n        /* \"contracts/Learn_101_13.sol\":802:812  Log(\"Son\") */\n      0xcf34ef537ac33ee1ac626ca1587a0a7e8e51561e5514f8cb36afa1c5102b3bab\n      mload(0x40)\n      tag_25\n      swap1\n      tag_26\n      jump\t// in\n    tag_25:\n      mload(0x40)\n      dup1\n      swap2\n      sub\n      swap1\n      log1\n        /* \"contracts/Learn_101_13.sol\":727:819  function hip() public virtual override(Grandfather, Father) {... */\n      jump\t// out\n        /* \"contracts/Learn_101_13.sol\":265:343  function grandfather() public virtual {... */\n    tag_14:\n        /* \"contracts/Learn_101_13.sol\":318:336  Log(\"Grandfather\") */\n      0xcf34ef537ac33ee1ac626ca1587a0a7e8e51561e5514f8cb36afa1c5102b3bab\n      mload(0x40)\n      tag_28\n      swap1\n      tag_29\n      jump\t// in\n    tag_28:\n      mload(0x40)\n      dup1\n      swap2\n      sub\n      swap1\n      log1\n        /* \"contracts/Learn_101_13.sol\":265:343  function grandfather() public virtual {... */\n      jump\t// out\n        /* \"contracts/Learn_101_13.sol\":618:681  function callParent() public {... */\n    tag_16:\n        /* \"contracts/Learn_101_13.sol\":657:674  Grandfather.pop() */\n      tag_31\n        /* \"contracts/Learn_101_13.sol\":657:672  Grandfather.pop */\n      tag_32\n        /* \"contracts/Learn_101_13.sol\":657:674  Grandfather.pop() */\n      jump\t// in\n    tag_31:\n        /* \"contracts/Learn_101_13.sol\":618:681  function callParent() public {... */\n      jump\t// out\n        /* \"contracts/Learn_101_13.sol\":825:917  function pop() public virtual override(Grandfather, Father) {... */\n    tag_18:\n        /* \"contracts/Learn_101_13.sol\":900:910  Log(\"Son\") */\n      0xcf34ef537ac33ee1ac626ca1587a0a7e8e51561e5514f8cb36afa1c5102b3bab\n      mload(0x40)\n      tag_34\n      swap1\n      tag_26\n      jump\t// in\n    tag_34:\n      mload(0x40)\n      dup1\n      swap2\n      sub\n      swap1\n      log1\n        /* \"contracts/Learn_101_13.sol\":825:917  function pop() public virtual override(Grandfather, Father) {... */\n      jump\t// out\n        /* \"contracts/Learn_101_13.sol\":923:1012  function callParentSuper() public {... */\n    tag_20:\n        /* \"contracts/Learn_101_13.sol\":967:978  super.pop() */\n      tag_36\n        /* \"contracts/Learn_101_13.sol\":967:976  super.pop */\n      tag_37\n        /* \"contracts/Learn_101_13.sol\":967:978  super.pop() */\n      jump\t// in\n    tag_36:\n        /* \"contracts/Learn_101_13.sol\":988:1005  Grandfather.pop() */\n      tag_38\n        /* \"contracts/Learn_101_13.sol\":988:1003  Grandfather.pop */\n      tag_32\n        /* \"contracts/Learn_101_13.sol\":988:1005  Grandfather.pop() */\n      jump\t// in\n    tag_38:\n        /* \"contracts/Learn_101_13.sol\":923:1012  function callParentSuper() public {... */\n      jump\t// out\n        /* \"contracts/Learn_101_13.sol\":189:259  function pop() public virtual {... */\n    tag_32:\n        /* \"contracts/Learn_101_13.sol\":234:252  Log(\"Grandfather\") */\n      0xcf34ef537ac33ee1ac626ca1587a0a7e8e51561e5514f8cb36afa1c5102b3bab\n      mload(0x40)\n      tag_40\n      swap1\n      tag_29\n      jump\t// in\n    tag_40:\n      mload(0x40)\n      dup1\n      swap2\n      sub\n      swap1\n      log1\n        /* \"contracts/Learn_101_13.sol\":189:259  function pop() public virtual {... */\n      jump\t// out\n        /* \"contracts/Learn_101_13.sol\":464:538  function pop() public virtual override {... */\n    tag_37:\n        /* \"contracts/Learn_101_13.sol\":518:531  Log(\"Father\") */\n      0xcf34ef537ac33ee1ac626ca1587a0a7e8e51561e5514f8cb36afa1c5102b3bab\n      mload(0x40)\n      tag_42\n      swap1\n      tag_23\n      jump\t// in\n    tag_42:\n      mload(0x40)\n      dup1\n      swap2\n      sub\n      swap1\n      log1\n        /* \"contracts/Learn_101_13.sol\":464:538  function pop() public virtual override {... */\n      jump\t// out\n        /* \"#utility.yul\":7:176   */\n    tag_43:\n        /* \"#utility.yul\":91:102   */\n      0x00\n        /* \"#utility.yul\":125:131   */\n      dup3\n        /* \"#utility.yul\":120:123   */\n      dup3\n        /* \"#utility.yul\":113:132   */\n      mstore\n        /* \"#utility.yul\":165:169   */\n      0x20\n        /* \"#utility.yul\":160:163   */\n      dup3\n        /* \"#utility.yul\":156:170   */\n      add\n        /* \"#utility.yul\":141:170   */\n      swap1\n      pop\n        /* \"#utility.yul\":7:176   */\n      swap3\n      swap2\n      pop\n      pop\n      jump\t// out\n        /* \"#utility.yul\":182:338   */\n    tag_44:\n        /* \"#utility.yul\":322:330   */\n      0x4661746865720000000000000000000000000000000000000000000000000000\n        /* \"#utility.yul\":318:319   */\n      0x00\n        /* \"#utility.yul\":310:316   */\n      dup3\n        /* \"#utility.yul\":306:320   */\n      add\n        /* \"#utility.yul\":299:331   */\n      mstore\n        /* \"#utility.yul\":182:338   */\n      pop\n      jump\t// out\n        /* \"#utility.yul\":344:709   */\n    tag_45:\n        /* \"#utility.yul\":486:489   */\n      0x00\n        /* \"#utility.yul\":507:573   */\n      tag_54\n        /* \"#utility.yul\":571:572   */\n      0x06\n        /* \"#utility.yul\":566:569   */\n      dup4\n        /* \"#utility.yul\":507:573   */\n      tag_43\n      jump\t// in\n    tag_54:\n        /* \"#utility.yul\":500:573   */\n      swap2\n      pop\n        /* \"#utility.yul\":582:675   */\n      tag_55\n        /* \"#utility.yul\":671:674   */\n      dup3\n        /* \"#utility.yul\":582:675   */\n      tag_44\n      jump\t// in\n    tag_55:\n        /* \"#utility.yul\":700:702   */\n      0x20\n        /* \"#utility.yul\":695:698   */\n      dup3\n        /* \"#utility.yul\":691:703   */\n      add\n        /* \"#utility.yul\":684:703   */\n      swap1\n      pop\n        /* \"#utility.yul\":344:709   */\n      swap2\n      swap1\n      pop\n      jump\t// out\n        /* \"#utility.yul\":715:1134   */\n    tag_23:\n        /* \"#utility.yul\":881:885   */\n      0x00\n        /* \"#utility.yul\":919:921   */\n      0x20\n        /* \"#utility.yul\":908:917   */\n      dup3\n        /* \"#utility.yul\":904:922   */\n      add\n        /* \"#utility.yul\":896:922   */\n      swap1\n      pop\n        /* \"#utility.yul\":968:977   */\n      dup2\n        /* \"#utility.yul\":962:966   */\n      dup2\n        /* \"#utility.yul\":958:978   */\n      sub\n        /* \"#utility.yul\":954:955   */\n      0x00\n        /* \"#utility.yul\":943:952   */\n      dup4\n        /* \"#utility.yul\":939:956   */\n      add\n        /* \"#utility.yul\":932:979   */\n      mstore\n        /* \"#utility.yul\":996:1127   */\n      tag_57\n        /* \"#utility.yul\":1122:1126   */\n      dup2\n        /* \"#utility.yul\":996:1127   */\n      tag_45\n      jump\t// in\n    tag_57:\n        /* \"#utility.yul\":988:1127   */\n      swap1\n      pop\n        /* \"#utility.yul\":715:1134   */\n      swap2\n      swap1\n      pop\n      jump\t// out\n        /* \"#utility.yul\":1140:1293   */\n    tag_46:\n        /* \"#utility.yul\":1280:1285   */\n      0x536f6e0000000000000000000000000000000000000000000000000000000000\n        /* \"#utility.yul\":1276:1277   */\n      0x00\n        /* \"#utility.yul\":1268:1274   */\n      dup3\n        /* \"#utility.yul\":1264:1278   */\n      add\n        /* \"#utility.yul\":1257:1286   */\n      mstore\n        /* \"#utility.yul\":1140:1293   */\n      pop\n      jump\t// out\n        /* \"#utility.yul\":1299:1664   */\n    tag_47:\n        /* \"#utility.yul\":1441:1444   */\n      0x00\n        /* \"#utility.yul\":1462:1528   */\n      tag_60\n        /* \"#utility.yul\":1526:1527   */\n      0x03\n        /* \"#utility.yul\":1521:1524   */\n      dup4\n        /* \"#utility.yul\":1462:1528   */\n      tag_43\n      jump\t// in\n    tag_60:\n        /* \"#utility.yul\":1455:1528   */\n      swap2\n      pop\n        /* \"#utility.yul\":1537:1630   */\n      tag_61\n        /* \"#utility.yul\":1626:1629   */\n      dup3\n        /* \"#utility.yul\":1537:1630   */\n      tag_46\n      jump\t// in\n    tag_61:\n        /* \"#utility.yul\":1655:1657   */\n      0x20\n        /* \"#utility.yul\":1650:1653   */\n      dup3\n        /* \"#utility.yul\":1646:1658   */\n      add\n        /* \"#utility.yul\":1639:1658   */\n      swap1\n      pop\n        /* \"#utility.yul\":1299:1664   */\n      swap2\n      swap1\n      pop\n      jump\t// out\n        /* \"#utility.yul\":1670:2089   */\n    tag_26:\n        /* \"#utility.yul\":1836:1840   */\n      0x00\n        /* \"#utility.yul\":1874:1876   */\n      0x20\n        /* \"#utility.yul\":1863:1872   */\n      dup3\n        /* \"#utility.yul\":1859:1877   */\n      add\n        /* \"#utility.yul\":1851:1877   */\n      swap1\n      pop\n        /* \"#utility.yul\":1923:1932   */\n      dup2\n        /* \"#utility.yul\":1917:1921   */\n      dup2\n        /* \"#utility.yul\":1913:1933   */\n      sub\n        /* \"#utility.yul\":1909:1910   */\n      0x00\n        /* \"#utility.yul\":1898:1907   */\n      dup4\n        /* \"#utility.yul\":1894:1911   */\n      add\n        /* \"#utility.yul\":1887:1934   */\n      mstore\n        /* \"#utility.yul\":1951:2082   */\n      tag_63\n        /* \"#utility.yul\":2077:2081   */\n      dup2\n        /* \"#utility.yul\":1951:2082   */\n      tag_47\n      jump\t// in\n    tag_63:\n        /* \"#utility.yul\":1943:2082   */\n      swap1\n      pop\n        /* \"#utility.yul\":1670:2089   */\n      swap2\n      swap1\n      pop\n      jump\t// out\n        /* \"#utility.yul\":2095:2256   */\n    tag_48:\n        /* \"#utility.yul\":2235:2248   */\n      0x4772616e64666174686572000000000000000000000000000000000000000000\n        /* \"#utility.yul\":2231:2232   */\n      0x00\n        /* \"#utility.yul\":2223:2229   */\n      dup3\n        /* \"#utility.yul\":2219:2233   */\n      add\n        /* \"#utility.yul\":2212:2249   */\n      mstore\n        /* \"#utility.yul\":2095:2256   */\n      pop\n      jump\t// out\n        /* \"#utility.yul\":2262:2628   */\n    tag_49:\n        /* \"#utility.yul\":2404:2407   */\n      0x00\n        /* \"#utility.yul\":2425:2492   */\n      tag_66\n        /* \"#utility.yul\":2489:2491   */\n      0x0b\n        /* \"#utility.yul\":2484:2487   */\n      dup4\n        /* \"#utility.yul\":2425:2492   */\n      tag_43\n      jump\t// in\n    tag_66:\n        /* \"#utility.yul\":2418:2492   */\n      swap2\n      pop\n        /* \"#utility.yul\":2501:2594   */\n      tag_67\n        /* \"#utility.yul\":2590:2593   */\n      dup3\n        /* \"#utility.yul\":2501:2594   */\n      tag_48\n      jump\t// in\n    tag_67:\n        /* \"#utility.yul\":2619:2621   */\n      0x20\n        /* \"#utility.yul\":2614:2617   */\n      dup3\n        /* \"#utility.yul\":2610:2622   */\n      add\n        /* \"#utility.yul\":2603:2622   */\n      swap1\n      pop\n        /* \"#utility.yul\":2262:2628   */\n      swap2\n      swap1\n      pop\n      jump\t// out\n        /* \"#utility.yul\":2634:3053   */\n    tag_29:\n        /* \"#utility.yul\":2800:2804   */\n      0x00\n        /* \"#utility.yul\":2838:2840   */\n      0x20\n        /* \"#utility.yul\":2827:2836   */\n      dup3\n        /* \"#utility.yul\":2823:2841   */\n      add\n        /* \"#utility.yul\":2815:2841   */\n      swap1\n      pop\n        /* \"#utility.yul\":2887:2896   */\n      dup2\n        /* \"#utility.yul\":2881:2885   */\n      dup2\n        /* \"#utility.yul\":2877:2897   */\n      sub\n        /* \"#utility.yul\":2873:2874   */\n      0x00\n        /* \"#utility.yul\":2862:2871   */\n      dup4\n        /* \"#utility.yul\":2858:2875   */\n      add\n        /* \"#utility.yul\":2851:2898   */\n      mstore\n        /* \"#utility.yul\":2915:3046   */\n      tag_69\n        /* \"#utility.yul\":3041:3045   */\n      dup2\n        /* \"#utility.yul\":2915:3046   */\n      tag_49\n      jump\t// in\n    tag_69:\n        /* \"#utility.yul\":2907:3046   */\n      swap1\n      pop\n        /* \"#utility.yul\":2634:3053   */\n      swap2\n      swap1\n      pop\n      jump\t// out\n\n    auxdata: 0xa2646970667358221220b9cba8bca84ff479d49f4b95a256d7f78973fabdea6c682f90109d58a4dfb1ce64736f6c634300081a0033\n}\n",
				"bytecode": {
					"linkReferences": {},
					"object": "6080604052348015600e575f80fd5b506103848061001c5f395ff3fe608060405234801561000f575f80fd5b5060043610610060575f3560e01c80631c8aca3b14610064578063370ea1421461006e5780633e25bcda14610078578063572e47ae14610082578063a4ece52c1461008c578063b92a50e014610096575b5f80fd5b61006c6100a0565b005b6100766100d7565b005b61008061010e565b005b61008a610145565b005b61009461014f565b005b61009e610186565b005b7fcf34ef537ac33ee1ac626ca1587a0a7e8e51561e5514f8cb36afa1c5102b3bab6040516100cd90610260565b60405180910390a1565b7fcf34ef537ac33ee1ac626ca1587a0a7e8e51561e5514f8cb36afa1c5102b3bab604051610104906102c8565b60405180910390a1565b7fcf34ef537ac33ee1ac626ca1587a0a7e8e51561e5514f8cb36afa1c5102b3bab60405161013b90610330565b60405180910390a1565b61014d610198565b565b7fcf34ef537ac33ee1ac626ca1587a0a7e8e51561e5514f8cb36afa1c5102b3bab60405161017c906102c8565b60405180910390a1565b61018e6101cf565b610196610198565b565b7fcf34ef537ac33ee1ac626ca1587a0a7e8e51561e5514f8cb36afa1c5102b3bab6040516101c590610330565b60405180910390a1565b7fcf34ef537ac33ee1ac626ca1587a0a7e8e51561e5514f8cb36afa1c5102b3bab6040516101fc90610260565b60405180910390a1565b5f82825260208201905092915050565b7f46617468657200000000000000000000000000000000000000000000000000005f82015250565b5f61024a600683610206565b915061025582610216565b602082019050919050565b5f6020820190508181035f8301526102778161023e565b9050919050565b7f536f6e00000000000000000000000000000000000000000000000000000000005f82015250565b5f6102b2600383610206565b91506102bd8261027e565b602082019050919050565b5f6020820190508181035f8301526102df816102a6565b9050919050565b7f4772616e646661746865720000000000000000000000000000000000000000005f82015250565b5f61031a600b83610206565b9150610325826102e6565b602082019050919050565b5f6020820190508181035f8301526103478161030e565b905091905056fea2646970667358221220b9cba8bca84ff479d49f4b95a256d7f78973fabdea6c682f90109d58a4dfb1ce64736f6c634300081a0033",
					"opcodes": "PUSH1 0x80 PUSH1 0x40 MSTORE CALLVALUE DUP1 ISZERO PUSH1 0xE JUMPI PUSH0 DUP1 REVERT JUMPDEST POP PUSH2 0x384 DUP1 PUSH2 0x1C PUSH0 CODECOPY PUSH0 RETURN INVALID PUSH1 0x80 PUSH1 0x40 MSTORE CALLVALUE DUP1 ISZERO PUSH2 0xF JUMPI PUSH0 DUP1 REVERT JUMPDEST POP PUSH1 0x4 CALLDATASIZE LT PUSH2 0x60 JUMPI PUSH0 CALLDATALOAD PUSH1 0xE0 SHR DUP1 PUSH4 0x1C8ACA3B EQ PUSH2 0x64 JUMPI DUP1 PUSH4 0x370EA142 EQ PUSH2 0x6E JUMPI DUP1 PUSH4 0x3E25BCDA EQ PUSH2 0x78 JUMPI DUP1 PUSH4 0x572E47AE EQ PUSH2 0x82 JUMPI DUP1 PUSH4 0xA4ECE52C EQ PUSH2 0x8C JUMPI DUP1 PUSH4 0xB92A50E0 EQ PUSH2 0x96 JUMPI JUMPDEST PUSH0 DUP1 REVERT JUMPDEST PUSH2 0x6C PUSH2 0xA0 JUMP JUMPDEST STOP JUMPDEST PUSH2 0x76 PUSH2 0xD7 JUMP JUMPDEST STOP JUMPDEST PUSH2 0x80 PUSH2 0x10E JUMP JUMPDEST STOP JUMPDEST PUSH2 0x8A PUSH2 0x145 JUMP JUMPDEST STOP JUMPDEST PUSH2 0x94 PUSH2 0x14F JUMP JUMPDEST STOP JUMPDEST PUSH2 0x9E PUSH2 0x186 JUMP JUMPDEST STOP JUMPDEST PUSH32 0xCF34EF537AC33EE1AC626CA1587A0A7E8E51561E5514F8CB36AFA1C5102B3BAB PUSH1 0x40 MLOAD PUSH2 0xCD SWAP1 PUSH2 0x260 JUMP JUMPDEST PUSH1 0x40 MLOAD DUP1 SWAP2 SUB SWAP1 LOG1 JUMP JUMPDEST PUSH32 0xCF34EF537AC33EE1AC626CA1587A0A7E8E51561E5514F8CB36AFA1C5102B3BAB PUSH1 0x40 MLOAD PUSH2 0x104 SWAP1 PUSH2 0x2C8 JUMP JUMPDEST PUSH1 0x40 MLOAD DUP1 SWAP2 SUB SWAP1 LOG1 JUMP JUMPDEST PUSH32 0xCF34EF537AC33EE1AC626CA1587A0A7E8E51561E5514F8CB36AFA1C5102B3BAB PUSH1 0x40 MLOAD PUSH2 0x13B SWAP1 PUSH2 0x330 JUMP JUMPDEST PUSH1 0x40 MLOAD DUP1 SWAP2 SUB SWAP1 LOG1 JUMP JUMPDEST PUSH2 0x14D PUSH2 0x198 JUMP JUMPDEST JUMP JUMPDEST PUSH32 0xCF34EF537AC33EE1AC626CA1587A0A7E8E51561E5514F8CB36AFA1C5102B3BAB PUSH1 0x40 MLOAD PUSH2 0x17C SWAP1 PUSH2 0x2C8 JUMP JUMPDEST PUSH1 0x40 MLOAD DUP1 SWAP2 SUB SWAP1 LOG1 JUMP JUMPDEST PUSH2 0x18E PUSH2 0x1CF JUMP JUMPDEST PUSH2 0x196 PUSH2 0x198 JUMP JUMPDEST JUMP JUMPDEST PUSH32 0xCF34EF537AC33EE1AC626CA1587A0A7E8E51561E5514F8CB36AFA1C5102B3BAB PUSH1 0x40 MLOAD PUSH2 0x1C5 SWAP1 PUSH2 0x330 JUMP JUMPDEST PUSH1 0x40 MLOAD DUP1 SWAP2 SUB SWAP1 LOG1 JUMP JUMPDEST PUSH32 0xCF34EF537AC33EE1AC626CA1587A0A7E8E51561E5514F8CB36AFA1C5102B3BAB PUSH1 0x40 MLOAD PUSH2 0x1FC SWAP1 PUSH2 0x260 JUMP JUMPDEST PUSH1 0x40 MLOAD DUP1 SWAP2 SUB SWAP1 LOG1 JUMP JUMPDEST PUSH0 DUP3 DUP3 MSTORE PUSH1 0x20 DUP3 ADD SWAP1 POP SWAP3 SWAP2 POP POP JUMP JUMPDEST PUSH32 0x4661746865720000000000000000000000000000000000000000000000000000 PUSH0 DUP3 ADD MSTORE POP JUMP JUMPDEST PUSH0 PUSH2 0x24A PUSH1 0x6 DUP4 PUSH2 0x206 JUMP JUMPDEST SWAP2 POP PUSH2 0x255 DUP3 PUSH2 0x216 JUMP JUMPDEST PUSH1 0x20 DUP3 ADD SWAP1 POP SWAP2 SWAP1 POP JUMP JUMPDEST PUSH0 PUSH1 0x20 DUP3 ADD SWAP1 POP DUP2 DUP2 SUB PUSH0 DUP4 ADD MSTORE PUSH2 0x277 DUP2 PUSH2 0x23E JUMP JUMPDEST SWAP1 POP SWAP2 SWAP1 POP JUMP JUMPDEST PUSH32 0x536F6E0000000000000000000000000000000000000000000000000000000000 PUSH0 DUP3 ADD MSTORE POP JUMP JUMPDEST PUSH0 PUSH2 0x2B2 PUSH1 0x3 DUP4 PUSH2 0x206 JUMP JUMPDEST SWAP2 POP PUSH2 0x2BD DUP3 PUSH2 0x27E JUMP JUMPDEST PUSH1 0x20 DUP3 ADD SWAP1 POP SWAP2 SWAP1 POP JUMP JUMPDEST PUSH0 PUSH1 0x20 DUP3 ADD SWAP1 POP DUP2 DUP2 SUB PUSH0 DUP4 ADD MSTORE PUSH2 0x2DF DUP2 PUSH2 0x2A6 JUMP JUMPDEST SWAP1 POP SWAP2 SWAP1 POP JUMP JUMPDEST PUSH32 0x4772616E64666174686572000000000000000000000000000000000000000000 PUSH0 DUP3 ADD MSTORE POP JUMP JUMPDEST PUSH0 PUSH2 0x31A PUSH1 0xB DUP4 PUSH2 0x206 JUMP JUMPDEST SWAP2 POP PUSH2 0x325 DUP3 PUSH2 0x2E6 JUMP JUMPDEST PUSH1 0x20 DUP3 ADD SWAP1 POP SWAP2 SWAP1 POP JUMP JUMPDEST PUSH0 PUSH1 0x20 DUP3 ADD SWAP1 POP DUP2 DUP2 SUB PUSH0 DUP4 ADD MSTORE PUSH2 0x347 DUP2 PUSH2 0x30E JUMP JUMPDEST SWAP1 POP SWAP2 SWAP1 POP JUMP INVALID LOG2 PUSH5 0x6970667358 0x22 SLT KECCAK256 0xB9 0xCB 0xA8 0xBC 0xA8 0x4F DELEGATECALL PUSH26 0xD49F4B95A256D7F78973FABDEA6C682F90109D58A4DFB1CE6473 PUSH16 0x6C634300081A00330000000000000000 "
				},
				"gasEstimates": {
					"creation": {
						"codeDepositCost": "180000",
						"executionCost": "224",
						"totalCost": "180224"
					},
					"external": {
						"callParent()": "2008",
						"callParentSuper()": "infinite",
						"father()": "1918",
						"grandfather()": "1962",
						"hip()": "1940",
						"pop()": "2006"
					}
				},
				"methodIdentifiers": {
					"callParent()": "572e47ae",
					"callParentSuper()": "b92a50e0",
					"father()": "1c8aca3b",
					"grandfather()": "3e25bcda",
					"hip()": "370ea142",
					"pop()": "a4ece52c"
				}
			},
			"storageLayout": {
				"storage": [],
				"types": null
			},
			"userdoc": {
				"kind": "user",
				"methods": {},
				"version": 1
			}
		}
	}
}