{
	"contracts/Learn_103_37.sol": {
		"Sig": {
			"abi": [
				{
					"inputs": [
						{
							"internalType": "address",
							"name": "account_",
							"type": "address"
						},
						{
							"internalType": "uint256",
							"name": "tokenId_",
							"type": "uint256"
						}
					],
					"name": "getMsgHash",
					"outputs": [
						{
							"internalType": "bytes32",
							"name": "",
							"type": "bytes32"
						}
					],
					"stateMutability": "pure",
					"type": "function"
				},
				{
					"inputs": [
						{
							"internalType": "bytes32",
							"name": "hash",
							"type": "bytes32"
						}
					],
					"name": "toEthSignedMessageHash",
					"outputs": [
						{
							"internalType": "bytes32",
							"name": "",
							"type": "bytes32"
						}
					],
					"stateMutability": "pure",
					"type": "function"
				}
			],
			"devdoc": {
				"kind": "dev",
				"methods": {},
				"version": 1
			},
			"evm": {
				"assembly": "    /* \"contracts/Learn_103_37.sol\":58:411  contract Sig {... */\n  mstore(0x40, 0x80)\n  callvalue\n  dup1\n  iszero\n  tag_1\n  jumpi\n  0x00\n  dup1\n  revert\ntag_1:\n  pop\n  dataSize(sub_0)\n  dup1\n  dataOffset(sub_0)\n  0x00\n  codecopy\n  0x00\n  return\nstop\n\nsub_0: assembly {\n        /* \"contracts/Learn_103_37.sol\":58:411  contract Sig {... */\n      mstore(0x40, 0x80)\n      callvalue\n      dup1\n      iszero\n      tag_1\n      jumpi\n      0x00\n      dup1\n      revert\n    tag_1:\n      pop\n      jumpi(tag_2, lt(calldatasize, 0x04))\n      shr(0xe0, calldataload(0x00))\n      dup1\n      0x918a15cf\n      eq\n      tag_3\n      jumpi\n      dup1\n      0xa7a14837\n      eq\n      tag_4\n      jumpi\n    tag_2:\n      0x00\n      dup1\n      revert\n        /* \"contracts/Learn_103_37.sol\":240:409  function toEthSignedMessageHash(bytes32 hash) public pure returns (bytes32) {... */\n    tag_3:\n      tag_5\n      tag_6\n      calldatasize\n      0x04\n      tag_7\n      jump\t// in\n    tag_6:\n        /* \"contracts/Learn_103_37.sol\":343:401  abi.encodePacked(\"\\x19Ethereum Signed Message:\\n32\", hash) */\n      mload(0x40)\n        /* \"#utility.yul\":982:1048   */\n      0x19457468657265756d205369676e6564204d6573736167653a0a333200000000\n        /* \"contracts/Learn_103_37.sol\":343:401  abi.encodePacked(\"\\x19Ethereum Signed Message:\\n32\", hash) */\n      0x20\n      dup3\n      add\n        /* \"#utility.yul\":970:1049   */\n      mstore\n        /* \"#utility.yul\":1065:1077   */\n      0x3c\n      dup2\n      add\n        /* \"#utility.yul\":1058:1086   */\n      dup3\n      swap1\n      mstore\n        /* \"contracts/Learn_103_37.sol\":307:314  bytes32 */\n      0x00\n      swap1\n        /* \"#utility.yul\":1102:1114   */\n      0x5c\n      add\n        /* \"contracts/Learn_103_37.sol\":343:401  abi.encodePacked(\"\\x19Ethereum Signed Message:\\n32\", hash) */\n      mload(0x40)\n      0x20\n      dup2\n      dup4\n      sub\n      sub\n      dup2\n      mstore\n      swap1\n      0x40\n      mstore\n        /* \"contracts/Learn_103_37.sol\":333:402  keccak256(abi.encodePacked(\"\\x19Ethereum Signed Message:\\n32\", hash)) */\n      dup1\n      mload\n      swap1\n      0x20\n      add\n      keccak256\n        /* \"contracts/Learn_103_37.sol\":326:402  return keccak256(abi.encodePacked(\"\\x19Ethereum Signed Message:\\n32\", hash)) */\n      swap1\n      pop\n        /* \"contracts/Learn_103_37.sol\":240:409  function toEthSignedMessageHash(bytes32 hash) public pure returns (bytes32) {... */\n      swap2\n      swap1\n      pop\n      jump\n    tag_5:\n      mload(0x40)\n        /* \"#utility.yul\":345:370   */\n      swap1\n      dup2\n      mstore\n        /* \"#utility.yul\":333:335   */\n      0x20\n        /* \"#utility.yul\":318:336   */\n      add\n        /* \"contracts/Learn_103_37.sol\":240:409  function toEthSignedMessageHash(bytes32 hash) public pure returns (bytes32) {... */\n      mload(0x40)\n      dup1\n      swap2\n      sub\n      swap1\n      return\n        /* \"contracts/Learn_103_37.sol\":77:234  function getMsgHash(address account_, uint256 tokenId_) public pure returns (bytes32) {... */\n    tag_4:\n      tag_5\n      tag_12\n      calldatasize\n      0x04\n      tag_13\n      jump\t// in\n    tag_12:\n        /* \"contracts/Learn_103_37.sol\":190:226  abi.encodePacked(account_, tokenId_) */\n      mload(0x40)\n      not(0xffffffffffffffffffffffff)\n        /* \"#utility.yul\":1302:1304   */\n      0x60\n        /* \"#utility.yul\":1298:1313   */\n      dup5\n      swap1\n      shl\n        /* \"#utility.yul\":1294:1347   */\n      and\n        /* \"contracts/Learn_103_37.sol\":190:226  abi.encodePacked(account_, tokenId_) */\n      0x20\n      dup3\n      add\n        /* \"#utility.yul\":1282:1348   */\n      mstore\n        /* \"#utility.yul\":1364:1376   */\n      0x34\n      dup2\n      add\n        /* \"#utility.yul\":1357:1385   */\n      dup3\n      swap1\n      mstore\n        /* \"contracts/Learn_103_37.sol\":154:161  bytes32 */\n      0x00\n      swap1\n        /* \"#utility.yul\":1401:1413   */\n      0x54\n      add\n        /* \"contracts/Learn_103_37.sol\":190:226  abi.encodePacked(account_, tokenId_) */\n      mload(0x40)\n      0x20\n      dup2\n      dup4\n      sub\n      sub\n      dup2\n      mstore\n      swap1\n      0x40\n      mstore\n        /* \"contracts/Learn_103_37.sol\":180:227  keccak256(abi.encodePacked(account_, tokenId_)) */\n      dup1\n      mload\n      swap1\n      0x20\n      add\n      keccak256\n        /* \"contracts/Learn_103_37.sol\":173:227  return keccak256(abi.encodePacked(account_, tokenId_)) */\n      swap1\n      pop\n        /* \"contracts/Learn_103_37.sol\":77:234  function getMsgHash(address account_, uint256 tokenId_) public pure returns (bytes32) {... */\n      swap3\n      swap2\n      pop\n      pop\n      jump\n        /* \"#utility.yul\":14:194   */\n    tag_7:\n        /* \"#utility.yul\":73:79   */\n      0x00\n        /* \"#utility.yul\":126:128   */\n      0x20\n        /* \"#utility.yul\":114:123   */\n      dup3\n        /* \"#utility.yul\":105:112   */\n      dup5\n        /* \"#utility.yul\":101:124   */\n      sub\n        /* \"#utility.yul\":97:129   */\n      slt\n        /* \"#utility.yul\":94:146   */\n      iszero\n      tag_24\n      jumpi\n        /* \"#utility.yul\":142:143   */\n      0x00\n        /* \"#utility.yul\":139:140   */\n      dup1\n        /* \"#utility.yul\":132:144   */\n      revert\n        /* \"#utility.yul\":94:146   */\n    tag_24:\n      pop\n        /* \"#utility.yul\":165:188   */\n      calldataload\n      swap2\n        /* \"#utility.yul\":14:194   */\n      swap1\n      pop\n      jump\t// out\n        /* \"#utility.yul\":381:735   */\n    tag_13:\n        /* \"#utility.yul\":449:455   */\n      0x00\n        /* \"#utility.yul\":457:463   */\n      dup1\n        /* \"#utility.yul\":510:512   */\n      0x40\n        /* \"#utility.yul\":498:507   */\n      dup4\n        /* \"#utility.yul\":489:496   */\n      dup6\n        /* \"#utility.yul\":485:508   */\n      sub\n        /* \"#utility.yul\":481:513   */\n      slt\n        /* \"#utility.yul\":478:530   */\n      iszero\n      tag_27\n      jumpi\n        /* \"#utility.yul\":526:527   */\n      0x00\n        /* \"#utility.yul\":523:524   */\n      dup1\n        /* \"#utility.yul\":516:528   */\n      revert\n        /* \"#utility.yul\":478:530   */\n    tag_27:\n        /* \"#utility.yul\":552:575   */\n      dup3\n      calldataload\n      sub(shl(0xa0, 0x01), 0x01)\n        /* \"#utility.yul\":604:635   */\n      dup2\n      and\n        /* \"#utility.yul\":594:636   */\n      dup2\n      eq\n        /* \"#utility.yul\":584:654   */\n      tag_28\n      jumpi\n        /* \"#utility.yul\":650:651   */\n      0x00\n        /* \"#utility.yul\":647:648   */\n      dup1\n        /* \"#utility.yul\":640:652   */\n      revert\n        /* \"#utility.yul\":584:654   */\n    tag_28:\n        /* \"#utility.yul\":673:678   */\n      swap5\n        /* \"#utility.yul\":725:727   */\n      0x20\n        /* \"#utility.yul\":710:728   */\n      swap4\n      swap1\n      swap4\n      add\n        /* \"#utility.yul\":697:729   */\n      calldataload\n      swap4\n      pop\n      pop\n      pop\n        /* \"#utility.yul\":381:735   */\n      jump\t// out\n\n    auxdata: 0xa26469706673582212203dd1a3491e5ecf6973d4fbbea9487c98bebfa788c30b1de63bdb58aee29195df64736f6c634300081a0033\n}\n",
				"bytecode": {
					"linkReferences": {},
					"object": "6080604052348015600e575f80fd5b506101808061001c5f395ff3fe608060405234801561000f575f80fd5b5060043610610034575f3560e01c8063918a15cf14610038578063a7a14837146100aa575b5f80fd5b6100986100463660046100fe565b6040517f19457468657265756d205369676e6564204d6573736167653a0a3332000000006020820152603c81018290525f90605c01604051602081830303815290604052805190602001209050919050565b60405190815260200160405180910390f35b6100986100b8366004610115565b6040516bffffffffffffffffffffffff19606084901b166020820152603481018290525f9060540160405160208183030381529060405280519060200120905092915050565b5f6020828403121561010e575f80fd5b5035919050565b5f8060408385031215610126575f80fd5b82356001600160a01b038116811461013c575f80fd5b94602093909301359350505056fea26469706673582212203dd1a3491e5ecf6973d4fbbea9487c98bebfa788c30b1de63bdb58aee29195df64736f6c634300081a0033",
					"opcodes": "PUSH1 0x80 PUSH1 0x40 MSTORE CALLVALUE DUP1 ISZERO PUSH1 0xE JUMPI PUSH0 DUP1 REVERT JUMPDEST POP PUSH2 0x180 DUP1 PUSH2 0x1C PUSH0 CODECOPY PUSH0 RETURN INVALID PUSH1 0x80 PUSH1 0x40 MSTORE CALLVALUE DUP1 ISZERO PUSH2 0xF JUMPI PUSH0 DUP1 REVERT JUMPDEST POP PUSH1 0x4 CALLDATASIZE LT PUSH2 0x34 JUMPI PUSH0 CALLDATALOAD PUSH1 0xE0 SHR DUP1 PUSH4 0x918A15CF EQ PUSH2 0x38 JUMPI DUP1 PUSH4 0xA7A14837 EQ PUSH2 0xAA JUMPI JUMPDEST PUSH0 DUP1 REVERT JUMPDEST PUSH2 0x98 PUSH2 0x46 CALLDATASIZE PUSH1 0x4 PUSH2 0xFE JUMP JUMPDEST PUSH1 0x40 MLOAD PUSH32 0x19457468657265756D205369676E6564204D6573736167653A0A333200000000 PUSH1 0x20 DUP3 ADD MSTORE PUSH1 0x3C DUP2 ADD DUP3 SWAP1 MSTORE PUSH0 SWAP1 PUSH1 0x5C ADD PUSH1 0x40 MLOAD PUSH1 0x20 DUP2 DUP4 SUB SUB DUP2 MSTORE SWAP1 PUSH1 0x40 MSTORE DUP1 MLOAD SWAP1 PUSH1 0x20 ADD KECCAK256 SWAP1 POP SWAP2 SWAP1 POP JUMP JUMPDEST PUSH1 0x40 MLOAD SWAP1 DUP2 MSTORE PUSH1 0x20 ADD PUSH1 0x40 MLOAD DUP1 SWAP2 SUB SWAP1 RETURN JUMPDEST PUSH2 0x98 PUSH2 0xB8 CALLDATASIZE PUSH1 0x4 PUSH2 0x115 JUMP JUMPDEST PUSH1 0x40 MLOAD PUSH12 0xFFFFFFFFFFFFFFFFFFFFFFFF NOT PUSH1 0x60 DUP5 SWAP1 SHL AND PUSH1 0x20 DUP3 ADD MSTORE PUSH1 0x34 DUP2 ADD DUP3 SWAP1 MSTORE PUSH0 SWAP1 PUSH1 0x54 ADD PUSH1 0x40 MLOAD PUSH1 0x20 DUP2 DUP4 SUB SUB DUP2 MSTORE SWAP1 PUSH1 0x40 MSTORE DUP1 MLOAD SWAP1 PUSH1 0x20 ADD KECCAK256 SWAP1 POP SWAP3 SWAP2 POP POP JUMP JUMPDEST PUSH0 PUSH1 0x20 DUP3 DUP5 SUB SLT ISZERO PUSH2 0x10E JUMPI PUSH0 DUP1 REVERT JUMPDEST POP CALLDATALOAD SWAP2 SWAP1 POP JUMP JUMPDEST PUSH0 DUP1 PUSH1 0x40 DUP4 DUP6 SUB SLT ISZERO PUSH2 0x126 JUMPI PUSH0 DUP1 REVERT JUMPDEST DUP3 CALLDATALOAD PUSH1 0x1 PUSH1 0x1 PUSH1 0xA0 SHL SUB DUP2 AND DUP2 EQ PUSH2 0x13C JUMPI PUSH0 DUP1 REVERT JUMPDEST SWAP5 PUSH1 0x20 SWAP4 SWAP1 SWAP4 ADD CALLDATALOAD SWAP4 POP POP POP JUMP INVALID LOG2 PUSH5 0x6970667358 0x22 SLT KECCAK256 RETURNDATASIZE 0xD1 LOG3 BLOBHASH 0x1E MCOPY 0xCF PUSH10 0x73D4FBBEA9487C98BEBF 0xA7 DUP9 0xC3 SIGNEXTEND SAR 0xE6 EXTCODESIZE 0xDB PC 0xAE 0xE2 SWAP2 SWAP6 0xDF PUSH5 0x736F6C6343 STOP ADDMOD BYTE STOP CALLER "
				},
				"gasEstimates": {
					"creation": {
						"codeDepositCost": "76800",
						"executionCost": "121",
						"totalCost": "76921"
					},
					"external": {
						"getMsgHash(address,uint256)": "504",
						"toEthSignedMessageHash(bytes32)": "395"
					}
				},
				"methodIdentifiers": {
					"getMsgHash(address,uint256)": "a7a14837",
					"toEthSignedMessageHash(bytes32)": "918a15cf"
				}
			},
			"storageLayout": {
				"storage": [],
				"types": null
			},
			"userdoc": {
				"kind": "user",
				"methods": {},
				"version": 1
			}
		}
	}
}