{
	"contracts/Learn_103_48.sol": {
		"TransparentProxy": {
			"abi": [
				{
					"inputs": [
						{
							"internalType": "address",
							"name": "implementation_",
							"type": "address"
						}
					],
					"stateMutability": "nonpayable",
					"type": "constructor"
				},
				{
					"stateMutability": "payable",
					"type": "fallback"
				},
				{
					"inputs": [
						{
							"internalType": "address",
							"name": "newImplementation",
							"type": "address"
						}
					],
					"name": "upgrade",
					"outputs": [],
					"stateMutability": "nonpayable",
					"type": "function"
				},
				{
					"inputs": [],
					"name": "words",
					"outputs": [
						{
							"internalType": "string",
							"name": "",
							"type": "string"
						}
					],
					"stateMutability": "view",
					"type": "function"
				},
				{
					"stateMutability": "payable",
					"type": "receive"
				}
			],
			"devdoc": {
				"kind": "dev",
				"methods": {},
				"version": 1
			},
			"evm": {
				"assembly": "    /* \"contracts/Learn_103_48.sol\":58:648  contract TransparentProxy {... */\n  mstore(0x40, 0x80)\n    /* \"contracts/Learn_103_48.sol\":163:277  constructor(address implementation_) {... */\n  callvalue\n  dup1\n  iszero\n  tag_1\n  jumpi\n  0x00\n  dup1\n  revert\ntag_1:\n  pop\n  mload(0x40)\n  sub(codesize, bytecodeSize)\n  dup1\n  bytecodeSize\n  dup4\n  codecopy\n  dup2\n  dup2\n  add\n  0x40\n  mstore\n  dup2\n  add\n  swap1\n  tag_2\n  swap2\n  swap1\n  tag_3\n  jump\t// in\ntag_2:\n    /* \"contracts/Learn_103_48.sol\":218:228  msg.sender */\n  caller\n    /* \"contracts/Learn_103_48.sol\":210:215  admin */\n  0x01\n  0x00\n    /* \"contracts/Learn_103_48.sol\":210:228  admin = msg.sender */\n  0x0100\n  exp\n  dup2\n  sload\n  dup2\n  0xffffffffffffffffffffffffffffffffffffffff\n  mul\n  not\n  and\n  swap1\n  dup4\n  0xffffffffffffffffffffffffffffffffffffffff\n  and\n  mul\n  or\n  swap1\n  sstore\n  pop\n    /* \"contracts/Learn_103_48.sol\":255:270  implementation_ */\n  dup1\n    /* \"contracts/Learn_103_48.sol\":238:252  implementation */\n  0x00\n  dup1\n    /* \"contracts/Learn_103_48.sol\":238:270  implementation = implementation_ */\n  0x0100\n  exp\n  dup2\n  sload\n  dup2\n  0xffffffffffffffffffffffffffffffffffffffff\n  mul\n  not\n  and\n  swap1\n  dup4\n  0xffffffffffffffffffffffffffffffffffffffff\n  and\n  mul\n  or\n  swap1\n  sstore\n  pop\n    /* \"contracts/Learn_103_48.sol\":163:277  constructor(address implementation_) {... */\n  pop\n    /* \"contracts/Learn_103_48.sol\":58:648  contract TransparentProxy {... */\n  jump(tag_6)\n    /* \"#utility.yul\":88:205   */\ntag_8:\n    /* \"#utility.yul\":197:198   */\n  0x00\n    /* \"#utility.yul\":194:195   */\n  dup1\n    /* \"#utility.yul\":187:199   */\n  revert\n    /* \"#utility.yul\":334:460   */\ntag_10:\n    /* \"#utility.yul\":371:378   */\n  0x00\n    /* \"#utility.yul\":411:453   */\n  0xffffffffffffffffffffffffffffffffffffffff\n    /* \"#utility.yul\":404:409   */\n  dup3\n    /* \"#utility.yul\":400:454   */\n  and\n    /* \"#utility.yul\":389:454   */\n  swap1\n  pop\n    /* \"#utility.yul\":334:460   */\n  swap2\n  swap1\n  pop\n  jump\t// out\n    /* \"#utility.yul\":466:562   */\ntag_11:\n    /* \"#utility.yul\":503:510   */\n  0x00\n    /* \"#utility.yul\":532:556   */\n  tag_20\n    /* \"#utility.yul\":550:555   */\n  dup3\n    /* \"#utility.yul\":532:556   */\n  tag_10\n  jump\t// in\ntag_20:\n    /* \"#utility.yul\":521:556   */\n  swap1\n  pop\n    /* \"#utility.yul\":466:562   */\n  swap2\n  swap1\n  pop\n  jump\t// out\n    /* \"#utility.yul\":568:690   */\ntag_12:\n    /* \"#utility.yul\":641:665   */\n  tag_22\n    /* \"#utility.yul\":659:664   */\n  dup2\n    /* \"#utility.yul\":641:665   */\n  tag_11\n  jump\t// in\ntag_22:\n    /* \"#utility.yul\":634:639   */\n  dup2\n    /* \"#utility.yul\":631:666   */\n  eq\n    /* \"#utility.yul\":621:684   */\n  tag_23\n  jumpi\n    /* \"#utility.yul\":680:681   */\n  0x00\n    /* \"#utility.yul\":677:678   */\n  dup1\n    /* \"#utility.yul\":670:682   */\n  revert\n    /* \"#utility.yul\":621:684   */\ntag_23:\n    /* \"#utility.yul\":568:690   */\n  pop\n  jump\t// out\n    /* \"#utility.yul\":696:839   */\ntag_13:\n    /* \"#utility.yul\":753:758   */\n  0x00\n    /* \"#utility.yul\":784:790   */\n  dup2\n    /* \"#utility.yul\":778:791   */\n  mload\n    /* \"#utility.yul\":769:791   */\n  swap1\n  pop\n    /* \"#utility.yul\":800:833   */\n  tag_25\n    /* \"#utility.yul\":827:832   */\n  dup2\n    /* \"#utility.yul\":800:833   */\n  tag_12\n  jump\t// in\ntag_25:\n    /* \"#utility.yul\":696:839   */\n  swap3\n  swap2\n  pop\n  pop\n  jump\t// out\n    /* \"#utility.yul\":845:1196   */\ntag_3:\n    /* \"#utility.yul\":915:921   */\n  0x00\n    /* \"#utility.yul\":964:966   */\n  0x20\n    /* \"#utility.yul\":952:961   */\n  dup3\n    /* \"#utility.yul\":943:950   */\n  dup5\n    /* \"#utility.yul\":939:962   */\n  sub\n    /* \"#utility.yul\":935:967   */\n  slt\n    /* \"#utility.yul\":932:1051   */\n  iszero\n  tag_27\n  jumpi\n    /* \"#utility.yul\":970:1049   */\n  tag_28\n  tag_8\n  jump\t// in\ntag_28:\n    /* \"#utility.yul\":932:1051   */\ntag_27:\n    /* \"#utility.yul\":1090:1091   */\n  0x00\n    /* \"#utility.yul\":1115:1179   */\n  tag_29\n    /* \"#utility.yul\":1171:1178   */\n  dup5\n    /* \"#utility.yul\":1162:1168   */\n  dup3\n    /* \"#utility.yul\":1151:1160   */\n  dup6\n    /* \"#utility.yul\":1147:1169   */\n  add\n    /* \"#utility.yul\":1115:1179   */\n  tag_13\n  jump\t// in\ntag_29:\n    /* \"#utility.yul\":1105:1179   */\n  swap2\n  pop\n    /* \"#utility.yul\":1061:1189   */\n  pop\n    /* \"#utility.yul\":845:1196   */\n  swap3\n  swap2\n  pop\n  pop\n  jump\t// out\n    /* \"contracts/Learn_103_48.sol\":58:648  contract TransparentProxy {... */\ntag_6:\n  dataSize(sub_0)\n  dup1\n  dataOffset(sub_0)\n  0x00\n  codecopy\n  0x00\n  return\nstop\n\nsub_0: assembly {\n        /* \"contracts/Learn_103_48.sol\":58:648  contract TransparentProxy {... */\n      mstore(0x40, 0x80)\n      jumpi(tag_1, lt(calldatasize, 0x04))\n      shr(0xe0, calldataload(0x00))\n      dup1\n      0x0900f010\n      eq\n      tag_3\n      jumpi\n      dup1\n      0xf2c31bd9\n      eq\n      tag_4\n      jumpi\n      jump(tag_2)\n    tag_1:\n      jumpi(tag_2, calldatasize)\n      stop\n    tag_2:\n        /* \"contracts/Learn_103_48.sol\":378:383  admin */\n      0x01\n      0x00\n      swap1\n      sload\n      swap1\n      0x0100\n      exp\n      swap1\n      div\n      0xffffffffffffffffffffffffffffffffffffffff\n      and\n        /* \"contracts/Learn_103_48.sol\":364:383  msg.sender != admin */\n      0xffffffffffffffffffffffffffffffffffffffff\n      and\n        /* \"contracts/Learn_103_48.sol\":364:374  msg.sender */\n      caller\n        /* \"contracts/Learn_103_48.sol\":364:383  msg.sender != admin */\n      0xffffffffffffffffffffffffffffffffffffffff\n      and\n      sub\n        /* \"contracts/Learn_103_48.sol\":356:403  require(msg.sender != admin, \"Cannot Be Admin\") */\n      tag_9\n      jumpi\n      mload(0x40)\n      0x08c379a000000000000000000000000000000000000000000000000000000000\n      dup2\n      mstore\n      0x04\n      add\n      tag_10\n      swap1\n      tag_11\n      jump\t// in\n    tag_10:\n      mload(0x40)\n      dup1\n      swap2\n      sub\n      swap1\n      revert\n    tag_9:\n        /* \"contracts/Learn_103_48.sol\":414:426  bool success */\n      0x00\n        /* \"contracts/Learn_103_48.sol\":428:445  bytes memory data */\n      dup1\n        /* \"contracts/Learn_103_48.sol\":449:463  implementation */\n      0x00\n      dup1\n      sload\n      swap1\n      0x0100\n      exp\n      swap1\n      div\n      0xffffffffffffffffffffffffffffffffffffffff\n      and\n        /* \"contracts/Learn_103_48.sol\":449:476  implementation.delegatecall */\n      0xffffffffffffffffffffffffffffffffffffffff\n      and\n        /* \"contracts/Learn_103_48.sol\":477:485  msg.data */\n      0x00\n      calldatasize\n        /* \"contracts/Learn_103_48.sol\":449:486  implementation.delegatecall(msg.data) */\n      mload(0x40)\n      tag_12\n      swap3\n      swap2\n      swap1\n      tag_13\n      jump\t// in\n    tag_12:\n      0x00\n      mload(0x40)\n      dup1\n      dup4\n      sub\n      dup2\n      dup6\n      gas\n      delegatecall\n      swap2\n      pop\n      pop\n      returndatasize\n      dup1\n      0x00\n      dup2\n      eq\n      tag_16\n      jumpi\n      mload(0x40)\n      swap2\n      pop\n      and(add(returndatasize, 0x3f), not(0x1f))\n      dup3\n      add\n      0x40\n      mstore\n      returndatasize\n      dup3\n      mstore\n      returndatasize\n      0x00\n      0x20\n      dup5\n      add\n      returndatacopy\n      jump(tag_15)\n    tag_16:\n      0x60\n      swap2\n      pop\n    tag_15:\n      stop\n        /* \"contracts/Learn_103_48.sol\":499:646  function upgrade(address newImplementation) external {... */\n    tag_3:\n      callvalue\n      dup1\n      iszero\n      tag_17\n      jumpi\n      0x00\n      dup1\n      revert\n    tag_17:\n      pop\n      tag_18\n      0x04\n      dup1\n      calldatasize\n      sub\n      dup2\n      add\n      swap1\n      tag_19\n      swap2\n      swap1\n      tag_20\n      jump\t// in\n    tag_19:\n      tag_21\n      jump\t// in\n    tag_18:\n      stop\n        /* \"contracts/Learn_103_48.sol\":137:156  string public words */\n    tag_4:\n      callvalue\n      dup1\n      iszero\n      tag_22\n      jumpi\n      0x00\n      dup1\n      revert\n    tag_22:\n      pop\n      tag_23\n      tag_24\n      jump\t// in\n    tag_23:\n      mload(0x40)\n      tag_25\n      swap2\n      swap1\n      tag_26\n      jump\t// in\n    tag_25:\n      mload(0x40)\n      dup1\n      swap2\n      sub\n      swap1\n      return\n        /* \"contracts/Learn_103_48.sol\":499:646  function upgrade(address newImplementation) external {... */\n    tag_21:\n        /* \"contracts/Learn_103_48.sol\":580:585  admin */\n      0x01\n      0x00\n      swap1\n      sload\n      swap1\n      0x0100\n      exp\n      swap1\n      div\n      0xffffffffffffffffffffffffffffffffffffffff\n      and\n        /* \"contracts/Learn_103_48.sol\":566:585  msg.sender != admin */\n      0xffffffffffffffffffffffffffffffffffffffff\n      and\n        /* \"contracts/Learn_103_48.sol\":566:576  msg.sender */\n      caller\n        /* \"contracts/Learn_103_48.sol\":566:585  msg.sender != admin */\n      0xffffffffffffffffffffffffffffffffffffffff\n      and\n      eq\n        /* \"contracts/Learn_103_48.sol\":562:595  if (msg.sender != admin) revert() */\n      tag_28\n      jumpi\n        /* \"contracts/Learn_103_48.sol\":587:595  revert() */\n      0x00\n      dup1\n      revert\n        /* \"contracts/Learn_103_48.sol\":562:595  if (msg.sender != admin) revert() */\n    tag_28:\n        /* \"contracts/Learn_103_48.sol\":622:639  newImplementation */\n      dup1\n        /* \"contracts/Learn_103_48.sol\":605:619  implementation */\n      0x00\n      dup1\n        /* \"contracts/Learn_103_48.sol\":605:639  implementation = newImplementation */\n      0x0100\n      exp\n      dup2\n      sload\n      dup2\n      0xffffffffffffffffffffffffffffffffffffffff\n      mul\n      not\n      and\n      swap1\n      dup4\n      0xffffffffffffffffffffffffffffffffffffffff\n      and\n      mul\n      or\n      swap1\n      sstore\n      pop\n        /* \"contracts/Learn_103_48.sol\":499:646  function upgrade(address newImplementation) external {... */\n      pop\n      jump\t// out\n        /* \"contracts/Learn_103_48.sol\":137:156  string public words */\n    tag_24:\n      0x02\n      dup1\n      sload\n      tag_29\n      swap1\n      tag_30\n      jump\t// in\n    tag_29:\n      dup1\n      0x1f\n      add\n      0x20\n      dup1\n      swap2\n      div\n      mul\n      0x20\n      add\n      mload(0x40)\n      swap1\n      dup2\n      add\n      0x40\n      mstore\n      dup1\n      swap3\n      swap2\n      swap1\n      dup2\n      dup2\n      mstore\n      0x20\n      add\n      dup3\n      dup1\n      sload\n      tag_31\n      swap1\n      tag_30\n      jump\t// in\n    tag_31:\n      dup1\n      iszero\n      tag_32\n      jumpi\n      dup1\n      0x1f\n      lt\n      tag_33\n      jumpi\n      0x0100\n      dup1\n      dup4\n      sload\n      div\n      mul\n      dup4\n      mstore\n      swap2\n      0x20\n      add\n      swap2\n      jump(tag_32)\n    tag_33:\n      dup3\n      add\n      swap2\n      swap1\n      0x00\n      mstore\n      keccak256(0x00, 0x20)\n      swap1\n    tag_34:\n      dup2\n      sload\n      dup2\n      mstore\n      swap1\n      0x01\n      add\n      swap1\n      0x20\n      add\n      dup1\n      dup4\n      gt\n      tag_34\n      jumpi\n      dup3\n      swap1\n      sub\n      0x1f\n      and\n      dup3\n      add\n      swap2\n    tag_32:\n      pop\n      pop\n      pop\n      pop\n      pop\n      dup2\n      jump\t// out\n        /* \"#utility.yul\":7:176   */\n    tag_35:\n        /* \"#utility.yul\":91:102   */\n      0x00\n        /* \"#utility.yul\":125:131   */\n      dup3\n        /* \"#utility.yul\":120:123   */\n      dup3\n        /* \"#utility.yul\":113:132   */\n      mstore\n        /* \"#utility.yul\":165:169   */\n      0x20\n        /* \"#utility.yul\":160:163   */\n      dup3\n        /* \"#utility.yul\":156:170   */\n      add\n        /* \"#utility.yul\":141:170   */\n      swap1\n      pop\n        /* \"#utility.yul\":7:176   */\n      swap3\n      swap2\n      pop\n      pop\n      jump\t// out\n        /* \"#utility.yul\":182:347   */\n    tag_36:\n        /* \"#utility.yul\":322:339   */\n      0x43616e6e6f742042652041646d696e0000000000000000000000000000000000\n        /* \"#utility.yul\":318:319   */\n      0x00\n        /* \"#utility.yul\":310:316   */\n      dup3\n        /* \"#utility.yul\":306:320   */\n      add\n        /* \"#utility.yul\":299:340   */\n      mstore\n        /* \"#utility.yul\":182:347   */\n      pop\n      jump\t// out\n        /* \"#utility.yul\":353:719   */\n    tag_37:\n        /* \"#utility.yul\":495:498   */\n      0x00\n        /* \"#utility.yul\":516:583   */\n      tag_57\n        /* \"#utility.yul\":580:582   */\n      0x0f\n        /* \"#utility.yul\":575:578   */\n      dup4\n        /* \"#utility.yul\":516:583   */\n      tag_35\n      jump\t// in\n    tag_57:\n        /* \"#utility.yul\":509:583   */\n      swap2\n      pop\n        /* \"#utility.yul\":592:685   */\n      tag_58\n        /* \"#utility.yul\":681:684   */\n      dup3\n        /* \"#utility.yul\":592:685   */\n      tag_36\n      jump\t// in\n    tag_58:\n        /* \"#utility.yul\":710:712   */\n      0x20\n        /* \"#utility.yul\":705:708   */\n      dup3\n        /* \"#utility.yul\":701:713   */\n      add\n        /* \"#utility.yul\":694:713   */\n      swap1\n      pop\n        /* \"#utility.yul\":353:719   */\n      swap2\n      swap1\n      pop\n      jump\t// out\n        /* \"#utility.yul\":725:1144   */\n    tag_11:\n        /* \"#utility.yul\":891:895   */\n      0x00\n        /* \"#utility.yul\":929:931   */\n      0x20\n        /* \"#utility.yul\":918:927   */\n      dup3\n        /* \"#utility.yul\":914:932   */\n      add\n        /* \"#utility.yul\":906:932   */\n      swap1\n      pop\n        /* \"#utility.yul\":978:987   */\n      dup2\n        /* \"#utility.yul\":972:976   */\n      dup2\n        /* \"#utility.yul\":968:988   */\n      sub\n        /* \"#utility.yul\":964:965   */\n      0x00\n        /* \"#utility.yul\":953:962   */\n      dup4\n        /* \"#utility.yul\":949:966   */\n      add\n        /* \"#utility.yul\":942:989   */\n      mstore\n        /* \"#utility.yul\":1006:1137   */\n      tag_60\n        /* \"#utility.yul\":1132:1136   */\n      dup2\n        /* \"#utility.yul\":1006:1137   */\n      tag_37\n      jump\t// in\n    tag_60:\n        /* \"#utility.yul\":998:1137   */\n      swap1\n      pop\n        /* \"#utility.yul\":725:1144   */\n      swap2\n      swap1\n      pop\n      jump\t// out\n        /* \"#utility.yul\":1150:1297   */\n    tag_38:\n        /* \"#utility.yul\":1251:1262   */\n      0x00\n        /* \"#utility.yul\":1288:1291   */\n      dup2\n        /* \"#utility.yul\":1273:1291   */\n      swap1\n      pop\n        /* \"#utility.yul\":1150:1297   */\n      swap3\n      swap2\n      pop\n      pop\n      jump\t// out\n        /* \"#utility.yul\":1303:1451   */\n    tag_39:\n        /* \"#utility.yul\":1401:1407   */\n      dup3\n        /* \"#utility.yul\":1396:1399   */\n      dup2\n        /* \"#utility.yul\":1391:1394   */\n      dup4\n        /* \"#utility.yul\":1378:1408   */\n      calldatacopy\n        /* \"#utility.yul\":1442:1443   */\n      0x00\n        /* \"#utility.yul\":1433:1439   */\n      dup4\n        /* \"#utility.yul\":1428:1431   */\n      dup4\n        /* \"#utility.yul\":1424:1440   */\n      add\n        /* \"#utility.yul\":1417:1444   */\n      mstore\n        /* \"#utility.yul\":1303:1451   */\n      pop\n      pop\n      pop\n      jump\t// out\n        /* \"#utility.yul\":1479:1806   */\n    tag_40:\n        /* \"#utility.yul\":1593:1596   */\n      0x00\n        /* \"#utility.yul\":1614:1702   */\n      tag_64\n        /* \"#utility.yul\":1695:1701   */\n      dup4\n        /* \"#utility.yul\":1690:1693   */\n      dup6\n        /* \"#utility.yul\":1614:1702   */\n      tag_38\n      jump\t// in\n    tag_64:\n        /* \"#utility.yul\":1607:1702   */\n      swap4\n      pop\n        /* \"#utility.yul\":1712:1768   */\n      tag_65\n        /* \"#utility.yul\":1761:1767   */\n      dup4\n        /* \"#utility.yul\":1756:1759   */\n      dup6\n        /* \"#utility.yul\":1749:1754   */\n      dup5\n        /* \"#utility.yul\":1712:1768   */\n      tag_39\n      jump\t// in\n    tag_65:\n        /* \"#utility.yul\":1793:1799   */\n      dup3\n        /* \"#utility.yul\":1788:1791   */\n      dup5\n        /* \"#utility.yul\":1784:1800   */\n      add\n        /* \"#utility.yul\":1777:1800   */\n      swap1\n      pop\n        /* \"#utility.yul\":1479:1806   */\n      swap4\n      swap3\n      pop\n      pop\n      pop\n      jump\t// out\n        /* \"#utility.yul\":1812:2103   */\n    tag_13:\n        /* \"#utility.yul\":1952:1955   */\n      0x00\n        /* \"#utility.yul\":1974:2077   */\n      tag_67\n        /* \"#utility.yul\":2073:2076   */\n      dup3\n        /* \"#utility.yul\":2064:2070   */\n      dup5\n        /* \"#utility.yul\":2056:2062   */\n      dup7\n        /* \"#utility.yul\":1974:2077   */\n      tag_40\n      jump\t// in\n    tag_67:\n        /* \"#utility.yul\":1967:2077   */\n      swap2\n      pop\n        /* \"#utility.yul\":2094:2097   */\n      dup2\n        /* \"#utility.yul\":2087:2097   */\n      swap1\n      pop\n        /* \"#utility.yul\":1812:2103   */\n      swap4\n      swap3\n      pop\n      pop\n      pop\n      jump\t// out\n        /* \"#utility.yul\":2190:2307   */\n    tag_42:\n        /* \"#utility.yul\":2299:2300   */\n      0x00\n        /* \"#utility.yul\":2296:2297   */\n      dup1\n        /* \"#utility.yul\":2289:2301   */\n      revert\n        /* \"#utility.yul\":2436:2562   */\n    tag_44:\n        /* \"#utility.yul\":2473:2480   */\n      0x00\n        /* \"#utility.yul\":2513:2555   */\n      0xffffffffffffffffffffffffffffffffffffffff\n        /* \"#utility.yul\":2506:2511   */\n      dup3\n        /* \"#utility.yul\":2502:2556   */\n      and\n        /* \"#utility.yul\":2491:2556   */\n      swap1\n      pop\n        /* \"#utility.yul\":2436:2562   */\n      swap2\n      swap1\n      pop\n      jump\t// out\n        /* \"#utility.yul\":2568:2664   */\n    tag_45:\n        /* \"#utility.yul\":2605:2612   */\n      0x00\n        /* \"#utility.yul\":2634:2658   */\n      tag_73\n        /* \"#utility.yul\":2652:2657   */\n      dup3\n        /* \"#utility.yul\":2634:2658   */\n      tag_44\n      jump\t// in\n    tag_73:\n        /* \"#utility.yul\":2623:2658   */\n      swap1\n      pop\n        /* \"#utility.yul\":2568:2664   */\n      swap2\n      swap1\n      pop\n      jump\t// out\n        /* \"#utility.yul\":2670:2792   */\n    tag_46:\n        /* \"#utility.yul\":2743:2767   */\n      tag_75\n        /* \"#utility.yul\":2761:2766   */\n      dup2\n        /* \"#utility.yul\":2743:2767   */\n      tag_45\n      jump\t// in\n    tag_75:\n        /* \"#utility.yul\":2736:2741   */\n      dup2\n        /* \"#utility.yul\":2733:2768   */\n      eq\n        /* \"#utility.yul\":2723:2786   */\n      tag_76\n      jumpi\n        /* \"#utility.yul\":2782:2783   */\n      0x00\n        /* \"#utility.yul\":2779:2780   */\n      dup1\n        /* \"#utility.yul\":2772:2784   */\n      revert\n        /* \"#utility.yul\":2723:2786   */\n    tag_76:\n        /* \"#utility.yul\":2670:2792   */\n      pop\n      jump\t// out\n        /* \"#utility.yul\":2798:2937   */\n    tag_47:\n        /* \"#utility.yul\":2844:2849   */\n      0x00\n        /* \"#utility.yul\":2882:2888   */\n      dup2\n        /* \"#utility.yul\":2869:2889   */\n      calldataload\n        /* \"#utility.yul\":2860:2889   */\n      swap1\n      pop\n        /* \"#utility.yul\":2898:2931   */\n      tag_78\n        /* \"#utility.yul\":2925:2930   */\n      dup2\n        /* \"#utility.yul\":2898:2931   */\n      tag_46\n      jump\t// in\n    tag_78:\n        /* \"#utility.yul\":2798:2937   */\n      swap3\n      swap2\n      pop\n      pop\n      jump\t// out\n        /* \"#utility.yul\":2943:3272   */\n    tag_20:\n        /* \"#utility.yul\":3002:3008   */\n      0x00\n        /* \"#utility.yul\":3051:3053   */\n      0x20\n        /* \"#utility.yul\":3039:3048   */\n      dup3\n        /* \"#utility.yul\":3030:3037   */\n      dup5\n        /* \"#utility.yul\":3026:3049   */\n      sub\n        /* \"#utility.yul\":3022:3054   */\n      slt\n        /* \"#utility.yul\":3019:3138   */\n      iszero\n      tag_80\n      jumpi\n        /* \"#utility.yul\":3057:3136   */\n      tag_81\n      tag_42\n      jump\t// in\n    tag_81:\n        /* \"#utility.yul\":3019:3138   */\n    tag_80:\n        /* \"#utility.yul\":3177:3178   */\n      0x00\n        /* \"#utility.yul\":3202:3255   */\n      tag_82\n        /* \"#utility.yul\":3247:3254   */\n      dup5\n        /* \"#utility.yul\":3238:3244   */\n      dup3\n        /* \"#utility.yul\":3227:3236   */\n      dup6\n        /* \"#utility.yul\":3223:3245   */\n      add\n        /* \"#utility.yul\":3202:3255   */\n      tag_47\n      jump\t// in\n    tag_82:\n        /* \"#utility.yul\":3192:3255   */\n      swap2\n      pop\n        /* \"#utility.yul\":3148:3265   */\n      pop\n        /* \"#utility.yul\":2943:3272   */\n      swap3\n      swap2\n      pop\n      pop\n      jump\t// out\n        /* \"#utility.yul\":3278:3377   */\n    tag_48:\n        /* \"#utility.yul\":3330:3336   */\n      0x00\n        /* \"#utility.yul\":3364:3369   */\n      dup2\n        /* \"#utility.yul\":3358:3370   */\n      mload\n        /* \"#utility.yul\":3348:3370   */\n      swap1\n      pop\n        /* \"#utility.yul\":3278:3377   */\n      swap2\n      swap1\n      pop\n      jump\t// out\n        /* \"#utility.yul\":3383:3522   */\n    tag_49:\n        /* \"#utility.yul\":3472:3478   */\n      dup3\n        /* \"#utility.yul\":3467:3470   */\n      dup2\n        /* \"#utility.yul\":3462:3465   */\n      dup4\n        /* \"#utility.yul\":3456:3479   */\n      mcopy\n        /* \"#utility.yul\":3513:3514   */\n      0x00\n        /* \"#utility.yul\":3504:3510   */\n      dup4\n        /* \"#utility.yul\":3499:3502   */\n      dup4\n        /* \"#utility.yul\":3495:3511   */\n      add\n        /* \"#utility.yul\":3488:3515   */\n      mstore\n        /* \"#utility.yul\":3383:3522   */\n      pop\n      pop\n      pop\n      jump\t// out\n        /* \"#utility.yul\":3528:3630   */\n    tag_50:\n        /* \"#utility.yul\":3569:3575   */\n      0x00\n        /* \"#utility.yul\":3620:3622   */\n      0x1f\n        /* \"#utility.yul\":3616:3623   */\n      not\n        /* \"#utility.yul\":3611:3613   */\n      0x1f\n        /* \"#utility.yul\":3604:3609   */\n      dup4\n        /* \"#utility.yul\":3600:3614   */\n      add\n        /* \"#utility.yul\":3596:3624   */\n      and\n        /* \"#utility.yul\":3586:3624   */\n      swap1\n      pop\n        /* \"#utility.yul\":3528:3630   */\n      swap2\n      swap1\n      pop\n      jump\t// out\n        /* \"#utility.yul\":3636:4013   */\n    tag_51:\n        /* \"#utility.yul\":3724:3727   */\n      0x00\n        /* \"#utility.yul\":3752:3791   */\n      tag_87\n        /* \"#utility.yul\":3785:3790   */\n      dup3\n        /* \"#utility.yul\":3752:3791   */\n      tag_48\n      jump\t// in\n    tag_87:\n        /* \"#utility.yul\":3807:3878   */\n      tag_88\n        /* \"#utility.yul\":3871:3877   */\n      dup2\n        /* \"#utility.yul\":3866:3869   */\n      dup6\n        /* \"#utility.yul\":3807:3878   */\n      tag_35\n      jump\t// in\n    tag_88:\n        /* \"#utility.yul\":3800:3878   */\n      swap4\n      pop\n        /* \"#utility.yul\":3887:3952   */\n      tag_89\n        /* \"#utility.yul\":3945:3951   */\n      dup2\n        /* \"#utility.yul\":3940:3943   */\n      dup6\n        /* \"#utility.yul\":3933:3937   */\n      0x20\n        /* \"#utility.yul\":3926:3931   */\n      dup7\n        /* \"#utility.yul\":3922:3938   */\n      add\n        /* \"#utility.yul\":3887:3952   */\n      tag_49\n      jump\t// in\n    tag_89:\n        /* \"#utility.yul\":3977:4006   */\n      tag_90\n        /* \"#utility.yul\":3999:4005   */\n      dup2\n        /* \"#utility.yul\":3977:4006   */\n      tag_50\n      jump\t// in\n    tag_90:\n        /* \"#utility.yul\":3972:3975   */\n      dup5\n        /* \"#utility.yul\":3968:4007   */\n      add\n        /* \"#utility.yul\":3961:4007   */\n      swap2\n      pop\n        /* \"#utility.yul\":3728:4013   */\n      pop\n        /* \"#utility.yul\":3636:4013   */\n      swap3\n      swap2\n      pop\n      pop\n      jump\t// out\n        /* \"#utility.yul\":4019:4332   */\n    tag_26:\n        /* \"#utility.yul\":4132:4136   */\n      0x00\n        /* \"#utility.yul\":4170:4172   */\n      0x20\n        /* \"#utility.yul\":4159:4168   */\n      dup3\n        /* \"#utility.yul\":4155:4173   */\n      add\n        /* \"#utility.yul\":4147:4173   */\n      swap1\n      pop\n        /* \"#utility.yul\":4219:4228   */\n      dup2\n        /* \"#utility.yul\":4213:4217   */\n      dup2\n        /* \"#utility.yul\":4209:4229   */\n      sub\n        /* \"#utility.yul\":4205:4206   */\n      0x00\n        /* \"#utility.yul\":4194:4203   */\n      dup4\n        /* \"#utility.yul\":4190:4207   */\n      add\n        /* \"#utility.yul\":4183:4230   */\n      mstore\n        /* \"#utility.yul\":4247:4325   */\n      tag_92\n        /* \"#utility.yul\":4320:4324   */\n      dup2\n        /* \"#utility.yul\":4311:4317   */\n      dup5\n        /* \"#utility.yul\":4247:4325   */\n      tag_51\n      jump\t// in\n    tag_92:\n        /* \"#utility.yul\":4239:4325   */\n      swap1\n      pop\n        /* \"#utility.yul\":4019:4332   */\n      swap3\n      swap2\n      pop\n      pop\n      jump\t// out\n        /* \"#utility.yul\":4338:4518   */\n    tag_52:\n        /* \"#utility.yul\":4386:4463   */\n      0x4e487b7100000000000000000000000000000000000000000000000000000000\n        /* \"#utility.yul\":4383:4384   */\n      0x00\n        /* \"#utility.yul\":4376:4464   */\n      mstore\n        /* \"#utility.yul\":4483:4487   */\n      0x22\n        /* \"#utility.yul\":4480:4481   */\n      0x04\n        /* \"#utility.yul\":4473:4488   */\n      mstore\n        /* \"#utility.yul\":4507:4511   */\n      0x24\n        /* \"#utility.yul\":4504:4505   */\n      0x00\n        /* \"#utility.yul\":4497:4512   */\n      revert\n        /* \"#utility.yul\":4524:4844   */\n    tag_30:\n        /* \"#utility.yul\":4568:4574   */\n      0x00\n        /* \"#utility.yul\":4605:4606   */\n      0x02\n        /* \"#utility.yul\":4599:4603   */\n      dup3\n        /* \"#utility.yul\":4595:4607   */\n      div\n        /* \"#utility.yul\":4585:4607   */\n      swap1\n      pop\n        /* \"#utility.yul\":4652:4653   */\n      0x01\n        /* \"#utility.yul\":4646:4650   */\n      dup3\n        /* \"#utility.yul\":4642:4654   */\n      and\n        /* \"#utility.yul\":4673:4691   */\n      dup1\n        /* \"#utility.yul\":4663:4744   */\n      tag_95\n      jumpi\n        /* \"#utility.yul\":4729:4733   */\n      0x7f\n        /* \"#utility.yul\":4721:4727   */\n      dup3\n        /* \"#utility.yul\":4717:4734   */\n      and\n        /* \"#utility.yul\":4707:4734   */\n      swap2\n      pop\n        /* \"#utility.yul\":4663:4744   */\n    tag_95:\n        /* \"#utility.yul\":4791:4793   */\n      0x20\n        /* \"#utility.yul\":4783:4789   */\n      dup3\n        /* \"#utility.yul\":4780:4794   */\n      lt\n        /* \"#utility.yul\":4760:4778   */\n      dup2\n        /* \"#utility.yul\":4757:4795   */\n      sub\n        /* \"#utility.yul\":4754:4838   */\n      tag_96\n      jumpi\n        /* \"#utility.yul\":4810:4828   */\n      tag_97\n      tag_52\n      jump\t// in\n    tag_97:\n        /* \"#utility.yul\":4754:4838   */\n    tag_96:\n        /* \"#utility.yul\":4575:4844   */\n      pop\n        /* \"#utility.yul\":4524:4844   */\n      swap2\n      swap1\n      pop\n      jump\t// out\n\n    auxdata: 0xa26469706673582212206039394af01b1177d2c89c6276f380b87038c91401371ed004c41ec68b9564bf64736f6c634300081a0033\n}\n",
				"bytecode": {
					"linkReferences": {},
					"object": "608060405234801561000f575f80fd5b5060405161067538038061067583398181016040528101906100319190610114565b3360015f6101000a81548173ffffffffffffffffffffffffffffffffffffffff021916908373ffffffffffffffffffffffffffffffffffffffff160217905550805f806101000a81548173ffffffffffffffffffffffffffffffffffffffff021916908373ffffffffffffffffffffffffffffffffffffffff1602179055505061013f565b5f80fd5b5f73ffffffffffffffffffffffffffffffffffffffff82169050919050565b5f6100e3826100ba565b9050919050565b6100f3816100d9565b81146100fd575f80fd5b50565b5f8151905061010e816100ea565b92915050565b5f60208284031215610129576101286100b6565b5b5f61013684828501610100565b91505092915050565b6105298061014c5f395ff3fe60806040526004361061002c575f3560e01c80630900f01014610149578063f2c31bd91461017157610033565b3661003357005b60015f9054906101000a900473ffffffffffffffffffffffffffffffffffffffff1673ffffffffffffffffffffffffffffffffffffffff163373ffffffffffffffffffffffffffffffffffffffff16036100c2576040517f08c379a00000000000000000000000000000000000000000000000000000000081526004016100b99061031b565b60405180910390fd5b5f805f8054906101000a900473ffffffffffffffffffffffffffffffffffffffff1673ffffffffffffffffffffffffffffffffffffffff165f3660405161010a929190610375565b5f60405180830381855af49150503d805f8114610142576040519150601f19603f3d011682016040523d82523d5f602084013e610147565b606091505b005b348015610154575f80fd5b5061016f600480360381019061016a91906103eb565b61019b565b005b34801561017c575f80fd5b50610185610235565b6040516101929190610476565b60405180910390f35b60015f9054906101000a900473ffffffffffffffffffffffffffffffffffffffff1673ffffffffffffffffffffffffffffffffffffffff163373ffffffffffffffffffffffffffffffffffffffff16146101f3575f80fd5b805f806101000a81548173ffffffffffffffffffffffffffffffffffffffff021916908373ffffffffffffffffffffffffffffffffffffffff16021790555050565b60028054610242906104c3565b80601f016020809104026020016040519081016040528092919081815260200182805461026e906104c3565b80156102b95780601f10610290576101008083540402835291602001916102b9565b820191905f5260205f20905b81548152906001019060200180831161029c57829003601f168201915b505050505081565b5f82825260208201905092915050565b7f43616e6e6f742042652041646d696e00000000000000000000000000000000005f82015250565b5f610305600f836102c1565b9150610310826102d1565b602082019050919050565b5f6020820190508181035f830152610332816102f9565b9050919050565b5f81905092915050565b828183375f83830152505050565b5f61035c8385610339565b9350610369838584610343565b82840190509392505050565b5f610381828486610351565b91508190509392505050565b5f80fd5b5f73ffffffffffffffffffffffffffffffffffffffff82169050919050565b5f6103ba82610391565b9050919050565b6103ca816103b0565b81146103d4575f80fd5b50565b5f813590506103e5816103c1565b92915050565b5f60208284031215610400576103ff61038d565b5b5f61040d848285016103d7565b91505092915050565b5f81519050919050565b8281835e5f83830152505050565b5f601f19601f8301169050919050565b5f61044882610416565b61045281856102c1565b9350610462818560208601610420565b61046b8161042e565b840191505092915050565b5f6020820190508181035f83015261048e818461043e565b905092915050565b7f4e487b71000000000000000000000000000000000000000000000000000000005f52602260045260245ffd5b5f60028204905060018216806104da57607f821691505b6020821081036104ed576104ec610496565b5b5091905056fea26469706673582212206039394af01b1177d2c89c6276f380b87038c91401371ed004c41ec68b9564bf64736f6c634300081a0033",
					"opcodes": "PUSH1 0x80 PUSH1 0x40 MSTORE CALLVALUE DUP1 ISZERO PUSH2 0xF JUMPI PUSH0 DUP1 REVERT JUMPDEST POP PUSH1 0x40 MLOAD PUSH2 0x675 CODESIZE SUB DUP1 PUSH2 0x675 DUP4 CODECOPY DUP2 DUP2 ADD PUSH1 0x40 MSTORE DUP2 ADD SWAP1 PUSH2 0x31 SWAP2 SWAP1 PUSH2 0x114 JUMP JUMPDEST CALLER PUSH1 0x1 PUSH0 PUSH2 0x100 EXP DUP2 SLOAD DUP2 PUSH20 0xFFFFFFFFFFFFFFFFFFFFFFFFFFFFFFFFFFFFFFFF MUL NOT AND SWAP1 DUP4 PUSH20 0xFFFFFFFFFFFFFFFFFFFFFFFFFFFFFFFFFFFFFFFF AND MUL OR SWAP1 SSTORE POP DUP1 PUSH0 DUP1 PUSH2 0x100 EXP DUP2 SLOAD DUP2 PUSH20 0xFFFFFFFFFFFFFFFFFFFFFFFFFFFFFFFFFFFFFFFF MUL NOT AND SWAP1 DUP4 PUSH20 0xFFFFFFFFFFFFFFFFFFFFFFFFFFFFFFFFFFFFFFFF AND MUL OR SWAP1 SSTORE POP POP PUSH2 0x13F JUMP JUMPDEST PUSH0 DUP1 REVERT JUMPDEST PUSH0 PUSH20 0xFFFFFFFFFFFFFFFFFFFFFFFFFFFFFFFFFFFFFFFF DUP3 AND SWAP1 POP SWAP2 SWAP1 POP JUMP JUMPDEST PUSH0 PUSH2 0xE3 DUP3 PUSH2 0xBA JUMP JUMPDEST SWAP1 POP SWAP2 SWAP1 POP JUMP JUMPDEST PUSH2 0xF3 DUP2 PUSH2 0xD9 JUMP JUMPDEST DUP2 EQ PUSH2 0xFD JUMPI PUSH0 DUP1 REVERT JUMPDEST POP JUMP JUMPDEST PUSH0 DUP2 MLOAD SWAP1 POP PUSH2 0x10E DUP2 PUSH2 0xEA JUMP JUMPDEST SWAP3 SWAP2 POP POP JUMP JUMPDEST PUSH0 PUSH1 0x20 DUP3 DUP5 SUB SLT ISZERO PUSH2 0x129 JUMPI PUSH2 0x128 PUSH2 0xB6 JUMP JUMPDEST JUMPDEST PUSH0 PUSH2 0x136 DUP5 DUP3 DUP6 ADD PUSH2 0x100 JUMP JUMPDEST SWAP2 POP POP SWAP3 SWAP2 POP POP JUMP JUMPDEST PUSH2 0x529 DUP1 PUSH2 0x14C PUSH0 CODECOPY PUSH0 RETURN INVALID PUSH1 0x80 PUSH1 0x40 MSTORE PUSH1 0x4 CALLDATASIZE LT PUSH2 0x2C JUMPI PUSH0 CALLDATALOAD PUSH1 0xE0 SHR DUP1 PUSH4 0x900F010 EQ PUSH2 0x149 JUMPI DUP1 PUSH4 0xF2C31BD9 EQ PUSH2 0x171 JUMPI PUSH2 0x33 JUMP JUMPDEST CALLDATASIZE PUSH2 0x33 JUMPI STOP JUMPDEST PUSH1 0x1 PUSH0 SWAP1 SLOAD SWAP1 PUSH2 0x100 EXP SWAP1 DIV PUSH20 0xFFFFFFFFFFFFFFFFFFFFFFFFFFFFFFFFFFFFFFFF AND PUSH20 0xFFFFFFFFFFFFFFFFFFFFFFFFFFFFFFFFFFFFFFFF AND CALLER PUSH20 0xFFFFFFFFFFFFFFFFFFFFFFFFFFFFFFFFFFFFFFFF AND SUB PUSH2 0xC2 JUMPI PUSH1 0x40 MLOAD PUSH32 0x8C379A000000000000000000000000000000000000000000000000000000000 DUP2 MSTORE PUSH1 0x4 ADD PUSH2 0xB9 SWAP1 PUSH2 0x31B JUMP JUMPDEST PUSH1 0x40 MLOAD DUP1 SWAP2 SUB SWAP1 REVERT JUMPDEST PUSH0 DUP1 PUSH0 DUP1 SLOAD SWAP1 PUSH2 0x100 EXP SWAP1 DIV PUSH20 0xFFFFFFFFFFFFFFFFFFFFFFFFFFFFFFFFFFFFFFFF AND PUSH20 0xFFFFFFFFFFFFFFFFFFFFFFFFFFFFFFFFFFFFFFFF AND PUSH0 CALLDATASIZE PUSH1 0x40 MLOAD PUSH2 0x10A SWAP3 SWAP2 SWAP1 PUSH2 0x375 JUMP JUMPDEST PUSH0 PUSH1 0x40 MLOAD DUP1 DUP4 SUB DUP2 DUP6 GAS DELEGATECALL SWAP2 POP POP RETURNDATASIZE DUP1 PUSH0 DUP2 EQ PUSH2 0x142 JUMPI PUSH1 0x40 MLOAD SWAP2 POP PUSH1 0x1F NOT PUSH1 0x3F RETURNDATASIZE ADD AND DUP3 ADD PUSH1 0x40 MSTORE RETURNDATASIZE DUP3 MSTORE RETURNDATASIZE PUSH0 PUSH1 0x20 DUP5 ADD RETURNDATACOPY PUSH2 0x147 JUMP JUMPDEST PUSH1 0x60 SWAP2 POP JUMPDEST STOP JUMPDEST CALLVALUE DUP1 ISZERO PUSH2 0x154 JUMPI PUSH0 DUP1 REVERT JUMPDEST POP PUSH2 0x16F PUSH1 0x4 DUP1 CALLDATASIZE SUB DUP2 ADD SWAP1 PUSH2 0x16A SWAP2 SWAP1 PUSH2 0x3EB JUMP JUMPDEST PUSH2 0x19B JUMP JUMPDEST STOP JUMPDEST CALLVALUE DUP1 ISZERO PUSH2 0x17C JUMPI PUSH0 DUP1 REVERT JUMPDEST POP PUSH2 0x185 PUSH2 0x235 JUMP JUMPDEST PUSH1 0x40 MLOAD PUSH2 0x192 SWAP2 SWAP1 PUSH2 0x476 JUMP JUMPDEST PUSH1 0x40 MLOAD DUP1 SWAP2 SUB SWAP1 RETURN JUMPDEST PUSH1 0x1 PUSH0 SWAP1 SLOAD SWAP1 PUSH2 0x100 EXP SWAP1 DIV PUSH20 0xFFFFFFFFFFFFFFFFFFFFFFFFFFFFFFFFFFFFFFFF AND PUSH20 0xFFFFFFFFFFFFFFFFFFFFFFFFFFFFFFFFFFFFFFFF AND CALLER PUSH20 0xFFFFFFFFFFFFFFFFFFFFFFFFFFFFFFFFFFFFFFFF AND EQ PUSH2 0x1F3 JUMPI PUSH0 DUP1 REVERT JUMPDEST DUP1 PUSH0 DUP1 PUSH2 0x100 EXP DUP2 SLOAD DUP2 PUSH20 0xFFFFFFFFFFFFFFFFFFFFFFFFFFFFFFFFFFFFFFFF MUL NOT AND SWAP1 DUP4 PUSH20 0xFFFFFFFFFFFFFFFFFFFFFFFFFFFFFFFFFFFFFFFF AND MUL OR SWAP1 SSTORE POP POP JUMP JUMPDEST PUSH1 0x2 DUP1 SLOAD PUSH2 0x242 SWAP1 PUSH2 0x4C3 JUMP JUMPDEST DUP1 PUSH1 0x1F ADD PUSH1 0x20 DUP1 SWAP2 DIV MUL PUSH1 0x20 ADD PUSH1 0x40 MLOAD SWAP1 DUP2 ADD PUSH1 0x40 MSTORE DUP1 SWAP3 SWAP2 SWAP1 DUP2 DUP2 MSTORE PUSH1 0x20 ADD DUP3 DUP1 SLOAD PUSH2 0x26E SWAP1 PUSH2 0x4C3 JUMP JUMPDEST DUP1 ISZERO PUSH2 0x2B9 JUMPI DUP1 PUSH1 0x1F LT PUSH2 0x290 JUMPI PUSH2 0x100 DUP1 DUP4 SLOAD DIV MUL DUP4 MSTORE SWAP2 PUSH1 0x20 ADD SWAP2 PUSH2 0x2B9 JUMP JUMPDEST DUP3 ADD SWAP2 SWAP1 PUSH0 MSTORE PUSH1 0x20 PUSH0 KECCAK256 SWAP1 JUMPDEST DUP2 SLOAD DUP2 MSTORE SWAP1 PUSH1 0x1 ADD SWAP1 PUSH1 0x20 ADD DUP1 DUP4 GT PUSH2 0x29C JUMPI DUP3 SWAP1 SUB PUSH1 0x1F AND DUP3 ADD SWAP2 JUMPDEST POP POP POP POP POP DUP2 JUMP JUMPDEST PUSH0 DUP3 DUP3 MSTORE PUSH1 0x20 DUP3 ADD SWAP1 POP SWAP3 SWAP2 POP POP JUMP JUMPDEST PUSH32 0x43616E6E6F742042652041646D696E0000000000000000000000000000000000 PUSH0 DUP3 ADD MSTORE POP JUMP JUMPDEST PUSH0 PUSH2 0x305 PUSH1 0xF DUP4 PUSH2 0x2C1 JUMP JUMPDEST SWAP2 POP PUSH2 0x310 DUP3 PUSH2 0x2D1 JUMP JUMPDEST PUSH1 0x20 DUP3 ADD SWAP1 POP SWAP2 SWAP1 POP JUMP JUMPDEST PUSH0 PUSH1 0x20 DUP3 ADD SWAP1 POP DUP2 DUP2 SUB PUSH0 DUP4 ADD MSTORE PUSH2 0x332 DUP2 PUSH2 0x2F9 JUMP JUMPDEST SWAP1 POP SWAP2 SWAP1 POP JUMP JUMPDEST PUSH0 DUP2 SWAP1 POP SWAP3 SWAP2 POP POP JUMP JUMPDEST DUP3 DUP2 DUP4 CALLDATACOPY PUSH0 DUP4 DUP4 ADD MSTORE POP POP POP JUMP JUMPDEST PUSH0 PUSH2 0x35C DUP4 DUP6 PUSH2 0x339 JUMP JUMPDEST SWAP4 POP PUSH2 0x369 DUP4 DUP6 DUP5 PUSH2 0x343 JUMP JUMPDEST DUP3 DUP5 ADD SWAP1 POP SWAP4 SWAP3 POP POP POP JUMP JUMPDEST PUSH0 PUSH2 0x381 DUP3 DUP5 DUP7 PUSH2 0x351 JUMP JUMPDEST SWAP2 POP DUP2 SWAP1 POP SWAP4 SWAP3 POP POP POP JUMP JUMPDEST PUSH0 DUP1 REVERT JUMPDEST PUSH0 PUSH20 0xFFFFFFFFFFFFFFFFFFFFFFFFFFFFFFFFFFFFFFFF DUP3 AND SWAP1 POP SWAP2 SWAP1 POP JUMP JUMPDEST PUSH0 PUSH2 0x3BA DUP3 PUSH2 0x391 JUMP JUMPDEST SWAP1 POP SWAP2 SWAP1 POP JUMP JUMPDEST PUSH2 0x3CA DUP2 PUSH2 0x3B0 JUMP JUMPDEST DUP2 EQ PUSH2 0x3D4 JUMPI PUSH0 DUP1 REVERT JUMPDEST POP JUMP JUMPDEST PUSH0 DUP2 CALLDATALOAD SWAP1 POP PUSH2 0x3E5 DUP2 PUSH2 0x3C1 JUMP JUMPDEST SWAP3 SWAP2 POP POP JUMP JUMPDEST PUSH0 PUSH1 0x20 DUP3 DUP5 SUB SLT ISZERO PUSH2 0x400 JUMPI PUSH2 0x3FF PUSH2 0x38D JUMP JUMPDEST JUMPDEST PUSH0 PUSH2 0x40D DUP5 DUP3 DUP6 ADD PUSH2 0x3D7 JUMP JUMPDEST SWAP2 POP POP SWAP3 SWAP2 POP POP JUMP JUMPDEST PUSH0 DUP2 MLOAD SWAP1 POP SWAP2 SWAP1 POP JUMP JUMPDEST DUP3 DUP2 DUP4 MCOPY PUSH0 DUP4 DUP4 ADD MSTORE POP POP POP JUMP JUMPDEST PUSH0 PUSH1 0x1F NOT PUSH1 0x1F DUP4 ADD AND SWAP1 POP SWAP2 SWAP1 POP JUMP JUMPDEST PUSH0 PUSH2 0x448 DUP3 PUSH2 0x416 JUMP JUMPDEST PUSH2 0x452 DUP2 DUP6 PUSH2 0x2C1 JUMP JUMPDEST SWAP4 POP PUSH2 0x462 DUP2 DUP6 PUSH1 0x20 DUP7 ADD PUSH2 0x420 JUMP JUMPDEST PUSH2 0x46B DUP2 PUSH2 0x42E JUMP JUMPDEST DUP5 ADD SWAP2 POP POP SWAP3 SWAP2 POP POP JUMP JUMPDEST PUSH0 PUSH1 0x20 DUP3 ADD SWAP1 POP DUP2 DUP2 SUB PUSH0 DUP4 ADD MSTORE PUSH2 0x48E DUP2 DUP5 PUSH2 0x43E JUMP JUMPDEST SWAP1 POP SWAP3 SWAP2 POP POP JUMP JUMPDEST PUSH32 0x4E487B7100000000000000000000000000000000000000000000000000000000 PUSH0 MSTORE PUSH1 0x22 PUSH1 0x4 MSTORE PUSH1 0x24 PUSH0 REVERT JUMPDEST PUSH0 PUSH1 0x2 DUP3 DIV SWAP1 POP PUSH1 0x1 DUP3 AND DUP1 PUSH2 0x4DA JUMPI PUSH1 0x7F DUP3 AND SWAP2 POP JUMPDEST PUSH1 0x20 DUP3 LT DUP2 SUB PUSH2 0x4ED JUMPI PUSH2 0x4EC PUSH2 0x496 JUMP JUMPDEST JUMPDEST POP SWAP2 SWAP1 POP JUMP INVALID LOG2 PUSH5 0x6970667358 0x22 SLT KECCAK256 PUSH1 0x39 CODECOPY BLOBBASEFEE CREATE SHL GT PUSH24 0xD2C89C6276F380B87038C91401371ED004C41EC68B9564BF PUSH5 0x736F6C6343 STOP ADDMOD BYTE STOP CALLER "
				},
				"gasEstimates": {
					"creation": {
						"codeDepositCost": "264200",
						"executionCost": "infinite",
						"totalCost": "infinite"
					},
					"external": {
						"": "infinite",
						"upgrade(address)": "26862",
						"words()": "infinite"
					}
				},
				"methodIdentifiers": {
					"upgrade(address)": "0900f010",
					"words()": "f2c31bd9"
				}
			},
			"storageLayout": {
				"storage": [
					{
						"astId": 3,
						"contract": "contracts/Learn_103_48.sol:TransparentProxy",
						"label": "implementation",
						"offset": 0,
						"slot": "0",
						"type": "t_address"
					},
					{
						"astId": 5,
						"contract": "contracts/Learn_103_48.sol:TransparentProxy",
						"label": "admin",
						"offset": 0,
						"slot": "1",
						"type": "t_address"
					},
					{
						"astId": 7,
						"contract": "contracts/Learn_103_48.sol:TransparentProxy",
						"label": "words",
						"offset": 0,
						"slot": "2",
						"type": "t_string_storage"
					}
				],
				"types": {
					"t_address": {
						"encoding": "inplace",
						"label": "address",
						"numberOfBytes": "20"
					},
					"t_string_storage": {
						"encoding": "bytes",
						"label": "string",
						"numberOfBytes": "32"
					}
				}
			},
			"userdoc": {
				"kind": "user",
				"methods": {},
				"version": 1
			}
		}
	}
}