{
	"contracts/Learn_101_10.sol": {
		"ControlFlow": {
			"abi": [
				{
					"inputs": [
						{
							"internalType": "uint256[]",
							"name": "arr",
							"type": "uint256[]"
						}
					],
					"name": "bubbleSort",
					"outputs": [
						{
							"internalType": "uint256[]",
							"name": "",
							"type": "uint256[]"
						}
					],
					"stateMutability": "pure",
					"type": "function"
				},
				{
					"inputs": [],
					"name": "doWhileTest",
					"outputs": [
						{
							"internalType": "uint256",
							"name": "",
							"type": "uint256"
						}
					],
					"stateMutability": "pure",
					"type": "function"
				},
				{
					"inputs": [],
					"name": "forLoopTest",
					"outputs": [
						{
							"internalType": "uint256",
							"name": "",
							"type": "uint256"
						}
					],
					"stateMutability": "pure",
					"type": "function"
				},
				{
					"inputs": [
						{
							"internalType": "uint256",
							"name": "_number",
							"type": "uint256"
						}
					],
					"name": "ifElseTest",
					"outputs": [
						{
							"internalType": "bool",
							"name": "",
							"type": "bool"
						}
					],
					"stateMutability": "pure",
					"type": "function"
				},
				{
					"inputs": [
						{
							"internalType": "uint256[]",
							"name": "arr",
							"type": "uint256[]"
						}
					],
					"name": "insertSort",
					"outputs": [
						{
							"internalType": "uint256[]",
							"name": "",
							"type": "uint256[]"
						}
					],
					"stateMutability": "pure",
					"type": "function"
				},
				{
					"inputs": [
						{
							"internalType": "uint256[]",
							"name": "arr",
							"type": "uint256[]"
						}
					],
					"name": "quickSort",
					"outputs": [
						{
							"internalType": "uint256[]",
							"name": "",
							"type": "uint256[]"
						}
					],
					"stateMutability": "pure",
					"type": "function"
				},
				{
					"inputs": [
						{
							"internalType": "uint256",
							"name": "x",
							"type": "uint256"
						},
						{
							"internalType": "uint256",
							"name": "y",
							"type": "uint256"
						}
					],
					"name": "ternaryTest",
					"outputs": [
						{
							"internalType": "uint256",
							"name": "",
							"type": "uint256"
						}
					],
					"stateMutability": "pure",
					"type": "function"
				},
				{
					"inputs": [],
					"name": "whileTest",
					"outputs": [
						{
							"internalType": "uint256",
							"name": "",
							"type": "uint256"
						}
					],
					"stateMutability": "pure",
					"type": "function"
				}
			],
			"devdoc": {
				"kind": "dev",
				"methods": {},
				"version": 1
			},
			"evm": {
				"assembly": "    /* \"contracts/Learn_101_10.sol\":58:3656  contract ControlFlow {... */\n  mstore(0x40, 0x80)\n  callvalue\n  dup1\n  iszero\n  tag_1\n  jumpi\n  0x00\n  dup1\n  revert\ntag_1:\n  pop\n  dataSize(sub_0)\n  dup1\n  dataOffset(sub_0)\n  0x00\n  codecopy\n  0x00\n  return\nstop\n\nsub_0: assembly {\n        /* \"contracts/Learn_101_10.sol\":58:3656  contract ControlFlow {... */\n      mstore(0x40, 0x80)\n      callvalue\n      dup1\n      iszero\n      tag_1\n      jumpi\n      0x00\n      dup1\n      revert\n    tag_1:\n      pop\n      jumpi(tag_2, lt(calldatasize, 0x04))\n      shr(0xe0, calldataload(0x00))\n      dup1\n      0xaa1cf79c\n      gt\n      tag_11\n      jumpi\n      dup1\n      0xaa1cf79c\n      eq\n      tag_7\n      jumpi\n      dup1\n      0xb0cfa9fc\n      eq\n      tag_8\n      jumpi\n      dup1\n      0xb23d97f2\n      eq\n      tag_9\n      jumpi\n      dup1\n      0xe30c36f1\n      eq\n      tag_10\n      jumpi\n      jump(tag_2)\n    tag_11:\n      dup1\n      0x28766320\n      eq\n      tag_3\n      jumpi\n      dup1\n      0x2bbacaaa\n      eq\n      tag_4\n      jumpi\n      dup1\n      0x5d14639d\n      eq\n      tag_5\n      jumpi\n      dup1\n      0x7141fb00\n      eq\n      tag_6\n      jumpi\n    tag_2:\n      0x00\n      dup1\n      revert\n        /* \"contracts/Learn_101_10.sol\":878:988  function ternaryTest(uint256 x, uint256 y) public pure returns(uint256) {... */\n    tag_3:\n      tag_12\n      0x04\n      dup1\n      calldatasize\n      sub\n      dup2\n      add\n      swap1\n      tag_13\n      swap2\n      swap1\n      tag_14\n      jump\t// in\n    tag_13:\n      tag_15\n      jump\t// in\n    tag_12:\n      mload(0x40)\n      tag_16\n      swap2\n      swap1\n      tag_17\n      jump\t// in\n    tag_16:\n      mload(0x40)\n      dup1\n      swap2\n      sub\n      swap1\n      return\n        /* \"contracts/Learn_101_10.sol\":668:872  function doWhileTest() public pure returns (uint256) {... */\n    tag_4:\n      tag_18\n      tag_19\n      jump\t// in\n    tag_18:\n      mload(0x40)\n      tag_20\n      swap2\n      swap1\n      tag_17\n      jump\t// in\n    tag_20:\n      mload(0x40)\n      dup1\n      swap2\n      sub\n      swap1\n      return\n        /* \"contracts/Learn_101_10.sol\":464:662  function whileTest() public pure returns (uint256) {... */\n    tag_5:\n      tag_21\n      tag_22\n      jump\t// in\n    tag_21:\n      mload(0x40)\n      tag_23\n      swap2\n      swap1\n      tag_17\n      jump\t// in\n    tag_23:\n      mload(0x40)\n      dup1\n      swap2\n      sub\n      swap1\n      return\n        /* \"contracts/Learn_101_10.sol\":85:265  function ifElseTest(uint256 _number) public pure returns(bool) {... */\n    tag_6:\n      tag_24\n      0x04\n      dup1\n      calldatasize\n      sub\n      dup2\n      add\n      swap1\n      tag_25\n      swap2\n      swap1\n      tag_26\n      jump\t// in\n    tag_25:\n      tag_27\n      jump\t// in\n    tag_24:\n      mload(0x40)\n      tag_28\n      swap2\n      swap1\n      tag_29\n      jump\t// in\n    tag_28:\n      mload(0x40)\n      dup1\n      swap2\n      sub\n      swap1\n      return\n        /* \"contracts/Learn_101_10.sol\":994:1110  function quickSort (uint[] memory arr) external pure returns (uint[] memory) {... */\n    tag_7:\n      tag_30\n      0x04\n      dup1\n      calldatasize\n      sub\n      dup2\n      add\n      swap1\n      tag_31\n      swap2\n      swap1\n      tag_32\n      jump\t// in\n    tag_31:\n      tag_33\n      jump\t// in\n    tag_30:\n      mload(0x40)\n      tag_34\n      swap2\n      swap1\n      tag_35\n      jump\t// in\n    tag_34:\n      mload(0x40)\n      dup1\n      swap2\n      sub\n      swap1\n      return\n        /* \"contracts/Learn_101_10.sol\":271:458  function forLoopTest() public pure returns (uint256) {... */\n    tag_8:\n      tag_36\n      tag_37\n      jump\t// in\n    tag_36:\n      mload(0x40)\n      tag_38\n      swap2\n      swap1\n      tag_17\n      jump\t// in\n    tag_38:\n      mload(0x40)\n      dup1\n      swap2\n      sub\n      swap1\n      return\n        /* \"contracts/Learn_101_10.sol\":3283:3654  function insertSort(uint[] memory arr) external pure returns(uint[] memory) {... */\n    tag_9:\n      tag_39\n      0x04\n      dup1\n      calldatasize\n      sub\n      dup2\n      add\n      swap1\n      tag_40\n      swap2\n      swap1\n      tag_32\n      jump\t// in\n    tag_40:\n      tag_41\n      jump\t// in\n    tag_39:\n      mload(0x40)\n      tag_42\n      swap2\n      swap1\n      tag_35\n      jump\t// in\n    tag_42:\n      mload(0x40)\n      dup1\n      swap2\n      sub\n      swap1\n      return\n        /* \"contracts/Learn_101_10.sol\":2817:3277  function bubbleSort(uint[] memory arr) external pure returns(uint[] memory) {... */\n    tag_10:\n      tag_43\n      0x04\n      dup1\n      calldatasize\n      sub\n      dup2\n      add\n      swap1\n      tag_44\n      swap2\n      swap1\n      tag_32\n      jump\t// in\n    tag_44:\n      tag_45\n      jump\t// in\n    tag_43:\n      mload(0x40)\n      tag_46\n      swap2\n      swap1\n      tag_35\n      jump\t// in\n    tag_46:\n      mload(0x40)\n      dup1\n      swap2\n      sub\n      swap1\n      return\n        /* \"contracts/Learn_101_10.sol\":878:988  function ternaryTest(uint256 x, uint256 y) public pure returns(uint256) {... */\n    tag_15:\n        /* \"contracts/Learn_101_10.sol\":941:948  uint256 */\n      0x00\n        /* \"contracts/Learn_101_10.sol\":972:973  y */\n      dup2\n        /* \"contracts/Learn_101_10.sol\":967:968  x */\n      dup4\n        /* \"contracts/Learn_101_10.sol\":967:973  x >= y */\n      lt\n      iszero\n        /* \"contracts/Learn_101_10.sol\":967:981  x >= y ? x : y */\n      tag_48\n      jumpi\n        /* \"contracts/Learn_101_10.sol\":980:981  y */\n      dup2\n        /* \"contracts/Learn_101_10.sol\":967:981  x >= y ? x : y */\n      jump(tag_49)\n    tag_48:\n        /* \"contracts/Learn_101_10.sol\":976:977  x */\n      dup3\n        /* \"contracts/Learn_101_10.sol\":967:981  x >= y ? x : y */\n    tag_49:\n        /* \"contracts/Learn_101_10.sol\":960:981  return x >= y ? x : y */\n      swap1\n      pop\n        /* \"contracts/Learn_101_10.sol\":878:988  function ternaryTest(uint256 x, uint256 y) public pure returns(uint256) {... */\n      swap3\n      swap2\n      pop\n      pop\n      jump\t// out\n        /* \"contracts/Learn_101_10.sol\":668:872  function doWhileTest() public pure returns (uint256) {... */\n    tag_19:\n        /* \"contracts/Learn_101_10.sol\":712:719  uint256 */\n      0x00\n        /* \"contracts/Learn_101_10.sol\":731:739  uint sum */\n      dup1\n        /* \"contracts/Learn_101_10.sol\":742:743  0 */\n      0x00\n        /* \"contracts/Learn_101_10.sol\":731:743  uint sum = 0 */\n      swap1\n      pop\n        /* \"contracts/Learn_101_10.sol\":753:759  uint i */\n      0x00\n        /* \"contracts/Learn_101_10.sol\":774:843  do {... */\n    tag_51:\n        /* \"contracts/Learn_101_10.sol\":798:799  i */\n      dup1\n        /* \"contracts/Learn_101_10.sol\":791:799  sum += i */\n      dup3\n      tag_54\n      swap2\n      swap1\n      tag_55\n      jump\t// in\n    tag_54:\n      swap2\n      pop\n        /* \"contracts/Learn_101_10.sol\":813:816  i++ */\n      dup1\n      dup1\n      tag_56\n      swap1\n      tag_57\n      jump\t// in\n    tag_56:\n      swap2\n      pop\n      pop\n        /* \"contracts/Learn_101_10.sol\":839:841  10 */\n      0x0a\n        /* \"contracts/Learn_101_10.sol\":835:836  i */\n      dup2\n        /* \"contracts/Learn_101_10.sol\":835:841  i < 10 */\n      lt\n        /* \"contracts/Learn_101_10.sol\":774:843  do {... */\n      tag_51\n      jumpi\n        /* \"contracts/Learn_101_10.sol\":861:864  sum */\n      dup2\n        /* \"contracts/Learn_101_10.sol\":853:865  return (sum) */\n      swap3\n      pop\n      pop\n      pop\n        /* \"contracts/Learn_101_10.sol\":668:872  function doWhileTest() public pure returns (uint256) {... */\n      swap1\n      jump\t// out\n        /* \"contracts/Learn_101_10.sol\":464:662  function whileTest() public pure returns (uint256) {... */\n    tag_22:\n        /* \"contracts/Learn_101_10.sol\":506:513  uint256 */\n      0x00\n        /* \"contracts/Learn_101_10.sol\":525:533  uint sum */\n      dup1\n        /* \"contracts/Learn_101_10.sol\":536:537  0 */\n      0x00\n        /* \"contracts/Learn_101_10.sol\":525:537  uint sum = 0 */\n      swap1\n      pop\n        /* \"contracts/Learn_101_10.sol\":547:553  uint i */\n      0x00\n        /* \"contracts/Learn_101_10.sol\":568:633  while (i < 10) {... */\n    tag_59:\n        /* \"contracts/Learn_101_10.sol\":579:581  10 */\n      0x0a\n        /* \"contracts/Learn_101_10.sol\":575:576  i */\n      dup2\n        /* \"contracts/Learn_101_10.sol\":575:581  i < 10 */\n      lt\n        /* \"contracts/Learn_101_10.sol\":568:633  while (i < 10) {... */\n      iszero\n      tag_60\n      jumpi\n        /* \"contracts/Learn_101_10.sol\":604:605  1 */\n      0x01\n        /* \"contracts/Learn_101_10.sol\":597:605  sum += 1 */\n      dup3\n      tag_61\n      swap2\n      swap1\n      tag_55\n      jump\t// in\n    tag_61:\n      swap2\n      pop\n        /* \"contracts/Learn_101_10.sol\":619:622  i++ */\n      dup1\n      dup1\n      tag_62\n      swap1\n      tag_57\n      jump\t// in\n    tag_62:\n      swap2\n      pop\n      pop\n        /* \"contracts/Learn_101_10.sol\":568:633  while (i < 10) {... */\n      jump(tag_59)\n    tag_60:\n        /* \"contracts/Learn_101_10.sol\":651:654  sum */\n      dup2\n        /* \"contracts/Learn_101_10.sol\":643:655  return (sum) */\n      swap3\n      pop\n      pop\n      pop\n        /* \"contracts/Learn_101_10.sol\":464:662  function whileTest() public pure returns (uint256) {... */\n      swap1\n      jump\t// out\n        /* \"contracts/Learn_101_10.sol\":85:265  function ifElseTest(uint256 _number) public pure returns(bool) {... */\n    tag_27:\n        /* \"contracts/Learn_101_10.sol\":142:146  bool */\n      0x00\n        /* \"contracts/Learn_101_10.sol\":173:174  0 */\n      dup1\n        /* \"contracts/Learn_101_10.sol\":162:169  _number */\n      dup3\n        /* \"contracts/Learn_101_10.sol\":162:174  _number == 0 */\n      sub\n        /* \"contracts/Learn_101_10.sol\":158:259  if (_number == 0) {... */\n      tag_64\n      jumpi\n        /* \"contracts/Learn_101_10.sol\":198:202  true */\n      0x01\n        /* \"contracts/Learn_101_10.sol\":190:203  return (true) */\n      swap1\n      pop\n      jump(tag_63)\n        /* \"contracts/Learn_101_10.sol\":158:259  if (_number == 0) {... */\n    tag_64:\n        /* \"contracts/Learn_101_10.sol\":242:247  false */\n      0x00\n        /* \"contracts/Learn_101_10.sol\":234:248  return (false) */\n      swap1\n      pop\n        /* \"contracts/Learn_101_10.sol\":85:265  function ifElseTest(uint256 _number) public pure returns(bool) {... */\n    tag_63:\n      swap2\n      swap1\n      pop\n      jump\t// out\n        /* \"contracts/Learn_101_10.sol\":994:1110  function quickSort (uint[] memory arr) external pure returns (uint[] memory) {... */\n    tag_33:\n        /* \"contracts/Learn_101_10.sol\":1056:1069  uint[] memory */\n      0x60\n        /* \"contracts/Learn_101_10.sol\":1088:1103  _quickSort(arr) */\n      tag_67\n        /* \"contracts/Learn_101_10.sol\":1099:1102  arr */\n      dup3\n        /* \"contracts/Learn_101_10.sol\":1088:1098  _quickSort */\n      tag_68\n        /* \"contracts/Learn_101_10.sol\":1088:1103  _quickSort(arr) */\n      jump\t// in\n    tag_67:\n        /* \"contracts/Learn_101_10.sol\":1081:1103  return _quickSort(arr) */\n      swap1\n      pop\n        /* \"contracts/Learn_101_10.sol\":994:1110  function quickSort (uint[] memory arr) external pure returns (uint[] memory) {... */\n      swap2\n      swap1\n      pop\n      jump\t// out\n        /* \"contracts/Learn_101_10.sol\":271:458  function forLoopTest() public pure returns (uint256) {... */\n    tag_37:\n        /* \"contracts/Learn_101_10.sol\":315:322  uint256 */\n      0x00\n        /* \"contracts/Learn_101_10.sol\":334:342  uint sum */\n      dup1\n        /* \"contracts/Learn_101_10.sol\":345:346  0 */\n      0x00\n        /* \"contracts/Learn_101_10.sol\":334:346  uint sum = 0 */\n      swap1\n      pop\n        /* \"contracts/Learn_101_10.sol\":362:368  uint i */\n      0x00\n        /* \"contracts/Learn_101_10.sol\":357:429  for (uint i = 0; i < 10; i++) ... */\n    tag_70:\n        /* \"contracts/Learn_101_10.sol\":378:380  10 */\n      0x0a\n        /* \"contracts/Learn_101_10.sol\":374:375  i */\n      dup2\n        /* \"contracts/Learn_101_10.sol\":374:380  i < 10 */\n      lt\n        /* \"contracts/Learn_101_10.sol\":357:429  for (uint i = 0; i < 10; i++) ... */\n      iszero\n      tag_71\n      jumpi\n        /* \"contracts/Learn_101_10.sol\":417:418  1 */\n      0x01\n        /* \"contracts/Learn_101_10.sol\":410:418  sum += 1 */\n      dup3\n      tag_73\n      swap2\n      swap1\n      tag_55\n      jump\t// in\n    tag_73:\n      swap2\n      pop\n        /* \"contracts/Learn_101_10.sol\":382:385  i++ */\n      dup1\n      dup1\n      0x01\n      add\n      swap2\n      pop\n      pop\n        /* \"contracts/Learn_101_10.sol\":357:429  for (uint i = 0; i < 10; i++) ... */\n      jump(tag_70)\n    tag_71:\n      pop\n        /* \"contracts/Learn_101_10.sol\":447:450  sum */\n      dup1\n        /* \"contracts/Learn_101_10.sol\":439:451  return (sum) */\n      swap2\n      pop\n      pop\n        /* \"contracts/Learn_101_10.sol\":271:458  function forLoopTest() public pure returns (uint256) {... */\n      swap1\n      jump\t// out\n        /* \"contracts/Learn_101_10.sol\":3283:3654  function insertSort(uint[] memory arr) external pure returns(uint[] memory) {... */\n    tag_41:\n        /* \"contracts/Learn_101_10.sol\":3344:3357  uint[] memory */\n      0x60\n        /* \"contracts/Learn_101_10.sol\":3374:3380  uint i */\n      0x00\n        /* \"contracts/Learn_101_10.sol\":3369:3627  for (uint i = 0; i < arr.length; i++) ... */\n    tag_75:\n        /* \"contracts/Learn_101_10.sol\":3390:3393  arr */\n      dup3\n        /* \"contracts/Learn_101_10.sol\":3390:3400  arr.length */\n      mload\n        /* \"contracts/Learn_101_10.sol\":3386:3387  i */\n      dup2\n        /* \"contracts/Learn_101_10.sol\":3386:3400  i < arr.length */\n      lt\n        /* \"contracts/Learn_101_10.sol\":3369:3627  for (uint i = 0; i < arr.length; i++) ... */\n      iszero\n      tag_76\n      jumpi\n        /* \"contracts/Learn_101_10.sol\":3430:3439  uint base */\n      0x00\n        /* \"contracts/Learn_101_10.sol\":3442:3445  arr */\n      dup4\n        /* \"contracts/Learn_101_10.sol\":3446:3447  i */\n      dup3\n        /* \"contracts/Learn_101_10.sol\":3442:3448  arr[i] */\n      dup2\n      mload\n      dup2\n      lt\n      tag_78\n      jumpi\n      tag_79\n      tag_80\n      jump\t// in\n    tag_79:\n    tag_78:\n      0x20\n      mul\n      0x20\n      add\n      add\n      mload\n        /* \"contracts/Learn_101_10.sol\":3430:3448  uint base = arr[i] */\n      swap1\n      pop\n        /* \"contracts/Learn_101_10.sol\":3462:3468  uint j */\n      0x00\n        /* \"contracts/Learn_101_10.sol\":3471:3472  i */\n      dup3\n        /* \"contracts/Learn_101_10.sol\":3462:3472  uint j = i */\n      swap1\n      pop\n        /* \"contracts/Learn_101_10.sol\":3486:3590  while(j >= 1 && base < arr[j-1]) {... */\n    tag_81:\n        /* \"contracts/Learn_101_10.sol\":3497:3498  1 */\n      0x01\n        /* \"contracts/Learn_101_10.sol\":3492:3493  j */\n      dup2\n        /* \"contracts/Learn_101_10.sol\":3492:3498  j >= 1 */\n      lt\n      iszero\n        /* \"contracts/Learn_101_10.sol\":3492:3517  j >= 1 && base < arr[j-1] */\n      dup1\n      iszero\n      tag_83\n      jumpi\n      pop\n        /* \"contracts/Learn_101_10.sol\":3509:3512  arr */\n      dup5\n        /* \"contracts/Learn_101_10.sol\":3515:3516  1 */\n      0x01\n        /* \"contracts/Learn_101_10.sol\":3513:3514  j */\n      dup3\n        /* \"contracts/Learn_101_10.sol\":3513:3516  j-1 */\n      tag_84\n      swap2\n      swap1\n      tag_85\n      jump\t// in\n    tag_84:\n        /* \"contracts/Learn_101_10.sol\":3509:3517  arr[j-1] */\n      dup2\n      mload\n      dup2\n      lt\n      tag_86\n      jumpi\n      tag_87\n      tag_80\n      jump\t// in\n    tag_87:\n    tag_86:\n      0x20\n      mul\n      0x20\n      add\n      add\n      mload\n        /* \"contracts/Learn_101_10.sol\":3502:3506  base */\n      dup3\n        /* \"contracts/Learn_101_10.sol\":3502:3517  base < arr[j-1] */\n      lt\n        /* \"contracts/Learn_101_10.sol\":3492:3517  j >= 1 && base < arr[j-1] */\n    tag_83:\n        /* \"contracts/Learn_101_10.sol\":3486:3590  while(j >= 1 && base < arr[j-1]) {... */\n      iszero\n      tag_82\n      jumpi\n        /* \"contracts/Learn_101_10.sol\":3546:3549  arr */\n      dup5\n        /* \"contracts/Learn_101_10.sol\":3552:3553  1 */\n      0x01\n        /* \"contracts/Learn_101_10.sol\":3550:3551  j */\n      dup3\n        /* \"contracts/Learn_101_10.sol\":3550:3553  j-1 */\n      tag_88\n      swap2\n      swap1\n      tag_85\n      jump\t// in\n    tag_88:\n        /* \"contracts/Learn_101_10.sol\":3546:3554  arr[j-1] */\n      dup2\n      mload\n      dup2\n      lt\n      tag_89\n      jumpi\n      tag_90\n      tag_80\n      jump\t// in\n    tag_90:\n    tag_89:\n      0x20\n      mul\n      0x20\n      add\n      add\n      mload\n        /* \"contracts/Learn_101_10.sol\":3537:3540  arr */\n      dup6\n        /* \"contracts/Learn_101_10.sol\":3541:3542  j */\n      dup3\n        /* \"contracts/Learn_101_10.sol\":3537:3543  arr[j] */\n      dup2\n      mload\n      dup2\n      lt\n      tag_91\n      jumpi\n      tag_92\n      tag_80\n      jump\t// in\n    tag_92:\n    tag_91:\n      0x20\n      mul\n      0x20\n      add\n      add\n        /* \"contracts/Learn_101_10.sol\":3537:3554  arr[j] = arr[j-1] */\n      dup2\n      dup2\n      mstore\n      pop\n      pop\n        /* \"contracts/Learn_101_10.sol\":3572:3575  j-- */\n      dup1\n      dup1\n      tag_93\n      swap1\n      tag_94\n      jump\t// in\n    tag_93:\n      swap2\n      pop\n      pop\n        /* \"contracts/Learn_101_10.sol\":3486:3590  while(j >= 1 && base < arr[j-1]) {... */\n      jump(tag_81)\n    tag_82:\n        /* \"contracts/Learn_101_10.sol\":3612:3616  base */\n      dup2\n        /* \"contracts/Learn_101_10.sol\":3603:3606  arr */\n      dup6\n        /* \"contracts/Learn_101_10.sol\":3607:3608  j */\n      dup3\n        /* \"contracts/Learn_101_10.sol\":3603:3609  arr[j] */\n      dup2\n      mload\n      dup2\n      lt\n      tag_95\n      jumpi\n      tag_96\n      tag_80\n      jump\t// in\n    tag_96:\n    tag_95:\n      0x20\n      mul\n      0x20\n      add\n      add\n        /* \"contracts/Learn_101_10.sol\":3603:3616  arr[j] = base */\n      dup2\n      dup2\n      mstore\n      pop\n      pop\n        /* \"contracts/Learn_101_10.sol\":3416:3627  {... */\n      pop\n      pop\n        /* \"contracts/Learn_101_10.sol\":3402:3405  i++ */\n      dup1\n      dup1\n      0x01\n      add\n      swap2\n      pop\n      pop\n        /* \"contracts/Learn_101_10.sol\":3369:3627  for (uint i = 0; i < arr.length; i++) ... */\n      jump(tag_75)\n    tag_76:\n      pop\n        /* \"contracts/Learn_101_10.sol\":3644:3647  arr */\n      dup2\n        /* \"contracts/Learn_101_10.sol\":3637:3647  return arr */\n      swap1\n      pop\n        /* \"contracts/Learn_101_10.sol\":3283:3654  function insertSort(uint[] memory arr) external pure returns(uint[] memory) {... */\n      swap2\n      swap1\n      pop\n      jump\t// out\n        /* \"contracts/Learn_101_10.sol\":2817:3277  function bubbleSort(uint[] memory arr) external pure returns(uint[] memory) {... */\n    tag_45:\n        /* \"contracts/Learn_101_10.sol\":2878:2891  uint[] memory */\n      0x60\n        /* \"contracts/Learn_101_10.sol\":2908:2914  uint i */\n      0x00\n        /* \"contracts/Learn_101_10.sol\":2903:3248  for (uint i = 0; i < arr.length; i++) ... */\n    tag_98:\n        /* \"contracts/Learn_101_10.sol\":2924:2927  arr */\n      dup3\n        /* \"contracts/Learn_101_10.sol\":2924:2934  arr.length */\n      mload\n        /* \"contracts/Learn_101_10.sol\":2920:2921  i */\n      dup2\n        /* \"contracts/Learn_101_10.sol\":2920:2934  i < arr.length */\n      lt\n        /* \"contracts/Learn_101_10.sol\":2903:3248  for (uint i = 0; i < arr.length; i++) ... */\n      iszero\n      tag_99\n      jumpi\n        /* \"contracts/Learn_101_10.sol\":2969:2975  uint j */\n      0x00\n        /* \"contracts/Learn_101_10.sol\":2982:2983  1 */\n      0x01\n        /* \"contracts/Learn_101_10.sol\":2978:2979  i */\n      dup3\n        /* \"contracts/Learn_101_10.sol\":2978:2983  i + 1 */\n      tag_104\n      swap2\n      swap1\n      tag_55\n      jump\t// in\n    tag_104:\n        /* \"contracts/Learn_101_10.sol\":2969:2983  uint j = i + 1 */\n      swap1\n      pop\n        /* \"contracts/Learn_101_10.sol\":2964:3238  for (uint j = i + 1; j < arr.length; j++) ... */\n    tag_101:\n        /* \"contracts/Learn_101_10.sol\":2989:2992  arr */\n      dup4\n        /* \"contracts/Learn_101_10.sol\":2989:2999  arr.length */\n      mload\n        /* \"contracts/Learn_101_10.sol\":2985:2986  j */\n      dup2\n        /* \"contracts/Learn_101_10.sol\":2985:2999  j < arr.length */\n      lt\n        /* \"contracts/Learn_101_10.sol\":2964:3238  for (uint j = i + 1; j < arr.length; j++) ... */\n      iszero\n      tag_102\n      jumpi\n        /* \"contracts/Learn_101_10.sol\":3037:3046  uint base */\n      0x00\n        /* \"contracts/Learn_101_10.sol\":3049:3052  arr */\n      dup5\n        /* \"contracts/Learn_101_10.sol\":3053:3054  i */\n      dup4\n        /* \"contracts/Learn_101_10.sol\":3049:3055  arr[i] */\n      dup2\n      mload\n      dup2\n      lt\n      tag_105\n      jumpi\n      tag_106\n      tag_80\n      jump\t// in\n    tag_106:\n    tag_105:\n      0x20\n      mul\n      0x20\n      add\n      add\n      mload\n        /* \"contracts/Learn_101_10.sol\":3037:3055  uint base = arr[i] */\n      swap1\n      pop\n        /* \"contracts/Learn_101_10.sol\":3073:3085  uint compare */\n      0x00\n        /* \"contracts/Learn_101_10.sol\":3088:3091  arr */\n      dup6\n        /* \"contracts/Learn_101_10.sol\":3092:3093  j */\n      dup4\n        /* \"contracts/Learn_101_10.sol\":3088:3094  arr[j] */\n      dup2\n      mload\n      dup2\n      lt\n      tag_107\n      jumpi\n      tag_108\n      tag_80\n      jump\t// in\n    tag_108:\n    tag_107:\n      0x20\n      mul\n      0x20\n      add\n      add\n      mload\n        /* \"contracts/Learn_101_10.sol\":3073:3094  uint compare = arr[j] */\n      swap1\n      pop\n        /* \"contracts/Learn_101_10.sol\":3123:3130  compare */\n      dup1\n        /* \"contracts/Learn_101_10.sol\":3116:3120  base */\n      dup3\n        /* \"contracts/Learn_101_10.sol\":3116:3130  base > compare */\n      gt\n        /* \"contracts/Learn_101_10.sol\":3112:3224  if (base > compare) {... */\n      iszero\n      tag_109\n      jumpi\n        /* \"contracts/Learn_101_10.sol\":3163:3167  base */\n      dup2\n        /* \"contracts/Learn_101_10.sol\":3154:3157  arr */\n      dup7\n        /* \"contracts/Learn_101_10.sol\":3158:3159  j */\n      dup5\n        /* \"contracts/Learn_101_10.sol\":3154:3160  arr[j] */\n      dup2\n      mload\n      dup2\n      lt\n      tag_110\n      jumpi\n      tag_111\n      tag_80\n      jump\t// in\n    tag_111:\n    tag_110:\n      0x20\n      mul\n      0x20\n      add\n      add\n        /* \"contracts/Learn_101_10.sol\":3154:3167  arr[j] = base */\n      dup2\n      dup2\n      mstore\n      pop\n      pop\n        /* \"contracts/Learn_101_10.sol\":3198:3205  compare */\n      dup1\n        /* \"contracts/Learn_101_10.sol\":3189:3192  arr */\n      dup7\n        /* \"contracts/Learn_101_10.sol\":3193:3194  i */\n      dup6\n        /* \"contracts/Learn_101_10.sol\":3189:3195  arr[i] */\n      dup2\n      mload\n      dup2\n      lt\n      tag_112\n      jumpi\n      tag_113\n      tag_80\n      jump\t// in\n    tag_113:\n    tag_112:\n      0x20\n      mul\n      0x20\n      add\n      add\n        /* \"contracts/Learn_101_10.sol\":3189:3205  arr[i] = compare */\n      dup2\n      dup2\n      mstore\n      pop\n      pop\n        /* \"contracts/Learn_101_10.sol\":3112:3224  if (base > compare) {... */\n    tag_109:\n        /* \"contracts/Learn_101_10.sol\":3019:3238  {... */\n      pop\n      pop\n        /* \"contracts/Learn_101_10.sol\":3001:3004  j++ */\n      dup1\n      dup1\n      0x01\n      add\n      swap2\n      pop\n      pop\n        /* \"contracts/Learn_101_10.sol\":2964:3238  for (uint j = i + 1; j < arr.length; j++) ... */\n      jump(tag_101)\n    tag_102:\n      pop\n        /* \"contracts/Learn_101_10.sol\":2936:2939  i++ */\n      dup1\n      dup1\n      0x01\n      add\n      swap2\n      pop\n      pop\n        /* \"contracts/Learn_101_10.sol\":2903:3248  for (uint i = 0; i < arr.length; i++) ... */\n      jump(tag_98)\n    tag_99:\n      pop\n        /* \"contracts/Learn_101_10.sol\":3266:3269  arr */\n      dup2\n        /* \"contracts/Learn_101_10.sol\":3258:3270  return (arr) */\n      swap1\n      pop\n        /* \"contracts/Learn_101_10.sol\":2817:3277  function bubbleSort(uint[] memory arr) external pure returns(uint[] memory) {... */\n      swap2\n      swap1\n      pop\n      jump\t// out\n        /* \"contracts/Learn_101_10.sol\":1116:2301  function _quickSort (uint[] memory arr) internal pure returns (uint[] memory) {... */\n    tag_68:\n        /* \"contracts/Learn_101_10.sol\":1179:1192  uint[] memory */\n      0x60\n        /* \"contracts/Learn_101_10.sol\":1222:1223  1 */\n      0x01\n        /* \"contracts/Learn_101_10.sol\":1208:1211  arr */\n      dup3\n        /* \"contracts/Learn_101_10.sol\":1208:1218  arr.length */\n      mload\n        /* \"contracts/Learn_101_10.sol\":1208:1223  arr.length <= 1 */\n      gt\n        /* \"contracts/Learn_101_10.sol\":1204:1235  if (arr.length <= 1) return arr */\n      tag_115\n      jumpi\n        /* \"contracts/Learn_101_10.sol\":1232:1235  arr */\n      dup2\n        /* \"contracts/Learn_101_10.sol\":1225:1235  return arr */\n      swap1\n      pop\n      jump(tag_114)\n        /* \"contracts/Learn_101_10.sol\":1204:1235  if (arr.length <= 1) return arr */\n    tag_115:\n        /* \"contracts/Learn_101_10.sol\":1245:1261  uint256 pivotInd */\n      0x00\n        /* \"contracts/Learn_101_10.sol\":1277:1278  2 */\n      0x02\n        /* \"contracts/Learn_101_10.sol\":1264:1267  arr */\n      dup4\n        /* \"contracts/Learn_101_10.sol\":1264:1274  arr.length */\n      mload\n        /* \"contracts/Learn_101_10.sol\":1264:1278  arr.length / 2 */\n      tag_116\n      swap2\n      swap1\n      tag_117\n      jump\t// in\n    tag_116:\n        /* \"contracts/Learn_101_10.sol\":1245:1278  uint256 pivotInd = arr.length / 2 */\n      swap1\n      pop\n        /* \"contracts/Learn_101_10.sol\":1288:1298  uint pivot */\n      0x00\n        /* \"contracts/Learn_101_10.sol\":1301:1304  arr */\n      dup4\n        /* \"contracts/Learn_101_10.sol\":1305:1313  pivotInd */\n      dup3\n        /* \"contracts/Learn_101_10.sol\":1301:1314  arr[pivotInd] */\n      dup2\n      mload\n      dup2\n      lt\n      tag_118\n      jumpi\n      tag_119\n      tag_80\n      jump\t// in\n    tag_119:\n    tag_118:\n      0x20\n      mul\n      0x20\n      add\n      add\n      mload\n        /* \"contracts/Learn_101_10.sol\":1288:1314  uint pivot = arr[pivotInd] */\n      swap1\n      pop\n        /* \"contracts/Learn_101_10.sol\":1325:1337  uint leftInd */\n      0x00\n        /* \"contracts/Learn_101_10.sol\":1351:1364  uint rightInd */\n      dup1\n        /* \"contracts/Learn_101_10.sol\":1378:1396  uint[] memory left */\n      0x00\n        /* \"contracts/Learn_101_10.sol\":1410:1413  arr */\n      dup7\n        /* \"contracts/Learn_101_10.sol\":1410:1420  arr.length */\n      mload\n        /* \"contracts/Learn_101_10.sol\":1399:1421  new uint[](arr.length) */\n      0xffffffffffffffff\n      dup2\n      gt\n      iszero\n      tag_120\n      jumpi\n      tag_121\n      tag_122\n      jump\t// in\n    tag_121:\n    tag_120:\n      mload(0x40)\n      swap1\n      dup1\n      dup3\n      mstore\n      dup1\n      0x20\n      mul\n      0x20\n      add\n      dup3\n      add\n      0x40\n      mstore\n      dup1\n      iszero\n      tag_123\n      jumpi\n      dup2\n      0x20\n      add\n      0x20\n      dup3\n      mul\n      dup1\n      calldatasize\n      dup4\n      calldatacopy\n      dup1\n      dup3\n      add\n      swap2\n      pop\n      pop\n      swap1\n      pop\n    tag_123:\n      pop\n        /* \"contracts/Learn_101_10.sol\":1378:1421  uint[] memory left = new uint[](arr.length) */\n      swap1\n      pop\n        /* \"contracts/Learn_101_10.sol\":1431:1450  uint[] memory right */\n      0x00\n        /* \"contracts/Learn_101_10.sol\":1464:1467  arr */\n      dup8\n        /* \"contracts/Learn_101_10.sol\":1464:1474  arr.length */\n      mload\n        /* \"contracts/Learn_101_10.sol\":1453:1475  new uint[](arr.length) */\n      0xffffffffffffffff\n      dup2\n      gt\n      iszero\n      tag_124\n      jumpi\n      tag_125\n      tag_122\n      jump\t// in\n    tag_125:\n    tag_124:\n      mload(0x40)\n      swap1\n      dup1\n      dup3\n      mstore\n      dup1\n      0x20\n      mul\n      0x20\n      add\n      dup3\n      add\n      0x40\n      mstore\n      dup1\n      iszero\n      tag_126\n      jumpi\n      dup2\n      0x20\n      add\n      0x20\n      dup3\n      mul\n      dup1\n      calldatasize\n      dup4\n      calldatacopy\n      dup1\n      dup3\n      add\n      swap2\n      pop\n      pop\n      swap1\n      pop\n    tag_126:\n      pop\n        /* \"contracts/Learn_101_10.sol\":1431:1475  uint[] memory right = new uint[](arr.length) */\n      swap1\n      pop\n        /* \"contracts/Learn_101_10.sol\":1491:1497  uint i */\n      0x00\n        /* \"contracts/Learn_101_10.sol\":1486:1791  for (uint i = 0; i < arr.length; i++) ... */\n    tag_127:\n        /* \"contracts/Learn_101_10.sol\":1507:1510  arr */\n      dup9\n        /* \"contracts/Learn_101_10.sol\":1507:1517  arr.length */\n      mload\n        /* \"contracts/Learn_101_10.sol\":1503:1504  i */\n      dup2\n        /* \"contracts/Learn_101_10.sol\":1503:1517  i < arr.length */\n      lt\n        /* \"contracts/Learn_101_10.sol\":1486:1791  for (uint i = 0; i < arr.length; i++) ... */\n      iszero\n      tag_128\n      jumpi\n        /* \"contracts/Learn_101_10.sol\":1563:1564  i */\n      dup1\n        /* \"contracts/Learn_101_10.sol\":1551:1559  pivotInd */\n      dup8\n        /* \"contracts/Learn_101_10.sol\":1551:1564  pivotInd == i */\n      sub\n        /* \"contracts/Learn_101_10.sol\":1547:1574  if (pivotInd == i) continue */\n      iszero\n        /* \"contracts/Learn_101_10.sol\":1566:1574  continue */\n      tag_129\n        /* \"contracts/Learn_101_10.sol\":1547:1574  if (pivotInd == i) continue */\n      jumpi\n        /* \"contracts/Learn_101_10.sol\":1601:1606  pivot */\n      dup6\n        /* \"contracts/Learn_101_10.sol\":1592:1595  arr */\n      dup10\n        /* \"contracts/Learn_101_10.sol\":1596:1597  i */\n      dup3\n        /* \"contracts/Learn_101_10.sol\":1592:1598  arr[i] */\n      dup2\n      mload\n      dup2\n      lt\n      tag_131\n      jumpi\n      tag_132\n      tag_80\n      jump\t// in\n    tag_132:\n    tag_131:\n      0x20\n      mul\n      0x20\n      add\n      add\n      mload\n        /* \"contracts/Learn_101_10.sol\":1592:1606  arr[i] < pivot */\n      lt\n        /* \"contracts/Learn_101_10.sol\":1588:1781  if (arr[i] < pivot) {... */\n      iszero\n      tag_133\n      jumpi\n        /* \"contracts/Learn_101_10.sol\":1642:1645  arr */\n      dup9\n        /* \"contracts/Learn_101_10.sol\":1646:1647  i */\n      dup2\n        /* \"contracts/Learn_101_10.sol\":1642:1648  arr[i] */\n      dup2\n      mload\n      dup2\n      lt\n      tag_134\n      jumpi\n      tag_135\n      tag_80\n      jump\t// in\n    tag_135:\n    tag_134:\n      0x20\n      mul\n      0x20\n      add\n      add\n      mload\n        /* \"contracts/Learn_101_10.sol\":1626:1630  left */\n      dup4\n        /* \"contracts/Learn_101_10.sol\":1631:1638  leftInd */\n      dup7\n        /* \"contracts/Learn_101_10.sol\":1626:1639  left[leftInd] */\n      dup2\n      mload\n      dup2\n      lt\n      tag_136\n      jumpi\n      tag_137\n      tag_80\n      jump\t// in\n    tag_137:\n    tag_136:\n      0x20\n      mul\n      0x20\n      add\n      add\n        /* \"contracts/Learn_101_10.sol\":1626:1648  left[leftInd] = arr[i] */\n      dup2\n      dup2\n      mstore\n      pop\n      pop\n        /* \"contracts/Learn_101_10.sol\":1666:1675  leftInd++ */\n      dup5\n      dup1\n      tag_138\n      swap1\n      tag_57\n      jump\t// in\n    tag_138:\n      swap6\n      pop\n      pop\n        /* \"contracts/Learn_101_10.sol\":1588:1781  if (arr[i] < pivot) {... */\n      jump(tag_139)\n    tag_133:\n        /* \"contracts/Learn_101_10.sol\":1732:1735  arr */\n      dup9\n        /* \"contracts/Learn_101_10.sol\":1736:1737  i */\n      dup2\n        /* \"contracts/Learn_101_10.sol\":1732:1738  arr[i] */\n      dup2\n      mload\n      dup2\n      lt\n      tag_140\n      jumpi\n      tag_141\n      tag_80\n      jump\t// in\n    tag_141:\n    tag_140:\n      0x20\n      mul\n      0x20\n      add\n      add\n      mload\n        /* \"contracts/Learn_101_10.sol\":1714:1719  right */\n      dup3\n        /* \"contracts/Learn_101_10.sol\":1720:1728  rightInd */\n      dup6\n        /* \"contracts/Learn_101_10.sol\":1714:1729  right[rightInd] */\n      dup2\n      mload\n      dup2\n      lt\n      tag_142\n      jumpi\n      tag_143\n      tag_80\n      jump\t// in\n    tag_143:\n    tag_142:\n      0x20\n      mul\n      0x20\n      add\n      add\n        /* \"contracts/Learn_101_10.sol\":1714:1738  right[rightInd] = arr[i] */\n      dup2\n      dup2\n      mstore\n      pop\n      pop\n        /* \"contracts/Learn_101_10.sol\":1756:1766  rightInd++ */\n      dup4\n      dup1\n      tag_144\n      swap1\n      tag_57\n      jump\t// in\n    tag_144:\n      swap5\n      pop\n      pop\n        /* \"contracts/Learn_101_10.sol\":1588:1781  if (arr[i] < pivot) {... */\n    tag_139:\n        /* \"contracts/Learn_101_10.sol\":1486:1791  for (uint i = 0; i < arr.length; i++) ... */\n    tag_129:\n        /* \"contracts/Learn_101_10.sol\":1519:1522  i++ */\n      dup1\n      dup1\n      0x01\n      add\n      swap2\n      pop\n      pop\n        /* \"contracts/Learn_101_10.sol\":1486:1791  for (uint i = 0; i < arr.length; i++) ... */\n      jump(tag_127)\n    tag_128:\n      pop\n        /* \"contracts/Learn_101_10.sol\":1801:1826  uint[] memory leftResized */\n      0x00\n        /* \"contracts/Learn_101_10.sol\":1840:1847  leftInd */\n      dup5\n        /* \"contracts/Learn_101_10.sol\":1829:1848  new uint[](leftInd) */\n      0xffffffffffffffff\n      dup2\n      gt\n      iszero\n      tag_145\n      jumpi\n      tag_146\n      tag_122\n      jump\t// in\n    tag_146:\n    tag_145:\n      mload(0x40)\n      swap1\n      dup1\n      dup3\n      mstore\n      dup1\n      0x20\n      mul\n      0x20\n      add\n      dup3\n      add\n      0x40\n      mstore\n      dup1\n      iszero\n      tag_147\n      jumpi\n      dup2\n      0x20\n      add\n      0x20\n      dup3\n      mul\n      dup1\n      calldatasize\n      dup4\n      calldatacopy\n      dup1\n      dup3\n      add\n      swap2\n      pop\n      pop\n      swap1\n      pop\n    tag_147:\n      pop\n        /* \"contracts/Learn_101_10.sol\":1801:1848  uint[] memory leftResized = new uint[](leftInd) */\n      swap1\n      pop\n        /* \"contracts/Learn_101_10.sol\":1858:1884  uint[] memory rightResized */\n      0x00\n        /* \"contracts/Learn_101_10.sol\":1898:1906  rightInd */\n      dup5\n        /* \"contracts/Learn_101_10.sol\":1887:1907  new uint[](rightInd) */\n      0xffffffffffffffff\n      dup2\n      gt\n      iszero\n      tag_148\n      jumpi\n      tag_149\n      tag_122\n      jump\t// in\n    tag_149:\n    tag_148:\n      mload(0x40)\n      swap1\n      dup1\n      dup3\n      mstore\n      dup1\n      0x20\n      mul\n      0x20\n      add\n      dup3\n      add\n      0x40\n      mstore\n      dup1\n      iszero\n      tag_150\n      jumpi\n      dup2\n      0x20\n      add\n      0x20\n      dup3\n      mul\n      dup1\n      calldatasize\n      dup4\n      calldatacopy\n      dup1\n      dup3\n      add\n      swap2\n      pop\n      pop\n      swap1\n      pop\n    tag_150:\n      pop\n        /* \"contracts/Learn_101_10.sol\":1858:1907  uint[] memory rightResized = new uint[](rightInd) */\n      swap1\n      pop\n        /* \"contracts/Learn_101_10.sol\":1922:1928  uint i */\n      0x00\n        /* \"contracts/Learn_101_10.sol\":1917:2010  for (uint i = 0; i < leftInd; i++) ... */\n    tag_151:\n        /* \"contracts/Learn_101_10.sol\":1938:1945  leftInd */\n      dup7\n        /* \"contracts/Learn_101_10.sol\":1934:1935  i */\n      dup2\n        /* \"contracts/Learn_101_10.sol\":1934:1945  i < leftInd */\n      lt\n        /* \"contracts/Learn_101_10.sol\":1917:2010  for (uint i = 0; i < leftInd; i++) ... */\n      iszero\n      tag_152\n      jumpi\n        /* \"contracts/Learn_101_10.sol\":1992:1996  left */\n      dup5\n        /* \"contracts/Learn_101_10.sol\":1997:1998  i */\n      dup2\n        /* \"contracts/Learn_101_10.sol\":1992:1999  left[i] */\n      dup2\n      mload\n      dup2\n      lt\n      tag_154\n      jumpi\n      tag_155\n      tag_80\n      jump\t// in\n    tag_155:\n    tag_154:\n      0x20\n      mul\n      0x20\n      add\n      add\n      mload\n        /* \"contracts/Learn_101_10.sol\":1975:1986  leftResized */\n      dup4\n        /* \"contracts/Learn_101_10.sol\":1987:1988  i */\n      dup3\n        /* \"contracts/Learn_101_10.sol\":1975:1989  leftResized[i] */\n      dup2\n      mload\n      dup2\n      lt\n      tag_156\n      jumpi\n      tag_157\n      tag_80\n      jump\t// in\n    tag_157:\n    tag_156:\n      0x20\n      mul\n      0x20\n      add\n      add\n        /* \"contracts/Learn_101_10.sol\":1975:1999  leftResized[i] = left[i] */\n      dup2\n      dup2\n      mstore\n      pop\n      pop\n        /* \"contracts/Learn_101_10.sol\":1947:1950  i++ */\n      dup1\n      dup1\n      0x01\n      add\n      swap2\n      pop\n      pop\n        /* \"contracts/Learn_101_10.sol\":1917:2010  for (uint i = 0; i < leftInd; i++) ... */\n      jump(tag_151)\n    tag_152:\n      pop\n        /* \"contracts/Learn_101_10.sol\":2025:2031  uint i */\n      0x00\n        /* \"contracts/Learn_101_10.sol\":2020:2116  for (uint i = 0; i < rightInd; i++) ... */\n    tag_158:\n        /* \"contracts/Learn_101_10.sol\":2041:2049  rightInd */\n      dup6\n        /* \"contracts/Learn_101_10.sol\":2037:2038  i */\n      dup2\n        /* \"contracts/Learn_101_10.sol\":2037:2049  i < rightInd */\n      lt\n        /* \"contracts/Learn_101_10.sol\":2020:2116  for (uint i = 0; i < rightInd; i++) ... */\n      iszero\n      tag_159\n      jumpi\n        /* \"contracts/Learn_101_10.sol\":2097:2102  right */\n      dup4\n        /* \"contracts/Learn_101_10.sol\":2103:2104  i */\n      dup2\n        /* \"contracts/Learn_101_10.sol\":2097:2105  right[i] */\n      dup2\n      mload\n      dup2\n      lt\n      tag_161\n      jumpi\n      tag_162\n      tag_80\n      jump\t// in\n    tag_162:\n    tag_161:\n      0x20\n      mul\n      0x20\n      add\n      add\n      mload\n        /* \"contracts/Learn_101_10.sol\":2079:2091  rightResized */\n      dup3\n        /* \"contracts/Learn_101_10.sol\":2092:2093  i */\n      dup3\n        /* \"contracts/Learn_101_10.sol\":2079:2094  rightResized[i] */\n      dup2\n      mload\n      dup2\n      lt\n      tag_163\n      jumpi\n      tag_164\n      tag_80\n      jump\t// in\n    tag_164:\n    tag_163:\n      0x20\n      mul\n      0x20\n      add\n      add\n        /* \"contracts/Learn_101_10.sol\":2079:2105  rightResized[i] = right[i] */\n      dup2\n      dup2\n      mstore\n      pop\n      pop\n        /* \"contracts/Learn_101_10.sol\":2051:2054  i++ */\n      dup1\n      dup1\n      0x01\n      add\n      swap2\n      pop\n      pop\n        /* \"contracts/Learn_101_10.sol\":2020:2116  for (uint i = 0; i < rightInd; i++) ... */\n      jump(tag_158)\n    tag_159:\n      pop\n        /* \"contracts/Learn_101_10.sol\":2126:2150  uint[] memory sortedLeft */\n      0x00\n        /* \"contracts/Learn_101_10.sol\":2153:2176  _quickSort(leftResized) */\n      tag_165\n        /* \"contracts/Learn_101_10.sol\":2164:2175  leftResized */\n      dup4\n        /* \"contracts/Learn_101_10.sol\":2153:2163  _quickSort */\n      tag_68\n        /* \"contracts/Learn_101_10.sol\":2153:2176  _quickSort(leftResized) */\n      jump\t// in\n    tag_165:\n        /* \"contracts/Learn_101_10.sol\":2126:2176  uint[] memory sortedLeft = _quickSort(leftResized) */\n      swap1\n      pop\n        /* \"contracts/Learn_101_10.sol\":2186:2211  uint[] memory sortedRight */\n      0x00\n        /* \"contracts/Learn_101_10.sol\":2214:2238  _quickSort(rightResized) */\n      tag_166\n        /* \"contracts/Learn_101_10.sol\":2225:2237  rightResized */\n      dup4\n        /* \"contracts/Learn_101_10.sol\":2214:2224  _quickSort */\n      tag_68\n        /* \"contracts/Learn_101_10.sol\":2214:2238  _quickSort(rightResized) */\n      jump\t// in\n    tag_166:\n        /* \"contracts/Learn_101_10.sol\":2186:2238  uint[] memory sortedRight = _quickSort(rightResized) */\n      swap1\n      pop\n        /* \"contracts/Learn_101_10.sol\":2256:2294  concat(sortedLeft, pivot, sortedRight) */\n      tag_167\n        /* \"contracts/Learn_101_10.sol\":2263:2273  sortedLeft */\n      dup3\n        /* \"contracts/Learn_101_10.sol\":2275:2280  pivot */\n      dup11\n        /* \"contracts/Learn_101_10.sol\":2282:2293  sortedRight */\n      dup4\n        /* \"contracts/Learn_101_10.sol\":2256:2262  concat */\n      tag_168\n        /* \"contracts/Learn_101_10.sol\":2256:2294  concat(sortedLeft, pivot, sortedRight) */\n      jump\t// in\n    tag_167:\n        /* \"contracts/Learn_101_10.sol\":2249:2294  return concat(sortedLeft, pivot, sortedRight) */\n      swap11\n      pop\n      pop\n      pop\n      pop\n      pop\n      pop\n      pop\n      pop\n      pop\n      pop\n      pop\n        /* \"contracts/Learn_101_10.sol\":1116:2301  function _quickSort (uint[] memory arr) internal pure returns (uint[] memory) {... */\n    tag_114:\n      swap2\n      swap1\n      pop\n      jump\t// out\n        /* \"contracts/Learn_101_10.sol\":2307:2811  function concat (... */\n    tag_168:\n        /* \"contracts/Learn_101_10.sol\":2430:2443  uint[] memory */\n      0x60\n        /* \"contracts/Learn_101_10.sol\":2455:2475  uint[] memory result */\n      0x00\n        /* \"contracts/Learn_101_10.sol\":2507:2512  right */\n      dup3\n        /* \"contracts/Learn_101_10.sol\":2507:2519  right.length */\n      mload\n        /* \"contracts/Learn_101_10.sol\":2503:2504  1 */\n      0x01\n        /* \"contracts/Learn_101_10.sol\":2489:2493  left */\n      dup7\n        /* \"contracts/Learn_101_10.sol\":2489:2500  left.length */\n      mload\n        /* \"contracts/Learn_101_10.sol\":2489:2504  left.length + 1 */\n      tag_170\n      swap2\n      swap1\n      tag_55\n      jump\t// in\n    tag_170:\n        /* \"contracts/Learn_101_10.sol\":2489:2519  left.length + 1 + right.length */\n      tag_171\n      swap2\n      swap1\n      tag_55\n      jump\t// in\n    tag_171:\n        /* \"contracts/Learn_101_10.sol\":2478:2520  new uint[](left.length + 1 + right.length) */\n      0xffffffffffffffff\n      dup2\n      gt\n      iszero\n      tag_172\n      jumpi\n      tag_173\n      tag_122\n      jump\t// in\n    tag_173:\n    tag_172:\n      mload(0x40)\n      swap1\n      dup1\n      dup3\n      mstore\n      dup1\n      0x20\n      mul\n      0x20\n      add\n      dup3\n      add\n      0x40\n      mstore\n      dup1\n      iszero\n      tag_174\n      jumpi\n      dup2\n      0x20\n      add\n      0x20\n      dup3\n      mul\n      dup1\n      calldatasize\n      dup4\n      calldatacopy\n      dup1\n      dup3\n      add\n      swap2\n      pop\n      pop\n      swap1\n      pop\n    tag_174:\n      pop\n        /* \"contracts/Learn_101_10.sol\":2455:2520  uint[] memory result = new uint[](left.length + 1 + right.length) */\n      swap1\n      pop\n        /* \"contracts/Learn_101_10.sol\":2536:2542  uint i */\n      0x00\n        /* \"contracts/Learn_101_10.sol\":2531:2623  for (uint i = 0; i < left.length; i++) ... */\n    tag_175:\n        /* \"contracts/Learn_101_10.sol\":2552:2556  left */\n      dup6\n        /* \"contracts/Learn_101_10.sol\":2552:2563  left.length */\n      mload\n        /* \"contracts/Learn_101_10.sol\":2548:2549  i */\n      dup2\n        /* \"contracts/Learn_101_10.sol\":2548:2563  i < left.length */\n      lt\n        /* \"contracts/Learn_101_10.sol\":2531:2623  for (uint i = 0; i < left.length; i++) ... */\n      iszero\n      tag_176\n      jumpi\n        /* \"contracts/Learn_101_10.sol\":2605:2609  left */\n      dup6\n        /* \"contracts/Learn_101_10.sol\":2610:2611  i */\n      dup2\n        /* \"contracts/Learn_101_10.sol\":2605:2612  left[i] */\n      dup2\n      mload\n      dup2\n      lt\n      tag_178\n      jumpi\n      tag_179\n      tag_80\n      jump\t// in\n    tag_179:\n    tag_178:\n      0x20\n      mul\n      0x20\n      add\n      add\n      mload\n        /* \"contracts/Learn_101_10.sol\":2593:2599  result */\n      dup3\n        /* \"contracts/Learn_101_10.sol\":2600:2601  i */\n      dup3\n        /* \"contracts/Learn_101_10.sol\":2593:2602  result[i] */\n      dup2\n      mload\n      dup2\n      lt\n      tag_180\n      jumpi\n      tag_181\n      tag_80\n      jump\t// in\n    tag_181:\n    tag_180:\n      0x20\n      mul\n      0x20\n      add\n      add\n        /* \"contracts/Learn_101_10.sol\":2593:2612  result[i] = left[i] */\n      dup2\n      dup2\n      mstore\n      pop\n      pop\n        /* \"contracts/Learn_101_10.sol\":2565:2568  i++ */\n      dup1\n      dup1\n      0x01\n      add\n      swap2\n      pop\n      pop\n        /* \"contracts/Learn_101_10.sol\":2531:2623  for (uint i = 0; i < left.length; i++) ... */\n      jump(tag_175)\n    tag_176:\n      pop\n        /* \"contracts/Learn_101_10.sol\":2654:2659  pivot */\n      dup4\n        /* \"contracts/Learn_101_10.sol\":2632:2638  result */\n      dup2\n        /* \"contracts/Learn_101_10.sol\":2639:2643  left */\n      dup7\n        /* \"contracts/Learn_101_10.sol\":2639:2650  left.length */\n      mload\n        /* \"contracts/Learn_101_10.sol\":2632:2651  result[left.length] */\n      dup2\n      mload\n      dup2\n      lt\n      tag_182\n      jumpi\n      tag_183\n      tag_80\n      jump\t// in\n    tag_183:\n    tag_182:\n      0x20\n      mul\n      0x20\n      add\n      add\n        /* \"contracts/Learn_101_10.sol\":2632:2659  result[left.length] = pivot */\n      dup2\n      dup2\n      mstore\n      pop\n      pop\n        /* \"contracts/Learn_101_10.sol\":2674:2680  uint i */\n      0x00\n        /* \"contracts/Learn_101_10.sol\":2669:2781  for (uint i = 0; i < right.length; i++) ... */\n    tag_184:\n        /* \"contracts/Learn_101_10.sol\":2690:2695  right */\n      dup4\n        /* \"contracts/Learn_101_10.sol\":2690:2702  right.length */\n      mload\n        /* \"contracts/Learn_101_10.sol\":2686:2687  i */\n      dup2\n        /* \"contracts/Learn_101_10.sol\":2686:2702  i < right.length */\n      lt\n        /* \"contracts/Learn_101_10.sol\":2669:2781  for (uint i = 0; i < right.length; i++) ... */\n      iszero\n      tag_185\n      jumpi\n        /* \"contracts/Learn_101_10.sol\":2762:2767  right */\n      dup4\n        /* \"contracts/Learn_101_10.sol\":2768:2769  i */\n      dup2\n        /* \"contracts/Learn_101_10.sol\":2762:2770  right[i] */\n      dup2\n      mload\n      dup2\n      lt\n      tag_187\n      jumpi\n      tag_188\n      tag_80\n      jump\t// in\n    tag_188:\n    tag_187:\n      0x20\n      mul\n      0x20\n      add\n      add\n      mload\n        /* \"contracts/Learn_101_10.sol\":2732:2738  result */\n      dup3\n        /* \"contracts/Learn_101_10.sol\":2757:2758  i */\n      dup3\n        /* \"contracts/Learn_101_10.sol\":2753:2754  1 */\n      0x01\n        /* \"contracts/Learn_101_10.sol\":2739:2743  left */\n      dup10\n        /* \"contracts/Learn_101_10.sol\":2739:2750  left.length */\n      mload\n        /* \"contracts/Learn_101_10.sol\":2739:2754  left.length + 1 */\n      tag_189\n      swap2\n      swap1\n      tag_55\n      jump\t// in\n    tag_189:\n        /* \"contracts/Learn_101_10.sol\":2739:2758  left.length + 1 + i */\n      tag_190\n      swap2\n      swap1\n      tag_55\n      jump\t// in\n    tag_190:\n        /* \"contracts/Learn_101_10.sol\":2732:2759  result[left.length + 1 + i] */\n      dup2\n      mload\n      dup2\n      lt\n      tag_191\n      jumpi\n      tag_192\n      tag_80\n      jump\t// in\n    tag_192:\n    tag_191:\n      0x20\n      mul\n      0x20\n      add\n      add\n        /* \"contracts/Learn_101_10.sol\":2732:2770  result[left.length + 1 + i] = right[i] */\n      dup2\n      dup2\n      mstore\n      pop\n      pop\n        /* \"contracts/Learn_101_10.sol\":2704:2707  i++ */\n      dup1\n      dup1\n      0x01\n      add\n      swap2\n      pop\n      pop\n        /* \"contracts/Learn_101_10.sol\":2669:2781  for (uint i = 0; i < right.length; i++) ... */\n      jump(tag_184)\n    tag_185:\n      pop\n        /* \"contracts/Learn_101_10.sol\":2798:2804  result */\n      dup1\n        /* \"contracts/Learn_101_10.sol\":2791:2804  return result */\n      swap2\n      pop\n      pop\n        /* \"contracts/Learn_101_10.sol\":2307:2811  function concat (... */\n      swap4\n      swap3\n      pop\n      pop\n      pop\n      jump\t// out\n        /* \"#utility.yul\":7:82   */\n    tag_193:\n        /* \"#utility.yul\":40:46   */\n      0x00\n        /* \"#utility.yul\":73:75   */\n      0x40\n        /* \"#utility.yul\":67:76   */\n      mload\n        /* \"#utility.yul\":57:76   */\n      swap1\n      pop\n        /* \"#utility.yul\":7:82   */\n      swap1\n      jump\t// out\n        /* \"#utility.yul\":88:205   */\n    tag_194:\n        /* \"#utility.yul\":197:198   */\n      0x00\n        /* \"#utility.yul\":194:195   */\n      dup1\n        /* \"#utility.yul\":187:199   */\n      revert\n        /* \"#utility.yul\":211:328   */\n    tag_195:\n        /* \"#utility.yul\":320:321   */\n      0x00\n        /* \"#utility.yul\":317:318   */\n      dup1\n        /* \"#utility.yul\":310:322   */\n      revert\n        /* \"#utility.yul\":334:411   */\n    tag_196:\n        /* \"#utility.yul\":371:378   */\n      0x00\n        /* \"#utility.yul\":400:405   */\n      dup2\n        /* \"#utility.yul\":389:405   */\n      swap1\n      pop\n        /* \"#utility.yul\":334:411   */\n      swap2\n      swap1\n      pop\n      jump\t// out\n        /* \"#utility.yul\":417:539   */\n    tag_197:\n        /* \"#utility.yul\":490:514   */\n      tag_225\n        /* \"#utility.yul\":508:513   */\n      dup2\n        /* \"#utility.yul\":490:514   */\n      tag_196\n      jump\t// in\n    tag_225:\n        /* \"#utility.yul\":483:488   */\n      dup2\n        /* \"#utility.yul\":480:515   */\n      eq\n        /* \"#utility.yul\":470:533   */\n      tag_226\n      jumpi\n        /* \"#utility.yul\":529:530   */\n      0x00\n        /* \"#utility.yul\":526:527   */\n      dup1\n        /* \"#utility.yul\":519:531   */\n      revert\n        /* \"#utility.yul\":470:533   */\n    tag_226:\n        /* \"#utility.yul\":417:539   */\n      pop\n      jump\t// out\n        /* \"#utility.yul\":545:684   */\n    tag_198:\n        /* \"#utility.yul\":591:596   */\n      0x00\n        /* \"#utility.yul\":629:635   */\n      dup2\n        /* \"#utility.yul\":616:636   */\n      calldataload\n        /* \"#utility.yul\":607:636   */\n      swap1\n      pop\n        /* \"#utility.yul\":645:678   */\n      tag_228\n        /* \"#utility.yul\":672:677   */\n      dup2\n        /* \"#utility.yul\":645:678   */\n      tag_197\n      jump\t// in\n    tag_228:\n        /* \"#utility.yul\":545:684   */\n      swap3\n      swap2\n      pop\n      pop\n      jump\t// out\n        /* \"#utility.yul\":690:1164   */\n    tag_14:\n        /* \"#utility.yul\":758:764   */\n      0x00\n        /* \"#utility.yul\":766:772   */\n      dup1\n        /* \"#utility.yul\":815:817   */\n      0x40\n        /* \"#utility.yul\":803:812   */\n      dup4\n        /* \"#utility.yul\":794:801   */\n      dup6\n        /* \"#utility.yul\":790:813   */\n      sub\n        /* \"#utility.yul\":786:818   */\n      slt\n        /* \"#utility.yul\":783:902   */\n      iszero\n      tag_230\n      jumpi\n        /* \"#utility.yul\":821:900   */\n      tag_231\n      tag_194\n      jump\t// in\n    tag_231:\n        /* \"#utility.yul\":783:902   */\n    tag_230:\n        /* \"#utility.yul\":941:942   */\n      0x00\n        /* \"#utility.yul\":966:1019   */\n      tag_232\n        /* \"#utility.yul\":1011:1018   */\n      dup6\n        /* \"#utility.yul\":1002:1008   */\n      dup3\n        /* \"#utility.yul\":991:1000   */\n      dup7\n        /* \"#utility.yul\":987:1009   */\n      add\n        /* \"#utility.yul\":966:1019   */\n      tag_198\n      jump\t// in\n    tag_232:\n        /* \"#utility.yul\":956:1019   */\n      swap3\n      pop\n        /* \"#utility.yul\":912:1029   */\n      pop\n        /* \"#utility.yul\":1068:1070   */\n      0x20\n        /* \"#utility.yul\":1094:1147   */\n      tag_233\n        /* \"#utility.yul\":1139:1146   */\n      dup6\n        /* \"#utility.yul\":1130:1136   */\n      dup3\n        /* \"#utility.yul\":1119:1128   */\n      dup7\n        /* \"#utility.yul\":1115:1137   */\n      add\n        /* \"#utility.yul\":1094:1147   */\n      tag_198\n      jump\t// in\n    tag_233:\n        /* \"#utility.yul\":1084:1147   */\n      swap2\n      pop\n        /* \"#utility.yul\":1039:1157   */\n      pop\n        /* \"#utility.yul\":690:1164   */\n      swap3\n      pop\n      swap3\n      swap1\n      pop\n      jump\t// out\n        /* \"#utility.yul\":1170:1288   */\n    tag_199:\n        /* \"#utility.yul\":1257:1281   */\n      tag_235\n        /* \"#utility.yul\":1275:1280   */\n      dup2\n        /* \"#utility.yul\":1257:1281   */\n      tag_196\n      jump\t// in\n    tag_235:\n        /* \"#utility.yul\":1252:1255   */\n      dup3\n        /* \"#utility.yul\":1245:1282   */\n      mstore\n        /* \"#utility.yul\":1170:1288   */\n      pop\n      pop\n      jump\t// out\n        /* \"#utility.yul\":1294:1516   */\n    tag_17:\n        /* \"#utility.yul\":1387:1391   */\n      0x00\n        /* \"#utility.yul\":1425:1427   */\n      0x20\n        /* \"#utility.yul\":1414:1423   */\n      dup3\n        /* \"#utility.yul\":1410:1428   */\n      add\n        /* \"#utility.yul\":1402:1428   */\n      swap1\n      pop\n        /* \"#utility.yul\":1438:1509   */\n      tag_237\n        /* \"#utility.yul\":1506:1507   */\n      0x00\n        /* \"#utility.yul\":1495:1504   */\n      dup4\n        /* \"#utility.yul\":1491:1508   */\n      add\n        /* \"#utility.yul\":1482:1488   */\n      dup5\n        /* \"#utility.yul\":1438:1509   */\n      tag_199\n      jump\t// in\n    tag_237:\n        /* \"#utility.yul\":1294:1516   */\n      swap3\n      swap2\n      pop\n      pop\n      jump\t// out\n        /* \"#utility.yul\":1522:1851   */\n    tag_26:\n        /* \"#utility.yul\":1581:1587   */\n      0x00\n        /* \"#utility.yul\":1630:1632   */\n      0x20\n        /* \"#utility.yul\":1618:1627   */\n      dup3\n        /* \"#utility.yul\":1609:1616   */\n      dup5\n        /* \"#utility.yul\":1605:1628   */\n      sub\n        /* \"#utility.yul\":1601:1633   */\n      slt\n        /* \"#utility.yul\":1598:1717   */\n      iszero\n      tag_239\n      jumpi\n        /* \"#utility.yul\":1636:1715   */\n      tag_240\n      tag_194\n      jump\t// in\n    tag_240:\n        /* \"#utility.yul\":1598:1717   */\n    tag_239:\n        /* \"#utility.yul\":1756:1757   */\n      0x00\n        /* \"#utility.yul\":1781:1834   */\n      tag_241\n        /* \"#utility.yul\":1826:1833   */\n      dup5\n        /* \"#utility.yul\":1817:1823   */\n      dup3\n        /* \"#utility.yul\":1806:1815   */\n      dup6\n        /* \"#utility.yul\":1802:1824   */\n      add\n        /* \"#utility.yul\":1781:1834   */\n      tag_198\n      jump\t// in\n    tag_241:\n        /* \"#utility.yul\":1771:1834   */\n      swap2\n      pop\n        /* \"#utility.yul\":1727:1844   */\n      pop\n        /* \"#utility.yul\":1522:1851   */\n      swap3\n      swap2\n      pop\n      pop\n      jump\t// out\n        /* \"#utility.yul\":1857:1947   */\n    tag_200:\n        /* \"#utility.yul\":1891:1898   */\n      0x00\n        /* \"#utility.yul\":1934:1939   */\n      dup2\n        /* \"#utility.yul\":1927:1940   */\n      iszero\n        /* \"#utility.yul\":1920:1941   */\n      iszero\n        /* \"#utility.yul\":1909:1941   */\n      swap1\n      pop\n        /* \"#utility.yul\":1857:1947   */\n      swap2\n      swap1\n      pop\n      jump\t// out\n        /* \"#utility.yul\":1953:2062   */\n    tag_201:\n        /* \"#utility.yul\":2034:2055   */\n      tag_244\n        /* \"#utility.yul\":2049:2054   */\n      dup2\n        /* \"#utility.yul\":2034:2055   */\n      tag_200\n      jump\t// in\n    tag_244:\n        /* \"#utility.yul\":2029:2032   */\n      dup3\n        /* \"#utility.yul\":2022:2056   */\n      mstore\n        /* \"#utility.yul\":1953:2062   */\n      pop\n      pop\n      jump\t// out\n        /* \"#utility.yul\":2068:2278   */\n    tag_29:\n        /* \"#utility.yul\":2155:2159   */\n      0x00\n        /* \"#utility.yul\":2193:2195   */\n      0x20\n        /* \"#utility.yul\":2182:2191   */\n      dup3\n        /* \"#utility.yul\":2178:2196   */\n      add\n        /* \"#utility.yul\":2170:2196   */\n      swap1\n      pop\n        /* \"#utility.yul\":2206:2271   */\n      tag_246\n        /* \"#utility.yul\":2268:2269   */\n      0x00\n        /* \"#utility.yul\":2257:2266   */\n      dup4\n        /* \"#utility.yul\":2253:2270   */\n      add\n        /* \"#utility.yul\":2244:2250   */\n      dup5\n        /* \"#utility.yul\":2206:2271   */\n      tag_201\n      jump\t// in\n    tag_246:\n        /* \"#utility.yul\":2068:2278   */\n      swap3\n      swap2\n      pop\n      pop\n      jump\t// out\n        /* \"#utility.yul\":2284:2401   */\n    tag_202:\n        /* \"#utility.yul\":2393:2394   */\n      0x00\n        /* \"#utility.yul\":2390:2391   */\n      dup1\n        /* \"#utility.yul\":2383:2395   */\n      revert\n        /* \"#utility.yul\":2407:2509   */\n    tag_203:\n        /* \"#utility.yul\":2448:2454   */\n      0x00\n        /* \"#utility.yul\":2499:2501   */\n      0x1f\n        /* \"#utility.yul\":2495:2502   */\n      not\n        /* \"#utility.yul\":2490:2492   */\n      0x1f\n        /* \"#utility.yul\":2483:2488   */\n      dup4\n        /* \"#utility.yul\":2479:2493   */\n      add\n        /* \"#utility.yul\":2475:2503   */\n      and\n        /* \"#utility.yul\":2465:2503   */\n      swap1\n      pop\n        /* \"#utility.yul\":2407:2509   */\n      swap2\n      swap1\n      pop\n      jump\t// out\n        /* \"#utility.yul\":2515:2695   */\n    tag_122:\n        /* \"#utility.yul\":2563:2640   */\n      0x4e487b7100000000000000000000000000000000000000000000000000000000\n        /* \"#utility.yul\":2560:2561   */\n      0x00\n        /* \"#utility.yul\":2553:2641   */\n      mstore\n        /* \"#utility.yul\":2660:2664   */\n      0x41\n        /* \"#utility.yul\":2657:2658   */\n      0x04\n        /* \"#utility.yul\":2650:2665   */\n      mstore\n        /* \"#utility.yul\":2684:2688   */\n      0x24\n        /* \"#utility.yul\":2681:2682   */\n      0x00\n        /* \"#utility.yul\":2674:2689   */\n      revert\n        /* \"#utility.yul\":2701:2982   */\n    tag_204:\n        /* \"#utility.yul\":2784:2811   */\n      tag_251\n        /* \"#utility.yul\":2806:2810   */\n      dup3\n        /* \"#utility.yul\":2784:2811   */\n      tag_203\n      jump\t// in\n    tag_251:\n        /* \"#utility.yul\":2776:2782   */\n      dup2\n        /* \"#utility.yul\":2772:2812   */\n      add\n        /* \"#utility.yul\":2914:2920   */\n      dup2\n        /* \"#utility.yul\":2902:2912   */\n      dup2\n        /* \"#utility.yul\":2899:2921   */\n      lt\n        /* \"#utility.yul\":2878:2896   */\n      0xffffffffffffffff\n        /* \"#utility.yul\":2866:2876   */\n      dup3\n        /* \"#utility.yul\":2863:2897   */\n      gt\n        /* \"#utility.yul\":2860:2922   */\n      or\n        /* \"#utility.yul\":2857:2945   */\n      iszero\n      tag_252\n      jumpi\n        /* \"#utility.yul\":2925:2943   */\n      tag_253\n      tag_122\n      jump\t// in\n    tag_253:\n        /* \"#utility.yul\":2857:2945   */\n    tag_252:\n        /* \"#utility.yul\":2965:2975   */\n      dup1\n        /* \"#utility.yul\":2961:2963   */\n      0x40\n        /* \"#utility.yul\":2954:2976   */\n      mstore\n        /* \"#utility.yul\":2744:2982   */\n      pop\n        /* \"#utility.yul\":2701:2982   */\n      pop\n      pop\n      jump\t// out\n        /* \"#utility.yul\":2988:3117   */\n    tag_205:\n        /* \"#utility.yul\":3022:3028   */\n      0x00\n        /* \"#utility.yul\":3049:3069   */\n      tag_255\n      tag_193\n      jump\t// in\n    tag_255:\n        /* \"#utility.yul\":3039:3069   */\n      swap1\n      pop\n        /* \"#utility.yul\":3078:3111   */\n      tag_256\n        /* \"#utility.yul\":3106:3110   */\n      dup3\n        /* \"#utility.yul\":3098:3104   */\n      dup3\n        /* \"#utility.yul\":3078:3111   */\n      tag_204\n      jump\t// in\n    tag_256:\n        /* \"#utility.yul\":2988:3117   */\n      swap2\n      swap1\n      pop\n      jump\t// out\n        /* \"#utility.yul\":3123:3434   */\n    tag_206:\n        /* \"#utility.yul\":3200:3204   */\n      0x00\n        /* \"#utility.yul\":3290:3308   */\n      0xffffffffffffffff\n        /* \"#utility.yul\":3282:3288   */\n      dup3\n        /* \"#utility.yul\":3279:3309   */\n      gt\n        /* \"#utility.yul\":3276:3332   */\n      iszero\n      tag_258\n      jumpi\n        /* \"#utility.yul\":3312:3330   */\n      tag_259\n      tag_122\n      jump\t// in\n    tag_259:\n        /* \"#utility.yul\":3276:3332   */\n    tag_258:\n        /* \"#utility.yul\":3362:3366   */\n      0x20\n        /* \"#utility.yul\":3354:3360   */\n      dup3\n        /* \"#utility.yul\":3350:3367   */\n      mul\n        /* \"#utility.yul\":3342:3367   */\n      swap1\n      pop\n        /* \"#utility.yul\":3422:3426   */\n      0x20\n        /* \"#utility.yul\":3416:3420   */\n      dup2\n        /* \"#utility.yul\":3412:3427   */\n      add\n        /* \"#utility.yul\":3404:3427   */\n      swap1\n      pop\n        /* \"#utility.yul\":3123:3434   */\n      swap2\n      swap1\n      pop\n      jump\t// out\n        /* \"#utility.yul\":3440:3557   */\n    tag_207:\n        /* \"#utility.yul\":3549:3550   */\n      0x00\n        /* \"#utility.yul\":3546:3547   */\n      dup1\n        /* \"#utility.yul\":3539:3551   */\n      revert\n        /* \"#utility.yul\":3580:4290   */\n    tag_208:\n        /* \"#utility.yul\":3676:3681   */\n      0x00\n        /* \"#utility.yul\":3701:3782   */\n      tag_262\n        /* \"#utility.yul\":3717:3781   */\n      tag_263\n        /* \"#utility.yul\":3774:3780   */\n      dup5\n        /* \"#utility.yul\":3717:3781   */\n      tag_206\n      jump\t// in\n    tag_263:\n        /* \"#utility.yul\":3701:3782   */\n      tag_205\n      jump\t// in\n    tag_262:\n        /* \"#utility.yul\":3692:3782   */\n      swap1\n      pop\n        /* \"#utility.yul\":3802:3807   */\n      dup1\n        /* \"#utility.yul\":3831:3837   */\n      dup4\n        /* \"#utility.yul\":3824:3829   */\n      dup3\n        /* \"#utility.yul\":3817:3838   */\n      mstore\n        /* \"#utility.yul\":3865:3869   */\n      0x20\n        /* \"#utility.yul\":3858:3863   */\n      dup3\n        /* \"#utility.yul\":3854:3870   */\n      add\n        /* \"#utility.yul\":3847:3870   */\n      swap1\n      pop\n        /* \"#utility.yul\":3918:3922   */\n      0x20\n        /* \"#utility.yul\":3910:3916   */\n      dup5\n        /* \"#utility.yul\":3906:3923   */\n      mul\n        /* \"#utility.yul\":3898:3904   */\n      dup4\n        /* \"#utility.yul\":3894:3924   */\n      add\n        /* \"#utility.yul\":3947:3950   */\n      dup6\n        /* \"#utility.yul\":3939:3945   */\n      dup2\n        /* \"#utility.yul\":3936:3951   */\n      gt\n        /* \"#utility.yul\":3933:4055   */\n      iszero\n      tag_264\n      jumpi\n        /* \"#utility.yul\":3966:4045   */\n      tag_265\n      tag_207\n      jump\t// in\n    tag_265:\n        /* \"#utility.yul\":3933:4055   */\n    tag_264:\n        /* \"#utility.yul\":4081:4087   */\n      dup4\n        /* \"#utility.yul\":4064:4284   */\n    tag_266:\n        /* \"#utility.yul\":4098:4104   */\n      dup2\n        /* \"#utility.yul\":4093:4096   */\n      dup2\n        /* \"#utility.yul\":4090:4105   */\n      lt\n        /* \"#utility.yul\":4064:4284   */\n      iszero\n      tag_268\n      jumpi\n        /* \"#utility.yul\":4173:4176   */\n      dup1\n        /* \"#utility.yul\":4202:4239   */\n      tag_269\n        /* \"#utility.yul\":4235:4238   */\n      dup9\n        /* \"#utility.yul\":4223:4233   */\n      dup3\n        /* \"#utility.yul\":4202:4239   */\n      tag_198\n      jump\t// in\n    tag_269:\n        /* \"#utility.yul\":4197:4200   */\n      dup5\n        /* \"#utility.yul\":4190:4240   */\n      mstore\n        /* \"#utility.yul\":4269:4273   */\n      0x20\n        /* \"#utility.yul\":4264:4267   */\n      dup5\n        /* \"#utility.yul\":4260:4274   */\n      add\n        /* \"#utility.yul\":4253:4274   */\n      swap4\n      pop\n        /* \"#utility.yul\":4140:4284   */\n      pop\n        /* \"#utility.yul\":4124:4128   */\n      0x20\n        /* \"#utility.yul\":4119:4122   */\n      dup2\n        /* \"#utility.yul\":4115:4129   */\n      add\n        /* \"#utility.yul\":4108:4129   */\n      swap1\n      pop\n        /* \"#utility.yul\":4064:4284   */\n      jump(tag_266)\n    tag_268:\n        /* \"#utility.yul\":4068:4089   */\n      pop\n        /* \"#utility.yul\":3682:4290   */\n      pop\n      pop\n        /* \"#utility.yul\":3580:4290   */\n      swap4\n      swap3\n      pop\n      pop\n      pop\n      jump\t// out\n        /* \"#utility.yul\":4313:4683   */\n    tag_209:\n        /* \"#utility.yul\":4384:4389   */\n      0x00\n        /* \"#utility.yul\":4433:4436   */\n      dup3\n        /* \"#utility.yul\":4426:4430   */\n      0x1f\n        /* \"#utility.yul\":4418:4424   */\n      dup4\n        /* \"#utility.yul\":4414:4431   */\n      add\n        /* \"#utility.yul\":4410:4437   */\n      slt\n        /* \"#utility.yul\":4400:4522   */\n      tag_271\n      jumpi\n        /* \"#utility.yul\":4441:4520   */\n      tag_272\n      tag_202\n      jump\t// in\n    tag_272:\n        /* \"#utility.yul\":4400:4522   */\n    tag_271:\n        /* \"#utility.yul\":4558:4564   */\n      dup2\n        /* \"#utility.yul\":4545:4565   */\n      calldataload\n        /* \"#utility.yul\":4583:4677   */\n      tag_273\n        /* \"#utility.yul\":4673:4676   */\n      dup5\n        /* \"#utility.yul\":4665:4671   */\n      dup3\n        /* \"#utility.yul\":4658:4662   */\n      0x20\n        /* \"#utility.yul\":4650:4656   */\n      dup7\n        /* \"#utility.yul\":4646:4663   */\n      add\n        /* \"#utility.yul\":4583:4677   */\n      tag_208\n      jump\t// in\n    tag_273:\n        /* \"#utility.yul\":4574:4677   */\n      swap2\n      pop\n        /* \"#utility.yul\":4390:4683   */\n      pop\n        /* \"#utility.yul\":4313:4683   */\n      swap3\n      swap2\n      pop\n      pop\n      jump\t// out\n        /* \"#utility.yul\":4689:5228   */\n    tag_32:\n        /* \"#utility.yul\":4773:4779   */\n      0x00\n        /* \"#utility.yul\":4822:4824   */\n      0x20\n        /* \"#utility.yul\":4810:4819   */\n      dup3\n        /* \"#utility.yul\":4801:4808   */\n      dup5\n        /* \"#utility.yul\":4797:4820   */\n      sub\n        /* \"#utility.yul\":4793:4825   */\n      slt\n        /* \"#utility.yul\":4790:4909   */\n      iszero\n      tag_275\n      jumpi\n        /* \"#utility.yul\":4828:4907   */\n      tag_276\n      tag_194\n      jump\t// in\n    tag_276:\n        /* \"#utility.yul\":4790:4909   */\n    tag_275:\n        /* \"#utility.yul\":4976:4977   */\n      0x00\n        /* \"#utility.yul\":4965:4974   */\n      dup3\n        /* \"#utility.yul\":4961:4978   */\n      add\n        /* \"#utility.yul\":4948:4979   */\n      calldataload\n        /* \"#utility.yul\":5006:5024   */\n      0xffffffffffffffff\n        /* \"#utility.yul\":4998:5004   */\n      dup2\n        /* \"#utility.yul\":4995:5025   */\n      gt\n        /* \"#utility.yul\":4992:5109   */\n      iszero\n      tag_277\n      jumpi\n        /* \"#utility.yul\":5028:5107   */\n      tag_278\n      tag_195\n      jump\t// in\n    tag_278:\n        /* \"#utility.yul\":4992:5109   */\n    tag_277:\n        /* \"#utility.yul\":5133:5211   */\n      tag_279\n        /* \"#utility.yul\":5203:5210   */\n      dup5\n        /* \"#utility.yul\":5194:5200   */\n      dup3\n        /* \"#utility.yul\":5183:5192   */\n      dup6\n        /* \"#utility.yul\":5179:5201   */\n      add\n        /* \"#utility.yul\":5133:5211   */\n      tag_209\n      jump\t// in\n    tag_279:\n        /* \"#utility.yul\":5123:5211   */\n      swap2\n      pop\n        /* \"#utility.yul\":4919:5221   */\n      pop\n        /* \"#utility.yul\":4689:5228   */\n      swap3\n      swap2\n      pop\n      pop\n      jump\t// out\n        /* \"#utility.yul\":5234:5348   */\n    tag_210:\n        /* \"#utility.yul\":5301:5307   */\n      0x00\n        /* \"#utility.yul\":5335:5340   */\n      dup2\n        /* \"#utility.yul\":5329:5341   */\n      mload\n        /* \"#utility.yul\":5319:5341   */\n      swap1\n      pop\n        /* \"#utility.yul\":5234:5348   */\n      swap2\n      swap1\n      pop\n      jump\t// out\n        /* \"#utility.yul\":5354:5538   */\n    tag_211:\n        /* \"#utility.yul\":5453:5464   */\n      0x00\n        /* \"#utility.yul\":5487:5493   */\n      dup3\n        /* \"#utility.yul\":5482:5485   */\n      dup3\n        /* \"#utility.yul\":5475:5494   */\n      mstore\n        /* \"#utility.yul\":5527:5531   */\n      0x20\n        /* \"#utility.yul\":5522:5525   */\n      dup3\n        /* \"#utility.yul\":5518:5532   */\n      add\n        /* \"#utility.yul\":5503:5532   */\n      swap1\n      pop\n        /* \"#utility.yul\":5354:5538   */\n      swap3\n      swap2\n      pop\n      pop\n      jump\t// out\n        /* \"#utility.yul\":5544:5676   */\n    tag_212:\n        /* \"#utility.yul\":5611:5615   */\n      0x00\n        /* \"#utility.yul\":5634:5637   */\n      dup2\n        /* \"#utility.yul\":5626:5637   */\n      swap1\n      pop\n        /* \"#utility.yul\":5664:5668   */\n      0x20\n        /* \"#utility.yul\":5659:5662   */\n      dup3\n        /* \"#utility.yul\":5655:5669   */\n      add\n        /* \"#utility.yul\":5647:5669   */\n      swap1\n      pop\n        /* \"#utility.yul\":5544:5676   */\n      swap2\n      swap1\n      pop\n      jump\t// out\n        /* \"#utility.yul\":5682:5790   */\n    tag_213:\n        /* \"#utility.yul\":5759:5783   */\n      tag_284\n        /* \"#utility.yul\":5777:5782   */\n      dup2\n        /* \"#utility.yul\":5759:5783   */\n      tag_196\n      jump\t// in\n    tag_284:\n        /* \"#utility.yul\":5754:5757   */\n      dup3\n        /* \"#utility.yul\":5747:5784   */\n      mstore\n        /* \"#utility.yul\":5682:5790   */\n      pop\n      pop\n      jump\t// out\n        /* \"#utility.yul\":5796:5975   */\n    tag_214:\n        /* \"#utility.yul\":5865:5875   */\n      0x00\n        /* \"#utility.yul\":5886:5932   */\n      tag_286\n        /* \"#utility.yul\":5928:5931   */\n      dup4\n        /* \"#utility.yul\":5920:5926   */\n      dup4\n        /* \"#utility.yul\":5886:5932   */\n      tag_213\n      jump\t// in\n    tag_286:\n        /* \"#utility.yul\":5964:5968   */\n      0x20\n        /* \"#utility.yul\":5959:5962   */\n      dup4\n        /* \"#utility.yul\":5955:5969   */\n      add\n        /* \"#utility.yul\":5941:5969   */\n      swap1\n      pop\n        /* \"#utility.yul\":5796:5975   */\n      swap3\n      swap2\n      pop\n      pop\n      jump\t// out\n        /* \"#utility.yul\":5981:6094   */\n    tag_215:\n        /* \"#utility.yul\":6051:6055   */\n      0x00\n        /* \"#utility.yul\":6083:6087   */\n      0x20\n        /* \"#utility.yul\":6078:6081   */\n      dup3\n        /* \"#utility.yul\":6074:6088   */\n      add\n        /* \"#utility.yul\":6066:6088   */\n      swap1\n      pop\n        /* \"#utility.yul\":5981:6094   */\n      swap2\n      swap1\n      pop\n      jump\t// out\n        /* \"#utility.yul\":6130:6862   */\n    tag_216:\n        /* \"#utility.yul\":6249:6252   */\n      0x00\n        /* \"#utility.yul\":6278:6332   */\n      tag_289\n        /* \"#utility.yul\":6326:6331   */\n      dup3\n        /* \"#utility.yul\":6278:6332   */\n      tag_210\n      jump\t// in\n    tag_289:\n        /* \"#utility.yul\":6348:6434   */\n      tag_290\n        /* \"#utility.yul\":6427:6433   */\n      dup2\n        /* \"#utility.yul\":6422:6425   */\n      dup6\n        /* \"#utility.yul\":6348:6434   */\n      tag_211\n      jump\t// in\n    tag_290:\n        /* \"#utility.yul\":6341:6434   */\n      swap4\n      pop\n        /* \"#utility.yul\":6458:6514   */\n      tag_291\n        /* \"#utility.yul\":6508:6513   */\n      dup4\n        /* \"#utility.yul\":6458:6514   */\n      tag_212\n      jump\t// in\n    tag_291:\n        /* \"#utility.yul\":6537:6544   */\n      dup1\n        /* \"#utility.yul\":6568:6569   */\n      0x00\n        /* \"#utility.yul\":6553:6837   */\n    tag_292:\n        /* \"#utility.yul\":6578:6584   */\n      dup4\n        /* \"#utility.yul\":6575:6576   */\n      dup2\n        /* \"#utility.yul\":6572:6585   */\n      lt\n        /* \"#utility.yul\":6553:6837   */\n      iszero\n      tag_294\n      jumpi\n        /* \"#utility.yul\":6654:6660   */\n      dup2\n        /* \"#utility.yul\":6648:6661   */\n      mload\n        /* \"#utility.yul\":6681:6744   */\n      tag_295\n        /* \"#utility.yul\":6740:6743   */\n      dup9\n        /* \"#utility.yul\":6725:6738   */\n      dup3\n        /* \"#utility.yul\":6681:6744   */\n      tag_214\n      jump\t// in\n    tag_295:\n        /* \"#utility.yul\":6674:6744   */\n      swap8\n      pop\n        /* \"#utility.yul\":6767:6827   */\n      tag_296\n        /* \"#utility.yul\":6820:6826   */\n      dup4\n        /* \"#utility.yul\":6767:6827   */\n      tag_215\n      jump\t// in\n    tag_296:\n        /* \"#utility.yul\":6757:6827   */\n      swap3\n      pop\n        /* \"#utility.yul\":6613:6837   */\n      pop\n        /* \"#utility.yul\":6600:6601   */\n      0x01\n        /* \"#utility.yul\":6597:6598   */\n      dup2\n        /* \"#utility.yul\":6593:6602   */\n      add\n        /* \"#utility.yul\":6588:6602   */\n      swap1\n      pop\n        /* \"#utility.yul\":6553:6837   */\n      jump(tag_292)\n    tag_294:\n        /* \"#utility.yul\":6557:6571   */\n      pop\n        /* \"#utility.yul\":6853:6856   */\n      dup6\n        /* \"#utility.yul\":6846:6856   */\n      swap4\n      pop\n        /* \"#utility.yul\":6254:6862   */\n      pop\n      pop\n      pop\n        /* \"#utility.yul\":6130:6862   */\n      swap3\n      swap2\n      pop\n      pop\n      jump\t// out\n        /* \"#utility.yul\":6868:7241   */\n    tag_35:\n        /* \"#utility.yul\":7011:7015   */\n      0x00\n        /* \"#utility.yul\":7049:7051   */\n      0x20\n        /* \"#utility.yul\":7038:7047   */\n      dup3\n        /* \"#utility.yul\":7034:7052   */\n      add\n        /* \"#utility.yul\":7026:7052   */\n      swap1\n      pop\n        /* \"#utility.yul\":7098:7107   */\n      dup2\n        /* \"#utility.yul\":7092:7096   */\n      dup2\n        /* \"#utility.yul\":7088:7108   */\n      sub\n        /* \"#utility.yul\":7084:7085   */\n      0x00\n        /* \"#utility.yul\":7073:7082   */\n      dup4\n        /* \"#utility.yul\":7069:7086   */\n      add\n        /* \"#utility.yul\":7062:7109   */\n      mstore\n        /* \"#utility.yul\":7126:7234   */\n      tag_298\n        /* \"#utility.yul\":7229:7233   */\n      dup2\n        /* \"#utility.yul\":7220:7226   */\n      dup5\n        /* \"#utility.yul\":7126:7234   */\n      tag_216\n      jump\t// in\n    tag_298:\n        /* \"#utility.yul\":7118:7234   */\n      swap1\n      pop\n        /* \"#utility.yul\":6868:7241   */\n      swap3\n      swap2\n      pop\n      pop\n      jump\t// out\n        /* \"#utility.yul\":7247:7427   */\n    tag_217:\n        /* \"#utility.yul\":7295:7372   */\n      0x4e487b7100000000000000000000000000000000000000000000000000000000\n        /* \"#utility.yul\":7292:7293   */\n      0x00\n        /* \"#utility.yul\":7285:7373   */\n      mstore\n        /* \"#utility.yul\":7392:7396   */\n      0x11\n        /* \"#utility.yul\":7389:7390   */\n      0x04\n        /* \"#utility.yul\":7382:7397   */\n      mstore\n        /* \"#utility.yul\":7416:7420   */\n      0x24\n        /* \"#utility.yul\":7413:7414   */\n      0x00\n        /* \"#utility.yul\":7406:7421   */\n      revert\n        /* \"#utility.yul\":7433:7624   */\n    tag_55:\n        /* \"#utility.yul\":7473:7476   */\n      0x00\n        /* \"#utility.yul\":7492:7512   */\n      tag_301\n        /* \"#utility.yul\":7510:7511   */\n      dup3\n        /* \"#utility.yul\":7492:7512   */\n      tag_196\n      jump\t// in\n    tag_301:\n        /* \"#utility.yul\":7487:7512   */\n      swap2\n      pop\n        /* \"#utility.yul\":7526:7546   */\n      tag_302\n        /* \"#utility.yul\":7544:7545   */\n      dup4\n        /* \"#utility.yul\":7526:7546   */\n      tag_196\n      jump\t// in\n    tag_302:\n        /* \"#utility.yul\":7521:7546   */\n      swap3\n      pop\n        /* \"#utility.yul\":7569:7570   */\n      dup3\n        /* \"#utility.yul\":7566:7567   */\n      dup3\n        /* \"#utility.yul\":7562:7571   */\n      add\n        /* \"#utility.yul\":7555:7571   */\n      swap1\n      pop\n        /* \"#utility.yul\":7590:7593   */\n      dup1\n        /* \"#utility.yul\":7587:7588   */\n      dup3\n        /* \"#utility.yul\":7584:7594   */\n      gt\n        /* \"#utility.yul\":7581:7617   */\n      iszero\n      tag_303\n      jumpi\n        /* \"#utility.yul\":7597:7615   */\n      tag_304\n      tag_217\n      jump\t// in\n    tag_304:\n        /* \"#utility.yul\":7581:7617   */\n    tag_303:\n        /* \"#utility.yul\":7433:7624   */\n      swap3\n      swap2\n      pop\n      pop\n      jump\t// out\n        /* \"#utility.yul\":7630:7863   */\n    tag_57:\n        /* \"#utility.yul\":7669:7672   */\n      0x00\n        /* \"#utility.yul\":7692:7716   */\n      tag_306\n        /* \"#utility.yul\":7710:7715   */\n      dup3\n        /* \"#utility.yul\":7692:7716   */\n      tag_196\n      jump\t// in\n    tag_306:\n        /* \"#utility.yul\":7683:7716   */\n      swap2\n      pop\n        /* \"#utility.yul\":7738:7804   */\n      0xffffffffffffffffffffffffffffffffffffffffffffffffffffffffffffffff\n        /* \"#utility.yul\":7731:7736   */\n      dup3\n        /* \"#utility.yul\":7728:7805   */\n      sub\n        /* \"#utility.yul\":7725:7828   */\n      tag_307\n      jumpi\n        /* \"#utility.yul\":7808:7826   */\n      tag_308\n      tag_217\n      jump\t// in\n    tag_308:\n        /* \"#utility.yul\":7725:7828   */\n    tag_307:\n        /* \"#utility.yul\":7855:7856   */\n      0x01\n        /* \"#utility.yul\":7848:7853   */\n      dup3\n        /* \"#utility.yul\":7844:7857   */\n      add\n        /* \"#utility.yul\":7837:7857   */\n      swap1\n      pop\n        /* \"#utility.yul\":7630:7863   */\n      swap2\n      swap1\n      pop\n      jump\t// out\n        /* \"#utility.yul\":7869:8049   */\n    tag_80:\n        /* \"#utility.yul\":7917:7994   */\n      0x4e487b7100000000000000000000000000000000000000000000000000000000\n        /* \"#utility.yul\":7914:7915   */\n      0x00\n        /* \"#utility.yul\":7907:7995   */\n      mstore\n        /* \"#utility.yul\":8014:8018   */\n      0x32\n        /* \"#utility.yul\":8011:8012   */\n      0x04\n        /* \"#utility.yul\":8004:8019   */\n      mstore\n        /* \"#utility.yul\":8038:8042   */\n      0x24\n        /* \"#utility.yul\":8035:8036   */\n      0x00\n        /* \"#utility.yul\":8028:8043   */\n      revert\n        /* \"#utility.yul\":8055:8249   */\n    tag_85:\n        /* \"#utility.yul\":8095:8099   */\n      0x00\n        /* \"#utility.yul\":8115:8135   */\n      tag_311\n        /* \"#utility.yul\":8133:8134   */\n      dup3\n        /* \"#utility.yul\":8115:8135   */\n      tag_196\n      jump\t// in\n    tag_311:\n        /* \"#utility.yul\":8110:8135   */\n      swap2\n      pop\n        /* \"#utility.yul\":8149:8169   */\n      tag_312\n        /* \"#utility.yul\":8167:8168   */\n      dup4\n        /* \"#utility.yul\":8149:8169   */\n      tag_196\n      jump\t// in\n    tag_312:\n        /* \"#utility.yul\":8144:8169   */\n      swap3\n      pop\n        /* \"#utility.yul\":8193:8194   */\n      dup3\n        /* \"#utility.yul\":8190:8191   */\n      dup3\n        /* \"#utility.yul\":8186:8195   */\n      sub\n        /* \"#utility.yul\":8178:8195   */\n      swap1\n      pop\n        /* \"#utility.yul\":8217:8218   */\n      dup2\n        /* \"#utility.yul\":8211:8215   */\n      dup2\n        /* \"#utility.yul\":8208:8219   */\n      gt\n        /* \"#utility.yul\":8205:8242   */\n      iszero\n      tag_313\n      jumpi\n        /* \"#utility.yul\":8222:8240   */\n      tag_314\n      tag_217\n      jump\t// in\n    tag_314:\n        /* \"#utility.yul\":8205:8242   */\n    tag_313:\n        /* \"#utility.yul\":8055:8249   */\n      swap3\n      swap2\n      pop\n      pop\n      jump\t// out\n        /* \"#utility.yul\":8255:8426   */\n    tag_94:\n        /* \"#utility.yul\":8294:8297   */\n      0x00\n        /* \"#utility.yul\":8317:8341   */\n      tag_316\n        /* \"#utility.yul\":8335:8340   */\n      dup3\n        /* \"#utility.yul\":8317:8341   */\n      tag_196\n      jump\t// in\n    tag_316:\n        /* \"#utility.yul\":8308:8341   */\n      swap2\n      pop\n        /* \"#utility.yul\":8363:8367   */\n      0x00\n        /* \"#utility.yul\":8356:8361   */\n      dup3\n        /* \"#utility.yul\":8353:8368   */\n      sub\n        /* \"#utility.yul\":8350:8391   */\n      tag_317\n      jumpi\n        /* \"#utility.yul\":8371:8389   */\n      tag_318\n      tag_217\n      jump\t// in\n    tag_318:\n        /* \"#utility.yul\":8350:8391   */\n    tag_317:\n        /* \"#utility.yul\":8418:8419   */\n      0x01\n        /* \"#utility.yul\":8411:8416   */\n      dup3\n        /* \"#utility.yul\":8407:8420   */\n      sub\n        /* \"#utility.yul\":8400:8420   */\n      swap1\n      pop\n        /* \"#utility.yul\":8255:8426   */\n      swap2\n      swap1\n      pop\n      jump\t// out\n        /* \"#utility.yul\":8432:8612   */\n    tag_218:\n        /* \"#utility.yul\":8480:8557   */\n      0x4e487b7100000000000000000000000000000000000000000000000000000000\n        /* \"#utility.yul\":8477:8478   */\n      0x00\n        /* \"#utility.yul\":8470:8558   */\n      mstore\n        /* \"#utility.yul\":8577:8581   */\n      0x12\n        /* \"#utility.yul\":8574:8575   */\n      0x04\n        /* \"#utility.yul\":8567:8582   */\n      mstore\n        /* \"#utility.yul\":8601:8605   */\n      0x24\n        /* \"#utility.yul\":8598:8599   */\n      0x00\n        /* \"#utility.yul\":8591:8606   */\n      revert\n        /* \"#utility.yul\":8618:8803   */\n    tag_117:\n        /* \"#utility.yul\":8658:8659   */\n      0x00\n        /* \"#utility.yul\":8675:8695   */\n      tag_321\n        /* \"#utility.yul\":8693:8694   */\n      dup3\n        /* \"#utility.yul\":8675:8695   */\n      tag_196\n      jump\t// in\n    tag_321:\n        /* \"#utility.yul\":8670:8695   */\n      swap2\n      pop\n        /* \"#utility.yul\":8709:8729   */\n      tag_322\n        /* \"#utility.yul\":8727:8728   */\n      dup4\n        /* \"#utility.yul\":8709:8729   */\n      tag_196\n      jump\t// in\n    tag_322:\n        /* \"#utility.yul\":8704:8729   */\n      swap3\n      pop\n        /* \"#utility.yul\":8748:8749   */\n      dup3\n        /* \"#utility.yul\":8738:8773   */\n      tag_323\n      jumpi\n        /* \"#utility.yul\":8753:8771   */\n      tag_324\n      tag_218\n      jump\t// in\n    tag_324:\n        /* \"#utility.yul\":8738:8773   */\n    tag_323:\n        /* \"#utility.yul\":8795:8796   */\n      dup3\n        /* \"#utility.yul\":8792:8793   */\n      dup3\n        /* \"#utility.yul\":8788:8797   */\n      div\n        /* \"#utility.yul\":8783:8797   */\n      swap1\n      pop\n        /* \"#utility.yul\":8618:8803   */\n      swap3\n      swap2\n      pop\n      pop\n      jump\t// out\n\n    auxdata: 0xa2646970667358221220e8d19c6e40761603663c10267dbb4c77fe75742c9bce7af7ef2675c47a35937564736f6c634300081a0033\n}\n",
				"bytecode": {
					"linkReferences": {},
					"object": "6080604052348015600e575f80fd5b50610e398061001c5f395ff3fe608060405234801561000f575f80fd5b5060043610610086575f3560e01c8063aa1cf79c11610059578063aa1cf79c14610126578063b0cfa9fc14610156578063b23d97f214610174578063e30c36f1146101a457610086565b8063287663201461008a5780632bbacaaa146100ba5780635d14639d146100d85780637141fb00146100f6575b5f80fd5b6100a4600480360381019061009f9190610946565b6101d4565b6040516100b19190610993565b60405180910390f35b6100c26101ed565b6040516100cf9190610993565b60405180910390f35b6100e0610220565b6040516100ed9190610993565b60405180910390f35b610110600480360381019061010b91906109ac565b61025a565b60405161011d91906109f1565b60405180910390f35b610140600480360381019061013b9190610b5a565b610274565b60405161014d9190610c58565b60405180910390f35b61015e610286565b60405161016b9190610993565b60405180910390f35b61018e60048036038101906101899190610b5a565b6102ba565b60405161019b9190610c58565b60405180910390f35b6101be60048036038101906101b99190610b5a565b6103b6565b6040516101cb9190610c58565b60405180910390f35b5f818310156101e357816101e5565b825b905092915050565b5f805f90505f5b80826102009190610ca5565b9150808061020d90610cd8565b915050600a81106101f457819250505090565b5f805f90505f5b600a8110156102525760018261023d9190610ca5565b9150808061024a90610cd8565b915050610227565b819250505090565b5f80820361026b576001905061026f565b5f90505b919050565b606061027f82610488565b9050919050565b5f805f90505f5b600a8110156102b2576001826102a39190610ca5565b9150808060010191505061028d565b508091505090565b60605f5b82518110156103ad575f8382815181106102db576102da610d1f565b5b602002602001015190505f8290505b600181101580156103205750846001826103049190610d4c565b8151811061031557610314610d1f565b5b602002602001015182105b1561037e57846001826103339190610d4c565b8151811061034457610343610d1f565b5b602002602001015185828151811061035f5761035e610d1f565b5b602002602001018181525050808061037690610d7f565b9150506102ea565b8185828151811061039257610391610d1f565b5b602002602001018181525050505080806001019150506102be565b50819050919050565b60605f5b825181101561047f575f6001826103d19190610ca5565b90505b8351811015610471575f8483815181106103f1576103f0610d1f565b5b602002602001015190505f85838151811061040f5761040e610d1f565b5b6020026020010151905080821115610462578186848151811061043557610434610d1f565b5b6020026020010181815250508086858151811061045557610454610d1f565b5b6020026020010181815250505b505080806001019150506103d4565b5080806001019150506103ba565b50819050919050565b6060600182511161049b578190506107ac565b5f600283516104aa9190610dd3565b90505f8382815181106104c0576104bf610d1f565b5b602002602001015190505f805f865167ffffffffffffffff8111156104e8576104e7610a1e565b5b6040519080825280602002602001820160405280156105165781602001602082028036833780820191505090505b5090505f875167ffffffffffffffff81111561053557610534610a1e565b5b6040519080825280602002602001820160405280156105635781602001602082028036833780820191505090505b5090505f5b885181101561063f5780870315610632578589828151811061058d5761058c610d1f565b5b602002602001015110156105e8578881815181106105ae576105ad610d1f565b5b60200260200101518386815181106105c9576105c8610d1f565b5b60200260200101818152505084806105e090610cd8565b955050610631565b8881815181106105fb576105fa610d1f565b5b602002602001015182858151811061061657610615610d1f565b5b602002602001018181525050838061062d90610cd8565b9450505b5b8080600101915050610568565b505f8467ffffffffffffffff81111561065b5761065a610a1e565b5b6040519080825280602002602001820160405280156106895781602001602082028036833780820191505090505b5090505f8467ffffffffffffffff8111156106a7576106a6610a1e565b5b6040519080825280602002602001820160405280156106d55781602001602082028036833780820191505090505b5090505f5b86811015610729578481815181106106f5576106f4610d1f565b5b60200260200101518382815181106107105761070f610d1f565b5b60200260200101818152505080806001019150506106da565b505f5b8581101561077b5783818151811061074757610746610d1f565b5b602002602001015182828151811061076257610761610d1f565b5b602002602001018181525050808060010191505061072c565b505f61078683610488565b90505f61079283610488565b905061079f828a836107b1565b9a50505050505050505050505b919050565b60605f8251600186516107c49190610ca5565b6107ce9190610ca5565b67ffffffffffffffff8111156107e7576107e6610a1e565b5b6040519080825280602002602001820160405280156108155781602001602082028036833780820191505090505b5090505f5b855181101561086a5785818151811061083657610835610d1f565b5b602002602001015182828151811061085157610850610d1f565b5b602002602001018181525050808060010191505061081a565b5083818651815181106108805761087f610d1f565b5b6020026020010181815250505f5b83518110156108f6578381815181106108aa576108a9610d1f565b5b60200260200101518282600189516108c29190610ca5565b6108cc9190610ca5565b815181106108dd576108dc610d1f565b5b602002602001018181525050808060010191505061088e565b50809150509392505050565b5f604051905090565b5f80fd5b5f80fd5b5f819050919050565b61092581610913565b811461092f575f80fd5b50565b5f813590506109408161091c565b92915050565b5f806040838503121561095c5761095b61090b565b5b5f61096985828601610932565b925050602061097a85828601610932565b9150509250929050565b61098d81610913565b82525050565b5f6020820190506109a65f830184610984565b92915050565b5f602082840312156109c1576109c061090b565b5b5f6109ce84828501610932565b91505092915050565b5f8115159050919050565b6109eb816109d7565b82525050565b5f602082019050610a045f8301846109e2565b92915050565b5f80fd5b5f601f19601f8301169050919050565b7f4e487b71000000000000000000000000000000000000000000000000000000005f52604160045260245ffd5b610a5482610a0e565b810181811067ffffffffffffffff82111715610a7357610a72610a1e565b5b80604052505050565b5f610a85610902565b9050610a918282610a4b565b919050565b5f67ffffffffffffffff821115610ab057610aaf610a1e565b5b602082029050602081019050919050565b5f80fd5b5f610ad7610ad284610a96565b610a7c565b90508083825260208201905060208402830185811115610afa57610af9610ac1565b5b835b81811015610b235780610b0f8882610932565b845260208401935050602081019050610afc565b5050509392505050565b5f82601f830112610b4157610b40610a0a565b5b8135610b51848260208601610ac5565b91505092915050565b5f60208284031215610b6f57610b6e61090b565b5b5f82013567ffffffffffffffff811115610b8c57610b8b61090f565b5b610b9884828501610b2d565b91505092915050565b5f81519050919050565b5f82825260208201905092915050565b5f819050602082019050919050565b610bd381610913565b82525050565b5f610be48383610bca565b60208301905092915050565b5f602082019050919050565b5f610c0682610ba1565b610c108185610bab565b9350610c1b83610bbb565b805f5b83811015610c4b578151610c328882610bd9565b9750610c3d83610bf0565b925050600181019050610c1e565b5085935050505092915050565b5f6020820190508181035f830152610c708184610bfc565b905092915050565b7f4e487b71000000000000000000000000000000000000000000000000000000005f52601160045260245ffd5b5f610caf82610913565b9150610cba83610913565b9250828201905080821115610cd257610cd1610c78565b5b92915050565b5f610ce282610913565b91507fffffffffffffffffffffffffffffffffffffffffffffffffffffffffffffffff8203610d1457610d13610c78565b5b600182019050919050565b7f4e487b71000000000000000000000000000000000000000000000000000000005f52603260045260245ffd5b5f610d5682610913565b9150610d6183610913565b9250828203905081811115610d7957610d78610c78565b5b92915050565b5f610d8982610913565b91505f8203610d9b57610d9a610c78565b5b600182039050919050565b7f4e487b71000000000000000000000000000000000000000000000000000000005f52601260045260245ffd5b5f610ddd82610913565b9150610de883610913565b925082610df857610df7610da6565b5b82820490509291505056fea2646970667358221220e8d19c6e40761603663c10267dbb4c77fe75742c9bce7af7ef2675c47a35937564736f6c634300081a0033",
					"opcodes": "PUSH1 0x80 PUSH1 0x40 MSTORE CALLVALUE DUP1 ISZERO PUSH1 0xE JUMPI PUSH0 DUP1 REVERT JUMPDEST POP PUSH2 0xE39 DUP1 PUSH2 0x1C PUSH0 CODECOPY PUSH0 RETURN INVALID PUSH1 0x80 PUSH1 0x40 MSTORE CALLVALUE DUP1 ISZERO PUSH2 0xF JUMPI PUSH0 DUP1 REVERT JUMPDEST POP PUSH1 0x4 CALLDATASIZE LT PUSH2 0x86 JUMPI PUSH0 CALLDATALOAD PUSH1 0xE0 SHR DUP1 PUSH4 0xAA1CF79C GT PUSH2 0x59 JUMPI DUP1 PUSH4 0xAA1CF79C EQ PUSH2 0x126 JUMPI DUP1 PUSH4 0xB0CFA9FC EQ PUSH2 0x156 JUMPI DUP1 PUSH4 0xB23D97F2 EQ PUSH2 0x174 JUMPI DUP1 PUSH4 0xE30C36F1 EQ PUSH2 0x1A4 JUMPI PUSH2 0x86 JUMP JUMPDEST DUP1 PUSH4 0x28766320 EQ PUSH2 0x8A JUMPI DUP1 PUSH4 0x2BBACAAA EQ PUSH2 0xBA JUMPI DUP1 PUSH4 0x5D14639D EQ PUSH2 0xD8 JUMPI DUP1 PUSH4 0x7141FB00 EQ PUSH2 0xF6 JUMPI JUMPDEST PUSH0 DUP1 REVERT JUMPDEST PUSH2 0xA4 PUSH1 0x4 DUP1 CALLDATASIZE SUB DUP2 ADD SWAP1 PUSH2 0x9F SWAP2 SWAP1 PUSH2 0x946 JUMP JUMPDEST PUSH2 0x1D4 JUMP JUMPDEST PUSH1 0x40 MLOAD PUSH2 0xB1 SWAP2 SWAP1 PUSH2 0x993 JUMP JUMPDEST PUSH1 0x40 MLOAD DUP1 SWAP2 SUB SWAP1 RETURN JUMPDEST PUSH2 0xC2 PUSH2 0x1ED JUMP JUMPDEST PUSH1 0x40 MLOAD PUSH2 0xCF SWAP2 SWAP1 PUSH2 0x993 JUMP JUMPDEST PUSH1 0x40 MLOAD DUP1 SWAP2 SUB SWAP1 RETURN JUMPDEST PUSH2 0xE0 PUSH2 0x220 JUMP JUMPDEST PUSH1 0x40 MLOAD PUSH2 0xED SWAP2 SWAP1 PUSH2 0x993 JUMP JUMPDEST PUSH1 0x40 MLOAD DUP1 SWAP2 SUB SWAP1 RETURN JUMPDEST PUSH2 0x110 PUSH1 0x4 DUP1 CALLDATASIZE SUB DUP2 ADD SWAP1 PUSH2 0x10B SWAP2 SWAP1 PUSH2 0x9AC JUMP JUMPDEST PUSH2 0x25A JUMP JUMPDEST PUSH1 0x40 MLOAD PUSH2 0x11D SWAP2 SWAP1 PUSH2 0x9F1 JUMP JUMPDEST PUSH1 0x40 MLOAD DUP1 SWAP2 SUB SWAP1 RETURN JUMPDEST PUSH2 0x140 PUSH1 0x4 DUP1 CALLDATASIZE SUB DUP2 ADD SWAP1 PUSH2 0x13B SWAP2 SWAP1 PUSH2 0xB5A JUMP JUMPDEST PUSH2 0x274 JUMP JUMPDEST PUSH1 0x40 MLOAD PUSH2 0x14D SWAP2 SWAP1 PUSH2 0xC58 JUMP JUMPDEST PUSH1 0x40 MLOAD DUP1 SWAP2 SUB SWAP1 RETURN JUMPDEST PUSH2 0x15E PUSH2 0x286 JUMP JUMPDEST PUSH1 0x40 MLOAD PUSH2 0x16B SWAP2 SWAP1 PUSH2 0x993 JUMP JUMPDEST PUSH1 0x40 MLOAD DUP1 SWAP2 SUB SWAP1 RETURN JUMPDEST PUSH2 0x18E PUSH1 0x4 DUP1 CALLDATASIZE SUB DUP2 ADD SWAP1 PUSH2 0x189 SWAP2 SWAP1 PUSH2 0xB5A JUMP JUMPDEST PUSH2 0x2BA JUMP JUMPDEST PUSH1 0x40 MLOAD PUSH2 0x19B SWAP2 SWAP1 PUSH2 0xC58 JUMP JUMPDEST PUSH1 0x40 MLOAD DUP1 SWAP2 SUB SWAP1 RETURN JUMPDEST PUSH2 0x1BE PUSH1 0x4 DUP1 CALLDATASIZE SUB DUP2 ADD SWAP1 PUSH2 0x1B9 SWAP2 SWAP1 PUSH2 0xB5A JUMP JUMPDEST PUSH2 0x3B6 JUMP JUMPDEST PUSH1 0x40 MLOAD PUSH2 0x1CB SWAP2 SWAP1 PUSH2 0xC58 JUMP JUMPDEST PUSH1 0x40 MLOAD DUP1 SWAP2 SUB SWAP1 RETURN JUMPDEST PUSH0 DUP2 DUP4 LT ISZERO PUSH2 0x1E3 JUMPI DUP2 PUSH2 0x1E5 JUMP JUMPDEST DUP3 JUMPDEST SWAP1 POP SWAP3 SWAP2 POP POP JUMP JUMPDEST PUSH0 DUP1 PUSH0 SWAP1 POP PUSH0 JUMPDEST DUP1 DUP3 PUSH2 0x200 SWAP2 SWAP1 PUSH2 0xCA5 JUMP JUMPDEST SWAP2 POP DUP1 DUP1 PUSH2 0x20D SWAP1 PUSH2 0xCD8 JUMP JUMPDEST SWAP2 POP POP PUSH1 0xA DUP2 LT PUSH2 0x1F4 JUMPI DUP2 SWAP3 POP POP POP SWAP1 JUMP JUMPDEST PUSH0 DUP1 PUSH0 SWAP1 POP PUSH0 JUMPDEST PUSH1 0xA DUP2 LT ISZERO PUSH2 0x252 JUMPI PUSH1 0x1 DUP3 PUSH2 0x23D SWAP2 SWAP1 PUSH2 0xCA5 JUMP JUMPDEST SWAP2 POP DUP1 DUP1 PUSH2 0x24A SWAP1 PUSH2 0xCD8 JUMP JUMPDEST SWAP2 POP POP PUSH2 0x227 JUMP JUMPDEST DUP2 SWAP3 POP POP POP SWAP1 JUMP JUMPDEST PUSH0 DUP1 DUP3 SUB PUSH2 0x26B JUMPI PUSH1 0x1 SWAP1 POP PUSH2 0x26F JUMP JUMPDEST PUSH0 SWAP1 POP JUMPDEST SWAP2 SWAP1 POP JUMP JUMPDEST PUSH1 0x60 PUSH2 0x27F DUP3 PUSH2 0x488 JUMP JUMPDEST SWAP1 POP SWAP2 SWAP1 POP JUMP JUMPDEST PUSH0 DUP1 PUSH0 SWAP1 POP PUSH0 JUMPDEST PUSH1 0xA DUP2 LT ISZERO PUSH2 0x2B2 JUMPI PUSH1 0x1 DUP3 PUSH2 0x2A3 SWAP2 SWAP1 PUSH2 0xCA5 JUMP JUMPDEST SWAP2 POP DUP1 DUP1 PUSH1 0x1 ADD SWAP2 POP POP PUSH2 0x28D JUMP JUMPDEST POP DUP1 SWAP2 POP POP SWAP1 JUMP JUMPDEST PUSH1 0x60 PUSH0 JUMPDEST DUP3 MLOAD DUP2 LT ISZERO PUSH2 0x3AD JUMPI PUSH0 DUP4 DUP3 DUP2 MLOAD DUP2 LT PUSH2 0x2DB JUMPI PUSH2 0x2DA PUSH2 0xD1F JUMP JUMPDEST JUMPDEST PUSH1 0x20 MUL PUSH1 0x20 ADD ADD MLOAD SWAP1 POP PUSH0 DUP3 SWAP1 POP JUMPDEST PUSH1 0x1 DUP2 LT ISZERO DUP1 ISZERO PUSH2 0x320 JUMPI POP DUP5 PUSH1 0x1 DUP3 PUSH2 0x304 SWAP2 SWAP1 PUSH2 0xD4C JUMP JUMPDEST DUP2 MLOAD DUP2 LT PUSH2 0x315 JUMPI PUSH2 0x314 PUSH2 0xD1F JUMP JUMPDEST JUMPDEST PUSH1 0x20 MUL PUSH1 0x20 ADD ADD MLOAD DUP3 LT JUMPDEST ISZERO PUSH2 0x37E JUMPI DUP5 PUSH1 0x1 DUP3 PUSH2 0x333 SWAP2 SWAP1 PUSH2 0xD4C JUMP JUMPDEST DUP2 MLOAD DUP2 LT PUSH2 0x344 JUMPI PUSH2 0x343 PUSH2 0xD1F JUMP JUMPDEST JUMPDEST PUSH1 0x20 MUL PUSH1 0x20 ADD ADD MLOAD DUP6 DUP3 DUP2 MLOAD DUP2 LT PUSH2 0x35F JUMPI PUSH2 0x35E PUSH2 0xD1F JUMP JUMPDEST JUMPDEST PUSH1 0x20 MUL PUSH1 0x20 ADD ADD DUP2 DUP2 MSTORE POP POP DUP1 DUP1 PUSH2 0x376 SWAP1 PUSH2 0xD7F JUMP JUMPDEST SWAP2 POP POP PUSH2 0x2EA JUMP JUMPDEST DUP2 DUP6 DUP3 DUP2 MLOAD DUP2 LT PUSH2 0x392 JUMPI PUSH2 0x391 PUSH2 0xD1F JUMP JUMPDEST JUMPDEST PUSH1 0x20 MUL PUSH1 0x20 ADD ADD DUP2 DUP2 MSTORE POP POP POP POP DUP1 DUP1 PUSH1 0x1 ADD SWAP2 POP POP PUSH2 0x2BE JUMP JUMPDEST POP DUP2 SWAP1 POP SWAP2 SWAP1 POP JUMP JUMPDEST PUSH1 0x60 PUSH0 JUMPDEST DUP3 MLOAD DUP2 LT ISZERO PUSH2 0x47F JUMPI PUSH0 PUSH1 0x1 DUP3 PUSH2 0x3D1 SWAP2 SWAP1 PUSH2 0xCA5 JUMP JUMPDEST SWAP1 POP JUMPDEST DUP4 MLOAD DUP2 LT ISZERO PUSH2 0x471 JUMPI PUSH0 DUP5 DUP4 DUP2 MLOAD DUP2 LT PUSH2 0x3F1 JUMPI PUSH2 0x3F0 PUSH2 0xD1F JUMP JUMPDEST JUMPDEST PUSH1 0x20 MUL PUSH1 0x20 ADD ADD MLOAD SWAP1 POP PUSH0 DUP6 DUP4 DUP2 MLOAD DUP2 LT PUSH2 0x40F JUMPI PUSH2 0x40E PUSH2 0xD1F JUMP JUMPDEST JUMPDEST PUSH1 0x20 MUL PUSH1 0x20 ADD ADD MLOAD SWAP1 POP DUP1 DUP3 GT ISZERO PUSH2 0x462 JUMPI DUP2 DUP7 DUP5 DUP2 MLOAD DUP2 LT PUSH2 0x435 JUMPI PUSH2 0x434 PUSH2 0xD1F JUMP JUMPDEST JUMPDEST PUSH1 0x20 MUL PUSH1 0x20 ADD ADD DUP2 DUP2 MSTORE POP POP DUP1 DUP7 DUP6 DUP2 MLOAD DUP2 LT PUSH2 0x455 JUMPI PUSH2 0x454 PUSH2 0xD1F JUMP JUMPDEST JUMPDEST PUSH1 0x20 MUL PUSH1 0x20 ADD ADD DUP2 DUP2 MSTORE POP POP JUMPDEST POP POP DUP1 DUP1 PUSH1 0x1 ADD SWAP2 POP POP PUSH2 0x3D4 JUMP JUMPDEST POP DUP1 DUP1 PUSH1 0x1 ADD SWAP2 POP POP PUSH2 0x3BA JUMP JUMPDEST POP DUP2 SWAP1 POP SWAP2 SWAP1 POP JUMP JUMPDEST PUSH1 0x60 PUSH1 0x1 DUP3 MLOAD GT PUSH2 0x49B JUMPI DUP2 SWAP1 POP PUSH2 0x7AC JUMP JUMPDEST PUSH0 PUSH1 0x2 DUP4 MLOAD PUSH2 0x4AA SWAP2 SWAP1 PUSH2 0xDD3 JUMP JUMPDEST SWAP1 POP PUSH0 DUP4 DUP3 DUP2 MLOAD DUP2 LT PUSH2 0x4C0 JUMPI PUSH2 0x4BF PUSH2 0xD1F JUMP JUMPDEST JUMPDEST PUSH1 0x20 MUL PUSH1 0x20 ADD ADD MLOAD SWAP1 POP PUSH0 DUP1 PUSH0 DUP7 MLOAD PUSH8 0xFFFFFFFFFFFFFFFF DUP2 GT ISZERO PUSH2 0x4E8 JUMPI PUSH2 0x4E7 PUSH2 0xA1E JUMP JUMPDEST JUMPDEST PUSH1 0x40 MLOAD SWAP1 DUP1 DUP3 MSTORE DUP1 PUSH1 0x20 MUL PUSH1 0x20 ADD DUP3 ADD PUSH1 0x40 MSTORE DUP1 ISZERO PUSH2 0x516 JUMPI DUP2 PUSH1 0x20 ADD PUSH1 0x20 DUP3 MUL DUP1 CALLDATASIZE DUP4 CALLDATACOPY DUP1 DUP3 ADD SWAP2 POP POP SWAP1 POP JUMPDEST POP SWAP1 POP PUSH0 DUP8 MLOAD PUSH8 0xFFFFFFFFFFFFFFFF DUP2 GT ISZERO PUSH2 0x535 JUMPI PUSH2 0x534 PUSH2 0xA1E JUMP JUMPDEST JUMPDEST PUSH1 0x40 MLOAD SWAP1 DUP1 DUP3 MSTORE DUP1 PUSH1 0x20 MUL PUSH1 0x20 ADD DUP3 ADD PUSH1 0x40 MSTORE DUP1 ISZERO PUSH2 0x563 JUMPI DUP2 PUSH1 0x20 ADD PUSH1 0x20 DUP3 MUL DUP1 CALLDATASIZE DUP4 CALLDATACOPY DUP1 DUP3 ADD SWAP2 POP POP SWAP1 POP JUMPDEST POP SWAP1 POP PUSH0 JUMPDEST DUP9 MLOAD DUP2 LT ISZERO PUSH2 0x63F JUMPI DUP1 DUP8 SUB ISZERO PUSH2 0x632 JUMPI DUP6 DUP10 DUP3 DUP2 MLOAD DUP2 LT PUSH2 0x58D JUMPI PUSH2 0x58C PUSH2 0xD1F JUMP JUMPDEST JUMPDEST PUSH1 0x20 MUL PUSH1 0x20 ADD ADD MLOAD LT ISZERO PUSH2 0x5E8 JUMPI DUP9 DUP2 DUP2 MLOAD DUP2 LT PUSH2 0x5AE JUMPI PUSH2 0x5AD PUSH2 0xD1F JUMP JUMPDEST JUMPDEST PUSH1 0x20 MUL PUSH1 0x20 ADD ADD MLOAD DUP4 DUP7 DUP2 MLOAD DUP2 LT PUSH2 0x5C9 JUMPI PUSH2 0x5C8 PUSH2 0xD1F JUMP JUMPDEST JUMPDEST PUSH1 0x20 MUL PUSH1 0x20 ADD ADD DUP2 DUP2 MSTORE POP POP DUP5 DUP1 PUSH2 0x5E0 SWAP1 PUSH2 0xCD8 JUMP JUMPDEST SWAP6 POP POP PUSH2 0x631 JUMP JUMPDEST DUP9 DUP2 DUP2 MLOAD DUP2 LT PUSH2 0x5FB JUMPI PUSH2 0x5FA PUSH2 0xD1F JUMP JUMPDEST JUMPDEST PUSH1 0x20 MUL PUSH1 0x20 ADD ADD MLOAD DUP3 DUP6 DUP2 MLOAD DUP2 LT PUSH2 0x616 JUMPI PUSH2 0x615 PUSH2 0xD1F JUMP JUMPDEST JUMPDEST PUSH1 0x20 MUL PUSH1 0x20 ADD ADD DUP2 DUP2 MSTORE POP POP DUP4 DUP1 PUSH2 0x62D SWAP1 PUSH2 0xCD8 JUMP JUMPDEST SWAP5 POP POP JUMPDEST JUMPDEST DUP1 DUP1 PUSH1 0x1 ADD SWAP2 POP POP PUSH2 0x568 JUMP JUMPDEST POP PUSH0 DUP5 PUSH8 0xFFFFFFFFFFFFFFFF DUP2 GT ISZERO PUSH2 0x65B JUMPI PUSH2 0x65A PUSH2 0xA1E JUMP JUMPDEST JUMPDEST PUSH1 0x40 MLOAD SWAP1 DUP1 DUP3 MSTORE DUP1 PUSH1 0x20 MUL PUSH1 0x20 ADD DUP3 ADD PUSH1 0x40 MSTORE DUP1 ISZERO PUSH2 0x689 JUMPI DUP2 PUSH1 0x20 ADD PUSH1 0x20 DUP3 MUL DUP1 CALLDATASIZE DUP4 CALLDATACOPY DUP1 DUP3 ADD SWAP2 POP POP SWAP1 POP JUMPDEST POP SWAP1 POP PUSH0 DUP5 PUSH8 0xFFFFFFFFFFFFFFFF DUP2 GT ISZERO PUSH2 0x6A7 JUMPI PUSH2 0x6A6 PUSH2 0xA1E JUMP JUMPDEST JUMPDEST PUSH1 0x40 MLOAD SWAP1 DUP1 DUP3 MSTORE DUP1 PUSH1 0x20 MUL PUSH1 0x20 ADD DUP3 ADD PUSH1 0x40 MSTORE DUP1 ISZERO PUSH2 0x6D5 JUMPI DUP2 PUSH1 0x20 ADD PUSH1 0x20 DUP3 MUL DUP1 CALLDATASIZE DUP4 CALLDATACOPY DUP1 DUP3 ADD SWAP2 POP POP SWAP1 POP JUMPDEST POP SWAP1 POP PUSH0 JUMPDEST DUP7 DUP2 LT ISZERO PUSH2 0x729 JUMPI DUP5 DUP2 DUP2 MLOAD DUP2 LT PUSH2 0x6F5 JUMPI PUSH2 0x6F4 PUSH2 0xD1F JUMP JUMPDEST JUMPDEST PUSH1 0x20 MUL PUSH1 0x20 ADD ADD MLOAD DUP4 DUP3 DUP2 MLOAD DUP2 LT PUSH2 0x710 JUMPI PUSH2 0x70F PUSH2 0xD1F JUMP JUMPDEST JUMPDEST PUSH1 0x20 MUL PUSH1 0x20 ADD ADD DUP2 DUP2 MSTORE POP POP DUP1 DUP1 PUSH1 0x1 ADD SWAP2 POP POP PUSH2 0x6DA JUMP JUMPDEST POP PUSH0 JUMPDEST DUP6 DUP2 LT ISZERO PUSH2 0x77B JUMPI DUP4 DUP2 DUP2 MLOAD DUP2 LT PUSH2 0x747 JUMPI PUSH2 0x746 PUSH2 0xD1F JUMP JUMPDEST JUMPDEST PUSH1 0x20 MUL PUSH1 0x20 ADD ADD MLOAD DUP3 DUP3 DUP2 MLOAD DUP2 LT PUSH2 0x762 JUMPI PUSH2 0x761 PUSH2 0xD1F JUMP JUMPDEST JUMPDEST PUSH1 0x20 MUL PUSH1 0x20 ADD ADD DUP2 DUP2 MSTORE POP POP DUP1 DUP1 PUSH1 0x1 ADD SWAP2 POP POP PUSH2 0x72C JUMP JUMPDEST POP PUSH0 PUSH2 0x786 DUP4 PUSH2 0x488 JUMP JUMPDEST SWAP1 POP PUSH0 PUSH2 0x792 DUP4 PUSH2 0x488 JUMP JUMPDEST SWAP1 POP PUSH2 0x79F DUP3 DUP11 DUP4 PUSH2 0x7B1 JUMP JUMPDEST SWAP11 POP POP POP POP POP POP POP POP POP POP POP JUMPDEST SWAP2 SWAP1 POP JUMP JUMPDEST PUSH1 0x60 PUSH0 DUP3 MLOAD PUSH1 0x1 DUP7 MLOAD PUSH2 0x7C4 SWAP2 SWAP1 PUSH2 0xCA5 JUMP JUMPDEST PUSH2 0x7CE SWAP2 SWAP1 PUSH2 0xCA5 JUMP JUMPDEST PUSH8 0xFFFFFFFFFFFFFFFF DUP2 GT ISZERO PUSH2 0x7E7 JUMPI PUSH2 0x7E6 PUSH2 0xA1E JUMP JUMPDEST JUMPDEST PUSH1 0x40 MLOAD SWAP1 DUP1 DUP3 MSTORE DUP1 PUSH1 0x20 MUL PUSH1 0x20 ADD DUP3 ADD PUSH1 0x40 MSTORE DUP1 ISZERO PUSH2 0x815 JUMPI DUP2 PUSH1 0x20 ADD PUSH1 0x20 DUP3 MUL DUP1 CALLDATASIZE DUP4 CALLDATACOPY DUP1 DUP3 ADD SWAP2 POP POP SWAP1 POP JUMPDEST POP SWAP1 POP PUSH0 JUMPDEST DUP6 MLOAD DUP2 LT ISZERO PUSH2 0x86A JUMPI DUP6 DUP2 DUP2 MLOAD DUP2 LT PUSH2 0x836 JUMPI PUSH2 0x835 PUSH2 0xD1F JUMP JUMPDEST JUMPDEST PUSH1 0x20 MUL PUSH1 0x20 ADD ADD MLOAD DUP3 DUP3 DUP2 MLOAD DUP2 LT PUSH2 0x851 JUMPI PUSH2 0x850 PUSH2 0xD1F JUMP JUMPDEST JUMPDEST PUSH1 0x20 MUL PUSH1 0x20 ADD ADD DUP2 DUP2 MSTORE POP POP DUP1 DUP1 PUSH1 0x1 ADD SWAP2 POP POP PUSH2 0x81A JUMP JUMPDEST POP DUP4 DUP2 DUP7 MLOAD DUP2 MLOAD DUP2 LT PUSH2 0x880 JUMPI PUSH2 0x87F PUSH2 0xD1F JUMP JUMPDEST JUMPDEST PUSH1 0x20 MUL PUSH1 0x20 ADD ADD DUP2 DUP2 MSTORE POP POP PUSH0 JUMPDEST DUP4 MLOAD DUP2 LT ISZERO PUSH2 0x8F6 JUMPI DUP4 DUP2 DUP2 MLOAD DUP2 LT PUSH2 0x8AA JUMPI PUSH2 0x8A9 PUSH2 0xD1F JUMP JUMPDEST JUMPDEST PUSH1 0x20 MUL PUSH1 0x20 ADD ADD MLOAD DUP3 DUP3 PUSH1 0x1 DUP10 MLOAD PUSH2 0x8C2 SWAP2 SWAP1 PUSH2 0xCA5 JUMP JUMPDEST PUSH2 0x8CC SWAP2 SWAP1 PUSH2 0xCA5 JUMP JUMPDEST DUP2 MLOAD DUP2 LT PUSH2 0x8DD JUMPI PUSH2 0x8DC PUSH2 0xD1F JUMP JUMPDEST JUMPDEST PUSH1 0x20 MUL PUSH1 0x20 ADD ADD DUP2 DUP2 MSTORE POP POP DUP1 DUP1 PUSH1 0x1 ADD SWAP2 POP POP PUSH2 0x88E JUMP JUMPDEST POP DUP1 SWAP2 POP POP SWAP4 SWAP3 POP POP POP JUMP JUMPDEST PUSH0 PUSH1 0x40 MLOAD SWAP1 POP SWAP1 JUMP JUMPDEST PUSH0 DUP1 REVERT JUMPDEST PUSH0 DUP1 REVERT JUMPDEST PUSH0 DUP2 SWAP1 POP SWAP2 SWAP1 POP JUMP JUMPDEST PUSH2 0x925 DUP2 PUSH2 0x913 JUMP JUMPDEST DUP2 EQ PUSH2 0x92F JUMPI PUSH0 DUP1 REVERT JUMPDEST POP JUMP JUMPDEST PUSH0 DUP2 CALLDATALOAD SWAP1 POP PUSH2 0x940 DUP2 PUSH2 0x91C JUMP JUMPDEST SWAP3 SWAP2 POP POP JUMP JUMPDEST PUSH0 DUP1 PUSH1 0x40 DUP4 DUP6 SUB SLT ISZERO PUSH2 0x95C JUMPI PUSH2 0x95B PUSH2 0x90B JUMP JUMPDEST JUMPDEST PUSH0 PUSH2 0x969 DUP6 DUP3 DUP7 ADD PUSH2 0x932 JUMP JUMPDEST SWAP3 POP POP PUSH1 0x20 PUSH2 0x97A DUP6 DUP3 DUP7 ADD PUSH2 0x932 JUMP JUMPDEST SWAP2 POP POP SWAP3 POP SWAP3 SWAP1 POP JUMP JUMPDEST PUSH2 0x98D DUP2 PUSH2 0x913 JUMP JUMPDEST DUP3 MSTORE POP POP JUMP JUMPDEST PUSH0 PUSH1 0x20 DUP3 ADD SWAP1 POP PUSH2 0x9A6 PUSH0 DUP4 ADD DUP5 PUSH2 0x984 JUMP JUMPDEST SWAP3 SWAP2 POP POP JUMP JUMPDEST PUSH0 PUSH1 0x20 DUP3 DUP5 SUB SLT ISZERO PUSH2 0x9C1 JUMPI PUSH2 0x9C0 PUSH2 0x90B JUMP JUMPDEST JUMPDEST PUSH0 PUSH2 0x9CE DUP5 DUP3 DUP6 ADD PUSH2 0x932 JUMP JUMPDEST SWAP2 POP POP SWAP3 SWAP2 POP POP JUMP JUMPDEST PUSH0 DUP2 ISZERO ISZERO SWAP1 POP SWAP2 SWAP1 POP JUMP JUMPDEST PUSH2 0x9EB DUP2 PUSH2 0x9D7 JUMP JUMPDEST DUP3 MSTORE POP POP JUMP JUMPDEST PUSH0 PUSH1 0x20 DUP3 ADD SWAP1 POP PUSH2 0xA04 PUSH0 DUP4 ADD DUP5 PUSH2 0x9E2 JUMP JUMPDEST SWAP3 SWAP2 POP POP JUMP JUMPDEST PUSH0 DUP1 REVERT JUMPDEST PUSH0 PUSH1 0x1F NOT PUSH1 0x1F DUP4 ADD AND SWAP1 POP SWAP2 SWAP1 POP JUMP JUMPDEST PUSH32 0x4E487B7100000000000000000000000000000000000000000000000000000000 PUSH0 MSTORE PUSH1 0x41 PUSH1 0x4 MSTORE PUSH1 0x24 PUSH0 REVERT JUMPDEST PUSH2 0xA54 DUP3 PUSH2 0xA0E JUMP JUMPDEST DUP2 ADD DUP2 DUP2 LT PUSH8 0xFFFFFFFFFFFFFFFF DUP3 GT OR ISZERO PUSH2 0xA73 JUMPI PUSH2 0xA72 PUSH2 0xA1E JUMP JUMPDEST JUMPDEST DUP1 PUSH1 0x40 MSTORE POP POP POP JUMP JUMPDEST PUSH0 PUSH2 0xA85 PUSH2 0x902 JUMP JUMPDEST SWAP1 POP PUSH2 0xA91 DUP3 DUP3 PUSH2 0xA4B JUMP JUMPDEST SWAP2 SWAP1 POP JUMP JUMPDEST PUSH0 PUSH8 0xFFFFFFFFFFFFFFFF DUP3 GT ISZERO PUSH2 0xAB0 JUMPI PUSH2 0xAAF PUSH2 0xA1E JUMP JUMPDEST JUMPDEST PUSH1 0x20 DUP3 MUL SWAP1 POP PUSH1 0x20 DUP2 ADD SWAP1 POP SWAP2 SWAP1 POP JUMP JUMPDEST PUSH0 DUP1 REVERT JUMPDEST PUSH0 PUSH2 0xAD7 PUSH2 0xAD2 DUP5 PUSH2 0xA96 JUMP JUMPDEST PUSH2 0xA7C JUMP JUMPDEST SWAP1 POP DUP1 DUP4 DUP3 MSTORE PUSH1 0x20 DUP3 ADD SWAP1 POP PUSH1 0x20 DUP5 MUL DUP4 ADD DUP6 DUP2 GT ISZERO PUSH2 0xAFA JUMPI PUSH2 0xAF9 PUSH2 0xAC1 JUMP JUMPDEST JUMPDEST DUP4 JUMPDEST DUP2 DUP2 LT ISZERO PUSH2 0xB23 JUMPI DUP1 PUSH2 0xB0F DUP9 DUP3 PUSH2 0x932 JUMP JUMPDEST DUP5 MSTORE PUSH1 0x20 DUP5 ADD SWAP4 POP POP PUSH1 0x20 DUP2 ADD SWAP1 POP PUSH2 0xAFC JUMP JUMPDEST POP POP POP SWAP4 SWAP3 POP POP POP JUMP JUMPDEST PUSH0 DUP3 PUSH1 0x1F DUP4 ADD SLT PUSH2 0xB41 JUMPI PUSH2 0xB40 PUSH2 0xA0A JUMP JUMPDEST JUMPDEST DUP2 CALLDATALOAD PUSH2 0xB51 DUP5 DUP3 PUSH1 0x20 DUP7 ADD PUSH2 0xAC5 JUMP JUMPDEST SWAP2 POP POP SWAP3 SWAP2 POP POP JUMP JUMPDEST PUSH0 PUSH1 0x20 DUP3 DUP5 SUB SLT ISZERO PUSH2 0xB6F JUMPI PUSH2 0xB6E PUSH2 0x90B JUMP JUMPDEST JUMPDEST PUSH0 DUP3 ADD CALLDATALOAD PUSH8 0xFFFFFFFFFFFFFFFF DUP2 GT ISZERO PUSH2 0xB8C JUMPI PUSH2 0xB8B PUSH2 0x90F JUMP JUMPDEST JUMPDEST PUSH2 0xB98 DUP5 DUP3 DUP6 ADD PUSH2 0xB2D JUMP JUMPDEST SWAP2 POP POP SWAP3 SWAP2 POP POP JUMP JUMPDEST PUSH0 DUP2 MLOAD SWAP1 POP SWAP2 SWAP1 POP JUMP JUMPDEST PUSH0 DUP3 DUP3 MSTORE PUSH1 0x20 DUP3 ADD SWAP1 POP SWAP3 SWAP2 POP POP JUMP JUMPDEST PUSH0 DUP2 SWAP1 POP PUSH1 0x20 DUP3 ADD SWAP1 POP SWAP2 SWAP1 POP JUMP JUMPDEST PUSH2 0xBD3 DUP2 PUSH2 0x913 JUMP JUMPDEST DUP3 MSTORE POP POP JUMP JUMPDEST PUSH0 PUSH2 0xBE4 DUP4 DUP4 PUSH2 0xBCA JUMP JUMPDEST PUSH1 0x20 DUP4 ADD SWAP1 POP SWAP3 SWAP2 POP POP JUMP JUMPDEST PUSH0 PUSH1 0x20 DUP3 ADD SWAP1 POP SWAP2 SWAP1 POP JUMP JUMPDEST PUSH0 PUSH2 0xC06 DUP3 PUSH2 0xBA1 JUMP JUMPDEST PUSH2 0xC10 DUP2 DUP6 PUSH2 0xBAB JUMP JUMPDEST SWAP4 POP PUSH2 0xC1B DUP4 PUSH2 0xBBB JUMP JUMPDEST DUP1 PUSH0 JUMPDEST DUP4 DUP2 LT ISZERO PUSH2 0xC4B JUMPI DUP2 MLOAD PUSH2 0xC32 DUP9 DUP3 PUSH2 0xBD9 JUMP JUMPDEST SWAP8 POP PUSH2 0xC3D DUP4 PUSH2 0xBF0 JUMP JUMPDEST SWAP3 POP POP PUSH1 0x1 DUP2 ADD SWAP1 POP PUSH2 0xC1E JUMP JUMPDEST POP DUP6 SWAP4 POP POP POP POP SWAP3 SWAP2 POP POP JUMP JUMPDEST PUSH0 PUSH1 0x20 DUP3 ADD SWAP1 POP DUP2 DUP2 SUB PUSH0 DUP4 ADD MSTORE PUSH2 0xC70 DUP2 DUP5 PUSH2 0xBFC JUMP JUMPDEST SWAP1 POP SWAP3 SWAP2 POP POP JUMP JUMPDEST PUSH32 0x4E487B7100000000000000000000000000000000000000000000000000000000 PUSH0 MSTORE PUSH1 0x11 PUSH1 0x4 MSTORE PUSH1 0x24 PUSH0 REVERT JUMPDEST PUSH0 PUSH2 0xCAF DUP3 PUSH2 0x913 JUMP JUMPDEST SWAP2 POP PUSH2 0xCBA DUP4 PUSH2 0x913 JUMP JUMPDEST SWAP3 POP DUP3 DUP3 ADD SWAP1 POP DUP1 DUP3 GT ISZERO PUSH2 0xCD2 JUMPI PUSH2 0xCD1 PUSH2 0xC78 JUMP JUMPDEST JUMPDEST SWAP3 SWAP2 POP POP JUMP JUMPDEST PUSH0 PUSH2 0xCE2 DUP3 PUSH2 0x913 JUMP JUMPDEST SWAP2 POP PUSH32 0xFFFFFFFFFFFFFFFFFFFFFFFFFFFFFFFFFFFFFFFFFFFFFFFFFFFFFFFFFFFFFFFF DUP3 SUB PUSH2 0xD14 JUMPI PUSH2 0xD13 PUSH2 0xC78 JUMP JUMPDEST JUMPDEST PUSH1 0x1 DUP3 ADD SWAP1 POP SWAP2 SWAP1 POP JUMP JUMPDEST PUSH32 0x4E487B7100000000000000000000000000000000000000000000000000000000 PUSH0 MSTORE PUSH1 0x32 PUSH1 0x4 MSTORE PUSH1 0x24 PUSH0 REVERT JUMPDEST PUSH0 PUSH2 0xD56 DUP3 PUSH2 0x913 JUMP JUMPDEST SWAP2 POP PUSH2 0xD61 DUP4 PUSH2 0x913 JUMP JUMPDEST SWAP3 POP DUP3 DUP3 SUB SWAP1 POP DUP2 DUP2 GT ISZERO PUSH2 0xD79 JUMPI PUSH2 0xD78 PUSH2 0xC78 JUMP JUMPDEST JUMPDEST SWAP3 SWAP2 POP POP JUMP JUMPDEST PUSH0 PUSH2 0xD89 DUP3 PUSH2 0x913 JUMP JUMPDEST SWAP2 POP PUSH0 DUP3 SUB PUSH2 0xD9B JUMPI PUSH2 0xD9A PUSH2 0xC78 JUMP JUMPDEST JUMPDEST PUSH1 0x1 DUP3 SUB SWAP1 POP SWAP2 SWAP1 POP JUMP JUMPDEST PUSH32 0x4E487B7100000000000000000000000000000000000000000000000000000000 PUSH0 MSTORE PUSH1 0x12 PUSH1 0x4 MSTORE PUSH1 0x24 PUSH0 REVERT JUMPDEST PUSH0 PUSH2 0xDDD DUP3 PUSH2 0x913 JUMP JUMPDEST SWAP2 POP PUSH2 0xDE8 DUP4 PUSH2 0x913 JUMP JUMPDEST SWAP3 POP DUP3 PUSH2 0xDF8 JUMPI PUSH2 0xDF7 PUSH2 0xDA6 JUMP JUMPDEST JUMPDEST DUP3 DUP3 DIV SWAP1 POP SWAP3 SWAP2 POP POP JUMP INVALID LOG2 PUSH5 0x6970667358 0x22 SLT KECCAK256 0xE8 0xD1 SWAP13 PUSH15 0x40761603663C10267DBB4C77FE7574 0x2C SWAP12 0xCE PUSH27 0xF7EF2675C47A35937564736F6C634300081A003300000000000000 "
				},
				"gasEstimates": {
					"creation": {
						"codeDepositCost": "728200",
						"executionCost": "758",
						"totalCost": "728958"
					},
					"external": {
						"bubbleSort(uint256[])": "infinite",
						"doWhileTest()": "infinite",
						"forLoopTest()": "infinite",
						"ifElseTest(uint256)": "700",
						"insertSort(uint256[])": "infinite",
						"quickSort(uint256[])": "infinite",
						"ternaryTest(uint256,uint256)": "infinite",
						"whileTest()": "infinite"
					},
					"internal": {
						"_quickSort(uint256[] memory)": "infinite",
						"concat(uint256[] memory,uint256,uint256[] memory)": "infinite"
					}
				},
				"methodIdentifiers": {
					"bubbleSort(uint256[])": "e30c36f1",
					"doWhileTest()": "2bbacaaa",
					"forLoopTest()": "b0cfa9fc",
					"ifElseTest(uint256)": "7141fb00",
					"insertSort(uint256[])": "b23d97f2",
					"quickSort(uint256[])": "aa1cf79c",
					"ternaryTest(uint256,uint256)": "28766320",
					"whileTest()": "5d14639d"
				}
			},
			"storageLayout": {
				"storage": [],
				"types": null
			},
			"userdoc": {
				"kind": "user",
				"methods": {},
				"version": 1
			}
		}
	}
}