{
	"data": {
		"bytecode": {
			"linkReferences": {},
			"object": "6080604052348015600e575f80fd5b50610bee8061001c5f395ff3fe608060405260043610610033575f3560e01c806341ed24a21461003757806377988cf81461005f578063ccb8c1e01461007b575b5f80fd5b348015610042575f80fd5b5061005d600480360381019061005891906105b7565b6100b7565b005b6100796004803603810190610074919061069d565b6102bd565b005b348015610086575f80fd5b506100a1600480360381019061009c919061071b565b610456565b6040516100ae919061077e565b60405180910390f35b8181905084849050146100ff576040517f08c379a00000000000000000000000000000000000000000000000000000000081526004016100f690610817565b60405180910390fd5b5f8590505f61010e8484610456565b9050808273ffffffffffffffffffffffffffffffffffffffff1663dd62ed3e33306040518363ffffffff1660e01b815260040161014c929190610844565b602060405180830381865afa158015610167573d5f803e3d5ffd5b505050506040513d601f19601f8201168201806040525081019061018b9190610895565b10156101cc576040517f08c379a00000000000000000000000000000000000000000000000000000000081526004016101c39061090a565b60405180910390fd5b5f5b868690508160ff1610156102b3578273ffffffffffffffffffffffffffffffffffffffff166323b872dd3389898560ff1681811061020f5761020e610928565b5b90506020020160208101906102249190610955565b88888660ff1681811061023a57610239610928565b5b905060200201356040518463ffffffff1660e01b815260040161025f93929190610980565b6020604051808303815f875af115801561027b573d5f803e3d5ffd5b505050506040513d601f19601f8201168201806040525081019061029f91906109ea565b5080806102ab90610a4e565b9150506101ce565b5050505050505050565b818190508484905014610305576040517f08c379a00000000000000000000000000000000000000000000000000000000081526004016102fc90610817565b60405180910390fd5b5f6103108383610456565b9050803414610354576040517f08c379a000000000000000000000000000000000000000000000000000000000815260040161034b90610ac0565b60405180910390fd5b5f5b8585905081101561044e575f86868381811061037557610374610928565b5b905060200201602081019061038a9190610b19565b73ffffffffffffffffffffffffffffffffffffffff168585848181106103b3576103b2610928565b5b905060200201356040516103c690610b71565b5f6040518083038185875af1925050503d805f8114610400576040519150601f19603f3d011682016040523d82523d5f602084013e610405565b606091505b5050905080610440576040517fe465903e00000000000000000000000000000000000000000000000000000000815260040160405180910390fd5b508080600101915050610356565b505050505050565b5f805b838390508110156104985783838281811061047757610476610928565b5b90506020020135826104899190610b85565b91508080600101915050610459565b5092915050565b5f80fd5b5f80fd5b5f73ffffffffffffffffffffffffffffffffffffffff82169050919050565b5f6104d0826104a7565b9050919050565b6104e0816104c6565b81146104ea575f80fd5b50565b5f813590506104fb816104d7565b92915050565b5f80fd5b5f80fd5b5f80fd5b5f8083601f84011261052257610521610501565b5b8235905067ffffffffffffffff81111561053f5761053e610505565b5b60208301915083602082028301111561055b5761055a610509565b5b9250929050565b5f8083601f84011261057757610576610501565b5b8235905067ffffffffffffffff81111561059457610593610505565b5b6020830191508360208202830111156105b0576105af610509565b5b9250929050565b5f805f805f606086880312156105d0576105cf61049f565b5b5f6105dd888289016104ed565b955050602086013567ffffffffffffffff8111156105fe576105fd6104a3565b5b61060a8882890161050d565b9450945050604086013567ffffffffffffffff81111561062d5761062c6104a3565b5b61063988828901610562565b92509250509295509295909350565b5f8083601f84011261065d5761065c610501565b5b8235905067ffffffffffffffff81111561067a57610679610505565b5b60208301915083602082028301111561069657610695610509565b5b9250929050565b5f805f80604085870312156106b5576106b461049f565b5b5f85013567ffffffffffffffff8111156106d2576106d16104a3565b5b6106de87828801610648565b9450945050602085013567ffffffffffffffff811115610701576107006104a3565b5b61070d87828801610562565b925092505092959194509250565b5f80602083850312156107315761073061049f565b5b5f83013567ffffffffffffffff81111561074e5761074d6104a3565b5b61075a85828601610562565b92509250509250929050565b5f819050919050565b61077881610766565b82525050565b5f6020820190506107915f83018461076f565b92915050565b5f82825260208201905092915050565b7f4c656e677468206f662041646472657373657320616e6420416d6f756e7473205f8201527f4e6f7420457175616c0000000000000000000000000000000000000000000000602082015250565b5f610801602983610797565b915061080c826107a7565b604082019050919050565b5f6020820190508181035f83015261082e816107f5565b9050919050565b61083e816104c6565b82525050565b5f6040820190506108575f830185610835565b6108646020830184610835565b9392505050565b61087481610766565b811461087e575f80fd5b50565b5f8151905061088f8161086b565b92915050565b5f602082840312156108aa576108a961049f565b5b5f6108b784828501610881565b91505092915050565b7f4e65656420417070726f766520455243323020546f6b656e00000000000000005f82015250565b5f6108f4601883610797565b91506108ff826108c0565b602082019050919050565b5f6020820190508181035f830152610921816108e8565b9050919050565b7f4e487b71000000000000000000000000000000000000000000000000000000005f52603260045260245ffd5b5f6020828403121561096a5761096961049f565b5b5f610977848285016104ed565b91505092915050565b5f6060820190506109935f830186610835565b6109a06020830185610835565b6109ad604083018461076f565b949350505050565b5f8115159050919050565b6109c9816109b5565b81146109d3575f80fd5b50565b5f815190506109e4816109c0565b92915050565b5f602082840312156109ff576109fe61049f565b5b5f610a0c848285016109d6565b91505092915050565b7f4e487b71000000000000000000000000000000000000000000000000000000005f52601160045260245ffd5b5f60ff82169050919050565b5f610a5882610a42565b915060ff8203610a6b57610a6a610a15565b5b600182019050919050565b7f5472616e7366657220616d6f756e74206572726f7200000000000000000000005f82015250565b5f610aaa601583610797565b9150610ab582610a76565b602082019050919050565b5f6020820190508181035f830152610ad781610a9e565b9050919050565b5f610ae8826104a7565b9050919050565b610af881610ade565b8114610b02575f80fd5b50565b5f81359050610b1381610aef565b92915050565b5f60208284031215610b2e57610b2d61049f565b5b5f610b3b84828501610b05565b91505092915050565b5f81905092915050565b50565b5f610b5c5f83610b44565b9150610b6782610b4e565b5f82019050919050565b5f610b7b82610b51565b9150819050919050565b5f610b8f82610766565b9150610b9a83610766565b9250828201905080821115610bb257610bb1610a15565b5b9291505056fea264697066735822122089b4a14764b9d465de8962b11c628ac450b6b96069921b220b83d70f0bbea8a564736f6c634300081a0033",
			"opcodes": "PUSH1 0x80 PUSH1 0x40 MSTORE CALLVALUE DUP1 ISZERO PUSH1 0xE JUMPI PUSH0 DUP1 REVERT JUMPDEST POP PUSH2 0xBEE DUP1 PUSH2 0x1C PUSH0 CODECOPY PUSH0 RETURN INVALID PUSH1 0x80 PUSH1 0x40 MSTORE PUSH1 0x4 CALLDATASIZE LT PUSH2 0x33 JUMPI PUSH0 CALLDATALOAD PUSH1 0xE0 SHR DUP1 PUSH4 0x41ED24A2 EQ PUSH2 0x37 JUMPI DUP1 PUSH4 0x77988CF8 EQ PUSH2 0x5F JUMPI DUP1 PUSH4 0xCCB8C1E0 EQ PUSH2 0x7B JUMPI JUMPDEST PUSH0 DUP1 REVERT JUMPDEST CALLVALUE DUP1 ISZERO PUSH2 0x42 JUMPI PUSH0 DUP1 REVERT JUMPDEST POP PUSH2 0x5D PUSH1 0x4 DUP1 CALLDATASIZE SUB DUP2 ADD SWAP1 PUSH2 0x58 SWAP2 SWAP1 PUSH2 0x5B7 JUMP JUMPDEST PUSH2 0xB7 JUMP JUMPDEST STOP JUMPDEST PUSH2 0x79 PUSH1 0x4 DUP1 CALLDATASIZE SUB DUP2 ADD SWAP1 PUSH2 0x74 SWAP2 SWAP1 PUSH2 0x69D JUMP JUMPDEST PUSH2 0x2BD JUMP JUMPDEST STOP JUMPDEST CALLVALUE DUP1 ISZERO PUSH2 0x86 JUMPI PUSH0 DUP1 REVERT JUMPDEST POP PUSH2 0xA1 PUSH1 0x4 DUP1 CALLDATASIZE SUB DUP2 ADD SWAP1 PUSH2 0x9C SWAP2 SWAP1 PUSH2 0x71B JUMP JUMPDEST PUSH2 0x456 JUMP JUMPDEST PUSH1 0x40 MLOAD PUSH2 0xAE SWAP2 SWAP1 PUSH2 0x77E JUMP JUMPDEST PUSH1 0x40 MLOAD DUP1 SWAP2 SUB SWAP1 RETURN JUMPDEST DUP2 DUP2 SWAP1 POP DUP5 DUP5 SWAP1 POP EQ PUSH2 0xFF JUMPI PUSH1 0x40 MLOAD PUSH32 0x8C379A000000000000000000000000000000000000000000000000000000000 DUP2 MSTORE PUSH1 0x4 ADD PUSH2 0xF6 SWAP1 PUSH2 0x817 JUMP JUMPDEST PUSH1 0x40 MLOAD DUP1 SWAP2 SUB SWAP1 REVERT JUMPDEST PUSH0 DUP6 SWAP1 POP PUSH0 PUSH2 0x10E DUP5 DUP5 PUSH2 0x456 JUMP JUMPDEST SWAP1 POP DUP1 DUP3 PUSH20 0xFFFFFFFFFFFFFFFFFFFFFFFFFFFFFFFFFFFFFFFF AND PUSH4 0xDD62ED3E CALLER ADDRESS PUSH1 0x40 MLOAD DUP4 PUSH4 0xFFFFFFFF AND PUSH1 0xE0 SHL DUP2 MSTORE PUSH1 0x4 ADD PUSH2 0x14C SWAP3 SWAP2 SWAP1 PUSH2 0x844 JUMP JUMPDEST PUSH1 0x20 PUSH1 0x40 MLOAD DUP1 DUP4 SUB DUP2 DUP7 GAS STATICCALL ISZERO DUP1 ISZERO PUSH2 0x167 JUMPI RETURNDATASIZE PUSH0 DUP1 RETURNDATACOPY RETURNDATASIZE PUSH0 REVERT JUMPDEST POP POP POP POP PUSH1 0x40 MLOAD RETURNDATASIZE PUSH1 0x1F NOT PUSH1 0x1F DUP3 ADD AND DUP3 ADD DUP1 PUSH1 0x40 MSTORE POP DUP2 ADD SWAP1 PUSH2 0x18B SWAP2 SWAP1 PUSH2 0x895 JUMP JUMPDEST LT ISZERO PUSH2 0x1CC JUMPI PUSH1 0x40 MLOAD PUSH32 0x8C379A000000000000000000000000000000000000000000000000000000000 DUP2 MSTORE PUSH1 0x4 ADD PUSH2 0x1C3 SWAP1 PUSH2 0x90A JUMP JUMPDEST PUSH1 0x40 MLOAD DUP1 SWAP2 SUB SWAP1 REVERT JUMPDEST PUSH0 JUMPDEST DUP7 DUP7 SWAP1 POP DUP2 PUSH1 0xFF AND LT ISZERO PUSH2 0x2B3 JUMPI DUP3 PUSH20 0xFFFFFFFFFFFFFFFFFFFFFFFFFFFFFFFFFFFFFFFF AND PUSH4 0x23B872DD CALLER DUP10 DUP10 DUP6 PUSH1 0xFF AND DUP2 DUP2 LT PUSH2 0x20F JUMPI PUSH2 0x20E PUSH2 0x928 JUMP JUMPDEST JUMPDEST SWAP1 POP PUSH1 0x20 MUL ADD PUSH1 0x20 DUP2 ADD SWAP1 PUSH2 0x224 SWAP2 SWAP1 PUSH2 0x955 JUMP JUMPDEST DUP9 DUP9 DUP7 PUSH1 0xFF AND DUP2 DUP2 LT PUSH2 0x23A JUMPI PUSH2 0x239 PUSH2 0x928 JUMP JUMPDEST JUMPDEST SWAP1 POP PUSH1 0x20 MUL ADD CALLDATALOAD PUSH1 0x40 MLOAD DUP5 PUSH4 0xFFFFFFFF AND PUSH1 0xE0 SHL DUP2 MSTORE PUSH1 0x4 ADD PUSH2 0x25F SWAP4 SWAP3 SWAP2 SWAP1 PUSH2 0x980 JUMP JUMPDEST PUSH1 0x20 PUSH1 0x40 MLOAD DUP1 DUP4 SUB DUP2 PUSH0 DUP8 GAS CALL ISZERO DUP1 ISZERO PUSH2 0x27B JUMPI RETURNDATASIZE PUSH0 DUP1 RETURNDATACOPY RETURNDATASIZE PUSH0 REVERT JUMPDEST POP POP POP POP PUSH1 0x40 MLOAD RETURNDATASIZE PUSH1 0x1F NOT PUSH1 0x1F DUP3 ADD AND DUP3 ADD DUP1 PUSH1 0x40 MSTORE POP DUP2 ADD SWAP1 PUSH2 0x29F SWAP2 SWAP1 PUSH2 0x9EA JUMP JUMPDEST POP DUP1 DUP1 PUSH2 0x2AB SWAP1 PUSH2 0xA4E JUMP JUMPDEST SWAP2 POP POP PUSH2 0x1CE JUMP JUMPDEST POP POP POP POP POP POP POP POP JUMP JUMPDEST DUP2 DUP2 SWAP1 POP DUP5 DUP5 SWAP1 POP EQ PUSH2 0x305 JUMPI PUSH1 0x40 MLOAD PUSH32 0x8C379A000000000000000000000000000000000000000000000000000000000 DUP2 MSTORE PUSH1 0x4 ADD PUSH2 0x2FC SWAP1 PUSH2 0x817 JUMP JUMPDEST PUSH1 0x40 MLOAD DUP1 SWAP2 SUB SWAP1 REVERT JUMPDEST PUSH0 PUSH2 0x310 DUP4 DUP4 PUSH2 0x456 JUMP JUMPDEST SWAP1 POP DUP1 CALLVALUE EQ PUSH2 0x354 JUMPI PUSH1 0x40 MLOAD PUSH32 0x8C379A000000000000000000000000000000000000000000000000000000000 DUP2 MSTORE PUSH1 0x4 ADD PUSH2 0x34B SWAP1 PUSH2 0xAC0 JUMP JUMPDEST PUSH1 0x40 MLOAD DUP1 SWAP2 SUB SWAP1 REVERT JUMPDEST PUSH0 JUMPDEST DUP6 DUP6 SWAP1 POP DUP2 LT ISZERO PUSH2 0x44E JUMPI PUSH0 DUP7 DUP7 DUP4 DUP2 DUP2 LT PUSH2 0x375 JUMPI PUSH2 0x374 PUSH2 0x928 JUMP JUMPDEST JUMPDEST SWAP1 POP PUSH1 0x20 MUL ADD PUSH1 0x20 DUP2 ADD SWAP1 PUSH2 0x38A SWAP2 SWAP1 PUSH2 0xB19 JUMP JUMPDEST PUSH20 0xFFFFFFFFFFFFFFFFFFFFFFFFFFFFFFFFFFFFFFFF AND DUP6 DUP6 DUP5 DUP2 DUP2 LT PUSH2 0x3B3 JUMPI PUSH2 0x3B2 PUSH2 0x928 JUMP JUMPDEST JUMPDEST SWAP1 POP PUSH1 0x20 MUL ADD CALLDATALOAD PUSH1 0x40 MLOAD PUSH2 0x3C6 SWAP1 PUSH2 0xB71 JUMP JUMPDEST PUSH0 PUSH1 0x40 MLOAD DUP1 DUP4 SUB DUP2 DUP6 DUP8 GAS CALL SWAP3 POP POP POP RETURNDATASIZE DUP1 PUSH0 DUP2 EQ PUSH2 0x400 JUMPI PUSH1 0x40 MLOAD SWAP2 POP PUSH1 0x1F NOT PUSH1 0x3F RETURNDATASIZE ADD AND DUP3 ADD PUSH1 0x40 MSTORE RETURNDATASIZE DUP3 MSTORE RETURNDATASIZE PUSH0 PUSH1 0x20 DUP5 ADD RETURNDATACOPY PUSH2 0x405 JUMP JUMPDEST PUSH1 0x60 SWAP2 POP JUMPDEST POP POP SWAP1 POP DUP1 PUSH2 0x440 JUMPI PUSH1 0x40 MLOAD PUSH32 0xE465903E00000000000000000000000000000000000000000000000000000000 DUP2 MSTORE PUSH1 0x4 ADD PUSH1 0x40 MLOAD DUP1 SWAP2 SUB SWAP1 REVERT JUMPDEST POP DUP1 DUP1 PUSH1 0x1 ADD SWAP2 POP POP PUSH2 0x356 JUMP JUMPDEST POP POP POP POP POP POP JUMP JUMPDEST PUSH0 DUP1 JUMPDEST DUP4 DUP4 SWAP1 POP DUP2 LT ISZERO PUSH2 0x498 JUMPI DUP4 DUP4 DUP3 DUP2 DUP2 LT PUSH2 0x477 JUMPI PUSH2 0x476 PUSH2 0x928 JUMP JUMPDEST JUMPDEST SWAP1 POP PUSH1 0x20 MUL ADD CALLDATALOAD DUP3 PUSH2 0x489 SWAP2 SWAP1 PUSH2 0xB85 JUMP JUMPDEST SWAP2 POP DUP1 DUP1 PUSH1 0x1 ADD SWAP2 POP POP PUSH2 0x459 JUMP JUMPDEST POP SWAP3 SWAP2 POP POP JUMP JUMPDEST PUSH0 DUP1 REVERT JUMPDEST PUSH0 DUP1 REVERT JUMPDEST PUSH0 PUSH20 0xFFFFFFFFFFFFFFFFFFFFFFFFFFFFFFFFFFFFFFFF DUP3 AND SWAP1 POP SWAP2 SWAP1 POP JUMP JUMPDEST PUSH0 PUSH2 0x4D0 DUP3 PUSH2 0x4A7 JUMP JUMPDEST SWAP1 POP SWAP2 SWAP1 POP JUMP JUMPDEST PUSH2 0x4E0 DUP2 PUSH2 0x4C6 JUMP JUMPDEST DUP2 EQ PUSH2 0x4EA JUMPI PUSH0 DUP1 REVERT JUMPDEST POP JUMP JUMPDEST PUSH0 DUP2 CALLDATALOAD SWAP1 POP PUSH2 0x4FB DUP2 PUSH2 0x4D7 JUMP JUMPDEST SWAP3 SWAP2 POP POP JUMP JUMPDEST PUSH0 DUP1 REVERT JUMPDEST PUSH0 DUP1 REVERT JUMPDEST PUSH0 DUP1 REVERT JUMPDEST PUSH0 DUP1 DUP4 PUSH1 0x1F DUP5 ADD SLT PUSH2 0x522 JUMPI PUSH2 0x521 PUSH2 0x501 JUMP JUMPDEST JUMPDEST DUP3 CALLDATALOAD SWAP1 POP PUSH8 0xFFFFFFFFFFFFFFFF DUP2 GT ISZERO PUSH2 0x53F JUMPI PUSH2 0x53E PUSH2 0x505 JUMP JUMPDEST JUMPDEST PUSH1 0x20 DUP4 ADD SWAP2 POP DUP4 PUSH1 0x20 DUP3 MUL DUP4 ADD GT ISZERO PUSH2 0x55B JUMPI PUSH2 0x55A PUSH2 0x509 JUMP JUMPDEST JUMPDEST SWAP3 POP SWAP3 SWAP1 POP JUMP JUMPDEST PUSH0 DUP1 DUP4 PUSH1 0x1F DUP5 ADD SLT PUSH2 0x577 JUMPI PUSH2 0x576 PUSH2 0x501 JUMP JUMPDEST JUMPDEST DUP3 CALLDATALOAD SWAP1 POP PUSH8 0xFFFFFFFFFFFFFFFF DUP2 GT ISZERO PUSH2 0x594 JUMPI PUSH2 0x593 PUSH2 0x505 JUMP JUMPDEST JUMPDEST PUSH1 0x20 DUP4 ADD SWAP2 POP DUP4 PUSH1 0x20 DUP3 MUL DUP4 ADD GT ISZERO PUSH2 0x5B0 JUMPI PUSH2 0x5AF PUSH2 0x509 JUMP JUMPDEST JUMPDEST SWAP3 POP SWAP3 SWAP1 POP JUMP JUMPDEST PUSH0 DUP1 PUSH0 DUP1 PUSH0 PUSH1 0x60 DUP7 DUP9 SUB SLT ISZERO PUSH2 0x5D0 JUMPI PUSH2 0x5CF PUSH2 0x49F JUMP JUMPDEST JUMPDEST PUSH0 PUSH2 0x5DD DUP9 DUP3 DUP10 ADD PUSH2 0x4ED JUMP JUMPDEST SWAP6 POP POP PUSH1 0x20 DUP7 ADD CALLDATALOAD PUSH8 0xFFFFFFFFFFFFFFFF DUP2 GT ISZERO PUSH2 0x5FE JUMPI PUSH2 0x5FD PUSH2 0x4A3 JUMP JUMPDEST JUMPDEST PUSH2 0x60A DUP9 DUP3 DUP10 ADD PUSH2 0x50D JUMP JUMPDEST SWAP5 POP SWAP5 POP POP PUSH1 0x40 DUP7 ADD CALLDATALOAD PUSH8 0xFFFFFFFFFFFFFFFF DUP2 GT ISZERO PUSH2 0x62D JUMPI PUSH2 0x62C PUSH2 0x4A3 JUMP JUMPDEST JUMPDEST PUSH2 0x639 DUP9 DUP3 DUP10 ADD PUSH2 0x562 JUMP JUMPDEST SWAP3 POP SWAP3 POP POP SWAP3 SWAP6 POP SWAP3 SWAP6 SWAP1 SWAP4 POP JUMP JUMPDEST PUSH0 DUP1 DUP4 PUSH1 0x1F DUP5 ADD SLT PUSH2 0x65D JUMPI PUSH2 0x65C PUSH2 0x501 JUMP JUMPDEST JUMPDEST DUP3 CALLDATALOAD SWAP1 POP PUSH8 0xFFFFFFFFFFFFFFFF DUP2 GT ISZERO PUSH2 0x67A JUMPI PUSH2 0x679 PUSH2 0x505 JUMP JUMPDEST JUMPDEST PUSH1 0x20 DUP4 ADD SWAP2 POP DUP4 PUSH1 0x20 DUP3 MUL DUP4 ADD GT ISZERO PUSH2 0x696 JUMPI PUSH2 0x695 PUSH2 0x509 JUMP JUMPDEST JUMPDEST SWAP3 POP SWAP3 SWAP1 POP JUMP JUMPDEST PUSH0 DUP1 PUSH0 DUP1 PUSH1 0x40 DUP6 DUP8 SUB SLT ISZERO PUSH2 0x6B5 JUMPI PUSH2 0x6B4 PUSH2 0x49F JUMP JUMPDEST JUMPDEST PUSH0 DUP6 ADD CALLDATALOAD PUSH8 0xFFFFFFFFFFFFFFFF DUP2 GT ISZERO PUSH2 0x6D2 JUMPI PUSH2 0x6D1 PUSH2 0x4A3 JUMP JUMPDEST JUMPDEST PUSH2 0x6DE DUP8 DUP3 DUP9 ADD PUSH2 0x648 JUMP JUMPDEST SWAP5 POP SWAP5 POP POP PUSH1 0x20 DUP6 ADD CALLDATALOAD PUSH8 0xFFFFFFFFFFFFFFFF DUP2 GT ISZERO PUSH2 0x701 JUMPI PUSH2 0x700 PUSH2 0x4A3 JUMP JUMPDEST JUMPDEST PUSH2 0x70D DUP8 DUP3 DUP9 ADD PUSH2 0x562 JUMP JUMPDEST SWAP3 POP SWAP3 POP POP SWAP3 SWAP6 SWAP2 SWAP5 POP SWAP3 POP JUMP JUMPDEST PUSH0 DUP1 PUSH1 0x20 DUP4 DUP6 SUB SLT ISZERO PUSH2 0x731 JUMPI PUSH2 0x730 PUSH2 0x49F JUMP JUMPDEST JUMPDEST PUSH0 DUP4 ADD CALLDATALOAD PUSH8 0xFFFFFFFFFFFFFFFF DUP2 GT ISZERO PUSH2 0x74E JUMPI PUSH2 0x74D PUSH2 0x4A3 JUMP JUMPDEST JUMPDEST PUSH2 0x75A DUP6 DUP3 DUP7 ADD PUSH2 0x562 JUMP JUMPDEST SWAP3 POP SWAP3 POP POP SWAP3 POP SWAP3 SWAP1 POP JUMP JUMPDEST PUSH0 DUP2 SWAP1 POP SWAP2 SWAP1 POP JUMP JUMPDEST PUSH2 0x778 DUP2 PUSH2 0x766 JUMP JUMPDEST DUP3 MSTORE POP POP JUMP JUMPDEST PUSH0 PUSH1 0x20 DUP3 ADD SWAP1 POP PUSH2 0x791 PUSH0 DUP4 ADD DUP5 PUSH2 0x76F JUMP JUMPDEST SWAP3 SWAP2 POP POP JUMP JUMPDEST PUSH0 DUP3 DUP3 MSTORE PUSH1 0x20 DUP3 ADD SWAP1 POP SWAP3 SWAP2 POP POP JUMP JUMPDEST PUSH32 0x4C656E677468206F662041646472657373657320616E6420416D6F756E747320 PUSH0 DUP3 ADD MSTORE PUSH32 0x4E6F7420457175616C0000000000000000000000000000000000000000000000 PUSH1 0x20 DUP3 ADD MSTORE POP JUMP JUMPDEST PUSH0 PUSH2 0x801 PUSH1 0x29 DUP4 PUSH2 0x797 JUMP JUMPDEST SWAP2 POP PUSH2 0x80C DUP3 PUSH2 0x7A7 JUMP JUMPDEST PUSH1 0x40 DUP3 ADD SWAP1 POP SWAP2 SWAP1 POP JUMP JUMPDEST PUSH0 PUSH1 0x20 DUP3 ADD SWAP1 POP DUP2 DUP2 SUB PUSH0 DUP4 ADD MSTORE PUSH2 0x82E DUP2 PUSH2 0x7F5 JUMP JUMPDEST SWAP1 POP SWAP2 SWAP1 POP JUMP JUMPDEST PUSH2 0x83E DUP2 PUSH2 0x4C6 JUMP JUMPDEST DUP3 MSTORE POP POP JUMP JUMPDEST PUSH0 PUSH1 0x40 DUP3 ADD SWAP1 POP PUSH2 0x857 PUSH0 DUP4 ADD DUP6 PUSH2 0x835 JUMP JUMPDEST PUSH2 0x864 PUSH1 0x20 DUP4 ADD DUP5 PUSH2 0x835 JUMP JUMPDEST SWAP4 SWAP3 POP POP POP JUMP JUMPDEST PUSH2 0x874 DUP2 PUSH2 0x766 JUMP JUMPDEST DUP2 EQ PUSH2 0x87E JUMPI PUSH0 DUP1 REVERT JUMPDEST POP JUMP JUMPDEST PUSH0 DUP2 MLOAD SWAP1 POP PUSH2 0x88F DUP2 PUSH2 0x86B JUMP JUMPDEST SWAP3 SWAP2 POP POP JUMP JUMPDEST PUSH0 PUSH1 0x20 DUP3 DUP5 SUB SLT ISZERO PUSH2 0x8AA JUMPI PUSH2 0x8A9 PUSH2 0x49F JUMP JUMPDEST JUMPDEST PUSH0 PUSH2 0x8B7 DUP5 DUP3 DUP6 ADD PUSH2 0x881 JUMP JUMPDEST SWAP2 POP POP SWAP3 SWAP2 POP POP JUMP JUMPDEST PUSH32 0x4E65656420417070726F766520455243323020546F6B656E0000000000000000 PUSH0 DUP3 ADD MSTORE POP JUMP JUMPDEST PUSH0 PUSH2 0x8F4 PUSH1 0x18 DUP4 PUSH2 0x797 JUMP JUMPDEST SWAP2 POP PUSH2 0x8FF DUP3 PUSH2 0x8C0 JUMP JUMPDEST PUSH1 0x20 DUP3 ADD SWAP1 POP SWAP2 SWAP1 POP JUMP JUMPDEST PUSH0 PUSH1 0x20 DUP3 ADD SWAP1 POP DUP2 DUP2 SUB PUSH0 DUP4 ADD MSTORE PUSH2 0x921 DUP2 PUSH2 0x8E8 JUMP JUMPDEST SWAP1 POP SWAP2 SWAP1 POP JUMP JUMPDEST PUSH32 0x4E487B7100000000000000000000000000000000000000000000000000000000 PUSH0 MSTORE PUSH1 0x32 PUSH1 0x4 MSTORE PUSH1 0x24 PUSH0 REVERT JUMPDEST PUSH0 PUSH1 0x20 DUP3 DUP5 SUB SLT ISZERO PUSH2 0x96A JUMPI PUSH2 0x969 PUSH2 0x49F JUMP JUMPDEST JUMPDEST PUSH0 PUSH2 0x977 DUP5 DUP3 DUP6 ADD PUSH2 0x4ED JUMP JUMPDEST SWAP2 POP POP SWAP3 SWAP2 POP POP JUMP JUMPDEST PUSH0 PUSH1 0x60 DUP3 ADD SWAP1 POP PUSH2 0x993 PUSH0 DUP4 ADD DUP7 PUSH2 0x835 JUMP JUMPDEST PUSH2 0x9A0 PUSH1 0x20 DUP4 ADD DUP6 PUSH2 0x835 JUMP JUMPDEST PUSH2 0x9AD PUSH1 0x40 DUP4 ADD DUP5 PUSH2 0x76F JUMP JUMPDEST SWAP5 SWAP4 POP POP POP POP JUMP JUMPDEST PUSH0 DUP2 ISZERO ISZERO SWAP1 POP SWAP2 SWAP1 POP JUMP JUMPDEST PUSH2 0x9C9 DUP2 PUSH2 0x9B5 JUMP JUMPDEST DUP2 EQ PUSH2 0x9D3 JUMPI PUSH0 DUP1 REVERT JUMPDEST POP JUMP JUMPDEST PUSH0 DUP2 MLOAD SWAP1 POP PUSH2 0x9E4 DUP2 PUSH2 0x9C0 JUMP JUMPDEST SWAP3 SWAP2 POP POP JUMP JUMPDEST PUSH0 PUSH1 0x20 DUP3 DUP5 SUB SLT ISZERO PUSH2 0x9FF JUMPI PUSH2 0x9FE PUSH2 0x49F JUMP JUMPDEST JUMPDEST PUSH0 PUSH2 0xA0C DUP5 DUP3 DUP6 ADD PUSH2 0x9D6 JUMP JUMPDEST SWAP2 POP POP SWAP3 SWAP2 POP POP JUMP JUMPDEST PUSH32 0x4E487B7100000000000000000000000000000000000000000000000000000000 PUSH0 MSTORE PUSH1 0x11 PUSH1 0x4 MSTORE PUSH1 0x24 PUSH0 REVERT JUMPDEST PUSH0 PUSH1 0xFF DUP3 AND SWAP1 POP SWAP2 SWAP1 POP JUMP JUMPDEST PUSH0 PUSH2 0xA58 DUP3 PUSH2 0xA42 JUMP JUMPDEST SWAP2 POP PUSH1 0xFF DUP3 SUB PUSH2 0xA6B JUMPI PUSH2 0xA6A PUSH2 0xA15 JUMP JUMPDEST JUMPDEST PUSH1 0x1 DUP3 ADD SWAP1 POP SWAP2 SWAP1 POP JUMP JUMPDEST PUSH32 0x5472616E7366657220616D6F756E74206572726F720000000000000000000000 PUSH0 DUP3 ADD MSTORE POP JUMP JUMPDEST PUSH0 PUSH2 0xAAA PUSH1 0x15 DUP4 PUSH2 0x797 JUMP JUMPDEST SWAP2 POP PUSH2 0xAB5 DUP3 PUSH2 0xA76 JUMP JUMPDEST PUSH1 0x20 DUP3 ADD SWAP1 POP SWAP2 SWAP1 POP JUMP JUMPDEST PUSH0 PUSH1 0x20 DUP3 ADD SWAP1 POP DUP2 DUP2 SUB PUSH0 DUP4 ADD MSTORE PUSH2 0xAD7 DUP2 PUSH2 0xA9E JUMP JUMPDEST SWAP1 POP SWAP2 SWAP1 POP JUMP JUMPDEST PUSH0 PUSH2 0xAE8 DUP3 PUSH2 0x4A7 JUMP JUMPDEST SWAP1 POP SWAP2 SWAP1 POP JUMP JUMPDEST PUSH2 0xAF8 DUP2 PUSH2 0xADE JUMP JUMPDEST DUP2 EQ PUSH2 0xB02 JUMPI PUSH0 DUP1 REVERT JUMPDEST POP JUMP JUMPDEST PUSH0 DUP2 CALLDATALOAD SWAP1 POP PUSH2 0xB13 DUP2 PUSH2 0xAEF JUMP JUMPDEST SWAP3 SWAP2 POP POP JUMP JUMPDEST PUSH0 PUSH1 0x20 DUP3 DUP5 SUB SLT ISZERO PUSH2 0xB2E JUMPI PUSH2 0xB2D PUSH2 0x49F JUMP JUMPDEST JUMPDEST PUSH0 PUSH2 0xB3B DUP5 DUP3 DUP6 ADD PUSH2 0xB05 JUMP JUMPDEST SWAP2 POP POP SWAP3 SWAP2 POP POP JUMP JUMPDEST PUSH0 DUP2 SWAP1 POP SWAP3 SWAP2 POP POP JUMP JUMPDEST POP JUMP JUMPDEST PUSH0 PUSH2 0xB5C PUSH0 DUP4 PUSH2 0xB44 JUMP JUMPDEST SWAP2 POP PUSH2 0xB67 DUP3 PUSH2 0xB4E JUMP JUMPDEST PUSH0 DUP3 ADD SWAP1 POP SWAP2 SWAP1 POP JUMP JUMPDEST PUSH0 PUSH2 0xB7B DUP3 PUSH2 0xB51 JUMP JUMPDEST SWAP2 POP DUP2 SWAP1 POP SWAP2 SWAP1 POP JUMP JUMPDEST PUSH0 PUSH2 0xB8F DUP3 PUSH2 0x766 JUMP JUMPDEST SWAP2 POP PUSH2 0xB9A DUP4 PUSH2 0x766 JUMP JUMPDEST SWAP3 POP DUP3 DUP3 ADD SWAP1 POP DUP1 DUP3 GT ISZERO PUSH2 0xBB2 JUMPI PUSH2 0xBB1 PUSH2 0xA15 JUMP JUMPDEST JUMPDEST SWAP3 SWAP2 POP POP JUMP INVALID LOG2 PUSH5 0x6970667358 0x22 SLT KECCAK256 DUP10 0xB4 LOG1 SELFBALANCE PUSH5 0xB9D465DE89 PUSH3 0xB11C62 DUP11 0xC4 POP 0xB6 0xB9 PUSH1 0x69 SWAP3 SHL 0x22 SIGNEXTEND DUP4 0xD7 0xF SIGNEXTEND 0xBE 0xA8 0xA5 PUSH5 0x736F6C6343 STOP ADDMOD BYTE STOP CALLER "
		},
		"gasEstimates": {
			"creation": {
				"codeDepositCost": "610800",
				"executionCost": "643",
				"totalCost": "611443"
			},
			"external": {
				"getSum(uint256[])": "infinite",
				"multiTransferETH(address[],uint256[])": "infinite",
				"multiTransferToken(address,address[],uint256[])": "infinite"
			}
		},
		"methodIdentifiers": {
			"getSum(uint256[])": "ccb8c1e0",
			"multiTransferETH(address[],uint256[])": "77988cf8",
			"multiTransferToken(address,address[],uint256[])": "41ed24a2"
		}
	},
	"abi": [
		{
			"inputs": [],
			"name": "transferFailed",
			"type": "error"
		},
		{
			"inputs": [
				{
					"internalType": "uint256[]",
					"name": "_arr",
					"type": "uint256[]"
				}
			],
			"name": "getSum",
			"outputs": [
				{
					"internalType": "uint256",
					"name": "sum",
					"type": "uint256"
				}
			],
			"stateMutability": "pure",
			"type": "function"
		},
		{
			"inputs": [
				{
					"internalType": "address payable[]",
					"name": "_addresses",
					"type": "address[]"
				},
				{
					"internalType": "uint256[]",
					"name": "_amounts",
					"type": "uint256[]"
				}
			],
			"name": "multiTransferETH",
			"outputs": [],
			"stateMutability": "payable",
			"type": "function"
		},
		{
			"inputs": [
				{
					"internalType": "address",
					"name": "_token",
					"type": "address"
				},
				{
					"internalType": "address[]",
					"name": "_addresses",
					"type": "address[]"
				},
				{
					"internalType": "uint256[]",
					"name": "_amounts",
					"type": "uint256[]"
				}
			],
			"name": "multiTransferToken",
			"outputs": [],
			"stateMutability": "nonpayable",
			"type": "function"
		}
	]
}