{
	"data": {
		"bytecode": {
			"linkReferences": {},
			"object": "6080604052348015600e575f80fd5b50610e398061001c5f395ff3fe608060405234801561000f575f80fd5b5060043610610086575f3560e01c8063aa1cf79c11610059578063aa1cf79c14610126578063b0cfa9fc14610156578063b23d97f214610174578063e30c36f1146101a457610086565b8063287663201461008a5780632bbacaaa146100ba5780635d14639d146100d85780637141fb00146100f6575b5f80fd5b6100a4600480360381019061009f9190610946565b6101d4565b6040516100b19190610993565b60405180910390f35b6100c26101ed565b6040516100cf9190610993565b60405180910390f35b6100e0610220565b6040516100ed9190610993565b60405180910390f35b610110600480360381019061010b91906109ac565b61025a565b60405161011d91906109f1565b60405180910390f35b610140600480360381019061013b9190610b5a565b610274565b60405161014d9190610c58565b60405180910390f35b61015e610286565b60405161016b9190610993565b60405180910390f35b61018e60048036038101906101899190610b5a565b6102ba565b60405161019b9190610c58565b60405180910390f35b6101be60048036038101906101b99190610b5a565b6103b6565b6040516101cb9190610c58565b60405180910390f35b5f818310156101e357816101e5565b825b905092915050565b5f805f90505f5b80826102009190610ca5565b9150808061020d90610cd8565b915050600a81106101f457819250505090565b5f805f90505f5b600a8110156102525760018261023d9190610ca5565b9150808061024a90610cd8565b915050610227565b819250505090565b5f80820361026b576001905061026f565b5f90505b919050565b606061027f82610488565b9050919050565b5f805f90505f5b600a8110156102b2576001826102a39190610ca5565b9150808060010191505061028d565b508091505090565b60605f5b82518110156103ad575f8382815181106102db576102da610d1f565b5b602002602001015190505f8290505b600181101580156103205750846001826103049190610d4c565b8151811061031557610314610d1f565b5b602002602001015182105b1561037e57846001826103339190610d4c565b8151811061034457610343610d1f565b5b602002602001015185828151811061035f5761035e610d1f565b5b602002602001018181525050808061037690610d7f565b9150506102ea565b8185828151811061039257610391610d1f565b5b602002602001018181525050505080806001019150506102be565b50819050919050565b60605f5b825181101561047f575f6001826103d19190610ca5565b90505b8351811015610471575f8483815181106103f1576103f0610d1f565b5b602002602001015190505f85838151811061040f5761040e610d1f565b5b6020026020010151905080821115610462578186848151811061043557610434610d1f565b5b6020026020010181815250508086858151811061045557610454610d1f565b5b6020026020010181815250505b505080806001019150506103d4565b5080806001019150506103ba565b50819050919050565b6060600182511161049b578190506107ac565b5f600283516104aa9190610dd3565b90505f8382815181106104c0576104bf610d1f565b5b602002602001015190505f805f865167ffffffffffffffff8111156104e8576104e7610a1e565b5b6040519080825280602002602001820160405280156105165781602001602082028036833780820191505090505b5090505f875167ffffffffffffffff81111561053557610534610a1e565b5b6040519080825280602002602001820160405280156105635781602001602082028036833780820191505090505b5090505f5b885181101561063f5780870315610632578589828151811061058d5761058c610d1f565b5b602002602001015110156105e8578881815181106105ae576105ad610d1f565b5b60200260200101518386815181106105c9576105c8610d1f565b5b60200260200101818152505084806105e090610cd8565b955050610631565b8881815181106105fb576105fa610d1f565b5b602002602001015182858151811061061657610615610d1f565b5b602002602001018181525050838061062d90610cd8565b9450505b5b8080600101915050610568565b505f8467ffffffffffffffff81111561065b5761065a610a1e565b5b6040519080825280602002602001820160405280156106895781602001602082028036833780820191505090505b5090505f8467ffffffffffffffff8111156106a7576106a6610a1e565b5b6040519080825280602002602001820160405280156106d55781602001602082028036833780820191505090505b5090505f5b86811015610729578481815181106106f5576106f4610d1f565b5b60200260200101518382815181106107105761070f610d1f565b5b60200260200101818152505080806001019150506106da565b505f5b8581101561077b5783818151811061074757610746610d1f565b5b602002602001015182828151811061076257610761610d1f565b5b602002602001018181525050808060010191505061072c565b505f61078683610488565b90505f61079283610488565b905061079f828a836107b1565b9a50505050505050505050505b919050565b60605f8251600186516107c49190610ca5565b6107ce9190610ca5565b67ffffffffffffffff8111156107e7576107e6610a1e565b5b6040519080825280602002602001820160405280156108155781602001602082028036833780820191505090505b5090505f5b855181101561086a5785818151811061083657610835610d1f565b5b602002602001015182828151811061085157610850610d1f565b5b602002602001018181525050808060010191505061081a565b5083818651815181106108805761087f610d1f565b5b6020026020010181815250505f5b83518110156108f6578381815181106108aa576108a9610d1f565b5b60200260200101518282600189516108c29190610ca5565b6108cc9190610ca5565b815181106108dd576108dc610d1f565b5b602002602001018181525050808060010191505061088e565b50809150509392505050565b5f604051905090565b5f80fd5b5f80fd5b5f819050919050565b61092581610913565b811461092f575f80fd5b50565b5f813590506109408161091c565b92915050565b5f806040838503121561095c5761095b61090b565b5b5f61096985828601610932565b925050602061097a85828601610932565b9150509250929050565b61098d81610913565b82525050565b5f6020820190506109a65f830184610984565b92915050565b5f602082840312156109c1576109c061090b565b5b5f6109ce84828501610932565b91505092915050565b5f8115159050919050565b6109eb816109d7565b82525050565b5f602082019050610a045f8301846109e2565b92915050565b5f80fd5b5f601f19601f8301169050919050565b7f4e487b71000000000000000000000000000000000000000000000000000000005f52604160045260245ffd5b610a5482610a0e565b810181811067ffffffffffffffff82111715610a7357610a72610a1e565b5b80604052505050565b5f610a85610902565b9050610a918282610a4b565b919050565b5f67ffffffffffffffff821115610ab057610aaf610a1e565b5b602082029050602081019050919050565b5f80fd5b5f610ad7610ad284610a96565b610a7c565b90508083825260208201905060208402830185811115610afa57610af9610ac1565b5b835b81811015610b235780610b0f8882610932565b845260208401935050602081019050610afc565b5050509392505050565b5f82601f830112610b4157610b40610a0a565b5b8135610b51848260208601610ac5565b91505092915050565b5f60208284031215610b6f57610b6e61090b565b5b5f82013567ffffffffffffffff811115610b8c57610b8b61090f565b5b610b9884828501610b2d565b91505092915050565b5f81519050919050565b5f82825260208201905092915050565b5f819050602082019050919050565b610bd381610913565b82525050565b5f610be48383610bca565b60208301905092915050565b5f602082019050919050565b5f610c0682610ba1565b610c108185610bab565b9350610c1b83610bbb565b805f5b83811015610c4b578151610c328882610bd9565b9750610c3d83610bf0565b925050600181019050610c1e565b5085935050505092915050565b5f6020820190508181035f830152610c708184610bfc565b905092915050565b7f4e487b71000000000000000000000000000000000000000000000000000000005f52601160045260245ffd5b5f610caf82610913565b9150610cba83610913565b9250828201905080821115610cd257610cd1610c78565b5b92915050565b5f610ce282610913565b91507fffffffffffffffffffffffffffffffffffffffffffffffffffffffffffffffff8203610d1457610d13610c78565b5b600182019050919050565b7f4e487b71000000000000000000000000000000000000000000000000000000005f52603260045260245ffd5b5f610d5682610913565b9150610d6183610913565b9250828203905081811115610d7957610d78610c78565b5b92915050565b5f610d8982610913565b91505f8203610d9b57610d9a610c78565b5b600182039050919050565b7f4e487b71000000000000000000000000000000000000000000000000000000005f52601260045260245ffd5b5f610ddd82610913565b9150610de883610913565b925082610df857610df7610da6565b5b82820490509291505056fea2646970667358221220e8d19c6e40761603663c10267dbb4c77fe75742c9bce7af7ef2675c47a35937564736f6c634300081a0033",
			"opcodes": "PUSH1 0x80 PUSH1 0x40 MSTORE CALLVALUE DUP1 ISZERO PUSH1 0xE JUMPI PUSH0 DUP1 REVERT JUMPDEST POP PUSH2 0xE39 DUP1 PUSH2 0x1C PUSH0 CODECOPY PUSH0 RETURN INVALID PUSH1 0x80 PUSH1 0x40 MSTORE CALLVALUE DUP1 ISZERO PUSH2 0xF JUMPI PUSH0 DUP1 REVERT JUMPDEST POP PUSH1 0x4 CALLDATASIZE LT PUSH2 0x86 JUMPI PUSH0 CALLDATALOAD PUSH1 0xE0 SHR DUP1 PUSH4 0xAA1CF79C GT PUSH2 0x59 JUMPI DUP1 PUSH4 0xAA1CF79C EQ PUSH2 0x126 JUMPI DUP1 PUSH4 0xB0CFA9FC EQ PUSH2 0x156 JUMPI DUP1 PUSH4 0xB23D97F2 EQ PUSH2 0x174 JUMPI DUP1 PUSH4 0xE30C36F1 EQ PUSH2 0x1A4 JUMPI PUSH2 0x86 JUMP JUMPDEST DUP1 PUSH4 0x28766320 EQ PUSH2 0x8A JUMPI DUP1 PUSH4 0x2BBACAAA EQ PUSH2 0xBA JUMPI DUP1 PUSH4 0x5D14639D EQ PUSH2 0xD8 JUMPI DUP1 PUSH4 0x7141FB00 EQ PUSH2 0xF6 JUMPI JUMPDEST PUSH0 DUP1 REVERT JUMPDEST PUSH2 0xA4 PUSH1 0x4 DUP1 CALLDATASIZE SUB DUP2 ADD SWAP1 PUSH2 0x9F SWAP2 SWAP1 PUSH2 0x946 JUMP JUMPDEST PUSH2 0x1D4 JUMP JUMPDEST PUSH1 0x40 MLOAD PUSH2 0xB1 SWAP2 SWAP1 PUSH2 0x993 JUMP JUMPDEST PUSH1 0x40 MLOAD DUP1 SWAP2 SUB SWAP1 RETURN JUMPDEST PUSH2 0xC2 PUSH2 0x1ED JUMP JUMPDEST PUSH1 0x40 MLOAD PUSH2 0xCF SWAP2 SWAP1 PUSH2 0x993 JUMP JUMPDEST PUSH1 0x40 MLOAD DUP1 SWAP2 SUB SWAP1 RETURN JUMPDEST PUSH2 0xE0 PUSH2 0x220 JUMP JUMPDEST PUSH1 0x40 MLOAD PUSH2 0xED SWAP2 SWAP1 PUSH2 0x993 JUMP JUMPDEST PUSH1 0x40 MLOAD DUP1 SWAP2 SUB SWAP1 RETURN JUMPDEST PUSH2 0x110 PUSH1 0x4 DUP1 CALLDATASIZE SUB DUP2 ADD SWAP1 PUSH2 0x10B SWAP2 SWAP1 PUSH2 0x9AC JUMP JUMPDEST PUSH2 0x25A JUMP JUMPDEST PUSH1 0x40 MLOAD PUSH2 0x11D SWAP2 SWAP1 PUSH2 0x9F1 JUMP JUMPDEST PUSH1 0x40 MLOAD DUP1 SWAP2 SUB SWAP1 RETURN JUMPDEST PUSH2 0x140 PUSH1 0x4 DUP1 CALLDATASIZE SUB DUP2 ADD SWAP1 PUSH2 0x13B SWAP2 SWAP1 PUSH2 0xB5A JUMP JUMPDEST PUSH2 0x274 JUMP JUMPDEST PUSH1 0x40 MLOAD PUSH2 0x14D SWAP2 SWAP1 PUSH2 0xC58 JUMP JUMPDEST PUSH1 0x40 MLOAD DUP1 SWAP2 SUB SWAP1 RETURN JUMPDEST PUSH2 0x15E PUSH2 0x286 JUMP JUMPDEST PUSH1 0x40 MLOAD PUSH2 0x16B SWAP2 SWAP1 PUSH2 0x993 JUMP JUMPDEST PUSH1 0x40 MLOAD DUP1 SWAP2 SUB SWAP1 RETURN JUMPDEST PUSH2 0x18E PUSH1 0x4 DUP1 CALLDATASIZE SUB DUP2 ADD SWAP1 PUSH2 0x189 SWAP2 SWAP1 PUSH2 0xB5A JUMP JUMPDEST PUSH2 0x2BA JUMP JUMPDEST PUSH1 0x40 MLOAD PUSH2 0x19B SWAP2 SWAP1 PUSH2 0xC58 JUMP JUMPDEST PUSH1 0x40 MLOAD DUP1 SWAP2 SUB SWAP1 RETURN JUMPDEST PUSH2 0x1BE PUSH1 0x4 DUP1 CALLDATASIZE SUB DUP2 ADD SWAP1 PUSH2 0x1B9 SWAP2 SWAP1 PUSH2 0xB5A JUMP JUMPDEST PUSH2 0x3B6 JUMP JUMPDEST PUSH1 0x40 MLOAD PUSH2 0x1CB SWAP2 SWAP1 PUSH2 0xC58 JUMP JUMPDEST PUSH1 0x40 MLOAD DUP1 SWAP2 SUB SWAP1 RETURN JUMPDEST PUSH0 DUP2 DUP4 LT ISZERO PUSH2 0x1E3 JUMPI DUP2 PUSH2 0x1E5 JUMP JUMPDEST DUP3 JUMPDEST SWAP1 POP SWAP3 SWAP2 POP POP JUMP JUMPDEST PUSH0 DUP1 PUSH0 SWAP1 POP PUSH0 JUMPDEST DUP1 DUP3 PUSH2 0x200 SWAP2 SWAP1 PUSH2 0xCA5 JUMP JUMPDEST SWAP2 POP DUP1 DUP1 PUSH2 0x20D SWAP1 PUSH2 0xCD8 JUMP JUMPDEST SWAP2 POP POP PUSH1 0xA DUP2 LT PUSH2 0x1F4 JUMPI DUP2 SWAP3 POP POP POP SWAP1 JUMP JUMPDEST PUSH0 DUP1 PUSH0 SWAP1 POP PUSH0 JUMPDEST PUSH1 0xA DUP2 LT ISZERO PUSH2 0x252 JUMPI PUSH1 0x1 DUP3 PUSH2 0x23D SWAP2 SWAP1 PUSH2 0xCA5 JUMP JUMPDEST SWAP2 POP DUP1 DUP1 PUSH2 0x24A SWAP1 PUSH2 0xCD8 JUMP JUMPDEST SWAP2 POP POP PUSH2 0x227 JUMP JUMPDEST DUP2 SWAP3 POP POP POP SWAP1 JUMP JUMPDEST PUSH0 DUP1 DUP3 SUB PUSH2 0x26B JUMPI PUSH1 0x1 SWAP1 POP PUSH2 0x26F JUMP JUMPDEST PUSH0 SWAP1 POP JUMPDEST SWAP2 SWAP1 POP JUMP JUMPDEST PUSH1 0x60 PUSH2 0x27F DUP3 PUSH2 0x488 JUMP JUMPDEST SWAP1 POP SWAP2 SWAP1 POP JUMP JUMPDEST PUSH0 DUP1 PUSH0 SWAP1 POP PUSH0 JUMPDEST PUSH1 0xA DUP2 LT ISZERO PUSH2 0x2B2 JUMPI PUSH1 0x1 DUP3 PUSH2 0x2A3 SWAP2 SWAP1 PUSH2 0xCA5 JUMP JUMPDEST SWAP2 POP DUP1 DUP1 PUSH1 0x1 ADD SWAP2 POP POP PUSH2 0x28D JUMP JUMPDEST POP DUP1 SWAP2 POP POP SWAP1 JUMP JUMPDEST PUSH1 0x60 PUSH0 JUMPDEST DUP3 MLOAD DUP2 LT ISZERO PUSH2 0x3AD JUMPI PUSH0 DUP4 DUP3 DUP2 MLOAD DUP2 LT PUSH2 0x2DB JUMPI PUSH2 0x2DA PUSH2 0xD1F JUMP JUMPDEST JUMPDEST PUSH1 0x20 MUL PUSH1 0x20 ADD ADD MLOAD SWAP1 POP PUSH0 DUP3 SWAP1 POP JUMPDEST PUSH1 0x1 DUP2 LT ISZERO DUP1 ISZERO PUSH2 0x320 JUMPI POP DUP5 PUSH1 0x1 DUP3 PUSH2 0x304 SWAP2 SWAP1 PUSH2 0xD4C JUMP JUMPDEST DUP2 MLOAD DUP2 LT PUSH2 0x315 JUMPI PUSH2 0x314 PUSH2 0xD1F JUMP JUMPDEST JUMPDEST PUSH1 0x20 MUL PUSH1 0x20 ADD ADD MLOAD DUP3 LT JUMPDEST ISZERO PUSH2 0x37E JUMPI DUP5 PUSH1 0x1 DUP3 PUSH2 0x333 SWAP2 SWAP1 PUSH2 0xD4C JUMP JUMPDEST DUP2 MLOAD DUP2 LT PUSH2 0x344 JUMPI PUSH2 0x343 PUSH2 0xD1F JUMP JUMPDEST JUMPDEST PUSH1 0x20 MUL PUSH1 0x20 ADD ADD MLOAD DUP6 DUP3 DUP2 MLOAD DUP2 LT PUSH2 0x35F JUMPI PUSH2 0x35E PUSH2 0xD1F JUMP JUMPDEST JUMPDEST PUSH1 0x20 MUL PUSH1 0x20 ADD ADD DUP2 DUP2 MSTORE POP POP DUP1 DUP1 PUSH2 0x376 SWAP1 PUSH2 0xD7F JUMP JUMPDEST SWAP2 POP POP PUSH2 0x2EA JUMP JUMPDEST DUP2 DUP6 DUP3 DUP2 MLOAD DUP2 LT PUSH2 0x392 JUMPI PUSH2 0x391 PUSH2 0xD1F JUMP JUMPDEST JUMPDEST PUSH1 0x20 MUL PUSH1 0x20 ADD ADD DUP2 DUP2 MSTORE POP POP POP POP DUP1 DUP1 PUSH1 0x1 ADD SWAP2 POP POP PUSH2 0x2BE JUMP JUMPDEST POP DUP2 SWAP1 POP SWAP2 SWAP1 POP JUMP JUMPDEST PUSH1 0x60 PUSH0 JUMPDEST DUP3 MLOAD DUP2 LT ISZERO PUSH2 0x47F JUMPI PUSH0 PUSH1 0x1 DUP3 PUSH2 0x3D1 SWAP2 SWAP1 PUSH2 0xCA5 JUMP JUMPDEST SWAP1 POP JUMPDEST DUP4 MLOAD DUP2 LT ISZERO PUSH2 0x471 JUMPI PUSH0 DUP5 DUP4 DUP2 MLOAD DUP2 LT PUSH2 0x3F1 JUMPI PUSH2 0x3F0 PUSH2 0xD1F JUMP JUMPDEST JUMPDEST PUSH1 0x20 MUL PUSH1 0x20 ADD ADD MLOAD SWAP1 POP PUSH0 DUP6 DUP4 DUP2 MLOAD DUP2 LT PUSH2 0x40F JUMPI PUSH2 0x40E PUSH2 0xD1F JUMP JUMPDEST JUMPDEST PUSH1 0x20 MUL PUSH1 0x20 ADD ADD MLOAD SWAP1 POP DUP1 DUP3 GT ISZERO PUSH2 0x462 JUMPI DUP2 DUP7 DUP5 DUP2 MLOAD DUP2 LT PUSH2 0x435 JUMPI PUSH2 0x434 PUSH2 0xD1F JUMP JUMPDEST JUMPDEST PUSH1 0x20 MUL PUSH1 0x20 ADD ADD DUP2 DUP2 MSTORE POP POP DUP1 DUP7 DUP6 DUP2 MLOAD DUP2 LT PUSH2 0x455 JUMPI PUSH2 0x454 PUSH2 0xD1F JUMP JUMPDEST JUMPDEST PUSH1 0x20 MUL PUSH1 0x20 ADD ADD DUP2 DUP2 MSTORE POP POP JUMPDEST POP POP DUP1 DUP1 PUSH1 0x1 ADD SWAP2 POP POP PUSH2 0x3D4 JUMP JUMPDEST POP DUP1 DUP1 PUSH1 0x1 ADD SWAP2 POP POP PUSH2 0x3BA JUMP JUMPDEST POP DUP2 SWAP1 POP SWAP2 SWAP1 POP JUMP JUMPDEST PUSH1 0x60 PUSH1 0x1 DUP3 MLOAD GT PUSH2 0x49B JUMPI DUP2 SWAP1 POP PUSH2 0x7AC JUMP JUMPDEST PUSH0 PUSH1 0x2 DUP4 MLOAD PUSH2 0x4AA SWAP2 SWAP1 PUSH2 0xDD3 JUMP JUMPDEST SWAP1 POP PUSH0 DUP4 DUP3 DUP2 MLOAD DUP2 LT PUSH2 0x4C0 JUMPI PUSH2 0x4BF PUSH2 0xD1F JUMP JUMPDEST JUMPDEST PUSH1 0x20 MUL PUSH1 0x20 ADD ADD MLOAD SWAP1 POP PUSH0 DUP1 PUSH0 DUP7 MLOAD PUSH8 0xFFFFFFFFFFFFFFFF DUP2 GT ISZERO PUSH2 0x4E8 JUMPI PUSH2 0x4E7 PUSH2 0xA1E JUMP JUMPDEST JUMPDEST PUSH1 0x40 MLOAD SWAP1 DUP1 DUP3 MSTORE DUP1 PUSH1 0x20 MUL PUSH1 0x20 ADD DUP3 ADD PUSH1 0x40 MSTORE DUP1 ISZERO PUSH2 0x516 JUMPI DUP2 PUSH1 0x20 ADD PUSH1 0x20 DUP3 MUL DUP1 CALLDATASIZE DUP4 CALLDATACOPY DUP1 DUP3 ADD SWAP2 POP POP SWAP1 POP JUMPDEST POP SWAP1 POP PUSH0 DUP8 MLOAD PUSH8 0xFFFFFFFFFFFFFFFF DUP2 GT ISZERO PUSH2 0x535 JUMPI PUSH2 0x534 PUSH2 0xA1E JUMP JUMPDEST JUMPDEST PUSH1 0x40 MLOAD SWAP1 DUP1 DUP3 MSTORE DUP1 PUSH1 0x20 MUL PUSH1 0x20 ADD DUP3 ADD PUSH1 0x40 MSTORE DUP1 ISZERO PUSH2 0x563 JUMPI DUP2 PUSH1 0x20 ADD PUSH1 0x20 DUP3 MUL DUP1 CALLDATASIZE DUP4 CALLDATACOPY DUP1 DUP3 ADD SWAP2 POP POP SWAP1 POP JUMPDEST POP SWAP1 POP PUSH0 JUMPDEST DUP9 MLOAD DUP2 LT ISZERO PUSH2 0x63F JUMPI DUP1 DUP8 SUB ISZERO PUSH2 0x632 JUMPI DUP6 DUP10 DUP3 DUP2 MLOAD DUP2 LT PUSH2 0x58D JUMPI PUSH2 0x58C PUSH2 0xD1F JUMP JUMPDEST JUMPDEST PUSH1 0x20 MUL PUSH1 0x20 ADD ADD MLOAD LT ISZERO PUSH2 0x5E8 JUMPI DUP9 DUP2 DUP2 MLOAD DUP2 LT PUSH2 0x5AE JUMPI PUSH2 0x5AD PUSH2 0xD1F JUMP JUMPDEST JUMPDEST PUSH1 0x20 MUL PUSH1 0x20 ADD ADD MLOAD DUP4 DUP7 DUP2 MLOAD DUP2 LT PUSH2 0x5C9 JUMPI PUSH2 0x5C8 PUSH2 0xD1F JUMP JUMPDEST JUMPDEST PUSH1 0x20 MUL PUSH1 0x20 ADD ADD DUP2 DUP2 MSTORE POP POP DUP5 DUP1 PUSH2 0x5E0 SWAP1 PUSH2 0xCD8 JUMP JUMPDEST SWAP6 POP POP PUSH2 0x631 JUMP JUMPDEST DUP9 DUP2 DUP2 MLOAD DUP2 LT PUSH2 0x5FB JUMPI PUSH2 0x5FA PUSH2 0xD1F JUMP JUMPDEST JUMPDEST PUSH1 0x20 MUL PUSH1 0x20 ADD ADD MLOAD DUP3 DUP6 DUP2 MLOAD DUP2 LT PUSH2 0x616 JUMPI PUSH2 0x615 PUSH2 0xD1F JUMP JUMPDEST JUMPDEST PUSH1 0x20 MUL PUSH1 0x20 ADD ADD DUP2 DUP2 MSTORE POP POP DUP4 DUP1 PUSH2 0x62D SWAP1 PUSH2 0xCD8 JUMP JUMPDEST SWAP5 POP POP JUMPDEST JUMPDEST DUP1 DUP1 PUSH1 0x1 ADD SWAP2 POP POP PUSH2 0x568 JUMP JUMPDEST POP PUSH0 DUP5 PUSH8 0xFFFFFFFFFFFFFFFF DUP2 GT ISZERO PUSH2 0x65B JUMPI PUSH2 0x65A PUSH2 0xA1E JUMP JUMPDEST JUMPDEST PUSH1 0x40 MLOAD SWAP1 DUP1 DUP3 MSTORE DUP1 PUSH1 0x20 MUL PUSH1 0x20 ADD DUP3 ADD PUSH1 0x40 MSTORE DUP1 ISZERO PUSH2 0x689 JUMPI DUP2 PUSH1 0x20 ADD PUSH1 0x20 DUP3 MUL DUP1 CALLDATASIZE DUP4 CALLDATACOPY DUP1 DUP3 ADD SWAP2 POP POP SWAP1 POP JUMPDEST POP SWAP1 POP PUSH0 DUP5 PUSH8 0xFFFFFFFFFFFFFFFF DUP2 GT ISZERO PUSH2 0x6A7 JUMPI PUSH2 0x6A6 PUSH2 0xA1E JUMP JUMPDEST JUMPDEST PUSH1 0x40 MLOAD SWAP1 DUP1 DUP3 MSTORE DUP1 PUSH1 0x20 MUL PUSH1 0x20 ADD DUP3 ADD PUSH1 0x40 MSTORE DUP1 ISZERO PUSH2 0x6D5 JUMPI DUP2 PUSH1 0x20 ADD PUSH1 0x20 DUP3 MUL DUP1 CALLDATASIZE DUP4 CALLDATACOPY DUP1 DUP3 ADD SWAP2 POP POP SWAP1 POP JUMPDEST POP SWAP1 POP PUSH0 JUMPDEST DUP7 DUP2 LT ISZERO PUSH2 0x729 JUMPI DUP5 DUP2 DUP2 MLOAD DUP2 LT PUSH2 0x6F5 JUMPI PUSH2 0x6F4 PUSH2 0xD1F JUMP JUMPDEST JUMPDEST PUSH1 0x20 MUL PUSH1 0x20 ADD ADD MLOAD DUP4 DUP3 DUP2 MLOAD DUP2 LT PUSH2 0x710 JUMPI PUSH2 0x70F PUSH2 0xD1F JUMP JUMPDEST JUMPDEST PUSH1 0x20 MUL PUSH1 0x20 ADD ADD DUP2 DUP2 MSTORE POP POP DUP1 DUP1 PUSH1 0x1 ADD SWAP2 POP POP PUSH2 0x6DA JUMP JUMPDEST POP PUSH0 JUMPDEST DUP6 DUP2 LT ISZERO PUSH2 0x77B JUMPI DUP4 DUP2 DUP2 MLOAD DUP2 LT PUSH2 0x747 JUMPI PUSH2 0x746 PUSH2 0xD1F JUMP JUMPDEST JUMPDEST PUSH1 0x20 MUL PUSH1 0x20 ADD ADD MLOAD DUP3 DUP3 DUP2 MLOAD DUP2 LT PUSH2 0x762 JUMPI PUSH2 0x761 PUSH2 0xD1F JUMP JUMPDEST JUMPDEST PUSH1 0x20 MUL PUSH1 0x20 ADD ADD DUP2 DUP2 MSTORE POP POP DUP1 DUP1 PUSH1 0x1 ADD SWAP2 POP POP PUSH2 0x72C JUMP JUMPDEST POP PUSH0 PUSH2 0x786 DUP4 PUSH2 0x488 JUMP JUMPDEST SWAP1 POP PUSH0 PUSH2 0x792 DUP4 PUSH2 0x488 JUMP JUMPDEST SWAP1 POP PUSH2 0x79F DUP3 DUP11 DUP4 PUSH2 0x7B1 JUMP JUMPDEST SWAP11 POP POP POP POP POP POP POP POP POP POP POP JUMPDEST SWAP2 SWAP1 POP JUMP JUMPDEST PUSH1 0x60 PUSH0 DUP3 MLOAD PUSH1 0x1 DUP7 MLOAD PUSH2 0x7C4 SWAP2 SWAP1 PUSH2 0xCA5 JUMP JUMPDEST PUSH2 0x7CE SWAP2 SWAP1 PUSH2 0xCA5 JUMP JUMPDEST PUSH8 0xFFFFFFFFFFFFFFFF DUP2 GT ISZERO PUSH2 0x7E7 JUMPI PUSH2 0x7E6 PUSH2 0xA1E JUMP JUMPDEST JUMPDEST PUSH1 0x40 MLOAD SWAP1 DUP1 DUP3 MSTORE DUP1 PUSH1 0x20 MUL PUSH1 0x20 ADD DUP3 ADD PUSH1 0x40 MSTORE DUP1 ISZERO PUSH2 0x815 JUMPI DUP2 PUSH1 0x20 ADD PUSH1 0x20 DUP3 MUL DUP1 CALLDATASIZE DUP4 CALLDATACOPY DUP1 DUP3 ADD SWAP2 POP POP SWAP1 POP JUMPDEST POP SWAP1 POP PUSH0 JUMPDEST DUP6 MLOAD DUP2 LT ISZERO PUSH2 0x86A JUMPI DUP6 DUP2 DUP2 MLOAD DUP2 LT PUSH2 0x836 JUMPI PUSH2 0x835 PUSH2 0xD1F JUMP JUMPDEST JUMPDEST PUSH1 0x20 MUL PUSH1 0x20 ADD ADD MLOAD DUP3 DUP3 DUP2 MLOAD DUP2 LT PUSH2 0x851 JUMPI PUSH2 0x850 PUSH2 0xD1F JUMP JUMPDEST JUMPDEST PUSH1 0x20 MUL PUSH1 0x20 ADD ADD DUP2 DUP2 MSTORE POP POP DUP1 DUP1 PUSH1 0x1 ADD SWAP2 POP POP PUSH2 0x81A JUMP JUMPDEST POP DUP4 DUP2 DUP7 MLOAD DUP2 MLOAD DUP2 LT PUSH2 0x880 JUMPI PUSH2 0x87F PUSH2 0xD1F JUMP JUMPDEST JUMPDEST PUSH1 0x20 MUL PUSH1 0x20 ADD ADD DUP2 DUP2 MSTORE POP POP PUSH0 JUMPDEST DUP4 MLOAD DUP2 LT ISZERO PUSH2 0x8F6 JUMPI DUP4 DUP2 DUP2 MLOAD DUP2 LT PUSH2 0x8AA JUMPI PUSH2 0x8A9 PUSH2 0xD1F JUMP JUMPDEST JUMPDEST PUSH1 0x20 MUL PUSH1 0x20 ADD ADD MLOAD DUP3 DUP3 PUSH1 0x1 DUP10 MLOAD PUSH2 0x8C2 SWAP2 SWAP1 PUSH2 0xCA5 JUMP JUMPDEST PUSH2 0x8CC SWAP2 SWAP1 PUSH2 0xCA5 JUMP JUMPDEST DUP2 MLOAD DUP2 LT PUSH2 0x8DD JUMPI PUSH2 0x8DC PUSH2 0xD1F JUMP JUMPDEST JUMPDEST PUSH1 0x20 MUL PUSH1 0x20 ADD ADD DUP2 DUP2 MSTORE POP POP DUP1 DUP1 PUSH1 0x1 ADD SWAP2 POP POP PUSH2 0x88E JUMP JUMPDEST POP DUP1 SWAP2 POP POP SWAP4 SWAP3 POP POP POP JUMP JUMPDEST PUSH0 PUSH1 0x40 MLOAD SWAP1 POP SWAP1 JUMP JUMPDEST PUSH0 DUP1 REVERT JUMPDEST PUSH0 DUP1 REVERT JUMPDEST PUSH0 DUP2 SWAP1 POP SWAP2 SWAP1 POP JUMP JUMPDEST PUSH2 0x925 DUP2 PUSH2 0x913 JUMP JUMPDEST DUP2 EQ PUSH2 0x92F JUMPI PUSH0 DUP1 REVERT JUMPDEST POP JUMP JUMPDEST PUSH0 DUP2 CALLDATALOAD SWAP1 POP PUSH2 0x940 DUP2 PUSH2 0x91C JUMP JUMPDEST SWAP3 SWAP2 POP POP JUMP JUMPDEST PUSH0 DUP1 PUSH1 0x40 DUP4 DUP6 SUB SLT ISZERO PUSH2 0x95C JUMPI PUSH2 0x95B PUSH2 0x90B JUMP JUMPDEST JUMPDEST PUSH0 PUSH2 0x969 DUP6 DUP3 DUP7 ADD PUSH2 0x932 JUMP JUMPDEST SWAP3 POP POP PUSH1 0x20 PUSH2 0x97A DUP6 DUP3 DUP7 ADD PUSH2 0x932 JUMP JUMPDEST SWAP2 POP POP SWAP3 POP SWAP3 SWAP1 POP JUMP JUMPDEST PUSH2 0x98D DUP2 PUSH2 0x913 JUMP JUMPDEST DUP3 MSTORE POP POP JUMP JUMPDEST PUSH0 PUSH1 0x20 DUP3 ADD SWAP1 POP PUSH2 0x9A6 PUSH0 DUP4 ADD DUP5 PUSH2 0x984 JUMP JUMPDEST SWAP3 SWAP2 POP POP JUMP JUMPDEST PUSH0 PUSH1 0x20 DUP3 DUP5 SUB SLT ISZERO PUSH2 0x9C1 JUMPI PUSH2 0x9C0 PUSH2 0x90B JUMP JUMPDEST JUMPDEST PUSH0 PUSH2 0x9CE DUP5 DUP3 DUP6 ADD PUSH2 0x932 JUMP JUMPDEST SWAP2 POP POP SWAP3 SWAP2 POP POP JUMP JUMPDEST PUSH0 DUP2 ISZERO ISZERO SWAP1 POP SWAP2 SWAP1 POP JUMP JUMPDEST PUSH2 0x9EB DUP2 PUSH2 0x9D7 JUMP JUMPDEST DUP3 MSTORE POP POP JUMP JUMPDEST PUSH0 PUSH1 0x20 DUP3 ADD SWAP1 POP PUSH2 0xA04 PUSH0 DUP4 ADD DUP5 PUSH2 0x9E2 JUMP JUMPDEST SWAP3 SWAP2 POP POP JUMP JUMPDEST PUSH0 DUP1 REVERT JUMPDEST PUSH0 PUSH1 0x1F NOT PUSH1 0x1F DUP4 ADD AND SWAP1 POP SWAP2 SWAP1 POP JUMP JUMPDEST PUSH32 0x4E487B7100000000000000000000000000000000000000000000000000000000 PUSH0 MSTORE PUSH1 0x41 PUSH1 0x4 MSTORE PUSH1 0x24 PUSH0 REVERT JUMPDEST PUSH2 0xA54 DUP3 PUSH2 0xA0E JUMP JUMPDEST DUP2 ADD DUP2 DUP2 LT PUSH8 0xFFFFFFFFFFFFFFFF DUP3 GT OR ISZERO PUSH2 0xA73 JUMPI PUSH2 0xA72 PUSH2 0xA1E JUMP JUMPDEST JUMPDEST DUP1 PUSH1 0x40 MSTORE POP POP POP JUMP JUMPDEST PUSH0 PUSH2 0xA85 PUSH2 0x902 JUMP JUMPDEST SWAP1 POP PUSH2 0xA91 DUP3 DUP3 PUSH2 0xA4B JUMP JUMPDEST SWAP2 SWAP1 POP JUMP JUMPDEST PUSH0 PUSH8 0xFFFFFFFFFFFFFFFF DUP3 GT ISZERO PUSH2 0xAB0 JUMPI PUSH2 0xAAF PUSH2 0xA1E JUMP JUMPDEST JUMPDEST PUSH1 0x20 DUP3 MUL SWAP1 POP PUSH1 0x20 DUP2 ADD SWAP1 POP SWAP2 SWAP1 POP JUMP JUMPDEST PUSH0 DUP1 REVERT JUMPDEST PUSH0 PUSH2 0xAD7 PUSH2 0xAD2 DUP5 PUSH2 0xA96 JUMP JUMPDEST PUSH2 0xA7C JUMP JUMPDEST SWAP1 POP DUP1 DUP4 DUP3 MSTORE PUSH1 0x20 DUP3 ADD SWAP1 POP PUSH1 0x20 DUP5 MUL DUP4 ADD DUP6 DUP2 GT ISZERO PUSH2 0xAFA JUMPI PUSH2 0xAF9 PUSH2 0xAC1 JUMP JUMPDEST JUMPDEST DUP4 JUMPDEST DUP2 DUP2 LT ISZERO PUSH2 0xB23 JUMPI DUP1 PUSH2 0xB0F DUP9 DUP3 PUSH2 0x932 JUMP JUMPDEST DUP5 MSTORE PUSH1 0x20 DUP5 ADD SWAP4 POP POP PUSH1 0x20 DUP2 ADD SWAP1 POP PUSH2 0xAFC JUMP JUMPDEST POP POP POP SWAP4 SWAP3 POP POP POP JUMP JUMPDEST PUSH0 DUP3 PUSH1 0x1F DUP4 ADD SLT PUSH2 0xB41 JUMPI PUSH2 0xB40 PUSH2 0xA0A JUMP JUMPDEST JUMPDEST DUP2 CALLDATALOAD PUSH2 0xB51 DUP5 DUP3 PUSH1 0x20 DUP7 ADD PUSH2 0xAC5 JUMP JUMPDEST SWAP2 POP POP SWAP3 SWAP2 POP POP JUMP JUMPDEST PUSH0 PUSH1 0x20 DUP3 DUP5 SUB SLT ISZERO PUSH2 0xB6F JUMPI PUSH2 0xB6E PUSH2 0x90B JUMP JUMPDEST JUMPDEST PUSH0 DUP3 ADD CALLDATALOAD PUSH8 0xFFFFFFFFFFFFFFFF DUP2 GT ISZERO PUSH2 0xB8C JUMPI PUSH2 0xB8B PUSH2 0x90F JUMP JUMPDEST JUMPDEST PUSH2 0xB98 DUP5 DUP3 DUP6 ADD PUSH2 0xB2D JUMP JUMPDEST SWAP2 POP POP SWAP3 SWAP2 POP POP JUMP JUMPDEST PUSH0 DUP2 MLOAD SWAP1 POP SWAP2 SWAP1 POP JUMP JUMPDEST PUSH0 DUP3 DUP3 MSTORE PUSH1 0x20 DUP3 ADD SWAP1 POP SWAP3 SWAP2 POP POP JUMP JUMPDEST PUSH0 DUP2 SWAP1 POP PUSH1 0x20 DUP3 ADD SWAP1 POP SWAP2 SWAP1 POP JUMP JUMPDEST PUSH2 0xBD3 DUP2 PUSH2 0x913 JUMP JUMPDEST DUP3 MSTORE POP POP JUMP JUMPDEST PUSH0 PUSH2 0xBE4 DUP4 DUP4 PUSH2 0xBCA JUMP JUMPDEST PUSH1 0x20 DUP4 ADD SWAP1 POP SWAP3 SWAP2 POP POP JUMP JUMPDEST PUSH0 PUSH1 0x20 DUP3 ADD SWAP1 POP SWAP2 SWAP1 POP JUMP JUMPDEST PUSH0 PUSH2 0xC06 DUP3 PUSH2 0xBA1 JUMP JUMPDEST PUSH2 0xC10 DUP2 DUP6 PUSH2 0xBAB JUMP JUMPDEST SWAP4 POP PUSH2 0xC1B DUP4 PUSH2 0xBBB JUMP JUMPDEST DUP1 PUSH0 JUMPDEST DUP4 DUP2 LT ISZERO PUSH2 0xC4B JUMPI DUP2 MLOAD PUSH2 0xC32 DUP9 DUP3 PUSH2 0xBD9 JUMP JUMPDEST SWAP8 POP PUSH2 0xC3D DUP4 PUSH2 0xBF0 JUMP JUMPDEST SWAP3 POP POP PUSH1 0x1 DUP2 ADD SWAP1 POP PUSH2 0xC1E JUMP JUMPDEST POP DUP6 SWAP4 POP POP POP POP SWAP3 SWAP2 POP POP JUMP JUMPDEST PUSH0 PUSH1 0x20 DUP3 ADD SWAP1 POP DUP2 DUP2 SUB PUSH0 DUP4 ADD MSTORE PUSH2 0xC70 DUP2 DUP5 PUSH2 0xBFC JUMP JUMPDEST SWAP1 POP SWAP3 SWAP2 POP POP JUMP JUMPDEST PUSH32 0x4E487B7100000000000000000000000000000000000000000000000000000000 PUSH0 MSTORE PUSH1 0x11 PUSH1 0x4 MSTORE PUSH1 0x24 PUSH0 REVERT JUMPDEST PUSH0 PUSH2 0xCAF DUP3 PUSH2 0x913 JUMP JUMPDEST SWAP2 POP PUSH2 0xCBA DUP4 PUSH2 0x913 JUMP JUMPDEST SWAP3 POP DUP3 DUP3 ADD SWAP1 POP DUP1 DUP3 GT ISZERO PUSH2 0xCD2 JUMPI PUSH2 0xCD1 PUSH2 0xC78 JUMP JUMPDEST JUMPDEST SWAP3 SWAP2 POP POP JUMP JUMPDEST PUSH0 PUSH2 0xCE2 DUP3 PUSH2 0x913 JUMP JUMPDEST SWAP2 POP PUSH32 0xFFFFFFFFFFFFFFFFFFFFFFFFFFFFFFFFFFFFFFFFFFFFFFFFFFFFFFFFFFFFFFFF DUP3 SUB PUSH2 0xD14 JUMPI PUSH2 0xD13 PUSH2 0xC78 JUMP JUMPDEST JUMPDEST PUSH1 0x1 DUP3 ADD SWAP1 POP SWAP2 SWAP1 POP JUMP JUMPDEST PUSH32 0x4E487B7100000000000000000000000000000000000000000000000000000000 PUSH0 MSTORE PUSH1 0x32 PUSH1 0x4 MSTORE PUSH1 0x24 PUSH0 REVERT JUMPDEST PUSH0 PUSH2 0xD56 DUP3 PUSH2 0x913 JUMP JUMPDEST SWAP2 POP PUSH2 0xD61 DUP4 PUSH2 0x913 JUMP JUMPDEST SWAP3 POP DUP3 DUP3 SUB SWAP1 POP DUP2 DUP2 GT ISZERO PUSH2 0xD79 JUMPI PUSH2 0xD78 PUSH2 0xC78 JUMP JUMPDEST JUMPDEST SWAP3 SWAP2 POP POP JUMP JUMPDEST PUSH0 PUSH2 0xD89 DUP3 PUSH2 0x913 JUMP JUMPDEST SWAP2 POP PUSH0 DUP3 SUB PUSH2 0xD9B JUMPI PUSH2 0xD9A PUSH2 0xC78 JUMP JUMPDEST JUMPDEST PUSH1 0x1 DUP3 SUB SWAP1 POP SWAP2 SWAP1 POP JUMP JUMPDEST PUSH32 0x4E487B7100000000000000000000000000000000000000000000000000000000 PUSH0 MSTORE PUSH1 0x12 PUSH1 0x4 MSTORE PUSH1 0x24 PUSH0 REVERT JUMPDEST PUSH0 PUSH2 0xDDD DUP3 PUSH2 0x913 JUMP JUMPDEST SWAP2 POP PUSH2 0xDE8 DUP4 PUSH2 0x913 JUMP JUMPDEST SWAP3 POP DUP3 PUSH2 0xDF8 JUMPI PUSH2 0xDF7 PUSH2 0xDA6 JUMP JUMPDEST JUMPDEST DUP3 DUP3 DIV SWAP1 POP SWAP3 SWAP2 POP POP JUMP INVALID LOG2 PUSH5 0x6970667358 0x22 SLT KECCAK256 0xE8 0xD1 SWAP13 PUSH15 0x40761603663C10267DBB4C77FE7574 0x2C SWAP12 0xCE PUSH27 0xF7EF2675C47A35937564736F6C634300081A003300000000000000 "
		},
		"gasEstimates": {
			"creation": {
				"codeDepositCost": "728200",
				"executionCost": "758",
				"totalCost": "728958"
			},
			"external": {
				"bubbleSort(uint256[])": "infinite",
				"doWhileTest()": "infinite",
				"forLoopTest()": "infinite",
				"ifElseTest(uint256)": "700",
				"insertSort(uint256[])": "infinite",
				"quickSort(uint256[])": "infinite",
				"ternaryTest(uint256,uint256)": "infinite",
				"whileTest()": "infinite"
			},
			"internal": {
				"_quickSort(uint256[] memory)": "infinite",
				"concat(uint256[] memory,uint256,uint256[] memory)": "infinite"
			}
		},
		"methodIdentifiers": {
			"bubbleSort(uint256[])": "e30c36f1",
			"doWhileTest()": "2bbacaaa",
			"forLoopTest()": "b0cfa9fc",
			"ifElseTest(uint256)": "7141fb00",
			"insertSort(uint256[])": "b23d97f2",
			"quickSort(uint256[])": "aa1cf79c",
			"ternaryTest(uint256,uint256)": "28766320",
			"whileTest()": "5d14639d"
		}
	},
	"abi": [
		{
			"inputs": [
				{
					"internalType": "uint256[]",
					"name": "arr",
					"type": "uint256[]"
				}
			],
			"name": "bubbleSort",
			"outputs": [
				{
					"internalType": "uint256[]",
					"name": "",
					"type": "uint256[]"
				}
			],
			"stateMutability": "pure",
			"type": "function"
		},
		{
			"inputs": [],
			"name": "doWhileTest",
			"outputs": [
				{
					"internalType": "uint256",
					"name": "",
					"type": "uint256"
				}
			],
			"stateMutability": "pure",
			"type": "function"
		},
		{
			"inputs": [],
			"name": "forLoopTest",
			"outputs": [
				{
					"internalType": "uint256",
					"name": "",
					"type": "uint256"
				}
			],
			"stateMutability": "pure",
			"type": "function"
		},
		{
			"inputs": [
				{
					"internalType": "uint256",
					"name": "_number",
					"type": "uint256"
				}
			],
			"name": "ifElseTest",
			"outputs": [
				{
					"internalType": "bool",
					"name": "",
					"type": "bool"
				}
			],
			"stateMutability": "pure",
			"type": "function"
		},
		{
			"inputs": [
				{
					"internalType": "uint256[]",
					"name": "arr",
					"type": "uint256[]"
				}
			],
			"name": "insertSort",
			"outputs": [
				{
					"internalType": "uint256[]",
					"name": "",
					"type": "uint256[]"
				}
			],
			"stateMutability": "pure",
			"type": "function"
		},
		{
			"inputs": [
				{
					"internalType": "uint256[]",
					"name": "arr",
					"type": "uint256[]"
				}
			],
			"name": "quickSort",
			"outputs": [
				{
					"internalType": "uint256[]",
					"name": "",
					"type": "uint256[]"
				}
			],
			"stateMutability": "pure",
			"type": "function"
		},
		{
			"inputs": [
				{
					"internalType": "uint256",
					"name": "x",
					"type": "uint256"
				},
				{
					"internalType": "uint256",
					"name": "y",
					"type": "uint256"
				}
			],
			"name": "ternaryTest",
			"outputs": [
				{
					"internalType": "uint256",
					"name": "",
					"type": "uint256"
				}
			],
			"stateMutability": "pure",
			"type": "function"
		},
		{
			"inputs": [],
			"name": "whileTest",
			"outputs": [
				{
					"internalType": "uint256",
					"name": "",
					"type": "uint256"
				}
			],
			"stateMutability": "pure",
			"type": "function"
		}
	]
}