{
	"data": {
		"bytecode": {
			"linkReferences": {},
			"object": "6080604052600a5f557396789c2b0f47b3f7bbecbb5c12a2d0ea5d9afd8960015f6101000a81548173ffffffffffffffffffffffffffffffffffffffff021916908373ffffffffffffffffffffffffffffffffffffffff1602179055506040518060400160405280600481526020017f3078414100000000000000000000000000000000000000000000000000000000815250600290816100a0919061037a565b506040518060400160405280600560ff168152602001600660ff1681525060039060026100ce9291906100e0565b503480156100da575f80fd5b50610449565b8260028101928215610114579160200282015b82811115610113578251829060ff169055916020019190600101906100f3565b5b5090506101219190610125565b5090565b5b8082111561013c575f815f905550600101610126565b5090565b5f81519050919050565b7f4e487b71000000000000000000000000000000000000000000000000000000005f52604160045260245ffd5b7f4e487b71000000000000000000000000000000000000000000000000000000005f52602260045260245ffd5b5f60028204905060018216806101bb57607f821691505b6020821081036101ce576101cd610177565b5b50919050565b5f819050815f5260205f209050919050565b5f6020601f8301049050919050565b5f82821b905092915050565b5f600883026102307fffffffffffffffffffffffffffffffffffffffffffffffffffffffffffffffff826101f5565b61023a86836101f5565b95508019841693508086168417925050509392505050565b5f819050919050565b5f819050919050565b5f61027e61027961027484610252565b61025b565b610252565b9050919050565b5f819050919050565b61029783610264565b6102ab6102a382610285565b848454610201565b825550505050565b5f90565b6102bf6102b3565b6102ca81848461028e565b505050565b5b818110156102ed576102e25f826102b7565b6001810190506102d0565b5050565b601f82111561033257610303816101d4565b61030c846101e6565b8101602085101561031b578190505b61032f610327856101e6565b8301826102cf565b50505b505050565b5f82821c905092915050565b5f6103525f1984600802610337565b1980831691505092915050565b5f61036a8383610343565b9150826002028217905092915050565b61038382610140565b67ffffffffffffffff81111561039c5761039b61014a565b5b6103a682546101a4565b6103b18282856102f1565b5f60209050601f8311600181146103e2575f84156103d0578287015190505b6103da858261035f565b865550610441565b601f1984166103f0866101d4565b5f5b82811015610417578489015182556001820191506020850194506020810190506103f2565b868310156104345784890151610430601f891682610343565b8355505b6001600288020188555050505b505050505050565b6107fe806104565f395ff3fe608060405234801561000f575f80fd5b506004361061004a575f3560e01c806353d9c5061461004e578063bd14598f1461006c578063d1bd363d1461008a578063e4f2a84a146100a8575b5f80fd5b6100566100c6565b6040516100639190610357565b60405180910390f35b610074610117565b6040516100819190610357565b60405180910390f35b610092610168565b60405161009f9190610357565b60405180910390f35b6100b0610228565b6040516100bd9190610357565b60405180910390f35b60605f5460015f9054906101000a900473ffffffffffffffffffffffffffffffffffffffff166002600360405160200161010394939291906105f9565b604051602081830303815290604052905090565b60605f5460015f9054906101000a900473ffffffffffffffffffffffffffffffffffffffff1660026003604051602001610154949392919061077e565b604051602081830303815290604052905090565b60607fe87082f1450a46f8f3150d7bda55bda41a2b08d68abde6797ccc68be305673355f5460015f9054906101000a900473ffffffffffffffffffffffffffffffffffffffff16600260036040516024016101c6949392919061077e565b604051602081830303815290604052907bffffffffffffffffffffffffffffffffffffffffffffffffffffffff19166020820180517bffffffffffffffffffffffffffffffffffffffffffffffffffffffff8381831617835250505050905090565b60605f5460015f9054906101000a900473ffffffffffffffffffffffffffffffffffffffff1660026003604051602401610265949392919061077e565b6040516020818303038152906040527fe87082f1000000000000000000000000000000000000000000000000000000007bffffffffffffffffffffffffffffffffffffffffffffffffffffffff19166020820180517bffffffffffffffffffffffffffffffffffffffffffffffffffffffff8381831617835250505050905090565b5f81519050919050565b5f82825260208201905092915050565b8281835e5f83830152505050565b5f601f19601f8301169050919050565b5f610329826102e7565b61033381856102f1565b9350610343818560208601610301565b61034c8161030f565b840191505092915050565b5f6020820190508181035f83015261036f818461031f565b905092915050565b5f819050919050565b5f819050919050565b61039a61039582610377565b610380565b82525050565b5f73ffffffffffffffffffffffffffffffffffffffff82169050919050565b5f6103c9826103a0565b9050919050565b5f8160601b9050919050565b5f6103e6826103d0565b9050919050565b5f6103f7826103dc565b9050919050565b61040f61040a826103bf565b6103ed565b82525050565b7f4e487b71000000000000000000000000000000000000000000000000000000005f52602260045260245ffd5b5f600282049050600182168061045957607f821691505b60208210810361046c5761046b610415565b5b50919050565b5f81905092915050565b5f819050815f5260205f209050919050565b5f815461049a81610442565b6104a48186610472565b9450600182165f81146104be57600181146104d357610505565b60ff1983168652811515820286019350610505565b6104dc8561047c565b5f5b838110156104fd578154818901526001820191506020810190506104de565b838801955050505b50505092915050565b5f60029050919050565b5f81905092915050565b5f819050919050565b61053481610377565b82525050565b5f610545838361052b565b60208301905092915050565b5f815f1c9050919050565b5f819050919050565b5f61057761057283610551565b61055c565b9050919050565b5f6105898254610565565b9050919050565b5f600182019050919050565b6105a58161050e565b6105af8184610518565b92506105ba82610522565b805f5b838110156105f1576105ce8261057e565b6105d8878261053a565b96506105e383610590565b9250506001810190506105bd565b505050505050565b5f6106048287610389565b60208201915061061482866103fe565b601482019150610624828561048e565b9150610630828461059c565b60408201915081905095945050505050565b61064b81610377565b82525050565b61065a816103bf565b82525050565b5f82825260208201905092915050565b5f815461067c81610442565b6106868186610660565b9450600182165f81146106a057600181146106b6576106e8565b60ff1983168652811515602002860193506106e8565b6106bf8561047c565b5f5b838110156106e0578154818901526001820191506020810190506106c1565b808801955050505b50505092915050565b5f81905092915050565b61070481610377565b82525050565b5f61071583836106fb565b60208301905092915050565b61072a8161050e565b61073481846106f1565b925061073f82610522565b805f5b83811015610776576107538261057e565b61075d878261070a565b965061076883610590565b925050600181019050610742565b505050505050565b5f60a0820190506107915f830187610642565b61079e6020830186610651565b81810360408301526107b08185610670565b90506107bf6060830184610721565b9594505050505056fea2646970667358221220597e511d0ff7275607406f2382dd4fa3a581a0ea7a554e05eb036a457bd06e9b64736f6c634300081a0033",
			"opcodes": "PUSH1 0x80 PUSH1 0x40 MSTORE PUSH1 0xA PUSH0 SSTORE PUSH20 0x96789C2B0F47B3F7BBECBB5C12A2D0EA5D9AFD89 PUSH1 0x1 PUSH0 PUSH2 0x100 EXP DUP2 SLOAD DUP2 PUSH20 0xFFFFFFFFFFFFFFFFFFFFFFFFFFFFFFFFFFFFFFFF MUL NOT AND SWAP1 DUP4 PUSH20 0xFFFFFFFFFFFFFFFFFFFFFFFFFFFFFFFFFFFFFFFF AND MUL OR SWAP1 SSTORE POP PUSH1 0x40 MLOAD DUP1 PUSH1 0x40 ADD PUSH1 0x40 MSTORE DUP1 PUSH1 0x4 DUP2 MSTORE PUSH1 0x20 ADD PUSH32 0x3078414100000000000000000000000000000000000000000000000000000000 DUP2 MSTORE POP PUSH1 0x2 SWAP1 DUP2 PUSH2 0xA0 SWAP2 SWAP1 PUSH2 0x37A JUMP JUMPDEST POP PUSH1 0x40 MLOAD DUP1 PUSH1 0x40 ADD PUSH1 0x40 MSTORE DUP1 PUSH1 0x5 PUSH1 0xFF AND DUP2 MSTORE PUSH1 0x20 ADD PUSH1 0x6 PUSH1 0xFF AND DUP2 MSTORE POP PUSH1 0x3 SWAP1 PUSH1 0x2 PUSH2 0xCE SWAP3 SWAP2 SWAP1 PUSH2 0xE0 JUMP JUMPDEST POP CALLVALUE DUP1 ISZERO PUSH2 0xDA JUMPI PUSH0 DUP1 REVERT JUMPDEST POP PUSH2 0x449 JUMP JUMPDEST DUP3 PUSH1 0x2 DUP2 ADD SWAP3 DUP3 ISZERO PUSH2 0x114 JUMPI SWAP2 PUSH1 0x20 MUL DUP3 ADD JUMPDEST DUP3 DUP2 GT ISZERO PUSH2 0x113 JUMPI DUP3 MLOAD DUP3 SWAP1 PUSH1 0xFF AND SWAP1 SSTORE SWAP2 PUSH1 0x20 ADD SWAP2 SWAP1 PUSH1 0x1 ADD SWAP1 PUSH2 0xF3 JUMP JUMPDEST JUMPDEST POP SWAP1 POP PUSH2 0x121 SWAP2 SWAP1 PUSH2 0x125 JUMP JUMPDEST POP SWAP1 JUMP JUMPDEST JUMPDEST DUP1 DUP3 GT ISZERO PUSH2 0x13C JUMPI PUSH0 DUP2 PUSH0 SWAP1 SSTORE POP PUSH1 0x1 ADD PUSH2 0x126 JUMP JUMPDEST POP SWAP1 JUMP JUMPDEST PUSH0 DUP2 MLOAD SWAP1 POP SWAP2 SWAP1 POP JUMP JUMPDEST PUSH32 0x4E487B7100000000000000000000000000000000000000000000000000000000 PUSH0 MSTORE PUSH1 0x41 PUSH1 0x4 MSTORE PUSH1 0x24 PUSH0 REVERT JUMPDEST PUSH32 0x4E487B7100000000000000000000000000000000000000000000000000000000 PUSH0 MSTORE PUSH1 0x22 PUSH1 0x4 MSTORE PUSH1 0x24 PUSH0 REVERT JUMPDEST PUSH0 PUSH1 0x2 DUP3 DIV SWAP1 POP PUSH1 0x1 DUP3 AND DUP1 PUSH2 0x1BB JUMPI PUSH1 0x7F DUP3 AND SWAP2 POP JUMPDEST PUSH1 0x20 DUP3 LT DUP2 SUB PUSH2 0x1CE JUMPI PUSH2 0x1CD PUSH2 0x177 JUMP JUMPDEST JUMPDEST POP SWAP2 SWAP1 POP JUMP JUMPDEST PUSH0 DUP2 SWAP1 POP DUP2 PUSH0 MSTORE PUSH1 0x20 PUSH0 KECCAK256 SWAP1 POP SWAP2 SWAP1 POP JUMP JUMPDEST PUSH0 PUSH1 0x20 PUSH1 0x1F DUP4 ADD DIV SWAP1 POP SWAP2 SWAP1 POP JUMP JUMPDEST PUSH0 DUP3 DUP3 SHL SWAP1 POP SWAP3 SWAP2 POP POP JUMP JUMPDEST PUSH0 PUSH1 0x8 DUP4 MUL PUSH2 0x230 PUSH32 0xFFFFFFFFFFFFFFFFFFFFFFFFFFFFFFFFFFFFFFFFFFFFFFFFFFFFFFFFFFFFFFFF DUP3 PUSH2 0x1F5 JUMP JUMPDEST PUSH2 0x23A DUP7 DUP4 PUSH2 0x1F5 JUMP JUMPDEST SWAP6 POP DUP1 NOT DUP5 AND SWAP4 POP DUP1 DUP7 AND DUP5 OR SWAP3 POP POP POP SWAP4 SWAP3 POP POP POP JUMP JUMPDEST PUSH0 DUP2 SWAP1 POP SWAP2 SWAP1 POP JUMP JUMPDEST PUSH0 DUP2 SWAP1 POP SWAP2 SWAP1 POP JUMP JUMPDEST PUSH0 PUSH2 0x27E PUSH2 0x279 PUSH2 0x274 DUP5 PUSH2 0x252 JUMP JUMPDEST PUSH2 0x25B JUMP JUMPDEST PUSH2 0x252 JUMP JUMPDEST SWAP1 POP SWAP2 SWAP1 POP JUMP JUMPDEST PUSH0 DUP2 SWAP1 POP SWAP2 SWAP1 POP JUMP JUMPDEST PUSH2 0x297 DUP4 PUSH2 0x264 JUMP JUMPDEST PUSH2 0x2AB PUSH2 0x2A3 DUP3 PUSH2 0x285 JUMP JUMPDEST DUP5 DUP5 SLOAD PUSH2 0x201 JUMP JUMPDEST DUP3 SSTORE POP POP POP POP JUMP JUMPDEST PUSH0 SWAP1 JUMP JUMPDEST PUSH2 0x2BF PUSH2 0x2B3 JUMP JUMPDEST PUSH2 0x2CA DUP2 DUP5 DUP5 PUSH2 0x28E JUMP JUMPDEST POP POP POP JUMP JUMPDEST JUMPDEST DUP2 DUP2 LT ISZERO PUSH2 0x2ED JUMPI PUSH2 0x2E2 PUSH0 DUP3 PUSH2 0x2B7 JUMP JUMPDEST PUSH1 0x1 DUP2 ADD SWAP1 POP PUSH2 0x2D0 JUMP JUMPDEST POP POP JUMP JUMPDEST PUSH1 0x1F DUP3 GT ISZERO PUSH2 0x332 JUMPI PUSH2 0x303 DUP2 PUSH2 0x1D4 JUMP JUMPDEST PUSH2 0x30C DUP5 PUSH2 0x1E6 JUMP JUMPDEST DUP2 ADD PUSH1 0x20 DUP6 LT ISZERO PUSH2 0x31B JUMPI DUP2 SWAP1 POP JUMPDEST PUSH2 0x32F PUSH2 0x327 DUP6 PUSH2 0x1E6 JUMP JUMPDEST DUP4 ADD DUP3 PUSH2 0x2CF JUMP JUMPDEST POP POP JUMPDEST POP POP POP JUMP JUMPDEST PUSH0 DUP3 DUP3 SHR SWAP1 POP SWAP3 SWAP2 POP POP JUMP JUMPDEST PUSH0 PUSH2 0x352 PUSH0 NOT DUP5 PUSH1 0x8 MUL PUSH2 0x337 JUMP JUMPDEST NOT DUP1 DUP4 AND SWAP2 POP POP SWAP3 SWAP2 POP POP JUMP JUMPDEST PUSH0 PUSH2 0x36A DUP4 DUP4 PUSH2 0x343 JUMP JUMPDEST SWAP2 POP DUP3 PUSH1 0x2 MUL DUP3 OR SWAP1 POP SWAP3 SWAP2 POP POP JUMP JUMPDEST PUSH2 0x383 DUP3 PUSH2 0x140 JUMP JUMPDEST PUSH8 0xFFFFFFFFFFFFFFFF DUP2 GT ISZERO PUSH2 0x39C JUMPI PUSH2 0x39B PUSH2 0x14A JUMP JUMPDEST JUMPDEST PUSH2 0x3A6 DUP3 SLOAD PUSH2 0x1A4 JUMP JUMPDEST PUSH2 0x3B1 DUP3 DUP3 DUP6 PUSH2 0x2F1 JUMP JUMPDEST PUSH0 PUSH1 0x20 SWAP1 POP PUSH1 0x1F DUP4 GT PUSH1 0x1 DUP2 EQ PUSH2 0x3E2 JUMPI PUSH0 DUP5 ISZERO PUSH2 0x3D0 JUMPI DUP3 DUP8 ADD MLOAD SWAP1 POP JUMPDEST PUSH2 0x3DA DUP6 DUP3 PUSH2 0x35F JUMP JUMPDEST DUP7 SSTORE POP PUSH2 0x441 JUMP JUMPDEST PUSH1 0x1F NOT DUP5 AND PUSH2 0x3F0 DUP7 PUSH2 0x1D4 JUMP JUMPDEST PUSH0 JUMPDEST DUP3 DUP2 LT ISZERO PUSH2 0x417 JUMPI DUP5 DUP10 ADD MLOAD DUP3 SSTORE PUSH1 0x1 DUP3 ADD SWAP2 POP PUSH1 0x20 DUP6 ADD SWAP5 POP PUSH1 0x20 DUP2 ADD SWAP1 POP PUSH2 0x3F2 JUMP JUMPDEST DUP7 DUP4 LT ISZERO PUSH2 0x434 JUMPI DUP5 DUP10 ADD MLOAD PUSH2 0x430 PUSH1 0x1F DUP10 AND DUP3 PUSH2 0x343 JUMP JUMPDEST DUP4 SSTORE POP JUMPDEST PUSH1 0x1 PUSH1 0x2 DUP9 MUL ADD DUP9 SSTORE POP POP POP JUMPDEST POP POP POP POP POP POP JUMP JUMPDEST PUSH2 0x7FE DUP1 PUSH2 0x456 PUSH0 CODECOPY PUSH0 RETURN INVALID PUSH1 0x80 PUSH1 0x40 MSTORE CALLVALUE DUP1 ISZERO PUSH2 0xF JUMPI PUSH0 DUP1 REVERT JUMPDEST POP PUSH1 0x4 CALLDATASIZE LT PUSH2 0x4A JUMPI PUSH0 CALLDATALOAD PUSH1 0xE0 SHR DUP1 PUSH4 0x53D9C506 EQ PUSH2 0x4E JUMPI DUP1 PUSH4 0xBD14598F EQ PUSH2 0x6C JUMPI DUP1 PUSH4 0xD1BD363D EQ PUSH2 0x8A JUMPI DUP1 PUSH4 0xE4F2A84A EQ PUSH2 0xA8 JUMPI JUMPDEST PUSH0 DUP1 REVERT JUMPDEST PUSH2 0x56 PUSH2 0xC6 JUMP JUMPDEST PUSH1 0x40 MLOAD PUSH2 0x63 SWAP2 SWAP1 PUSH2 0x357 JUMP JUMPDEST PUSH1 0x40 MLOAD DUP1 SWAP2 SUB SWAP1 RETURN JUMPDEST PUSH2 0x74 PUSH2 0x117 JUMP JUMPDEST PUSH1 0x40 MLOAD PUSH2 0x81 SWAP2 SWAP1 PUSH2 0x357 JUMP JUMPDEST PUSH1 0x40 MLOAD DUP1 SWAP2 SUB SWAP1 RETURN JUMPDEST PUSH2 0x92 PUSH2 0x168 JUMP JUMPDEST PUSH1 0x40 MLOAD PUSH2 0x9F SWAP2 SWAP1 PUSH2 0x357 JUMP JUMPDEST PUSH1 0x40 MLOAD DUP1 SWAP2 SUB SWAP1 RETURN JUMPDEST PUSH2 0xB0 PUSH2 0x228 JUMP JUMPDEST PUSH1 0x40 MLOAD PUSH2 0xBD SWAP2 SWAP1 PUSH2 0x357 JUMP JUMPDEST PUSH1 0x40 MLOAD DUP1 SWAP2 SUB SWAP1 RETURN JUMPDEST PUSH1 0x60 PUSH0 SLOAD PUSH1 0x1 PUSH0 SWAP1 SLOAD SWAP1 PUSH2 0x100 EXP SWAP1 DIV PUSH20 0xFFFFFFFFFFFFFFFFFFFFFFFFFFFFFFFFFFFFFFFF AND PUSH1 0x2 PUSH1 0x3 PUSH1 0x40 MLOAD PUSH1 0x20 ADD PUSH2 0x103 SWAP5 SWAP4 SWAP3 SWAP2 SWAP1 PUSH2 0x5F9 JUMP JUMPDEST PUSH1 0x40 MLOAD PUSH1 0x20 DUP2 DUP4 SUB SUB DUP2 MSTORE SWAP1 PUSH1 0x40 MSTORE SWAP1 POP SWAP1 JUMP JUMPDEST PUSH1 0x60 PUSH0 SLOAD PUSH1 0x1 PUSH0 SWAP1 SLOAD SWAP1 PUSH2 0x100 EXP SWAP1 DIV PUSH20 0xFFFFFFFFFFFFFFFFFFFFFFFFFFFFFFFFFFFFFFFF AND PUSH1 0x2 PUSH1 0x3 PUSH1 0x40 MLOAD PUSH1 0x20 ADD PUSH2 0x154 SWAP5 SWAP4 SWAP3 SWAP2 SWAP1 PUSH2 0x77E JUMP JUMPDEST PUSH1 0x40 MLOAD PUSH1 0x20 DUP2 DUP4 SUB SUB DUP2 MSTORE SWAP1 PUSH1 0x40 MSTORE SWAP1 POP SWAP1 JUMP JUMPDEST PUSH1 0x60 PUSH32 0xE87082F1450A46F8F3150D7BDA55BDA41A2B08D68ABDE6797CCC68BE30567335 PUSH0 SLOAD PUSH1 0x1 PUSH0 SWAP1 SLOAD SWAP1 PUSH2 0x100 EXP SWAP1 DIV PUSH20 0xFFFFFFFFFFFFFFFFFFFFFFFFFFFFFFFFFFFFFFFF AND PUSH1 0x2 PUSH1 0x3 PUSH1 0x40 MLOAD PUSH1 0x24 ADD PUSH2 0x1C6 SWAP5 SWAP4 SWAP3 SWAP2 SWAP1 PUSH2 0x77E JUMP JUMPDEST PUSH1 0x40 MLOAD PUSH1 0x20 DUP2 DUP4 SUB SUB DUP2 MSTORE SWAP1 PUSH1 0x40 MSTORE SWAP1 PUSH28 0xFFFFFFFFFFFFFFFFFFFFFFFFFFFFFFFFFFFFFFFFFFFFFFFFFFFFFFFF NOT AND PUSH1 0x20 DUP3 ADD DUP1 MLOAD PUSH28 0xFFFFFFFFFFFFFFFFFFFFFFFFFFFFFFFFFFFFFFFFFFFFFFFFFFFFFFFF DUP4 DUP2 DUP4 AND OR DUP4 MSTORE POP POP POP POP SWAP1 POP SWAP1 JUMP JUMPDEST PUSH1 0x60 PUSH0 SLOAD PUSH1 0x1 PUSH0 SWAP1 SLOAD SWAP1 PUSH2 0x100 EXP SWAP1 DIV PUSH20 0xFFFFFFFFFFFFFFFFFFFFFFFFFFFFFFFFFFFFFFFF AND PUSH1 0x2 PUSH1 0x3 PUSH1 0x40 MLOAD PUSH1 0x24 ADD PUSH2 0x265 SWAP5 SWAP4 SWAP3 SWAP2 SWAP1 PUSH2 0x77E JUMP JUMPDEST PUSH1 0x40 MLOAD PUSH1 0x20 DUP2 DUP4 SUB SUB DUP2 MSTORE SWAP1 PUSH1 0x40 MSTORE PUSH32 0xE87082F100000000000000000000000000000000000000000000000000000000 PUSH28 0xFFFFFFFFFFFFFFFFFFFFFFFFFFFFFFFFFFFFFFFFFFFFFFFFFFFFFFFF NOT AND PUSH1 0x20 DUP3 ADD DUP1 MLOAD PUSH28 0xFFFFFFFFFFFFFFFFFFFFFFFFFFFFFFFFFFFFFFFFFFFFFFFFFFFFFFFF DUP4 DUP2 DUP4 AND OR DUP4 MSTORE POP POP POP POP SWAP1 POP SWAP1 JUMP JUMPDEST PUSH0 DUP2 MLOAD SWAP1 POP SWAP2 SWAP1 POP JUMP JUMPDEST PUSH0 DUP3 DUP3 MSTORE PUSH1 0x20 DUP3 ADD SWAP1 POP SWAP3 SWAP2 POP POP JUMP JUMPDEST DUP3 DUP2 DUP4 MCOPY PUSH0 DUP4 DUP4 ADD MSTORE POP POP POP JUMP JUMPDEST PUSH0 PUSH1 0x1F NOT PUSH1 0x1F DUP4 ADD AND SWAP1 POP SWAP2 SWAP1 POP JUMP JUMPDEST PUSH0 PUSH2 0x329 DUP3 PUSH2 0x2E7 JUMP JUMPDEST PUSH2 0x333 DUP2 DUP6 PUSH2 0x2F1 JUMP JUMPDEST SWAP4 POP PUSH2 0x343 DUP2 DUP6 PUSH1 0x20 DUP7 ADD PUSH2 0x301 JUMP JUMPDEST PUSH2 0x34C DUP2 PUSH2 0x30F JUMP JUMPDEST DUP5 ADD SWAP2 POP POP SWAP3 SWAP2 POP POP JUMP JUMPDEST PUSH0 PUSH1 0x20 DUP3 ADD SWAP1 POP DUP2 DUP2 SUB PUSH0 DUP4 ADD MSTORE PUSH2 0x36F DUP2 DUP5 PUSH2 0x31F JUMP JUMPDEST SWAP1 POP SWAP3 SWAP2 POP POP JUMP JUMPDEST PUSH0 DUP2 SWAP1 POP SWAP2 SWAP1 POP JUMP JUMPDEST PUSH0 DUP2 SWAP1 POP SWAP2 SWAP1 POP JUMP JUMPDEST PUSH2 0x39A PUSH2 0x395 DUP3 PUSH2 0x377 JUMP JUMPDEST PUSH2 0x380 JUMP JUMPDEST DUP3 MSTORE POP POP JUMP JUMPDEST PUSH0 PUSH20 0xFFFFFFFFFFFFFFFFFFFFFFFFFFFFFFFFFFFFFFFF DUP3 AND SWAP1 POP SWAP2 SWAP1 POP JUMP JUMPDEST PUSH0 PUSH2 0x3C9 DUP3 PUSH2 0x3A0 JUMP JUMPDEST SWAP1 POP SWAP2 SWAP1 POP JUMP JUMPDEST PUSH0 DUP2 PUSH1 0x60 SHL SWAP1 POP SWAP2 SWAP1 POP JUMP JUMPDEST PUSH0 PUSH2 0x3E6 DUP3 PUSH2 0x3D0 JUMP JUMPDEST SWAP1 POP SWAP2 SWAP1 POP JUMP JUMPDEST PUSH0 PUSH2 0x3F7 DUP3 PUSH2 0x3DC JUMP JUMPDEST SWAP1 POP SWAP2 SWAP1 POP JUMP JUMPDEST PUSH2 0x40F PUSH2 0x40A DUP3 PUSH2 0x3BF JUMP JUMPDEST PUSH2 0x3ED JUMP JUMPDEST DUP3 MSTORE POP POP JUMP JUMPDEST PUSH32 0x4E487B7100000000000000000000000000000000000000000000000000000000 PUSH0 MSTORE PUSH1 0x22 PUSH1 0x4 MSTORE PUSH1 0x24 PUSH0 REVERT JUMPDEST PUSH0 PUSH1 0x2 DUP3 DIV SWAP1 POP PUSH1 0x1 DUP3 AND DUP1 PUSH2 0x459 JUMPI PUSH1 0x7F DUP3 AND SWAP2 POP JUMPDEST PUSH1 0x20 DUP3 LT DUP2 SUB PUSH2 0x46C JUMPI PUSH2 0x46B PUSH2 0x415 JUMP JUMPDEST JUMPDEST POP SWAP2 SWAP1 POP JUMP JUMPDEST PUSH0 DUP2 SWAP1 POP SWAP3 SWAP2 POP POP JUMP JUMPDEST PUSH0 DUP2 SWAP1 POP DUP2 PUSH0 MSTORE PUSH1 0x20 PUSH0 KECCAK256 SWAP1 POP SWAP2 SWAP1 POP JUMP JUMPDEST PUSH0 DUP2 SLOAD PUSH2 0x49A DUP2 PUSH2 0x442 JUMP JUMPDEST PUSH2 0x4A4 DUP2 DUP7 PUSH2 0x472 JUMP JUMPDEST SWAP5 POP PUSH1 0x1 DUP3 AND PUSH0 DUP2 EQ PUSH2 0x4BE JUMPI PUSH1 0x1 DUP2 EQ PUSH2 0x4D3 JUMPI PUSH2 0x505 JUMP JUMPDEST PUSH1 0xFF NOT DUP4 AND DUP7 MSTORE DUP2 ISZERO ISZERO DUP3 MUL DUP7 ADD SWAP4 POP PUSH2 0x505 JUMP JUMPDEST PUSH2 0x4DC DUP6 PUSH2 0x47C JUMP JUMPDEST PUSH0 JUMPDEST DUP4 DUP2 LT ISZERO PUSH2 0x4FD JUMPI DUP2 SLOAD DUP2 DUP10 ADD MSTORE PUSH1 0x1 DUP3 ADD SWAP2 POP PUSH1 0x20 DUP2 ADD SWAP1 POP PUSH2 0x4DE JUMP JUMPDEST DUP4 DUP9 ADD SWAP6 POP POP POP JUMPDEST POP POP POP SWAP3 SWAP2 POP POP JUMP JUMPDEST PUSH0 PUSH1 0x2 SWAP1 POP SWAP2 SWAP1 POP JUMP JUMPDEST PUSH0 DUP2 SWAP1 POP SWAP3 SWAP2 POP POP JUMP JUMPDEST PUSH0 DUP2 SWAP1 POP SWAP2 SWAP1 POP JUMP JUMPDEST PUSH2 0x534 DUP2 PUSH2 0x377 JUMP JUMPDEST DUP3 MSTORE POP POP JUMP JUMPDEST PUSH0 PUSH2 0x545 DUP4 DUP4 PUSH2 0x52B JUMP JUMPDEST PUSH1 0x20 DUP4 ADD SWAP1 POP SWAP3 SWAP2 POP POP JUMP JUMPDEST PUSH0 DUP2 PUSH0 SHR SWAP1 POP SWAP2 SWAP1 POP JUMP JUMPDEST PUSH0 DUP2 SWAP1 POP SWAP2 SWAP1 POP JUMP JUMPDEST PUSH0 PUSH2 0x577 PUSH2 0x572 DUP4 PUSH2 0x551 JUMP JUMPDEST PUSH2 0x55C JUMP JUMPDEST SWAP1 POP SWAP2 SWAP1 POP JUMP JUMPDEST PUSH0 PUSH2 0x589 DUP3 SLOAD PUSH2 0x565 JUMP JUMPDEST SWAP1 POP SWAP2 SWAP1 POP JUMP JUMPDEST PUSH0 PUSH1 0x1 DUP3 ADD SWAP1 POP SWAP2 SWAP1 POP JUMP JUMPDEST PUSH2 0x5A5 DUP2 PUSH2 0x50E JUMP JUMPDEST PUSH2 0x5AF DUP2 DUP5 PUSH2 0x518 JUMP JUMPDEST SWAP3 POP PUSH2 0x5BA DUP3 PUSH2 0x522 JUMP JUMPDEST DUP1 PUSH0 JUMPDEST DUP4 DUP2 LT ISZERO PUSH2 0x5F1 JUMPI PUSH2 0x5CE DUP3 PUSH2 0x57E JUMP JUMPDEST PUSH2 0x5D8 DUP8 DUP3 PUSH2 0x53A JUMP JUMPDEST SWAP7 POP PUSH2 0x5E3 DUP4 PUSH2 0x590 JUMP JUMPDEST SWAP3 POP POP PUSH1 0x1 DUP2 ADD SWAP1 POP PUSH2 0x5BD JUMP JUMPDEST POP POP POP POP POP POP JUMP JUMPDEST PUSH0 PUSH2 0x604 DUP3 DUP8 PUSH2 0x389 JUMP JUMPDEST PUSH1 0x20 DUP3 ADD SWAP2 POP PUSH2 0x614 DUP3 DUP7 PUSH2 0x3FE JUMP JUMPDEST PUSH1 0x14 DUP3 ADD SWAP2 POP PUSH2 0x624 DUP3 DUP6 PUSH2 0x48E JUMP JUMPDEST SWAP2 POP PUSH2 0x630 DUP3 DUP5 PUSH2 0x59C JUMP JUMPDEST PUSH1 0x40 DUP3 ADD SWAP2 POP DUP2 SWAP1 POP SWAP6 SWAP5 POP POP POP POP POP JUMP JUMPDEST PUSH2 0x64B DUP2 PUSH2 0x377 JUMP JUMPDEST DUP3 MSTORE POP POP JUMP JUMPDEST PUSH2 0x65A DUP2 PUSH2 0x3BF JUMP JUMPDEST DUP3 MSTORE POP POP JUMP JUMPDEST PUSH0 DUP3 DUP3 MSTORE PUSH1 0x20 DUP3 ADD SWAP1 POP SWAP3 SWAP2 POP POP JUMP JUMPDEST PUSH0 DUP2 SLOAD PUSH2 0x67C DUP2 PUSH2 0x442 JUMP JUMPDEST PUSH2 0x686 DUP2 DUP7 PUSH2 0x660 JUMP JUMPDEST SWAP5 POP PUSH1 0x1 DUP3 AND PUSH0 DUP2 EQ PUSH2 0x6A0 JUMPI PUSH1 0x1 DUP2 EQ PUSH2 0x6B6 JUMPI PUSH2 0x6E8 JUMP JUMPDEST PUSH1 0xFF NOT DUP4 AND DUP7 MSTORE DUP2 ISZERO ISZERO PUSH1 0x20 MUL DUP7 ADD SWAP4 POP PUSH2 0x6E8 JUMP JUMPDEST PUSH2 0x6BF DUP6 PUSH2 0x47C JUMP JUMPDEST PUSH0 JUMPDEST DUP4 DUP2 LT ISZERO PUSH2 0x6E0 JUMPI DUP2 SLOAD DUP2 DUP10 ADD MSTORE PUSH1 0x1 DUP3 ADD SWAP2 POP PUSH1 0x20 DUP2 ADD SWAP1 POP PUSH2 0x6C1 JUMP JUMPDEST DUP1 DUP9 ADD SWAP6 POP POP POP JUMPDEST POP POP POP SWAP3 SWAP2 POP POP JUMP JUMPDEST PUSH0 DUP2 SWAP1 POP SWAP3 SWAP2 POP POP JUMP JUMPDEST PUSH2 0x704 DUP2 PUSH2 0x377 JUMP JUMPDEST DUP3 MSTORE POP POP JUMP JUMPDEST PUSH0 PUSH2 0x715 DUP4 DUP4 PUSH2 0x6FB JUMP JUMPDEST PUSH1 0x20 DUP4 ADD SWAP1 POP SWAP3 SWAP2 POP POP JUMP JUMPDEST PUSH2 0x72A DUP2 PUSH2 0x50E JUMP JUMPDEST PUSH2 0x734 DUP2 DUP5 PUSH2 0x6F1 JUMP JUMPDEST SWAP3 POP PUSH2 0x73F DUP3 PUSH2 0x522 JUMP JUMPDEST DUP1 PUSH0 JUMPDEST DUP4 DUP2 LT ISZERO PUSH2 0x776 JUMPI PUSH2 0x753 DUP3 PUSH2 0x57E JUMP JUMPDEST PUSH2 0x75D DUP8 DUP3 PUSH2 0x70A JUMP JUMPDEST SWAP7 POP PUSH2 0x768 DUP4 PUSH2 0x590 JUMP JUMPDEST SWAP3 POP POP PUSH1 0x1 DUP2 ADD SWAP1 POP PUSH2 0x742 JUMP JUMPDEST POP POP POP POP POP POP JUMP JUMPDEST PUSH0 PUSH1 0xA0 DUP3 ADD SWAP1 POP PUSH2 0x791 PUSH0 DUP4 ADD DUP8 PUSH2 0x642 JUMP JUMPDEST PUSH2 0x79E PUSH1 0x20 DUP4 ADD DUP7 PUSH2 0x651 JUMP JUMPDEST DUP2 DUP2 SUB PUSH1 0x40 DUP4 ADD MSTORE PUSH2 0x7B0 DUP2 DUP6 PUSH2 0x670 JUMP JUMPDEST SWAP1 POP PUSH2 0x7BF PUSH1 0x60 DUP4 ADD DUP5 PUSH2 0x721 JUMP JUMPDEST SWAP6 SWAP5 POP POP POP POP POP JUMP INVALID LOG2 PUSH5 0x6970667358 0x22 SLT KECCAK256 MSIZE PUSH31 0x511D0FF7275607406F2382DD4FA3A581A0EA7A554E05EB036A457BD06E9B64 PUSH20 0x6F6C634300081A00330000000000000000000000 "
		},
		"gasEstimates": {
			"creation": {
				"codeDepositCost": "409200",
				"executionCost": "infinite",
				"totalCost": "infinite"
			},
			"external": {
				"encode()": "infinite",
				"encodePacked()": "infinite",
				"encodeWithSelector()": "infinite",
				"encodeWithSignature()": "infinite"
			}
		},
		"methodIdentifiers": {
			"encode()": "bd14598f",
			"encodePacked()": "53d9c506",
			"encodeWithSelector()": "d1bd363d",
			"encodeWithSignature()": "e4f2a84a"
		}
	},
	"abi": [
		{
			"inputs": [],
			"name": "encode",
			"outputs": [
				{
					"internalType": "bytes",
					"name": "result",
					"type": "bytes"
				}
			],
			"stateMutability": "view",
			"type": "function"
		},
		{
			"inputs": [],
			"name": "encodePacked",
			"outputs": [
				{
					"internalType": "bytes",
					"name": "result",
					"type": "bytes"
				}
			],
			"stateMutability": "view",
			"type": "function"
		},
		{
			"inputs": [],
			"name": "encodeWithSelector",
			"outputs": [
				{
					"internalType": "bytes",
					"name": "result",
					"type": "bytes"
				}
			],
			"stateMutability": "view",
			"type": "function"
		},
		{
			"inputs": [],
			"name": "encodeWithSignature",
			"outputs": [
				{
					"internalType": "bytes",
					"name": "result",
					"type": "bytes"
				}
			],
			"stateMutability": "view",
			"type": "function"
		}
	]
}