{
	"data": {
		"bytecode": {
			"linkReferences": {},
			"object": "608060405260055f55600a6001556014600255348015601c575f80fd5b506105848061002a5f395ff3fe608060405234801561000f575f80fd5b50600436106100a7575f3560e01c80633e25bcda1161006f5780633e25bcda1461011a5780634018d9aa14610124578063572e47ae146101405780639033faad1461014a578063a4ece52c14610166578063b92a50e014610170576100a7565b80630c55699c146100ab5780631c8aca3b146100c95780632778c334146100d35780632f135d0c146100f2578063370ea14214610110575b5f80fd5b6100b361017a565b6040516100c0919061032f565b60405180910390f35b6100d161017f565b005b6100db6101b6565b6040516100e9929190610348565b60405180910390f35b6100fa6101c5565b604051610107919061032f565b60405180910390f35b6101186101ce565b005b610122610205565b005b61013e6004803603810190610139919061039d565b61023c565b005b610148610245565b005b610164600480360381019061015f91906103c8565b61024f565b005b61016e610260565b005b610178610297565b005b5f5481565b7fcf34ef537ac33ee1ac626ca1587a0a7e8e51561e5514f8cb36afa1c5102b3bab6040516101ac90610460565b60405180910390a1565b5f805f54600154915091509091565b5f600254905090565b7fcf34ef537ac33ee1ac626ca1587a0a7e8e51561e5514f8cb36afa1c5102b3bab6040516101fb906104c8565b60405180910390a1565b7fcf34ef537ac33ee1ac626ca1587a0a7e8e51561e5514f8cb36afa1c5102b3bab60405161023290610530565b60405180910390a1565b805f8190555050565b61024d6102a9565b565b815f81905550806001819055505050565b7fcf34ef537ac33ee1ac626ca1587a0a7e8e51561e5514f8cb36afa1c5102b3bab60405161028d906104c8565b60405180910390a1565b61029f6102e0565b6102a76102a9565b565b7fcf34ef537ac33ee1ac626ca1587a0a7e8e51561e5514f8cb36afa1c5102b3bab6040516102d690610530565b60405180910390a1565b7fcf34ef537ac33ee1ac626ca1587a0a7e8e51561e5514f8cb36afa1c5102b3bab60405161030d90610460565b60405180910390a1565b5f819050919050565b61032981610317565b82525050565b5f6020820190506103425f830184610320565b92915050565b5f60408201905061035b5f830185610320565b6103686020830184610320565b9392505050565b5f80fd5b61037c81610317565b8114610386575f80fd5b50565b5f8135905061039781610373565b92915050565b5f602082840312156103b2576103b161036f565b5b5f6103bf84828501610389565b91505092915050565b5f80604083850312156103de576103dd61036f565b5b5f6103eb85828601610389565b92505060206103fc85828601610389565b9150509250929050565b5f82825260208201905092915050565b7f46617468657200000000000000000000000000000000000000000000000000005f82015250565b5f61044a600683610406565b915061045582610416565b602082019050919050565b5f6020820190508181035f8301526104778161043e565b9050919050565b7f536f6e00000000000000000000000000000000000000000000000000000000005f82015250565b5f6104b2600383610406565b91506104bd8261047e565b602082019050919050565b5f6020820190508181035f8301526104df816104a6565b9050919050565b7f4772616e646661746865720000000000000000000000000000000000000000005f82015250565b5f61051a600b83610406565b9150610525826104e6565b602082019050919050565b5f6020820190508181035f8301526105478161050e565b905091905056fea2646970667358221220eb5cbd7bcd06dc735a6dfc2ec3cce601533e320096e8a17a593efb5e3c9201ce64736f6c634300081a0033",
			"opcodes": "PUSH1 0x80 PUSH1 0x40 MSTORE PUSH1 0x5 PUSH0 SSTORE PUSH1 0xA PUSH1 0x1 SSTORE PUSH1 0x14 PUSH1 0x2 SSTORE CALLVALUE DUP1 ISZERO PUSH1 0x1C JUMPI PUSH0 DUP1 REVERT JUMPDEST POP PUSH2 0x584 DUP1 PUSH2 0x2A PUSH0 CODECOPY PUSH0 RETURN INVALID PUSH1 0x80 PUSH1 0x40 MSTORE CALLVALUE DUP1 ISZERO PUSH2 0xF JUMPI PUSH0 DUP1 REVERT JUMPDEST POP PUSH1 0x4 CALLDATASIZE LT PUSH2 0xA7 JUMPI PUSH0 CALLDATALOAD PUSH1 0xE0 SHR DUP1 PUSH4 0x3E25BCDA GT PUSH2 0x6F JUMPI DUP1 PUSH4 0x3E25BCDA EQ PUSH2 0x11A JUMPI DUP1 PUSH4 0x4018D9AA EQ PUSH2 0x124 JUMPI DUP1 PUSH4 0x572E47AE EQ PUSH2 0x140 JUMPI DUP1 PUSH4 0x9033FAAD EQ PUSH2 0x14A JUMPI DUP1 PUSH4 0xA4ECE52C EQ PUSH2 0x166 JUMPI DUP1 PUSH4 0xB92A50E0 EQ PUSH2 0x170 JUMPI PUSH2 0xA7 JUMP JUMPDEST DUP1 PUSH4 0xC55699C EQ PUSH2 0xAB JUMPI DUP1 PUSH4 0x1C8ACA3B EQ PUSH2 0xC9 JUMPI DUP1 PUSH4 0x2778C334 EQ PUSH2 0xD3 JUMPI DUP1 PUSH4 0x2F135D0C EQ PUSH2 0xF2 JUMPI DUP1 PUSH4 0x370EA142 EQ PUSH2 0x110 JUMPI JUMPDEST PUSH0 DUP1 REVERT JUMPDEST PUSH2 0xB3 PUSH2 0x17A JUMP JUMPDEST PUSH1 0x40 MLOAD PUSH2 0xC0 SWAP2 SWAP1 PUSH2 0x32F JUMP JUMPDEST PUSH1 0x40 MLOAD DUP1 SWAP2 SUB SWAP1 RETURN JUMPDEST PUSH2 0xD1 PUSH2 0x17F JUMP JUMPDEST STOP JUMPDEST PUSH2 0xDB PUSH2 0x1B6 JUMP JUMPDEST PUSH1 0x40 MLOAD PUSH2 0xE9 SWAP3 SWAP2 SWAP1 PUSH2 0x348 JUMP JUMPDEST PUSH1 0x40 MLOAD DUP1 SWAP2 SUB SWAP1 RETURN JUMPDEST PUSH2 0xFA PUSH2 0x1C5 JUMP JUMPDEST PUSH1 0x40 MLOAD PUSH2 0x107 SWAP2 SWAP1 PUSH2 0x32F JUMP JUMPDEST PUSH1 0x40 MLOAD DUP1 SWAP2 SUB SWAP1 RETURN JUMPDEST PUSH2 0x118 PUSH2 0x1CE JUMP JUMPDEST STOP JUMPDEST PUSH2 0x122 PUSH2 0x205 JUMP JUMPDEST STOP JUMPDEST PUSH2 0x13E PUSH1 0x4 DUP1 CALLDATASIZE SUB DUP2 ADD SWAP1 PUSH2 0x139 SWAP2 SWAP1 PUSH2 0x39D JUMP JUMPDEST PUSH2 0x23C JUMP JUMPDEST STOP JUMPDEST PUSH2 0x148 PUSH2 0x245 JUMP JUMPDEST STOP JUMPDEST PUSH2 0x164 PUSH1 0x4 DUP1 CALLDATASIZE SUB DUP2 ADD SWAP1 PUSH2 0x15F SWAP2 SWAP1 PUSH2 0x3C8 JUMP JUMPDEST PUSH2 0x24F JUMP JUMPDEST STOP JUMPDEST PUSH2 0x16E PUSH2 0x260 JUMP JUMPDEST STOP JUMPDEST PUSH2 0x178 PUSH2 0x297 JUMP JUMPDEST STOP JUMPDEST PUSH0 SLOAD DUP2 JUMP JUMPDEST PUSH32 0xCF34EF537AC33EE1AC626CA1587A0A7E8E51561E5514F8CB36AFA1C5102B3BAB PUSH1 0x40 MLOAD PUSH2 0x1AC SWAP1 PUSH2 0x460 JUMP JUMPDEST PUSH1 0x40 MLOAD DUP1 SWAP2 SUB SWAP1 LOG1 JUMP JUMPDEST PUSH0 DUP1 PUSH0 SLOAD PUSH1 0x1 SLOAD SWAP2 POP SWAP2 POP SWAP1 SWAP2 JUMP JUMPDEST PUSH0 PUSH1 0x2 SLOAD SWAP1 POP SWAP1 JUMP JUMPDEST PUSH32 0xCF34EF537AC33EE1AC626CA1587A0A7E8E51561E5514F8CB36AFA1C5102B3BAB PUSH1 0x40 MLOAD PUSH2 0x1FB SWAP1 PUSH2 0x4C8 JUMP JUMPDEST PUSH1 0x40 MLOAD DUP1 SWAP2 SUB SWAP1 LOG1 JUMP JUMPDEST PUSH32 0xCF34EF537AC33EE1AC626CA1587A0A7E8E51561E5514F8CB36AFA1C5102B3BAB PUSH1 0x40 MLOAD PUSH2 0x232 SWAP1 PUSH2 0x530 JUMP JUMPDEST PUSH1 0x40 MLOAD DUP1 SWAP2 SUB SWAP1 LOG1 JUMP JUMPDEST DUP1 PUSH0 DUP2 SWAP1 SSTORE POP POP JUMP JUMPDEST PUSH2 0x24D PUSH2 0x2A9 JUMP JUMPDEST JUMP JUMPDEST DUP2 PUSH0 DUP2 SWAP1 SSTORE POP DUP1 PUSH1 0x1 DUP2 SWAP1 SSTORE POP POP POP JUMP JUMPDEST PUSH32 0xCF34EF537AC33EE1AC626CA1587A0A7E8E51561E5514F8CB36AFA1C5102B3BAB PUSH1 0x40 MLOAD PUSH2 0x28D SWAP1 PUSH2 0x4C8 JUMP JUMPDEST PUSH1 0x40 MLOAD DUP1 SWAP2 SUB SWAP1 LOG1 JUMP JUMPDEST PUSH2 0x29F PUSH2 0x2E0 JUMP JUMPDEST PUSH2 0x2A7 PUSH2 0x2A9 JUMP JUMPDEST JUMP JUMPDEST PUSH32 0xCF34EF537AC33EE1AC626CA1587A0A7E8E51561E5514F8CB36AFA1C5102B3BAB PUSH1 0x40 MLOAD PUSH2 0x2D6 SWAP1 PUSH2 0x530 JUMP JUMPDEST PUSH1 0x40 MLOAD DUP1 SWAP2 SUB SWAP1 LOG1 JUMP JUMPDEST PUSH32 0xCF34EF537AC33EE1AC626CA1587A0A7E8E51561E5514F8CB36AFA1C5102B3BAB PUSH1 0x40 MLOAD PUSH2 0x30D SWAP1 PUSH2 0x460 JUMP JUMPDEST PUSH1 0x40 MLOAD DUP1 SWAP2 SUB SWAP1 LOG1 JUMP JUMPDEST PUSH0 DUP2 SWAP1 POP SWAP2 SWAP1 POP JUMP JUMPDEST PUSH2 0x329 DUP2 PUSH2 0x317 JUMP JUMPDEST DUP3 MSTORE POP POP JUMP JUMPDEST PUSH0 PUSH1 0x20 DUP3 ADD SWAP1 POP PUSH2 0x342 PUSH0 DUP4 ADD DUP5 PUSH2 0x320 JUMP JUMPDEST SWAP3 SWAP2 POP POP JUMP JUMPDEST PUSH0 PUSH1 0x40 DUP3 ADD SWAP1 POP PUSH2 0x35B PUSH0 DUP4 ADD DUP6 PUSH2 0x320 JUMP JUMPDEST PUSH2 0x368 PUSH1 0x20 DUP4 ADD DUP5 PUSH2 0x320 JUMP JUMPDEST SWAP4 SWAP3 POP POP POP JUMP JUMPDEST PUSH0 DUP1 REVERT JUMPDEST PUSH2 0x37C DUP2 PUSH2 0x317 JUMP JUMPDEST DUP2 EQ PUSH2 0x386 JUMPI PUSH0 DUP1 REVERT JUMPDEST POP JUMP JUMPDEST PUSH0 DUP2 CALLDATALOAD SWAP1 POP PUSH2 0x397 DUP2 PUSH2 0x373 JUMP JUMPDEST SWAP3 SWAP2 POP POP JUMP JUMPDEST PUSH0 PUSH1 0x20 DUP3 DUP5 SUB SLT ISZERO PUSH2 0x3B2 JUMPI PUSH2 0x3B1 PUSH2 0x36F JUMP JUMPDEST JUMPDEST PUSH0 PUSH2 0x3BF DUP5 DUP3 DUP6 ADD PUSH2 0x389 JUMP JUMPDEST SWAP2 POP POP SWAP3 SWAP2 POP POP JUMP JUMPDEST PUSH0 DUP1 PUSH1 0x40 DUP4 DUP6 SUB SLT ISZERO PUSH2 0x3DE JUMPI PUSH2 0x3DD PUSH2 0x36F JUMP JUMPDEST JUMPDEST PUSH0 PUSH2 0x3EB DUP6 DUP3 DUP7 ADD PUSH2 0x389 JUMP JUMPDEST SWAP3 POP POP PUSH1 0x20 PUSH2 0x3FC DUP6 DUP3 DUP7 ADD PUSH2 0x389 JUMP JUMPDEST SWAP2 POP POP SWAP3 POP SWAP3 SWAP1 POP JUMP JUMPDEST PUSH0 DUP3 DUP3 MSTORE PUSH1 0x20 DUP3 ADD SWAP1 POP SWAP3 SWAP2 POP POP JUMP JUMPDEST PUSH32 0x4661746865720000000000000000000000000000000000000000000000000000 PUSH0 DUP3 ADD MSTORE POP JUMP JUMPDEST PUSH0 PUSH2 0x44A PUSH1 0x6 DUP4 PUSH2 0x406 JUMP JUMPDEST SWAP2 POP PUSH2 0x455 DUP3 PUSH2 0x416 JUMP JUMPDEST PUSH1 0x20 DUP3 ADD SWAP1 POP SWAP2 SWAP1 POP JUMP JUMPDEST PUSH0 PUSH1 0x20 DUP3 ADD SWAP1 POP DUP2 DUP2 SUB PUSH0 DUP4 ADD MSTORE PUSH2 0x477 DUP2 PUSH2 0x43E JUMP JUMPDEST SWAP1 POP SWAP2 SWAP1 POP JUMP JUMPDEST PUSH32 0x536F6E0000000000000000000000000000000000000000000000000000000000 PUSH0 DUP3 ADD MSTORE POP JUMP JUMPDEST PUSH0 PUSH2 0x4B2 PUSH1 0x3 DUP4 PUSH2 0x406 JUMP JUMPDEST SWAP2 POP PUSH2 0x4BD DUP3 PUSH2 0x47E JUMP JUMPDEST PUSH1 0x20 DUP3 ADD SWAP1 POP SWAP2 SWAP1 POP JUMP JUMPDEST PUSH0 PUSH1 0x20 DUP3 ADD SWAP1 POP DUP2 DUP2 SUB PUSH0 DUP4 ADD MSTORE PUSH2 0x4DF DUP2 PUSH2 0x4A6 JUMP JUMPDEST SWAP1 POP SWAP2 SWAP1 POP JUMP JUMPDEST PUSH32 0x4772616E64666174686572000000000000000000000000000000000000000000 PUSH0 DUP3 ADD MSTORE POP JUMP JUMPDEST PUSH0 PUSH2 0x51A PUSH1 0xB DUP4 PUSH2 0x406 JUMP JUMPDEST SWAP2 POP PUSH2 0x525 DUP3 PUSH2 0x4E6 JUMP JUMPDEST PUSH1 0x20 DUP3 ADD SWAP1 POP SWAP2 SWAP1 POP JUMP JUMPDEST PUSH0 PUSH1 0x20 DUP3 ADD SWAP1 POP DUP2 DUP2 SUB PUSH0 DUP4 ADD MSTORE PUSH2 0x547 DUP2 PUSH2 0x50E JUMP JUMPDEST SWAP1 POP SWAP2 SWAP1 POP JUMP INVALID LOG2 PUSH5 0x6970667358 0x22 SLT KECCAK256 0xEB TLOAD 0xBD PUSH28 0xCD06DC735A6DFC2EC3CCE601533E320096E8A17A593EFB5E3C9201CE PUSH5 0x736F6C6343 STOP ADDMOD BYTE STOP CALLER "
		},
		"gasEstimates": {
			"creation": {
				"codeDepositCost": "282400",
				"executionCost": "66639",
				"totalCost": "349039"
			},
			"external": {
				"callParent()": "2008",
				"callParentSuper()": "infinite",
				"changeState(uint256,uint256)": "infinite",
				"father()": "1963",
				"getZ()": "2499",
				"grandfather()": "1940",
				"hip()": "2029",
				"pop()": "2028",
				"readState()": "infinite",
				"setX(uint256)": "22536",
				"x()": "2425"
			}
		},
		"methodIdentifiers": {
			"callParent()": "572e47ae",
			"callParentSuper()": "b92a50e0",
			"changeState(uint256,uint256)": "9033faad",
			"father()": "1c8aca3b",
			"getZ()": "2f135d0c",
			"grandfather()": "3e25bcda",
			"hip()": "370ea142",
			"pop()": "a4ece52c",
			"readState()": "2778c334",
			"setX(uint256)": "4018d9aa",
			"x()": "0c55699c"
		}
	},
	"abi": [
		{
			"anonymous": false,
			"inputs": [
				{
					"indexed": false,
					"internalType": "string",
					"name": "msg",
					"type": "string"
				}
			],
			"name": "Log",
			"type": "event"
		},
		{
			"inputs": [],
			"name": "callParent",
			"outputs": [],
			"stateMutability": "nonpayable",
			"type": "function"
		},
		{
			"inputs": [],
			"name": "callParentSuper",
			"outputs": [],
			"stateMutability": "nonpayable",
			"type": "function"
		},
		{
			"inputs": [
				{
					"internalType": "uint256",
					"name": "_x",
					"type": "uint256"
				},
				{
					"internalType": "uint256",
					"name": "_y",
					"type": "uint256"
				}
			],
			"name": "changeState",
			"outputs": [],
			"stateMutability": "nonpayable",
			"type": "function"
		},
		{
			"inputs": [],
			"name": "father",
			"outputs": [],
			"stateMutability": "nonpayable",
			"type": "function"
		},
		{
			"inputs": [],
			"name": "getZ",
			"outputs": [
				{
					"internalType": "uint256",
					"name": "",
					"type": "uint256"
				}
			],
			"stateMutability": "view",
			"type": "function"
		},
		{
			"inputs": [],
			"name": "grandfather",
			"outputs": [],
			"stateMutability": "nonpayable",
			"type": "function"
		},
		{
			"inputs": [],
			"name": "hip",
			"outputs": [],
			"stateMutability": "nonpayable",
			"type": "function"
		},
		{
			"inputs": [],
			"name": "pop",
			"outputs": [],
			"stateMutability": "nonpayable",
			"type": "function"
		},
		{
			"inputs": [],
			"name": "readState",
			"outputs": [
				{
					"internalType": "uint256",
					"name": "",
					"type": "uint256"
				},
				{
					"internalType": "uint256",
					"name": "",
					"type": "uint256"
				}
			],
			"stateMutability": "view",
			"type": "function"
		},
		{
			"inputs": [
				{
					"internalType": "uint256",
					"name": "_x",
					"type": "uint256"
				}
			],
			"name": "setX",
			"outputs": [],
			"stateMutability": "nonpayable",
			"type": "function"
		},
		{
			"inputs": [],
			"name": "x",
			"outputs": [
				{
					"internalType": "uint256",
					"name": "",
					"type": "uint256"
				}
			],
			"stateMutability": "view",
			"type": "function"
		}
	]
}